:020000040800F2
:10000000581A0020E1540008F9010008FB0100081B
:10001000FF010008030200080702000800000000BA
:100020000000000000000000000000000B020008BB
:100030000D020008000000000F0200081102000875
:10004000FB540008FB540008FB540008BF190008CB
:10005000FB540008FB540008FB540008FB54000844
:10006000FB540008FB540008FB540008FB54000834
:10007000FB540008FB540008FB540008FB54000824
:10008000FB540008FB540008FB540008FB54000814
:10009000FB540008FB540008FB540008FB54000804
:1000A000FB540008FB540008FB540008FB540008F4
:1000B00019020008FB540008FB540008FB54000818
:1000C000FB540008FB540008FB540008FB540008D4
:1000D000FB5400087B520008FB540008FB54000846
:1000E000FB540008FB540008FB54000800F002F821
:1000F00000F048F80AA090E8000C82448344AAF17A
:100100000107DA4501D100F03DF8AFF2090EBAE877
:100110000F0013F0010F18BFFB1A43F0010318473B
:10012000D86C0000F86C0000103A24BF78C878C181
:10013000FAD8520724BF30C830C144BF04680C60ED
:10014000704700000023002400250026103A28BF35
:1001500078C1FBD8520728BF30C148BF0B60704739
:10016000642905F02982002070471FB505F07CFF47
:1001700004000020002105F0C3FF401C60601FBD8B
:1001800010B510BD05F038FF1146FFF7EEFF00F087
:1001900009F805F05FFF03B4FFF7F2FF03BC05F0B9
:1001A0000FF800004FF4A06003F012F904F08BFF89
:1001B00002F0AEFE0121084603F0F4FC01210C48D8
:1001C00003F0A3FA01F064F902F063FB01F097FB7E
:1001D00000F080FE4FF4167004F0A3FF00200549E4
:1001E0000870402102F0E0F901E001F0E6F8FCE7D8
:1001F0000002300000000020704700BFFEE700BF93
:10020000FEE700BFFEE700BFFEE77047704770479C
:1002100010B504F0ACFF10BD10B50121880704F043
:10022000D5FC10BD2DE9F04707468846154699468E
:10023000089EB8F1000F06D0B8F1010F09D0B8F14F
:10024000020F2DD119E03A464946284601F066FFD3
:1002500027E0384605F050FB00EB40004006040E56
:10026000A64203DD301BC0F3470400E00024281938
:100270003A46494601F052FF13E0384605F03CFB90
:1002800000EB40004006040EA64202DD301BC4B263
:1002900000E0002428193A46494601F03FFF00E0FB
:1002A00000BF00BFBDE8F08710B5044622463421E8
:1002B000062001F033FF10BD10B50446224634215C
:1002C000002001F02BFF10BD38B50446802000232C
:1002D0001A46012100902046FFF7A4FF38BDF8B56B
:1002E00005460F4614461E46012366223321182078
:1002F00001F0ABFC01233F223321182001F008FD5F
:1003000001233F223321662001F002FD287838B115
:100310004A2034231B22394600902846FFF782FFEB
:10032000207838B14A2034231B22314600902046E1
:10033000FFF778FFF8BD2DE9F04106460F46154658
:100340001C4601232A463946304601F07EFC012333
:100350002A462146304601F078FC012322463946E0
:10036000304601F0D5FC012322463946284601F0EB
:10037000CFFCBDE8F08100200DE0F9494978C1EBE0
:10038000C10101EB4102F6490E311144095C01B98A
:1003900003E0411CC8B21428EFDB00BF7047F8B57A
:1003A0000446FFF7E8FF00EB40004006050E0CB1E5
:1003B000012000E00020EA4E00907778B61C06EBA2
:1003C000470676780A36F3B2E54E7778B61C16F80B
:1003D00017602E44F2B2E24E7778B61C06EB470661
:1003E0007678761CF1B2DE4E7778B61C16F8176078
:1003F0002E44F0B201F0DEFDD9494A78891C01EBA8
:1004000042014978491CC8B20A2102F0CDF8F8BD72
:1004100010B5D448007808B9012000E00020D14987
:10042000087008460078FFF7BAFF10BD2DE9F041CB
:1004300004460F4615461E466221C94805F0C8FA13
:10044000C7488472C77205734673BDE8F08110B562
:10045000C34841780078401E814207DA0020FFF748
:100460009EFFBF484078401CBD49487010BD10B584
:10047000BB484078002807DD0020FFF790FFB84810
:100480004078401EB649487010BD2DE9F04186B055
:1004900005460E4617464FF00008002426E0B048F7
:1004A00041780A30405CA0421DDDAD484078C0EB89
:1004B000C00000EB4001AA480E300844005D98B926
:1004C000B0450FDA4046411C01F0FF08295CA44802
:1004D0004078C0EBC00000EB4002A1480E30104451
:1004E000015501E004E003E0601CC4B2142CD6DB2B
:1004F00000BF00219A484078C0EBC00000EB4002EA
:1005000097480E3010440155CFB9954B5B78C3EB3B
:10051000C30303EB430C924B0E330CEB03020E3B75
:1005200093F801C09B1C03EB4C0359788C4B93F858
:1005300001C09B1C13F81C0001F0F0FD1AE0884874
:1005400042780A30815C2A22684605F039FAFFF7C2
:1005500012FF00220DF80020814A5378921C02EB12
:10056000430251787E4A5378921C12F813006A466F
:1005700001F0D4FD7A494A78891C01EB42014878A0
:100580000C2102F011F806B0BDE8F08108B500209A
:100590000090FFF7F0FE00280CDD71494978C1EBAF
:1005A000C10101EB41026E490E3150186A466EA13D
:1005B00005F0DCF8009808BD69484078C0EBC00041
:1005C00000EB400166480E3008447047F0B587B034
:1005D00004460D4600BF62494978C1EBC10101EBF9
:1005E00041025F490E31501805F086F9C6B2A642A5
:1005F00073DB0020FFF7D3FE0DE000215848407860
:10060000C0EBC00000EB400255480E300244701EA3
:10061000C0B2064611542000A4F10101CCB2ECD1C5
:100620004F4842780A30815C202201A805F0C8F9C1
:1006300000214B4842780A30805C01AA1154484A94
:100640005378921C02EB43025178454A5378921C2E
:1006500012F8130001AA01F061FDB5B9404B5B78B7
:10066000C3EBC30303EB43073D4B0E33FA180E3BBA
:100670005F789B1C03EB47035978394B5F789B1CD1
:1006800013F8170001F04AFD1AE0354842780A30A5
:10069000815C2A2201A805F093F9FFF76CFE01A9FD
:1006A00000220A542E4A5378921C02EB43025178DE
:1006B0002B4A5378921C12F8130001AA01F02EFD68
:1006C00027494A78891C01EB420148780C2101F046
:1006D0006BFF012007B0F0BDFFE70020FAE72DE92E
:1006E000F84F80460E4614469946404605F004F9F8
:1006F00000F0FF0A0AF1010000EB400006EB4000A9
:10070000C5B27F2D00DD002509EB0500C7B27F2FA4
:1007100000DD7F270120009004F10C00C3B2601EB1
:10072000C1B23A46284601F000FC42462146304616
:1007300001F0F4FCA81CC1B209480278801C00F842
:100740001210801E0178801C00EB410044700448A8
:100750000078401C0249087000204870BDE8F88FFE
:10076000B000002002000020256C640010B5FD4898
:10077000FD490268FD4805F0DEF84021002001F047
:1007800013FF10BD10B5F748F8490268F64805F0A8
:10079000D2F810BD10B50446012C11D101F056FE5F
:1007A000F3A20021032001F0B9FCF3A20D210020E7
:1007B00001F0B4FCF3A21A21002001F0AFFC00E02C
:1007C00000BF00BF4021002001F0EEFE10BD10B5BB
:1007D0008EB0044601F03AFE0E2C7DD2DFE804F024
:1007E000070D13333F4A5A658797A2ADC8CEE7A2DB
:1007F0001A21032001F092FCC7E0E7A20D2100209E
:1008000001F08CFCC1E0E9A20021084601F086FC61
:10081000EB480278EBA101A804F090FE01AA0D219B
:10082000002001F07BFCEAA21A21002001F076FCF6
:10083000E9A22721002001F071FCEAA23421002066
:1008400001F06CFCA1E0DE480278E9A101A804F007
:1008500075FE01AA1A21002001F060FC95E0E8A2D3
:100860000D21002001F05AFCE8A21A21002001F01D
:1008700055FC8AE0E8A20D21002001F04FFCD4A233
:100880001A21002001F04AFCD6A23421002001F0F8
:1008900045FC7AE0E3A20D21002001F03FFCE4A238
:1008A0001A21002001F03AFC6FE0E5A20021084681
:1008B00001F034FCC2480278C2A101A804F03EFE57
:1008C00001AA0D21002001F029FCC1A21A2100205B
:1008D00001F024FCC0A200E056E02721002001F036
:1008E0001DFCC0A23421002001F018FC4DE0D6A26E
:1008F0000021084601F012FCD7A21A21002001F0C5
:100900000DFCB8A23421002001F008FC3DE0D4A287
:100910000D21002001F002FCC5A21A21002001F0E7
:10092000FDFB32E0D1A20D21012001F0F7FBD2A2A4
:100930001A21012001F0F2FB27E0D2A20021084693
:1009400001F0ECFB9E4802789EA101A804F0F6FDA0
:1009500001AA0D21002001F0E1FB9DA21A21002037
:1009600001F0DCFB9FA23421002001F0D7FB0CE05A
:10097000C6A20D21002001F0D1FB06E0C6A20D2188
:10098000002001F0CBFB00E000BF00BF40210020B1
:1009900001F00AFE0EB010BD3EB5044642F2481505
:1009A0002A46C0A1684604F0C9FD01F04FFD102C95
:1009B00069D2DFE804F0080E141A20262C32383EE3
:1009C000444A50565C62B8A20D21002001F0A6FBFB
:1009D0005AE06A460D21002001F0A0FB54E0B4A2C9
:1009E0000D21002001F09AFB4EE0B4A20D21002061
:1009F00001F094FB48E0B4A20D21002001F08EFB31
:100A000042E0B4A20D21002001F088FB3CE0B4A23A
:100A10000D21002001F082FB36E0B4A20D21002060
:100A200001F07CFB30E0B4A20D21002001F076FB48
:100A30002AE0B4A20D21002001F070FB24E0B4A252
:100A40000D21002001F06AFB1EE0B4A20D21002060
:100A500001F064FB18E0B4A20D21002001F05EFB60
:100A600012E0B4A20D21002001F058FB0CE0B4A26A
:100A70000D21002001F052FB06E0B5A20D2100205F
:100A800001F04CFB00E000BF00BF4021002001F05E
:100A90008BFD3EBD10B501F0D9FCB1A20021084686
:100AA00001F03CFB4021002001F07EFD10BD38B577
:100AB000044614B1012C54D12EE001F0C7FC0023F0
:100AC000032211461046FFF7B1FC2623042212210F
:100AD000A8A0FFF704FE262313221221A8A0FFF7E7
:100AE000FEFD262322221221A8A0FFF7F8FD0023F5
:100AF00020A20121A8A0FFF7F2FBAAA0FFF7DCFBD0
:100B0000AAA0FFF7D1FB01203023782201460090F4
:100B1000082001F00AFA6BE101F098FC002305229D
:100B200011461046FFF782FC262304221221A1A0C1
:100B3000FFF7D5FD262313221221A1A0FFF7CFFD39
:100B4000262322221221A1A0FFF7C9FD002309A21A
:100B5000012191A0FFF7C3FB92A0FFF7ADFB93A08B
:100B60003AE144E11C0000201C0F00201C0B002077
:100B7000B4E6B0FC00000000CAE4C8EBCFE4BAC59C
:100B800000000000CFE4BAC53A000000C7EBC9D4AA
:100B9000B5C82E2E2E000000C9E8B1B8B3F5CABC06
:100BA000BBAFCAA7B0DCA3A100000000D6B1BDD383
:100BB000C8B7C8CFD4F2CEDEC3DCC2EB0000000061
:100BC00071000020CFE420BAC53A2564000000007F
:100BD000C3DC20C2EB3A0000C3DCC2EBC8B7C8CF0D
:100BE0003A000000202020202020C8B7C8CF0000F5
:100BF000202564BAC5CFE4D7D3D2D1B4F2BFAA00BE
:100C000020C3DCC2EBB2BBD2BBD6C2002020D6D8F8
:100C1000D0C2CAE4C8EB0000C7EBCAE4C8EBC3DC2F
:100C2000C2EB0000CBA2BFA8D2ECB3A3000000002F
:100C3000C7EBC1AACFB5B9DCC0EDD4B1000000004C
:100C4000202020B4E6B0FC002020C7EBCAE4C8EBAB
:100C5000CFE4BAC50000000020CFE4BAC53A0000D6
:100C6000CFE4BAC5D2ECB3A300000000B4CBCFE40C
:100C7000D0E8CBA2BFA80000C7EBCBA2BFA8BFAAF9
:100C8000CFE40000202020C8A1B0FC00B4CBCFE40A
:100C9000CEAABFD500000000CFE4BAC5B2BBB4E60F
:100CA000D4DA0000256420003031323334000000F3
:100CB00032BCFCB1BBB0B4CFC200000033BCFCB14D
:100CC000BBB0B4CFC200000034BCFCB1BBB0B4CFE9
:100CD000C200000035BCFCB1BBB0B4CFC200000004
:100CE00036BCFCB1BBB0B4CFC200000037BCFCB115
:100CF000BBB0B4CFC200000038BCFCB1BBB0B4CFB5
:100D0000C200000039BCFCB1BBB0B4CFC2000000CF
:100D1000494EBCFCB1BBB0B4CFC200004F5554BC6F
:100D2000FCB1BBB0B4CFC200535953BCFCB1BBB093
:100D3000B4CFC2004B4559BCFCB1BBB0B4CFC2006C
:100D40004241434BBCFCB1BBB0B4CFC20000000079
:100D500053555245BCFCB1BBB0B4CFC2000000003B
:100D6000312EB4A2CEEFB9F1322EC0EED1C7B6AB60
:100D700000000000C6F0CABCC0D7B9DC000000000B
:100D8000BDD8D6B9C0D7B9DC00000000BFD7C4DADF
:100D9000C0D7B9DC00000000B0B4A84CC8B7C8CFB9
:100DA00000000000B7B5BBD800000000BBD8C9BE2A
:100DB00000000000C6F0CABCD1D3C6DA00000000B3
:100DC000BFD7BCE4D1D3C6DA00000000BFD7C4DA75
:100DD000D1D3C6DA00000000FFF766FA0120302305
:100DE000782201460090082001F09FF800E000BF43
:100DF00000BF4021002001F0D7FB38BD38B50446C4
:100E000001F024FB0120302378220E2100900820DD
:100E100001F08BF8092C37D2DFE804F005060C123C
:100E2000181E242A300030E080A21A21112001F07F
:100E300075F92AE082A21A21084601F06FF924E030
:100E400083A21A21084601F069F91EE084A21A2142
:100E5000084601F063F918E085A21A21202001F06C
:100E60005DF912E085A21A21202001F057F90CE06B
:100E700085A21A21084601F051F906E086A21A213E
:100E8000084601F04BF900E000BF00BF4021002000
:100E900001F08AFB38BD10B5302001F08BFC01F069
:100EA0007EFF802001F086FC7FA001F03CFE9020B8
:100EB00001F080FC81A001F036FE882001F07AFC70
:100EC00083A001F030FE982001F074FC85A001F0B1
:100ED0002AFE10BD10B501F0B9FA01F0B0FC01F026
:100EE0008AFC85A0FFF7F0F986A23421022001F0E8
:100EF00015F985A0FFF7D8F985A0FFF7DDF94021A6
:100F0000002001F051FB10BD10B5044601F09EFA1F
:100F100081A20021084601F001F981A20D210020E3
:100F200001F0FCF882A21A21002001F0F7F8012C50
:100F300006D0022C0DD0032C14D0042C24D11AE09E
:100F40007FA20D21002001F0E9F806207D490870FC
:100F50001BE07BA21A21002001F0E0F8082079496B
:100F6000087012E076A20D21042001F0D7F80720C6
:100F70007449087009E072A21A21042001F0CEF829
:100F800009207049087000E000BF00BFAFF2EC100C
:100F9000FFF78AF95EA0FFF78FF94021002001F0EA
:100FA00003FB10BD00B589B066480078102839D21F
:100FB000DFE800F008383838383825262728090AAD
:100FC0000B0C0D0E00BF00BF00BF00BF00BF00BF75
:100FD0005D48807800905C48437802785BA101A866
:100FE00004F0ACFA00205D49087001AA3421022007
:100FF00001F094F84021002001F0D6FA13E000BF80
:1010000000BF00BF00236F220821022000F01DFE58
:1010100053A23421032001F081F84021002001F087
:10102000C3FA00BF00BF00BF09B000BDC3DCD4BF1E
:10103000D6D8CAD4B4CECAFDCEAA30210000000052
:10104000C3DCD4BFD2D1BCECB2E2B5BD2E2E2E0093
:10105000BFAACABCBCECB2E2C3DCD4BF2E2E2E00A9
:10106000CEB4BCECB2E2B5BDC3DCD4BF2E2E2E0094
:10107000B3F6CFD6B4EDCEF32E2E2E00C3B6BED926
:10108000B3C9B9A62E2E2E00B4D3BBFAC9E8B1B8A5
:10109000B2E5C8EB2E2E2E00C9E8B1B8CEB4C1AC73
:1010A000BDD32E2E2E0000003120B4E6B0FC20204F
:1010B00020203220C8A1B0FC000000003320D7B4AB
:1010C000CCAC202020203420B9DCC0ED0000000092
:1010D0003520B2E9BFB4202020203620C1D0B1EDA8
:1010E00000000000B7B5BBD8202020202020202001
:1010F000C8B7C8CF00000000B2E9BFB4BCC7C2BCCB
:101100002020000020202000B2CBB5A50000000068
:10111000B2E9BFB400000000CFEEC4BF0000000081
:101120002020B2B8C8E9200909B2B9CBAE0000004E
:101130002020B4F3B1E3200909D0A1B1E3000000FD
:10114000A1CC0000000000201201002025303264F4
:101150003A253032643A2530326400002000002005
:10116000A1FCA1FD00000000F0B58DB004460E46C4
:1011700034B900232246F7A102A804F0DFF9D2E037
:10118000F8480480611E01EB410106EB410188B281
:1011900006220AA902F0F8F8F2480088401EF14938
:1011A00008809DF82C00F0494978401AEF490880E2
:1011B0009DF82B00EC490978401A40B2EB49887041
:1011C0009DF82A00E849C979401A40B2E749C87039
:1011D0009DF82900E4498979401A40B2E349087131
:1011E0009DF82800E0498988401A40B2DF494871DB
:1011F0009DF82900012817D09DF82900032813D055
:101200009DF8290005280FD09DF8290007280BD04C
:101210009DF82900082807D09DF829000A2803D046
:101220009DF829000C2801D11F2512E09DF8290006
:10123000042807D09DF82900062803D09DF829002E
:10124000092801D11E2504E09DF82900022800D1BB
:101250001C25C648B0F9000000280ADAC3480088F7
:101260003C3000B2C149088008468078401E40B238
:101270008870BE4890F9020000280ADABB488078DE
:10128000183040B2B94988700846C078401E40B254
:10129000C870B64890F90300002805DAB348C07852
:1012A000284440B2B149C870B04890F90400002801
:1012B0000ADAAE4800790C3040B2AC4908710846F1
:1012C0004079401E40B24871A84890F905000028B6
:1012D00006DA00232246A6A102A804F02FF922E094
:1012E000A2480079C8B9A148B0F9000000EB80001D
:1012F00040003C2190FBF1F79C48009790F90200D8
:101300009A4991F9031001EB410100EBC103224618
:101310009BA102A804F012F905E0002322469DA13A
:1013200002A804F00BF902AA0021084600F0F6FE1C
:101330004021002001F038F90DB0F0BD10B50221B8
:101340000A2001F0F1FF964908800221142001F0E3
:10135000EBFF9349488002211E2001F0E5FF9049F0
:1013600088800221282001F0DFFF8D49C88010BD50
:1013700010B5FFF7E3FF01F069F88A480078062806
:1013800006D007280DD008280CD009280CD10AE077
:10139000834908886421FFF7E7FE83A0FEF78CFFEE
:1013A00002E000BF00BF00BF00BF81A0FEF77CFFCE
:1013B0004021002001F0F8F810BD10B54FF4804135
:1013C0007D4802F064F908B9012000E0002078B1FE
:1013D0000A2003F0A6FE4FF48041774802F057F947
:1013E00008B9012000E0002010B100F001FC10BDA0
:1013F0004FF48071714802F04AF908B9012000E009
:10140000002078B10A2003F08CFE4FF480716B4805
:1014100002F03DF908B9012000E0002010B100F011
:1014200071FBE4E74FF40051634802F030F908B96A
:10143000012000E0002078B10A2003F072FE4FF492
:1014400000515D4802F023F908B9012000E00020B6
:1014500010B100F079FBCAE74FF40041564802F0A2
:1014600016F908B9012000E0002078B10A2003F045
:1014700058FE4FF40041504802F009F908B9012024
:1014800000E0002010B100F097FBB0E700BFAEE72E
:1014900008B50121042002F085FB0121084602F075
:1014A00081FB4FF40040ADF8000010208DF80300E0
:1014B00003208DF802006946404802F057F84FF4C7
:1014C00000413E4802F0FDF84FF48070ADF8000096
:1014D00048208DF8030003208DF802006946374844
:1014E00002F044F80121082002F05CFB4FF4704048
:1014F000ADF8000048208DF8030003208DF80200AD
:1015000069462D4802F032F80121084602F04AFBF4
:101510003B20ADF8000003208DF8020010208DF86C
:1015200003006946244802F021F8FB20ADF80000D2
:1015300010208DF8030003208DF8020069461F4833
:1015400002F014F808BD30B502460B461468156861
:10155000012144E0B9B230CCF57CCEDECAFDBEDD5F
:1015600000000000040000201201002010000020F4
:10157000B9B22564CCF57C6572726F720000000010
:10158000B9B22564CCF57C25642E2564D0A1CAB1FE
:1015900000000000B9B22564CCF57CB3ACCAB10040
:1015A0000800002000000020B2B8C8E900000000D8
:1015B000B7B5BBD800000000000C01400008014096
:1015C00052F82100A04202D952F8214005E052F819
:1015D0002100A84201D252F82150481CC1B29942C0
:1015E000EEDB601B30BD30B502460B461488158813
:1015F00001210EE032F81100A04202DD32F8114064
:1016000005E032F81100A84201DA32F81150481C06
:10161000C1B29942EEDB601B80B230BD10B502460C
:101620000B4600201088012107E032F81140844267
:1016300001DD32F811004C1CE1B29942F5DB10BD1E
:1016400010B502460B4600201088012107E032F851
:101650001140844201DA32F811004C1CE1B2994287
:10166000F5DB10BD30B502460023002404E032F85B
:10167000025B2B44601C84B28C42F8DB09B1B3FBE3
:10168000F1F398B230BD000008B503208DF80000DA
:1016900000208DF801008DF8020001208DF8030074
:1016A000684601F09AFE08BDF0B503460C461546A3
:1016B000642093FBF0F0C6B2642093FBF0F700FBCC
:1016C0001730C1B2132E02DD01F16400C1B2084629
:1016D000CF1701EB977701EBA707BAB2072092FB70
:1016E000F0F700FB172082B25719601EDFF8D8C34D
:1016F0001CF80000384482B2CF1701EB9777BF1077
:10170000B1EB870703D1032C01DA501E82B2072008
:1017100092FBF0F700FB1720C0B2F0BD0146CA17DC
:1017200001EB92729210B1EB820212D1642091FB14
:10173000F0F200FB121050B94FF4C87091FBF0F2B8
:1017400000FB121008B9012070470020FCE70120BF
:10175000FAE70020F8E770B500260024002502F023
:10176000A9FA0646D948B6FBF0F4D9480088A04249
:101770003CD0D7490C8040F2B27510E02846FFF704
:10178000CDFF40B1B4F5B77F02D3A4F5B77404E040
:10179000681C85B206E0A4F26D14681C85B2B4F52D
:1017A000B67FEBD800BFCB488580002516E0C9493D
:1017B0008888FFF7B3FF30B1012D04D11D2C01D370
:1017C0001D3C09E00CE0C448405DA04203D8C2487B
:1017D000405D241A00E003E0681C85B21C2CE6D2B0
:1017E00000BF681CBB498871601CC871B748B6FB54
:1017F000F0F100FB11644FF46160B4FBF0F0B54907
:1018000008704FF46160B4FBF0F100FB11403C2123
:10181000B0FBF1F0AF4948704FF46160B4FBF0F1F8
:1018200000FB11403C21B0FBF1F201FB1200A94981
:1018300088700B46DA7999799888FFF735FFA549C2
:101840000872002070BD2DE9F05F06460F469046F5
:101850009946DDE90AAB002440F2B270864203DB10
:1018600040F63300864202DD0120BDE8F09F40F2E1
:10187000B2750AE02846FFF751FF10B197480444BB
:1018800001E097480444681C85B2B542F2DB781E3B
:10189000C7B2002510E09048405D40F2A3214843C4
:1018A00004EBC0143046FFF739FF18B1012D01D108
:1018B00086480444681C85B2BD42ECDBA8F10100F7
:1018C00040F2A321484304EBC014C9EB4910C0EB1C
:1018D000092004EB0014CAEB0A1004EB80045C44FA
:1018E00001214FF0C05002F06AF9012001F095FF8C
:1018F000204602F0E8F902F019FA0020B5E71CB51D
:10190000002401214FF0C05002F059F9012001F0EC
:1019100084FF042003F097FBA0F5A041503940D08C
:1019200003F05CFB012002F0ADF804E0601CC4B2DF
:101930000A2003F0F6FB412002F00DF808B9FA2C5A
:10194000F4DBFA2C01DB01201CBD4FF4807002F0A7
:10195000B2F8012002F0B5F802F0E8F902F0EEF971
:101960000121084602F086F902F0E0F902F08FF951
:1019700047F6FF7002F0B4F902F0D8F91E200221F8
:1019800011230E22CDE90010032140F2E170FFF790
:101990005AFF02F085F945F25001042003F047FB9D
:1019A00007E002F0CBF90121084602F063F902F0EA
:1019B000BDF9FFF769FEFFF7CEFE0020C4E70EB5C4
:1019C000012002F0DFF918B1FFF7C5FEFFF7EAFAD0
:1019D000022002F0D7F9A0B1022002F0E3F9FFF7EC
:1019E000BAFE3C4880783B4949783A4A1278CDE9BA
:1019F000002102903748C3798279818839A003F0A9
:101A000091FD052002F0CEF902F090F90EBD2DE90E
:101A1000F05F06460F4690469946DDE90AAB002482
:101A200040F2B270864203DB40F63300864202DDAC
:101A30000120BDE8F09F40F2B2750AE02846FFF7AA
:101A40006DFE10B12548044401E025480444681C9B
:101A500085B2B542F2DB781EC7B2002510E01E4801
:101A6000405D40F2A321484304EBC0143046FFF729
:101A700055FE18B1012D01D114480444681C85B2EB
:101A8000BD42ECDBA8F1010040F2A321484304EB86
:101A9000C014C9EB4910C0EB092004EB0014CAEBD9
:101AA0000A1004EB80045C4401214FF0C05002F0A6
:101AB00086F8012001F0B1FE204602F01FF902F085
:101AC00035F90020B5E700002C61000880510100C5
:101AD0001600002012010020386100080085E20194
:101AE0008033E101416C61726D2054696D653A2566
:101AF000642D25642D25642025643A25643A2564E7
:101B00000A00000010B50E4800780A2814D2DFE859
:101B100000F01213131313130506070800BF00BFCC
:101B200000BF012000F027F8064908700846007839
:101B3000FFF7EAF900BF00E000BF00BF10BD0000E2
:101B4000000000201800002010B51948007810B1DE
:101B500006280DD106E00120FFF7D6F9062014492A
:101B6000087006E0FFF704FC0A201149087000E045
:101B700000BF00BF10BD014629B10E480078401CCF
:101B80000C4A107004E00B480078401E094A10709F
:101B90000848007810B90420064A107005480078FB
:101BA000052802D10120034A1070024800787047CE
:101BB000000000201800002010B50C4800780A280A
:101BC00010D2DFE800F00E0F0F0F0F0F0506070809
:101BD00000BF00BF00BFFFF77DF900200349087078
:101BE00001E000E000BF00BF10BD000000000020C9
:101BF00010B50E4800780A2814D2DFE800F012135E
:101C0000131313130506070800BF00BF00BF002011
:101C1000FFF7B1FF0649087008460078FFF774F92E
:101C200000BF00E000BF00BF10BD000000000020AA
:101C300018000020024601B10AB90120704713685C
:101C4000086810600B600020F8E72DE9FF410C46A2
:101C500098469DF800009DF80810884203DD02A90F
:101C60006846FFF7E7FF3F2C03DC9DF800007F2864
:101C700001DDBDE8FF819DF808007F2801DD7F20A0
:101C800002902046E11704EB5171C1F3C706B8F189
:101C9000000F1ED1E11704EB5171C910A4EBC10272
:101CA00001219140CFB2F843C7B29DF800500AE03D
:101CB000F74800EBC610405D3840F54901EBC6110E
:101CC0004855681CC5B29DF80800401C8542EFDBF2
:101CD0001CE02046E11704EB5171C910A4EBC102CE
:101CE00001219140CFB29DF800500AE0E84800EB96
:101CF000C610405D3843E64901EBC6114855681CE3
:101D0000C5B29DF80800401C8542EFDB00BFB0E77C
:101D10002DE9FF41044698469DF804009DF80810FF
:101D2000884203DD02A901A8FFF784FF9DF80400A3
:101D30003F2801DC7F2C01DDBDE8FF819DF8080014
:101D40003F2801DD072002909DF80400C11700EB39
:101D50005171CD109DF80800C11700EB5171CE10E4
:101D6000B54246D1B8F1000F21D19DF80410CA1731
:101D700001EB5272D210A1EBC203FF229A409DF8F0
:101D80000800C31700EB5373DB10A0EBC303C3F1D0
:101D9000070CFF2303FA0CF31A40BD4B03EBC513EA
:101DA0001B5D9343BA4A02EBC5121355BBE09DF885
:101DB0000410CA1701EB5272D210A1EBC203FF222A
:101DC0009A409DF80800C31700EB5373DB10A0EB9B
:101DD000C303C3F1070CFF2343FA0CF31A40AC4BC7
:101DE00003EBC5131B5D1A43A94B03EBC5131A552F
:101DF00099E0B8F1000F4CD19DF80400C11700EB39
:101E00005171C910B0EBC10115D09DF80400C11784
:101E100000EB5171C910A0EBC102FF2191409C4A17
:101E200002EBC512125D22EA0101994A02EBC512CA
:101E30001155681CC5B29DF80800C11700EB51711F
:101E4000C910A0EBC101072917D09DF80800C117E0
:101E500000EB5171C910A0EBC101C1F10702FF21D4
:101E600011418B4A02EBC612125D22EA0101884A37
:101E700002EBC6121155701EC6B22F4606E00020B6
:101E8000834901EBC7110855781CC7B2B742F6DD8C
:101E900049E09DF80400C11700EB5171C910B0EB87
:101EA000C10114D09DF80400C11700EB5171C91095
:101EB000A0EBC102FF219140754A02EBC512125DF1
:101EC0001143734A02EBC5121155681CC5B29DF847
:101ED0000800C11700EB5171C910A0EBC10107291F
:101EE00016D09DF80800C11700EB5171C910A0EB86
:101EF000C101C1F10702FF211141654A02EBC6127F
:101F0000125D1143624A02EBC6121155701EC6B231
:101F10002F4606E0FF205E4901EBC7110855781CEB
:101F2000C7B2B742F6DD00BF06E71FB5069C9DF8B5
:101F300000009DF80810884203DD02A96846FFF7FB
:101F400079FE9DF804009DF80C10884203DD03A97A
:101F500001A8FFF76FFE9DF80C003F2803DC9DF8F9
:101F600008007F2800DD1FBD23469DF808209DF84E
:101F700004109DF80000FFF768FE23469DF8082036
:101F80009DF80C109DF80000FFF75FFE23469DF8BA
:101F90000C209DF804109DF80000FFF7B9FE2346C1
:101FA0009DF80C209DF804109DF80800FFF7B0FE86
:101FB00000BFD8E73FB5079D9DF800009DF80810C9
:101FC000884203DD02A96846FFF734FE9DF804004D
:101FD0009DF80C10884203DD03A901A8FFF72AFE33
:101FE0009DF804003F2803DC9DF800007F2800DDF9
:101FF0003FBD9DF8004009E02B469DF80C209DF860
:1020000004102046FFF784FE601CC4B29DF808004F
:102010008442F1DD00BFEBE7F0B5034600247F2BDF
:1020200001D83F2900D9F0BD002003E0602800D985
:102030000BE0801C1578174E365CB542F6D1567809
:10204000144F451C7D5DAE42F0D100BF602805D223
:1020500000EB4005104E06EB850400E0E3E7084680
:1020600010E025780D4E06EB001606F81350651C9F
:102070002C462E78094D05EB00175D006D1C7E5532
:10208000641C401C01F10B05A842EAD900BFCAE755
:102090001C0B002044610008A46100081C070020FC
:1020A0007047F0B50346144600227F2B01D83F2924
:1020B00000D9F0BD2578A5F12000602805D200EBFD
:1020C0004005FE4E06EB850200E0F2E7FC4D2D7860
:1020D000012D0ED1084608E01678FA4FC51C07EB13
:1020E000051505F81360521C401C01F10B05A842B0
:1020F000F2D9F34D2D787DB9084609E01678F14FF5
:10210000C51C07EB05175D006D1C7E55521C401C5D
:1021100001F10B05A842F1D900BFCAE72DE9F04152
:1021200006460F4614463546B8460CB9BDE8F08160
:1021300028E07F2D00D9F9E7B8F13F0F00D9F5E786
:10214000207810F0800F0AD0224641462846FFF73B
:1021500063FF0020DA490870A41C6D1C12E0D84807
:102160000078012804D16D1E0020D549087002E0D6
:102170000120D3490870224641462846FFF791FFC7
:10218000641C6D1C20780028D3D100BFCEE7F8B5C1
:10219000034615460C46CF1701EB5777C7F3C70226
:1021A0007F2900DDF8BD002062E02E5C0024009451
:1021B000FF248DF803400C46CF1701EB5777FF1033
:1021C000A1EBC70C009F07FA0CF700971418BE4F3D
:1021D00007EBC414E45C9DF80370BC431718DFF8E8
:1021E000E8C20CEBC717FC54541C082C0DDA141869
:1021F000641C674607EBC414E45C9DF80270BC43A2
:1022000017187F1C0CEBC717FC54002400948DF8A2
:1022100003600C46CF1701EB5777FF10A1EBC70CFB
:10222000009F07FA0CF700971418A74F07EBC41488
:10223000E45C9DF803703C431718DFF88CC20CEB8C
:10224000C717FC54541C072C00DDABE71418641CA2
:102250009D4F07EBC414E45C9DF802703C431718D3
:102260007F1CDFF864C20CEBC717FC54441CE0B2BF
:1022700004289ADB00BF95E72DE9F04106460F469A
:1022800014464FF000087F2E01D83F2F01D9BDE83A
:10229000F081052C02DD002C00DCF8E7601E8B4984
:1022A00001EB8018002509E0F9B27219D0B242465C
:1022B000FFF76DFF08F10408681CC5B2102DF3DBB1
:1022C00000BFE4E72DE9F04105460E4617464FF002
:1022D00000087F2D01D83F2E01D9BDE8F081012FE4
:1022E00000DDFAE77A4901EBC718002409E0F1B2F2
:1022F0002A19D0B24246FFF74AFF08F10408601CD1
:10230000C4B2202CF3DB00BFE7E72DE9F841044617
:102310001F46002600250B464FEAE17C01EB5C7C62
:10232000CCF3C7001678557805F00F05002300930D
:10233000FF238DF800300F238DF801300B464FEA54
:10234000E17C01EB5C7C4FEAEC0CA1EBCC08DDF806
:1023500000C00CFA08FCCDF800C05B4B03EBC013C7
:102360001B5D9DF800C023EA0C03DFF85CC10CEB99
:10237000C01C0CF80430DFF850C1431C0CEBC31335
:102380001B5D9DF801C023EA0C03DFF83C8100F1DE
:10239000010C08EBCC1C0CF80430831C082B0DDA64
:1023A000C4460CEBC3131B5D9DF802C023EA0C036B
:1023B00000F1020C08EBCC1C0CF804300023009355
:1023C0008DF800608DF801500B464FEAE17C01EB7F
:1023D0005C7C4FEAEC0CA1EBCC08DDF800C00CFAF9
:1023E00008FCCDF800C0384B03EBC0131B5D9DF813
:1023F00000C043EA0C03DFF8D0C00CEBC01C0CF8A3
:102400000430DFF8C4C0431C0CEBC3131B5D9DF804
:1024100001C043EA0C03DFF8B08000F1010C08EBC7
:10242000CC1C0CF80430831C082B0DDAC4460CEBD2
:10243000C3131B5D9DF802C043EA0C0300F1020CBC
:1024400008EBCC1C0CF80430BDE8F88110B54FF453
:1024500080611C4803F0BCFA10BD2DE9F04700264E
:10246000B246B1463FE04FF0000835E009EB4900C5
:102470008006070E16E0114810F80A00114901EB1A
:10248000071101F818000D490AF10C00095C0D480C
:1024900000EB07124FEA4800401C11540AF1010AF0
:1024A000781CC7B209EB49000B2101EB8000B84250
:1024B000E1DA0AF10C0A08F101000BE024680008D7
:1024C000200000201C0700201C0B0020A46C00082A
:1024D0002466000800F0FF08B8F1070FC6DD09F117
:1024E000010000F0FF09B9F1040FBCDD002557E041
:1024F0001F2D2BDD0826344623E0362000F05AF944
:1025000005F16001C8B200F055F904F18001C8B2CC
:1025100000F050F9302000F04DF96B4901EB051245
:10252000A11B12F8110000F027F9674901EB051211
:10253000A11B012303EB4101505C00F01DF9601C5D
:10254000C4B206F108008442D7DB27E0344621E01C
:10255000362000F02FF905F18001C8B200F02AF909
:1025600004F18001C8B200F025F9302000F022F912
:10257000554901EB051111F8140000F0FDF852491E
:1025800001EB0511012202EB4402885C00F0F4F833
:10259000601CC4B206F108008442D9DB681CC5B2D5
:1025A000402DA5DDBDE8F0872DE9F04107468846BE
:1025B0000026002557E01F2D2BDD0826344623E09A
:1025C000362000F0F7F805F16001C8B200F0F2F82B
:1025D00004F18001C8B200F0EDF8302000F0EAF814
:1025E000394901EB0512A11B12F8110000F0C4F8E3
:1025F000354901EB0512A11B012303EB4101505C9E
:1026000000F0BAF8601CC4B206F108008442D7DBBF
:1026100027E0344621E0362000F0CCF805F18001B7
:10262000C8B200F0C7F804F18001C8B200F0C2F8E7
:10263000302000F0BFF8244901EB051111F8140017
:1026400000F09AF8204901EB0511012202EB440247
:10265000885C00F091F8601CC4B206F10800844266
:10266000D9DB681CC5B2402DA5DDBDE8F08170B591
:1026700000251DE0002417E0342000F09BF805F150
:102680008001C8B200F096F804F18001C8B200F0F1
:1026900091F8302000F08EF8002000F06DF8002056
:1026A00000F06AF8601CC4B2102CE5DB681CC5B2EF
:1026B000402DDFDB70BD10B5FFF7D9FF322002F0EF
:1026C00030FD10BD704700001C070020F749096865
:1026D0000021F64A11601146096841F07731116016
:1026E000F2490C31096801F47F41C2B21143EF4A4B
:1026F0000C321160704770B58024EC4800680020EF
:10270000EA4908600846006840F088300860E748F9
:102710001030006840F0FF00E449103108600020EC
:10272000E34908604FF00100E249C1F89001E24935
:1027300008601BE00020DE4908604FF00100DD4921
:10274000C1F89001DC4908604FF0640002F0A8FC79
:10275000D6480830006885B2ECB204F0800401204D
:1027600002F09EFC0020D349C1F88C01802CE1D0FE
:102770000020D149086070BD10B50446FFF7BBFFCB
:102780000120CB4908604FF00000CA49C1F8900110
:102790004FF00100C84908602046FFF797FF01206D
:1027A00002F07EFC0020C349C1F88C01012002F038
:1027B00077FC10BD10B504460020BD490860BD4936
:1027C000C1F890014FF0010002F06AFC0120BA4903
:1027D00008604FF0150002F063FC2046FFF776FF1B
:1027E000012002F05DFC0020B249C1F88C010120FB
:1027F00002F056FC10BD70B500251DE0002417E066
:102800003420FFF7D7FF05F18001C8B2FFF7D2FFF0
:1028100004F18001C8B2FFF7CDFF3020FFF7CAFFF7
:102820000020FFF7A9FF0020FFF7A6FF601CC4B23D
:10283000102CE5DB681CC5B2402DDFDB70BD10B588
:102840003020FFF7B7FF012002F06BFC3020FFF7CC
:10285000B1FF012002F065FC0C20FFF7ABFF012067
:1028600002F05FFC0120FFF7A5FF0B2002F059FCEE
:102870000620FFF79FFF012002F053FC10BD10B5AA
:10288000FEF706FE01208D4908608A49C1F88401DF
:1028900010BD10B54FF4967002F043FCFFF7EFFF48
:1028A000FFF7CDFFFFF7A7FF10BD70B5FFF723FFC0
:1028B0007E48006800207D4908600846006840F0B6
:1028C0008830086079481030006840F0FF00774990
:1028D000103108600120764908607649C1F89001FE
:1028E0007549086002F0DCFB704808300068C4B22B
:1028F000012002F0D5FB00206E49C1F88C0125466D
:10290000284670BD2DE9F84F05460C46924605F065
:102910007F0504F03F042846E91705EB11714FEAE3
:10292000211B05F00F062046E11704EBD161491188
:10293000009127461F2F02DDA7F12000C7B23420E7
:10294000FFF738FF3620FFF735FF07F18001C8B2E7
:10295000FFF730FF0BF180010823009A03FB0211FF
:10296000C8B2FFF727FFFFF7A0FFFFF79EFF8046E3
:10297000FFF79BFF814607F18001C8B2FFF71AFFFE
:102980000BF180010823009A03FB0211C8B2FFF784
:1029900011FF082E1BDABAF1000F0CD0C6F10702A6
:1029A0000121914041EA0801C8B2FFF7E5FE48461F
:1029B000FFF7E2FE26E0C6F107020121914028EA76
:1029C0000100FFF7D9FE4846FFF7D6FE1AE0BAF13C
:1029D000000F0CD04046FFF7CFFEC6F10F020121D9
:1029E000914041EA0901C8B2FFF7C6FE0AE040463D
:1029F000FFF7C2FEC6F10F020121914029EA010052
:102A0000FFF7BAFEFFF777FE3020FFF7D3FEBDE8F1
:102A1000F88F2DE9F84F05460C4605F07F0504F0C8
:102A20003F042846E91705EB11714FEA211B05F019
:102A30000F062046E11704EBD161491100912746AA
:102A40001F2F02DDA7F12000C7B23420FFF7B2FE2E
:102A50003620FFF7AFFE07F18001C8B2FFF7AAFEEC
:102A60000BF180010823009A03FB0211C8B2FFF7A3
:102A7000A1FEFFF71AFFFFF718FF8246FFF715FFC9
:102A80008046082E06DAC6F107010120884000EAD8
:102A90000A0905E0C6F10F010120884000EA080993
:102AA000FFF729FE4846BDE8F88F00000008014006
:102AB00094812142008021428C81214280812142E7
:102AC00010B53020FFF776FE4020FFF773FE00249C
:102AD00000E0641C102CFCDB10BD2DE9F041064623
:102AE0000C461546002704B90AE0012C01D1102735
:102AF00006E0022C01D1082702E0032C00D11827A0
:102B000007F180013144C8B2FFF754FE06E028788F
:102B1000FFF732FE6D1C012002F0C2FA287800286F
:102B2000F5DCBDE8F08110B5044606E02078FFF73B
:102B300023FE641C012002F0B3FA20780028F5DCA3
:102B400010BD2DE9F0418046002700262BE000252E
:102B500024E000241EE03620FFF72CFE05F1800162
:102B6000C8B2FFF727FE04F180013144C8B2FFF775
:102B700021FE3020FFF71EFE39467F1CE14A505CE3
:102B8000FFF7FAFD39467F1CDE4A505CFFF7F4FD83
:102B9000601CC4B2082CDEDB681CC5B2202DD8DB5B
:102BA00006F10800C6B2092ED1DBBDE8F0812DE99F
:102BB000F04107460D46164600241EE03620FFF77A
:102BC000F9FD06F180012144C8B2FFF7F3FD802131
:102BD00001EBC501C8B2FFF7EDFD3020FFF7EAFDBC
:102BE000C94A12F81400FFF7C7FD6100491CC64A24
:102BF000505CFFF7C1FD601CC4B20C2CDEDBBDE8ED
:102C0000F0812DE9F04107460E461546202D1ADACF
:102C1000002415E03620FFF7CDFD05F180012144A9
:102C2000C8B2FFF7C7FD06F18001C8B2FFF7C2FDC9
:102C30003020FFF7BFFD385DFFF79EFD601CC4B27A
:102C4000102CE7DB1FE0A5F12000C5B206F108005B
:102C5000C6B2002415E03620FFF7ACFD05F1800177
:102C60002144C8B2FFF7A6FD06F18001C8B2FFF704
:102C7000A1FD3020FFF79EFD385DFFF77DFD601C54
:102C8000C4B2102CE7DBBDE8F08170B50646002524
:102C90001DE0002417E03620FFF78CFD05F18001D0
:102CA000C8B2FFF787FD04F18001C8B2FFF782FDCB
:102CB0003020FFF77FFD3046FFF75EFD3046FFF71F
:102CC0005BFD601CC4B2102CE5DB681CC5B2202D76
:102CD000DFDB3420FFF76EFD3620FFF76BFD70BDA4
:102CE00070B5002600251FE0F043C6B2002417E0AF
:102CF0003620FFF75FFD05F18001C8B2FFF75AFDEE
:102D000004F18001C8B2FFF755FD3020FFF752FDF6
:102D10003046FFF731FD3046FFF72EFD601CC4B290
:102D2000102CE5DB681CC5B2202DDDDB3420FFF75D
:102D300041FD3620FFF73EFD70BD70B5002625E051
:102D400000251EE0002418E03620FFF733FD05F1D2
:102D50008001C8B2FFF72EFD04F180013144C8B2F2
:102D6000FFF728FD3020FFF725FD0020FFF704FDC9
:102D70000020FFF701FD601CC4B2082CE4DB681CD6
:102D8000C5B2202DDEDB06F10800C6B2092ED7DB66
:102D90003420FFF70FFD3620FFF70CFD70BD10B596
:102DA0000120FFF707FD022002F0BBF910BD7047BC
:102DB0002DE9F0410446884615461E46AC4202DD28
:102DC0002F4625463C4606E0324641462046FFF760
:102DD00099FD601CC4B2AC42F6DDBDE8F0812DE97E
:102DE000F04180460C4615461E46AC4202DD2F4699
:102DF00025463C4606E0324621464046FFF782FD26
:102E0000601CC4B2AC42F6DDBDE8F0812DE9F84F9C
:102E100005460C464FF001094FF0000A4FF0000B39
:102E20002BE0A8461BE0264610E03849009801EB4D
:102E3000C01010F80A0000EA09073A46F1B208F09B
:102E4000FF00FFF75FFD4FEA4909761CE01D86424F
:102E5000EBDD0AF1010A4FF0010908F1010805F163
:102E60007F008045DFDD4FF0000A04F10800C4B2A6
:102E70000098401C00900BF1010BBBF1020FD0DD5C
:102E80000024BDE8F88F2DE9F84F05460C46914621
:102E90004FF0010A4FF0000B0020009025E0A846FB
:102EA00017E026460CE019F80B0000EA0A073A463C
:102EB000F1B208F0FF00FFF725FD4FEA4A0A761C41
:102EC000E01D8642EFDD0BF1020B4FF0010A08F125
:102ED000010805F17F008045E3DD4FF0010B04F1AF
:102EE0000800C4B20098401C009000980428D6DD69
:102EF0000024BDE8F88F0146002901DA48427047F6
:102F00000846FCE769000020210000201C0B00207F
:102F100008B50121082000F045FEC020ADF80000F2
:102F200010208DF8030003208DF8020069469D48AB
:102F300000F01CFBC0219B4800F0C3FB552105207D
:102F400000F06EF904229849062000F08FF9022261
:102F500000210A2000F08AF902220021142000F04A
:102F600085F9022200211E2000F080F902220021B2
:102F7000282000F07BF908BD10B58A48006820F0D1
:102F80007040884908600846006840F0405008607A
:102F90000120864908608649C1F898014FF0040075
:102FA00002F07EF80020814908604FF0040002F032
:102FB00077F800207E49C1F8980110BD10B5794816
:102FC000006820F07040774908600846006840F0CB
:102FD000405008600020774908607549C1F89C019D
:102FE0004FF0040002F05CF801207249086070495B
:102FF000C1F89C014FF0040002F052F810BD10B56A
:1030000000246848006820F070406649086008465F
:10301000006840F00040086001206449086002F048
:103020003FF801206249C1F8980102F039F807E041
:10303000601CC4B2FA2C03DDFFF7C0FF012010BDF5
:103040005D4800680028F3D15A49086000BFF6E7E0
:1030500010B50020574908605248006820F07040C1
:10306000504908600846006840F0405008604FF042
:1030700000004F49C1F89C014FF0020002F010F827
:1030800001204C4908604FF0020002F009F80020CE
:103090004749C1F8980110BD10B5002045490860A6
:1030A0004048006820F070403E49086008460068CB
:1030B00040F0405008604FF001003D49C1F89C01CC
:1030C0004FF0020001F0ECFF01203A4908604FF098
:1030D000020001F0E5FF00203549C1F8980110BD5C
:1030E00070B504462F48006820F070402D490860F4
:1030F0000846006840F04050086000202D490860F4
:1031000005461AE0E009294908604FEA44604FEAA1
:1031100010644FF0020001F0C3FF01202449C1F800
:103120009801022001F0BCFF0020224908604FF006
:10313000020001F0B5FF681CC5B2082DE2DB70BDCE
:1031400070B5054600241748006820F07040154906
:1031500008600846006840F000400860002616E05D
:103160000020144908604FF0020001F099FF01208F
:103170000F49C1F898016006040E0F48006808B1B5
:10318000601CC4B2012001F08BFF701CC6B2082E77
:10319000E6DB15B9FFF780FF01E0FFF759FF204696
:1031A00070BD0000000C0140BC3D596B9C81214268
:1031B00000802142988121421C81214210B5FFF7F5
:1031C000A7FE10BD70B504460026FFF7D5FEA0206F
:1031D000FFF786FFFFF713FF2546E11704EB1161A8
:1031E000C1F30720FFF77CFFFFF709FFE11704EBAE
:1031F00011610912A4EB0121C8B2FFF771FFFFF7BB
:10320000FEFEFFF7B9FEA120FFF76AFFFFF7F7FE0A
:103210000020FFF795FF0646FFF7D0FE304670BD51
:1032200070B504460E46FFF7A7FEA020FFF758FF33
:10323000FFF7E5FE2012FFF753FFFFF7E0FE2546FC
:10324000E11704EB11610912A4EB0121C8B2FFF7E9
:1032500047FFFFF7D4FE3046FFF742FFFFF7CFFEF0
:10326000FFF7ACFE0A2001F05CFF70BD2DE9F041D4
:1032700005460E461746002409E0E20026FA02F24F
:10328000D1B22A1990B2FFF7CBFF601CC4B2BC4286
:10329000F3DBBDE8F0810020704701460320704752
:1032A0007047704770B50546691E01EB81016422C5
:1032B00002EB410188B2FFF785FF0446FF2C01D0E5
:1032C000012000E000200CB1012100E000210842B3
:1032D00001D0012070BD691E01EB810140F6C412CE
:1032E00002EB410188B2FFF76DFF0446FF2C01D0CD
:1032F000012000E000200CB1012100E00021084283
:1033000001D00120E6E70020E4E710B5002408E042
:10331000C4EB0421643188B2FF221146FFF7A6FFF7
:10332000641C112CF4DD10BD2DE9F04107460C465C
:103330000026002509E036023919491B491E88B2CA
:10334000FFF740FF0644681CC5B2A542F3DB3046D8
:10335000BDE8F08110B543F6FF70FFF733FF044678
:10336000552C01D1002010BD552143F6FF70FFF709
:1033700057FF43F6FF70FFF725FF0446552C01D198
:103380000020F0E70120EEE770B506460C46154632
:1033900008E03046721C96B2FFF714FF04F8010BE8
:1033A000681E85B2002DF4D170BD70B505460C467F
:1033B000164606E021782846FFF732FF681C85B2E2
:1033C000641C3000A6F101018EB2F3D170BD000083
:1033D00031490143314A1160704770B50021002323
:1033E0000F22C4780CB32D4C246804F4E064C4F5B7
:1033F000E064210AC1F10403CA40447804FA03F1ED
:103400008478144021430901254C0678A15504789D
:1034100004F01F050124AC4005786D114FF0E02643
:1034200006EB8505C5F8004109E0047804F01F05A6
:103430000124AC401B4D0678761145F8264070BD3E
:10344000194A0A400243154B1B1F1A60704739B1D5
:10345000124A121D12680243104B1B1D1A6006E02F
:103460000E4A121D126882430C4B1B1D1A607047D6
:10347000042808D14FF0E021096941F004014FF020
:10348000E022116107E04FF0E021096921F0040119
:103490004FF0E022116170470000FA050CED00E0EA
:1034A00000E400E080E100E080FFFF1F10B504466B
:1034B000CA48844208D10121042000F08DFB00217C
:1034C000042000F089FB46E0C548844208D1012170
:1034D000082000F081FB0021082000F07DFB3AE08D
:1034E000C048844208D10121102000F075FB002162
:1034F000102000F071FB2EE0BB48844208D101216E
:10350000202000F069FB0021202000F065FB22E074
:10351000B648844208D10121402000F05DFB002123
:10352000402000F059FB16E0B148844208D1012147
:10353000802000F051FB0021802000F04DFB0AE0CC
:10354000AC48844207D10121801500F045FB0021E1
:10355000A01500F041FB10BD10B50121084600F098
:103560003BFB0021012000F037FB10BD2DE9F041AD
:10357000024600250026002000230024002791F8A1
:1035800003C00CF00F0591F803C01CF0100F03D01E
:1035900091F802C04CEA050591F800C0BCF1000F9B
:1035A00031D0146800202BE04FF0010C0CFA00F32E
:1035B000B1F800C00CEA03069E4220D183004FF010
:1035C0000F0C0CFA03F7BC4305FA03FC4CEA0404A5
:1035D00091F803C0BCF1280F06D14FF0010C0CFA92
:1035E00000FCC2F814C00AE091F803C0BCF1480F17
:1035F00005D14FF0010C0CFA00FCC2F810C0401CC1
:103600000828D1D31460B1F800C0BCF1FF0F34DD3D
:10361000546800202EE000F1080C4FF0010808FA71
:103620000CF3B1F800C00CEA03069E4221D18300DE
:103630004FF00F0C0CFA03F7BC4305FA03FC4CEAFD
:10364000040491F803C0BCF1280F05D100F1080C67
:1036500008FA0CF8C2F8148091F803C0BCF1480FC6
:1036600007D100F1080C4FF0010808FA0CF8C2F875
:103670001080401C0828CED35460BDE8F0814FF67E
:10368000FF710180022181700421C17070470246E0
:10369000002093680B4201D0012000E00020704719
:1036A0000146886880B2704702460020D3680B420A
:1036B00001D0012000E0002070470146C86880B2B8
:1036C000704701617047416170470AB1016100E0D4
:1036D00041617047C16070474FF480320A43826194
:1036E0008161826182698269704702460020424B93
:1036F00018684FF68073184040EA021008433E4BAA
:10370000186070473D49C8617047F0B50A4600230C
:1037100000240021002500F00046B6F1004F02D140
:10372000354EF16901E0344E7168C0F3034583B250
:1037300000F44016B6F5401F08D121F070612E4EFE
:10374000766826F070662C4F7E6012E000F48016DA
:10375000B6F5801F06D1032606FA05F4A14341F011
:10376000706106E0460D360103FA06F6B14341F0FA
:10377000706122B1460D360103FA06F6314300F0BE
:103780000046B6F1004F02D11B4EF16101E01A4E26
:103790007160F0BD30B500228B071C0F0F2303FAB8
:1037A00004F2154B08338C1053F824309343124C19
:1037B00008348D1044F8253023468C1053F82430FB
:1037C0008C07240F00FA04F423430B4C08348D10AB
:1037D00044F8253030BD0A490860704700080140B0
:1037E000000C01400010014000140140001801408D
:1037F000001C014000200140000001400000204268
:10380000DC00204210B50121080700F0F2F9002188
:103810004FF0805000F0EDF910BD29490862704763
:1038200027490861704701460020264A106820F0A9
:10383000E00008431060704723490860704710B5E6
:10384000024600201F4B186820F003001043186048
:103850001E4B1B6843F004031C4C2360012901D15B
:1038600030BF00E020BF194B1B6823F00403174C46
:10387000236010BD1348006840F00400114908603F
:103880000846006840F0020008601048006840F0F8
:1038900004000E49086000BF00BF30BF70470146FA
:1038A0000020084A52680A4201D0012000E00020AE
:1038B00070470449096841EA8001024A1160704773
:1038C00000000E4200700040A0000E4210ED00E02B
:1038D000DD48006840F00100DB49086008464068A8
:1038E000DA490840D849486008460068D849084085
:1038F000D54908600846006820F480200860084622
:10390000406820F4FE0048604FF41F008860704754
:10391000CD49096821F48031CB4A1160114609680C
:1039200021F480211160B0F5803F03D0B0F5802FE5
:103930000ED106E0C449096841F48031C24A1160E1
:1039400007E0C149096841F4A021BF4A116000E0C5
:1039500000BF00BF704710B50146002200230020C1
:103960004A11012A02D1B84C236806E0022A02D18A
:10397000B54C236A01E0B44C636A01F01F020124D4
:1039800094401C4201D0012000E0002010BD38B559
:10399000002000900024002500BF3120FFF7DBFF4E
:1039A00005460098401C00900098B0F5A06F01D02B
:1039B000002DF2D03120FFF7CEFF08B1012400E046
:1039C0000024204638BD014600209F4A106820F0A0
:1039D000F80040EAC100106070479E4908607047D7
:1039E00002460020984B586820F47C1042EA0103FC
:1039F0001843954B586070479649086670470146D2
:103A00000020914A506820F003000843506070473E
:103A10008D48406800F00C007047014600208A4A3B
:103A2000506820F0F00008435060704701460020C5
:103A3000854A506820F4E0600843506070470146B2
:103A40000020814A506820F4605040EAC100506074
:103A5000704729B17C4A527A02437B4B5A7204E088
:103A6000794A527A8243784B5A7270477A49086091
:103A7000704701460020744A506820F440400843D3
:103A8000506070470021754A11706F4A82F820100B
:103A9000012802D0042808D103E001216F4A1170E7
:103AA00004E005216D4A117000E000BF00BF7047BF
:103AB0006B49086070476449096A0143624A1162B0
:103AC0007047674944390860704730B500210022CB
:103AD000002400235C4D6D6805F00C0121B1042920
:103AE00005D0082923D105E05E4D056022E05D4D3B
:103AF00005601FE0544D6D6805F47012524D6D68FD
:103B000005F48034022505EB92421CB9564D55430D
:103B100005600BE04C4D6D6815F4003F03D0524D2D
:103B20005543056002E04F4D5543056002E04D4DA1
:103B3000056000BF00BF444D6D6805F0F001090944
:103B40004A4D6B5C0568DD4045603F4D6D6805F48E
:103B5000E061090A454D6B5C4568DD4085603A4D82
:103B60006D6805F46051C90A404D6B5C4568DD40E5
:103B7000C560354D6D6805F44041890B3C4D6B5C6B
:103B8000C568B5FBF3F5056130BD29B12E4A526910
:103B900002432D4B5A6104E02B4A526982432A4B5F
:103BA0005A61704729B1284A92690243264B9A61AB
:103BB00004E0254A92698243234B9A61704729B1F8
:103BC000214AD2690243204BDA6104E01E4AD269DD
:103BD00082431D4BDA61704729B11B4AD268024308
:103BE000194BDA6004E0184AD2688243164BDA6057
:103BF000704729B1144A12690243134B1A6104E059
:103C0000114A12698243104B1A61704714494039B6
:103C1000086070470F49C86470470B49C871704706
:103C20000948406A40F08070074948627047014681
:103C30000020054A92680A4201D0012000E00020DD
:103C40007047014988727047001002400000FFF879
:103C5000FFFFF6FE00004242D80042422010024020
:103C60008004424200127A0000093D0080000020DA
:103C70009000002029B14F4A128802434D4B1A8010
:103C800004E04C4A128882434A4B1A8070474948E4
:103C9000001D008840F010004649091D088070474B
:103CA0004448001D00884FF6EF7108404149091D46
:103CB0000880704700213F481C300188001F0088A1
:103CC00041EA0040704700B50246FFF7E0FF100CE4
:103CD000384918310880091D0A80FFF7E1FF00BD4F
:103CE00000B50246FFF7D3FFC2F303403149083164
:103CF0000880091D0A80FFF7D3FF00BD00B502460A
:103D0000FFF7C5FF100C2B4920310880091D0A80E0
:103D1000FFF7C6FF00BD00202649103109880907BA
:103D2000080B2449143109880843704700BF214813
:103D3000001D008810F0200FF9D070471D48001DAD
:103D400000884FF6F77108401A49091D088000BF26
:103D50001848001D008810F0080FF9D07047014680
:103D60000020144A121D12880A4201D0012000E0EE
:103D7000002070470F49091D098881430D4A121D13
:103D800011807047014600200A4A121D12880A401D
:103D9000D0B2084A12880A4202D008B1012000E0DD
:103DA000002070470349091D09888143014A121DFB
:103DB000118070470028004010B50446FE48844238
:103DC00008D10121C014FFF707FF0021E014FFF71D
:103DD00003FFC4E0B4F1804F08D101210846FFF78A
:103DE00008FF00210120FFF704FFB8E0F3488442F8
:103DF00008D101210220FFF7FCFE00210220FFF77D
:103E0000F8FEACE0EE48844208D101210420FFF71F
:103E1000F0FE00210420FFF7ECFEA0E0E948844218
:103E200008D101210820FFF7E4FE00210820FFF758
:103E3000E0FE94E0E448844208D101211020FFF71D
:103E4000D8FE00211020FFF7D4FE88E0DF4884422E
:103E500008D101212020FFF7CCFE00212020FFF710
:103E6000C8FE7CE0DA48844208D101214014FFF703
:103E7000B3FE00216014FFF7AFFE70E0D548844226
:103E800009D10121C804FFF7A7FE00214FF400204B
:103E9000FFF7A2FE63E0D048844209D10121080562
:103EA000FFF79AFE00214FF48010FFF795FE56E0D1
:103EB000CA48844209D101214805FFF78DFE00213F
:103EC0004FF40010FFF788FE49E0C548844208D14E
:103ED00001214020FFF78DFE00214020FFF789FEE1
:103EE0003DE0C048844208D101218020FFF781FED7
:103EF00000218020FFF77DFE31E0BB48844208D1DD
:103F000001218015FFF775FE0021A015FFF771FE56
:103F100025E0B648844209D101210804FFF75CFE80
:103F200000214FF48030FFF757FE18E0B04884427C
:103F300009D101214804FFF74FFE00214FF4003062
:103F4000FFF74AFE0BE0AB48844208D10121880408
:103F5000FFF742FE00214FF48020FFF73DFE10BD29
:103F600000220288944B98420ED0994B98420BD075
:103F7000B0F1804F08D0914B984205D0904B9842B9
:103F800002D0904B984204D14FF68F731A404B8861
:103F90001A438D4B984207D08C4B984204D04FF671
:103FA000FF431A40CB881A4302808B8883850B8895
:103FB0000385814B98420BD0854B984208D08B4BA0
:103FC000984205D08A4B984202D08A4B984201D140
:103FD0000B7A038601238382704770B50024002288
:103FE0000023058C4FF6FE7635400584028C8388CD
:103FF000048B4FF68F752C40B51E2C400D882C433A
:10400000751E2A400D892A434D882A436A4DA842CD
:104010000BD06F4DA84208D0744DA84205D0744D06
:10402000A84202D0734DA84213D14FF6F7752A402B
:104030004D892A434FF6FB752A408D882A434FF657
:10404000FF652B404FF6FF552B408D892B43CD89C3
:104050002B4383800483CD888586028470BD70B530
:10406000002400220023058C4FF6EF7635400584AE
:10407000028C8388048B48F6FF752C404FF6FF4571
:104080002C400D884FF6FF7606EA05252C434FF6A7
:10409000DF752A400D8906EA05152A434D8806EA90
:1040A00005152A43444DA84202D0494DA8421DD1CE
:1040B0004FF67F752A404D894FF6FF7606EA0515C3
:1040C0002A434FF6BF752A408D8806EA05152A4314
:1040D0004FF6FF352B404FF2FF752B408D8906EAD6
:1040E00085052B43CD8906EA85052B438380048310
:1040F000CD880587028470BD70B50024002200239E
:10410000058C4FF6FF6635400584028C8388848BCE
:104110004FF68F752C404FF6FC752C400D882C43C4
:104120004FF6FF552A400D894FF6FF7606EA052522
:104130002A434D8806EA05252A431F4DA84202D08E
:10414000234DA8421DD14FF2FF752A404D894FF6ED
:10415000FF7606EA05252A434FF6FF352A408D886B
:1041600006EA05252A434EF6FF752B404DF6FF75EE
:104170002B408D8906EA05152B43CD8906EA0515E6
:104180002B4383808483CD888587028470BD70B57E
:10419000002200230024058C4EF6FF76354005846E
:1041A000038C8488828B48F6FF752A404FF6FF45C2
:1041B0002A400D8820E00000002C0140000400404F
:1041C00000080040000C00400010004000140040B7
:1041D00000340140004C01400050014000540140B7
:1041E00000180040001C004000200040004001403A
:1041F00000440140004801404FF6FF7606EA0525DD
:104200002A434DF6FF752B400D8906EA05352B43F1
:104210004D8806EA05352B43FA4DA84202D0FA4DE7
:10422000A84208D14BF6FF752C408D894FF6FF76DA
:1042300006EA85152C4384808283CD88A0F84050FF
:10424000038470BD828B4FF2FF331A408283828BCE
:104250004FF6FF7303EA01231A4382837047F0B5D8
:104260000C461546002200210026078C4EF6FF7CE6
:1042700007EA0C070784828B018C4FF6FF7707EA69
:10428000043640F6FF473A404FF6FF7707EA052726
:104290003A434FF6FF7707EA03373A43D94FB8421C
:1042A0000ED0D94FB8420BD0B0F1804F08D0D74FC5
:1042B000B84205D0D64FB84202D0D64FB84206D148
:1042C0004DF6FF77394046F48057394305E047F60D
:1042D000FF57394044F48057394382830184F0BD4D
:1042E000828B4FF6F3731A408283828B0A43828358
:1042F0007047F0B50C461546002200210026078CB9
:104300004FF6FF6C07EA0C070784828B018C4FF68F
:10431000FF7707EA04264FF60C773A404FF6FF770F
:1043200007EA03172F433A43B64FB8420ED0B64FB1
:10433000B8420BD0B0F1804F08D0B44FB84205D08E
:10434000B34FB84202D0B34FB84206D14FF6FF5731
:10435000394046F48077394305E04FF2FF57394042
:1043600044F48077394382830184F0BD028B4FF29D
:10437000FF331A400283028B4FF6FF7303EA0123D7
:104380001A4302837047F0B50C46154600220021FF
:104390000026078C4FF6EF7C07EA0C070784028B98
:1043A000018C4FF6FF7707EA041640F6FF473A40C4
:1043B0004FF6FF7707EA03373A434FF6FF7707EAEE
:1043C00005273A438F4FB8420ED08F4FB8420BD0DB
:1043D000B0F1804F08D08D4FB84205D08C4FB84215
:1043E00002D08C4FB84206D14FF6DF77394046F005
:1043F0001007394305E04FF65F77394044F0100766
:10440000394302830184F0BD028B4FF6F3731A40E7
:104410000283028B0A4302837047F0B50C461546AF
:1044200000220021068C4FF6FE773E400684028B68
:10443000018C4FF60C7632407E1C06EA03162E43A2
:104440003243704EB0420ED06F4EB0420BD0B0F13E
:10445000804F08D06D4EB04205D06D4EB04202D0B4
:104460006C4EB04206D14FF6FD76314044F0010665
:10447000314305E04FF6F576314044F00106314313
:1044800002830184F0BD70B505460C465D48854247
:104490000ED05D4885420BD0B5F1804F08D05B4807
:1044A000854205D05A48854202D05A48854200D1FB
:1044B00000E000BF208850B92389A288618828467F
:1044C000FFF7ABFFE1882846FFF79EFF25E0208835
:1044D00004280AD12389A28861882846FFF753FF60
:1044E000E1882846FFF742FF17E0208808280AD114
:1044F0002389A28861882846FFF7FBFEE1882846C9
:10450000FFF7EEFE09E02389A28861882846FFF7BD
:10451000A6FEE1882846FFF795FE70BD2DE9F04123
:1045200005460C4600260127608808B9022600E0EF
:104530000026A088012801D1022700E00127208859
:10454000A0B92389A28861882846FFF766FFE18821
:104550002846FFF759FF23893A4631462846FFF798
:1045600012FFE1882846FFF701FF13E02389A288A4
:1045700061882846FFF707FFE1882846FFF7F6FE27
:1045800023893A4631462846FFF747FFE188284607
:10459000FFF73AFFBDE8F0810A884B881A438B8801
:1045A0001A43CB881A430B891A434B891A438B89C8
:1045B0001A43A0F8442070474FF6FF718180002114
:1045C0000180C180418001727047002101804180DB
:1045D0008180C180018141818181C1817047002139
:1045E00001804180012181800021C18001817047CB
:1045F0000021018041808180C180018141818181D0
:1046000070470000002C01400034014000040040CD
:1046100000080040000C004021B1028842F0010275
:10462000028004E002884FF6FE731A400280704751
:1046300031B1B0F8442042F40042A0F8442005E033
:10464000B0F84420C2F30E02A0F8442070471AB11B
:1046500083890B43838102E083898B438381704785
:104660008182704741EA0203A0F8483070471AB1CE
:1046700083890B43838102E083898B438381704765
:1046800001894FF6F8721140018170470A460021F6
:1046900001894FF68F73194011430181704730B57E
:1046A00004460D4629462046FFF7F0FF208940F0DA
:1046B0000700208130BD2DE9F04104460D46164625
:1046C0001F46602D06D13B46012231462046FFF7AA
:1046D0005AFE05E03B46012231462046FFF79DFE8B
:1046E00029462046FFF7D2FF208940F007002081AD
:1046F000BDE8F08130B50C4600210189C9B24FF602
:10470000FF7505EA0325154325432943018130BD83
:104710002DE9F04105460E461746984600244346CB
:104720003A4631462846FFF7E5FF2C894FF6F870E8
:10473000044044F007044FF68F70044044F07004C6
:104740002C81BDE8F081F0B504460D4616461F46A3
:104750003B46324629462046FFF7CCFF208940F4ED
:1047600080402081F0BD0185828270470A46002189
:1047700001884FF68F731940114301807047F0B5DF
:104780000C4615461E460021002200230189028B9B
:10479000038C4FF6F877394021434FF6FC473A40F7
:1047A00040F201173A434FF6DD773B404FF6FF7773
:1047B00007EA06172F433B43018102830384F0BDC0
:1047C0000A460021018B4FF68F7319401143018374
:1047D00070470A460021018B48F6FF7319404FF6D7
:1047E000FF7303EA02231943018370470A4600213D
:1047F000818B4FF68F7319401143818370470A46AE
:104800000021818B48F6FF7319404FF6FF7303EACE
:10481000022319438183704721B1028842F080024C
:10482000028004E002884FF67F731A4002807047CE
:1048300021B1828842F00402828004E082884FF62F
:10484000FB731A408280704721B1828842F00802CF
:10485000828004E082884FF6F7731A4082807047A6
:1048600021B1828842F00102828004E082884FF602
:10487000FE731A40828070470A460021018B4FF672
:10488000F77319401143018370470A460021018BD9
:104890004FF2FF7319404FF6FF7303EA02231943E7
:1048A000018370470A460021818B4FF6F773194048
:1048B0001143818370470A460021818B4FF2FF73B9
:1048C00019404FF6FF7303EA0223194381837047AF
:1048D0000A460021018B4FF6FB73194011430183F7
:1048E00070470A460021018B4FF6FF3319404FF6FF
:1048F000FF7303EA02231943018370470A4600212C
:10490000818B4FF6FB7319401143818370470A4630
:104910000021818B4FF6FF3319404FF6FF7303EAF6
:1049200002231943818370470A460021018B4FF609
:104930007F7319401143018370470A460021018BA0
:10494000C1F30E014FF6FF7303EA022319430183FB
:1049500070470A460021818B4FF67F73194011433F
:10496000818370470A460021818BC1F30E014FF607
:10497000FF7303EA02231943818370470A4600212B
:10498000018C4FF6FD7319401143018470470A46AC
:104990000021018C4FF6F7731940114301847047D1
:1049A0000A460021018C4FF6DF7319404FF6FF7362
:1049B00003EA02131943018470470A460021018C5F
:1049C0004FF67F7319404FF6FF7303EA0213194342
:1049D000018470470A460021018C4FF6FF531940AD
:1049E0004FF6FF7303EA02231943018470470A4616
:1049F0000021018C4FF2FF7319404FF6FF7303EA59
:104A000002231943018470470A460021018C4DF6A8
:104A1000FF7319404FF6FF7303EA02331943018411
:104A2000704730B5002301248C40A3B2048C9C4312
:104A30000484048C02FA01F5ADB22C43048430BD29
:104A400030B5002304248C40A3B2048C9C4304841E
:104A5000048C02FA01F5ADB22C43048430BD70B56C
:104A60000346002000241846183001258D40ACB2C2
:104A70001D8CA5431D8409B1082909D100EB6100F3
:104A8000056825F0700505600568154305600EE0B2
:104A90000D1FC5F34E052844056825F4E045056063
:104AA00005684FF6FF7606EA02263543056070BDBD
:104AB00021B1028842F00202028004E002884FF62F
:104AC000FD731A400280704721B1028842F004024F
:104AD000028004E002884FF6FB731A4002807047A0
:104AE00021B1828842F08002828004E082884FF601
:104AF0007F731A408280704702884FF6F7731A401E
:104B0000028002880A430280704782884FF68F73C2
:104B10001A40828082880A438280704702894FF659
:104B2000F8731A40028102890A43028170470289A0
:104B30004FF67F731A40028102890A43028170474F
:104B400081847047818570478186704701877047EF
:104B500081877047A0F84010704702884FF6FF43E6
:104B60001A40028002880A43028070470146888EFC
:104B700070470146088F70470146888F704701468D
:104B8000B1F8400070470146888C70470146088D97
:104B9000704702460020138A0B4201D0012000E03A
:104BA00000207047CA430282704730B50246002099
:104BB00000230024158A05EA0103958905EA01040A
:104BC00013B10CB1012000E0002030BDCA430282C5
:104BD0007047000010B50446FB48844209D101210A
:104BE0008803FEF7F9FF00214FF48040FEF7F4FF41
:104BF00032E0F648844209D101214804FEF7F9FF6A
:104C000000214FF40030FEF7F4FF25E0F048844225
:104C100009D101218804FEF7ECFF00214FF4802028
:104C2000FEF7E7FF18E0EB48844209D10121C804F0
:104C3000FEF7DFFF00214FF40020FEF7DAFF0BE064
:104C4000E548844208D101210805FEF7D2FF002182
:104C50004FF48010FEF7CDFF10BD2DE9F04786B070
:104C600005460E460024A24600BFA1460027B08993
:104C700000B100BF2F462C8A4CF6FF700440F0882C
:104C800004432C82AC894EF6F3100440B08831897D
:104C90000843718908430443AC81AC8A4FF6FF4056
:104CA0000440B0890443AC8201A8FEF70EFFC64859
:104CB000874202D1DDF810A001E0DDF80CA0A88940
:104CC00010F4004F08D00AEBCA0000EB0A1031685C
:104CD0004900B0FBF1F807E00AEBCA0000EB0A104C
:104CE00031688900B0FBF1F86420B8FBF0F00401F2
:104CF0002009642101FB1089A88910F4004F08D015
:104D0000322000EBC900B0FBF1F000F007000443D3
:104D100008E0322000EB09106421B0FBF1F000F054
:104D20000F0004432C8106B0BDE8F0874FF4165104
:104D3000016000218180C18001810C21418100211D
:104D40008181704710B502460020108A4FF2FF03A0
:104D500018400B884C8823438C882343CC882343FA
:104D60001843108210BD0021018041808180C180E4
:104D7000704721B1828942F40052828104E0828925
:104D80004DF6FF731A4082817047F0B50346002448
:104D9000002600250020A1F510676A3F00D100BF62
:104DA0001846C1F3421401F01F06012707FA06F561
:104DB000012C01D10C3004E0022C01D1103000E0B4
:104DC00014301AB107682F43076002E00768AF4349
:104DD0000760F0BD1AB1838A0B43838202E0838AA5
:104DE0008B4383827047028A4FF6F0731A40028227
:104DF000028A0A430282704782894FF2FF731A4087
:104E0000828182890A438281704721B1828942F07E
:104E10000202828104E082894FF6FD731A4082818A
:104E20007047028A4FF6DF731A400282028A0A43F1
:104E30000282704721B1028A42F48042028204E079
:104E4000028A4BF6FF731A4002827047C1F30802D0
:104E50008280704701468888C0F3080070478189C6
:104E600041F0010181817047028BD2B20283028B33
:104E700042EA012202837047028B02F47F420283DE
:104E8000028B0A430283704721B1828A42F02002DA
:104E9000828204E0828A4FF6DF731A408282704772
:104EA00021B1828A42F01002828204E0828A4FF6A7
:104EB000EF731A408282704721B1828A42F0080261
:104EC000828204E0828A4FF6F7731A40828270472A
:104ED00021B1828942F40042828103E08289C2F3D7
:104EE0000E028281704721B1828A42F4006282827E
:104EF00004E0828A4FF2FF731A4082827047828AEE
:104F00004FF6FB731A408282828A0A43828270477C
:104F100021B1828A42F00202828204E0828A4FF644
:104F2000FD731A408282704702460020B1F5007F6F
:104F300000D100BF13880B4201D0012000E0002007
:104F4000704701F40072B2F5007F00D100BFCA4380
:104F50000280704770B5024600240023002500201F
:104F6000A1F510666A3E00D100BFC1F3421501F001
:104F70001F03012606FA03F3012D02D1968933405F
:104F800006E0022D02D1168A334001E0968A3340B2
:104F90000C12012606FA04F41688344013B10CB141
:104FA000012000E0002070BD10B500220023A1F513
:104FB00010646A3C00D100BF0A1201249440A3B2DD
:104FC000DC43048010BD0000003801400044004074
:104FD00000480040004C00400050004010B5012047
:104FE000FEF714FE0020FEF711FE10BD2A490860EE
:104FF00070472949091F08607047274984310860B4
:10500000704701460020254A10884FF67F42104025
:105010000843224A10807047014600201F4A10882A
:105020004FF68072104008431C4A1080704708B544
:1050300000220092194A2C3A0092009A02440092EF
:10504000009A116008BD08B5014600200090134881
:105050002C3800900098084400900098008808BD03
:105060000D489C300068C0B270470C48083000887A
:1050700040F0010009490831088070470648A03017
:105080000068C0B2704705480830008840F0020050
:10509000024908310880704704860D422C6C00409C
:1050A00070B586B00646002501A8FEF70EFD404902
:1050B0000198B0FBF1F57543002400E0641CAC429C
:1050C000FCD306B070BD30B585B06846FEF7FDFC78
:1050D0004FF47A720198B0FBF2F1B1F1807F00D306
:1050E0001DE021F07F40401E4FF0E022506150173C
:1050F0000F22002807DA13071D0E2E4B00F00F04B5
:10510000241F1D5503E013071C0E2B4B1C5400BF1E
:1051100000204FF0E02290610720106100BF05B031
:1051200030BD2649086000BF244909680029FBD129
:1051300070472249486070472048406808B90120FC
:1051400070470020FCE71D49886070471B48806855
:1051500008B9012070470020FCE71849C860704773
:105160001648C06808B9012070470020FCE71348C2
:10517000006820B111480068401E104908600F48BF
:10518000406820B10D484068401E0C4948600B48FB
:10519000806820B109488068401E08498860074837
:1051A000C06820B10548C068401E0449C860704707
:1051B00000093D0018ED00E000E400E01C130020B1
:1051C000014600BF704700BF4A4A128812F0400FE4
:1051D000FAD0C2B2474B1B1D1A80704710B586B07B
:1051E0000446012144F20400FEF7DCFC4148FFF7CD
:1051F000F1FC4FF40070ADF8140003208DF8160098
:1052000018208DF8170005A93B48FEF7AFF94FF4B9
:105210008060ADF8140004208DF8170005A9364809
:10522000FEF7A4F925208DF8000003208DF8010079
:105230008DF8020001208DF803006846FEF7CDF8D6
:1052400001940020ADF80800ADF80A00ADF80C009C
:10525000ADF810000C20ADF80E0001A92548FFF7AD
:10526000FCFC012240F225512248FFF78EFD01216E
:105270002048FFF77EFD06B010BD10B540F2255165
:105280001C48FFF767FE10B31A48FFF7E3FDC4B2EE
:105290001A48008810F4004F2BD11848008810F4E9
:1052A000804F0CD00A2C03D000201449088020E045
:1052B0001248008840F400401049088019E00D2C85
:1052C00006D10E48008840F480400C49088010E068
:1052D0000A480088C0F30D0009490C5407480088AB
:1052E000401C0649088008460088C72801DD0020C8
:1052F000088010BD003801400008014094000020E3
:105300002C1300200CB50020019000906B48006821
:1053100040F480306949086000BF6848006800F4C4
:10532000003000900198401C0190009818B9019835
:10533000B0F5A06FF1D16148006810F4003F02D0D1
:105340000120009001E0002000900098012842D147
:105350005B48006840F01000594908600846006842
:1053600020F0030008600846006840F00200086072
:1053700052484068514948600846406848600846BD
:10538000406840F4806048600846406820F47C1023
:1053900048600846406840F4E810486008460068E5
:1053A00040F08070086000BF4448006810F0007F43
:1053B000FAD04248406820F003004049486008465F
:1053C000406840F00200486000BF3C48406800F080
:1053D0000C000828F9D10CBD10B5FFF793FF10BDE4
:1053E00010B53648006840F00100344908600846AE
:1053F00040683449084031494860084600683249ED
:1054000008402E4908600846006820F480200860A3
:105410000846406820F4FE0048604FF41F00886092
:10542000FFF7DAFF4FF000602849086010BD10B5A3
:10543000002100200022214B5B6803F00C0121B108
:10544000042906D0082928D107E0214B214C2360EC
:1054500027E01F4B1F4C236023E0184B5B6803F4CD
:105460007010164B5B6803F48032022303EB90400C
:1054700022B9194B4343174C23600DE00F4B5B6877
:1054800013F4003F04D0144B4343124C236003E059
:105490000F4B43430F4C236003E00D4B0D4C236037
:1054A00000BF00BF054B5B68C3F303130B4CE15C0B
:1054B000084B1B68CB40074C236010BD0010024016
:1054C000002002400000FFF8FFFFF6FE08ED00E0BC
:1054D00000127A009C00002000093D00A00000207E
:1054E0000948804709480047FEE7FEE7FEE7FEE778
:1054F000FEE7FEE7FEE7FEE7FEE7FEE704480549B4
:10550000054A064B70470000E1530008ED00000813
:1055100058140020581A0020581600205816002051
:10552000704700000FB4044910B503AA029800F0B8
:10553000EFFA10BC5DF814FB980000200FB41CB506
:10554000074B06AA7B4469460090059800F0C7FA0D
:105550000020694600F0D6FA1CBC5DF814FB000080
:10556000BD05000070B5044685690068C10601D517
:10557000302600E02026C00708D070BDD4E9012104
:1055800030469047206A00F1010020626D1EF5D57B
:1055900070BD70B5044685690078C00708D170BD3C
:1055A000D4E9012120209047206A00F10100206207
:1055B0006D1EF5D570BD00002DE9F04106460024B2
:1055C00010687529314616A511D0AFF30080002868
:1055D00003DAC0F1000013A507E031688A0701D59E
:1055E00011A502E0490704D510A5012401E0AFF39D
:1055F000008000210A2306F1240707E0B0FBF3F244
:1056000003FB1200303078541046491C0028F5D1B5
:1056100023462A463046BDE8F04100F0FFB90000BD
:10562000000000002D0000002B0000002000000002
:105630002DE9F05F894604464FF0000ADFF828B1F3
:10564000FB44C0F820A02046E168884700287CD0B1
:10565000252806D0D4E901219047206A401C206209
:10566000F1E700255F462046E16888472028064686
:1056700008DB312E06D207EB060010F8200C08B12B
:105680000543F0E7A80701D525F00405C4F81CA0E0
:105690000027C4F818A02A2E09D0304600F028FDB3
:1056A00038B304EB8708303EC8F8186019E059F8A1
:1056B000041B204604EB87029161E1688847012FB3
:1056C000064618D1E069002820DA25F020051DE003
:1056D000D8F8180000EB800006EB40003038C8F81E
:1056E00018002046E1688847064600F001FD0028C2
:1056F000EED1012F0AD02E2E08D12046E16888472E
:105700007F1C0646022F45F02005C4DBA069002857
:1057100003DA404245F00105A061E80701D025F019
:10572000100596B1A6F14100192802D8203645F49B
:1057300000654A463146204625604D46FAF710FD81
:1057400060B1012807D0ED1D00E009E025F0070059
:1057500000F1080977E705F1040974E7304679E7B5
:10576000206ABDE8F09F0000A01700000FB400B54C
:105770008DB010A9099000910B904FF0FF300A9066
:1057800000200C90064878440690064878446A4603
:1057900007900F9909A800F0E1F90DB05DF814FB2E
:1057A000F30300000B0400002DE9FF5F1D464FF0DE
:1057B000FF3B91464FF000085F46D5E90146A969D5
:1057C00001987F1C8847296A824688470028F6D1BD
:1057D0001AF101000CD0002E24F4C06419DD60061B
:1057E00014D5BAF12B0F09D0BAF12D0F0ED103E069
:1057F000584604B0BDE8F09F44F48064A96901985C
:105800007F1C8847761E8246002E02DDBAF1300FDB
:1058100003D0B9F1000F26D032E0A969761E0198B5
:105820007F1C44F400748847002E824605DDBAF1DF
:10583000780F06D0BAF1580F03D0B9F1000F10D08D
:105840001EE0B9F1000F02D0B9F1100F18D1A9690B
:10585000761E01987F1C24F400748847824610202D
:1058600002E0082000E00A20814609E0A96908FB5F
:105870000908761E01987F1C44F40074884782460C
:10588000002E05DD4946504600F054F90028EDDAB7
:10589000E96901988847A00502D46FF00100A8E7E4
:1058A000E00727D1600614D5600502D5C8F10000D5
:1058B00000E04046296801F104022A6009682205D7
:1058C00001D5087016E0220701D5088012E00860B3
:1058D00010E0286800F1040129600068210502D564
:1058E00080F8008006E0210702D5A0F8008001E0E2
:1058F000C0F8008038467CE710B5431C02E010F881
:10590000011B71B18107FAD14FF0013202C88C1A24
:105910008C4314EAC211F9D0C01A0A0603D0C01E83
:1059200010BDC01A10BD0A0401D0801E10BD0902AE
:10593000FCD0401E10BD032A40F2308010F0030C52
:1059400000F0158011F8013BBCF1020F624498BFD2
:1059500011F801CB00F8013B38BF11F8013BA2F16F
:10596000040298BF00F801CB38BF00F8013B11F0EA
:10597000030300F02381083AC0F0088051F8043B8B
:10598000083A51F804CBA0E80810F5E7121D5CBFF7
:1059900051F8043B40F8043BAFF30080D20724BF2A
:1059A00011F8013B11F801CB48BF11F8012B24BFBE
:1059B00000F8013B00F801CB48BF00F8012B70470D
:1059C00002F0FF0343EA032242EA024200F002B877
:1059D0004FF000020429C0F0128010F0030C00F018
:1059E0002181CCF1040CBCF1020F18BF00F8012B8F
:1059F000A8BF20F8022BA1EB0C0100F013B95FEA5D
:105A0000C17C24BF00F8012B00F8012B48BF00F82F
:105A1000012B704770477047704770472DE9F0477A
:105A20000D4699469246044600F12408016888060E
:105A300004D5E06921F01001216000E00120A842B6
:105A400002DDA0EB050700E00027A16907EB0502D6
:105A500002EB0900A1EB0000A0612078C00602D48F
:105A60002046FFF77FFD002608E0D4E901211AF85F
:105A700006009047206A401C761C20624E45F4DBED
:105A80002078C0060AD52046FFF76CFD06E0D4E971
:105A9000012130209047206A401C2062381EA7F167
:105AA0000107F4DC07E0D4E9012118F8050090476C
:105AB000206A401C2062281EA5F10105F3DC204667
:105AC000FFF767FD2078000602D50220BDE8F087C9
:105AD0000120FBE701694A1C02610878704700B5A4
