:020000040800F2
:10000000F81900202D580008190200081B020008EA
:100010001F02000823020008270200080000000059
:100020000000000000000000000000002B0200089B
:100030002D020008000000002F0200083102000815
:100040004758000847580008475800080913000897
:100050004758000847580008475800084758000804
:1000600047580008475800084758000847580008F4
:1000700047580008475800084758000847580008E4
:1000800047580008475800084758000847580008D4
:1000900047580008475800084758000847580008C4
:1000A00047580008475800084758000847580008B4
:1000B0003902000847580008475800084758000808
:1000C0004758000847580008475800084758000894
:1000D00047580008C7550008475800084758000807
:1000E00047580008475800084758000800F002F831
:1000F00000F03FF80AA090E8000C82448344AAF183
:100100000107DA4501D100F034F8AFF2090EBAE880
:100110000F0013F0010F18BFFB1A43F0010318473B
:10012000E06B0000006C0000103A24BF78C878C172
:10013000FAD8520724BF30C830C144BF04680C60ED
:10014000704700000023002400250026103A28BF35
:1001500078C1FBD8520728BF30C148BF0B60704739
:10016000642905F0C383002070471FB51FBD10B57B
:1001700010BD05F07BFD1146FFF7F7FF00F008F812
:1001800005F099FD03B4FFF7F2FF03BC05F0BEF9DB
:1001900000BF4FF4A06004F091FC05F04CF903F0AF
:1001A0007FF80121084604F061FE0121174803F0A1
:1001B00058FC00F03FFE02F088FB01F046F800F02A
:1001C000CAF84FF4167005F064F94FF40041104876
:1001D00003F023FC4EF6602005F063F900200D4982
:1001E0000870402102F000FA0FE000F080FD05F0F9
:1001F0005BF9012803D1C103054803F010FC02F0AC
:100200009DFE4021002002F0EFF9EEE700023000F1
:100210000008014000000020704700BFFEE700BF5B
:10022000FEE700BFFEE700BFFEE77047704770477C
:1002300010B505F04AF910BD10B50121880704F08A
:1002400039FC10BD2DE9F04707468846154699460A
:10025000089EB8F1000F06D0B8F1010F09D0B8F12F
:10026000020F2DD119E03A464946284601F076FFA3
:1002700027E0384605F014FC00EB40004006040E71
:10028000A64203DD301BC0F3470400E00024281918
:100290003A46494601F062FF13E0384605F000FC9B
:1002A00000EB40004006040EA64202DD301BC4B243
:1002B00000E0002428193A46494601F04FFF00E0CB
:1002C00000BF00BFBDE8F08710B5044622463421C8
:1002D000062001F043FF10BD10B50446224634212C
:1002E000002001F03BFF10BD38B5044680200023FC
:1002F0001A46012100902046FFF7A4FF38BDF8B54B
:1003000005460F4614461E46012366223321182057
:1003100001F0BBFC01233F223321182001F018FD1E
:1003200001233F223321662001F012FD287838B1E5
:100330004A2034231B22394600902846FFF782FFCB
:10034000207838B14A2034231B22314600902046C1
:10035000FFF778FFF8BD10B502F098F8AFA20021C2
:10036000084601F0FBFEB2A20D21002001F0F6FECE
:10037000B3A21A21002001F0F1FEB5A2342102201F
:1003800001F0ECFEB3A0FFF79FFFB4A0FFF7A4FFBE
:100390004021002002F028F910BD10B5044602F0FB
:1003A00075F8B0A20021084601F0D8FEAFA20D21D9
:1003B000002001F0D3FEB1A21A21002001F0CEFEF0
:1003C000012C06D0022C0DD0032C14D0042C24D1E7
:1003D0001AE0AEA20D21002001F0C0FE0620AC49BB
:1003E00008701BE0A9A21A21002001F0B7FE082026
:1003F000A749087012E0A5A20D21042001F0AEFE6D
:100400000720A349087009E0A0A21A21042001F0E6
:10041000A5FE09209E49087000E000BF00BF9DA016
:10042000FFF752FF8DA0FFF757FF4021002002F099
:10043000DBF810BD10B5044602F028F897A20021A1
:10044000084601F08BFE9AA20D21002001F086FEE5
:1004500099A21A21002001F081FE012C02D0022C69
:1004600012D108E089A20D21002001F077FE0A20B8
:100470008749087009E085A21A21002001F06EFE6C
:100480000B208349087000E000BF00BF81A0FFF788
:100490001BFF72A0FFF720FF4021002002F0A4F80C
:1004A00010BD00B589B07A4800780E281BD009DC51
:1004B0000C2834D2DFE800F00E33333333332A2BE9
:1004C0002C2D15161B38062829D2DFE800F004056C
:1004D0000607080900BF00BF00BF00BF00BF00BF84
:1004E00000BF00BF00BF7648807800907448437812
:1004F000027874A101A805F0BBF9002075490870C5
:1005000001AA3421022001F029FE09E000BF00BF4A
:1005100000BF71A23421032001F020FE00E000BFE3
:1005200000BF09B000BD00B589B001F0AFFF6C4855
:1005300063490A6802604A6842600989018169A2C8
:100540000021084601F00AFE6548C0790090644821
:100550008379828867A101A805F08AF900205D49A6
:10056000087001AA0D21012001F0F8FD5C48807897
:1005700000905B484378027852A101A805F078F911
:1005800000205449087001AA1A21022001F0E6FD5A
:1005900040A0FFF799FE55A0FFF79EFE40210020E6
:1005A00002F022F809B000BD00B589B001F06EFF7D
:1005B00054A20021084601F0D1FD4948C0790090BD
:1005C0004748837982884BA101A805F051F90020A2
:1005D0004049087001AA0D21012001F0BFFD4048EB
:1005E000807800903E484378027836A101A805F053
:1005F0003FF900203749087001AA1A21022001F0B2
:10060000ADFD24A0FFF760FE42A0FFF765FE40218C
:10061000002001F0E9FF09B000BD000020202020EB
:10062000B2B8C8E9BCC7C2BC20202020000000002E
:10063000D4B8C0EEBCCEEEC8D0A1B1A6B1A6000021
:1006400020202020202020BDA1BFB5B3C9B3A40025
:1006500020202000B2CBB5A500000000B2E9BFB455
:1006600000000000CFEEC4BF000000002020B2B8A0
:10067000C8E9200909B2B9CBAE0000002020B4F3CC
:10068000B1E3200909D0A1B1E3000000A1CC000032
:1006900000000020B7B5BBD80000000020202020BB
:1006A0002020B2CBB5A52020202020200000000073
:1006B0002020CAB1BCE400002020C7E5BFD500005F
:1006C000B0000020253032643A253032643A2530BB
:1006D0003264000030000020A1FCA1FD00000000F9
:1006E000BA000020B0B4C9CFCFC2BCFCD1A1D4F1B4
:1006F0000000000025642D253032642D2530326441
:1007000000000000B0B4C9CFCFC2BCFCD0DEB8C47A
:1007100000000000B1A3B4E60000000010B50446DC
:10072000FC4800781538062814D2DFE800F00314DE
:100730002D465F78012C05D1F7488088401CF6498A
:10074000888005E024B9F4488088401EF2498880FA
:10075000FFF72AFF7CE0012C09D1EF4880790C28B3
:1007600005DAED488079401CEB49887109E044B90D
:10077000E9488079012804DDE7488079401EE64990
:100780008871FFF711FF63E0012C09D1E248C079BD
:100790001F2805DAE048C079401CDF49C87109E02C
:1007A00044B9DD48C079012804DDDB48C079401E2A
:1007B000D949C871FFF7F8FE4AE0012C09D1D648A3
:1007C0000078182805DAD4480078401CD24908700F
:1007D00009E044B9D0480078012804DDCE4800780B
:1007E000401ECD490870FFF7DFFE31E0012C09D132
:1007F000C94840783C2805DAC7484078401CC649BB
:10080000487009E044B9C4484078012804DDC24872
:100810004078401EC0494870FFF7C6FE18E0012C22
:1008200009D1BD4880783C2805DABB488078401C57
:10083000B949887009E044B9B7488078012804DDD7
:10084000B5488078401EB4498870FFF7ADFE00BF00
:1008500000BF10BD10B504462046642C0CD0A0F596
:10086000EA40943811D0A0F5EA40303816D0A0F50F
:10087000EA40303824D11AE002210A2002F010FFA9
:10088000A64908800846008810BD0221142002F005
:1008900007FFA249488008464088F5E702211E204C
:1008A00002F0FEFE9D49888008468088ECE7022120
:1008B000282002F0F5FE9949C8800846C088E3E781
:1008C00000BF00BF00BFDFE770B505460C462846F5
:1008D000642D0CD0A0F5EA40943810D0A0F5EA4081
:1008E000303814D0A0F5EA40303820D117E0022289
:1008F00021460A2002F080FE8848048018E0022287
:100900002146142002F078FE8448448010E0022240
:1009100021461E2002F070FE8048848008E00222FA
:100920002146282002F068FE7C48C48000E000BF19
:1009300000BF70BDF0B589B005460F460026002403
:1009400001F0A4FD00BF3BE075490968091B01EBFC
:10095000410105EB4100062204A902F0D0FE04A8E3
:1009600000F08BFD6F4800786E4949786D4A9278A7
:100970006C4BDB78CDE90032CDE902106948808804
:10098000A0F5FA6366480068001B674909880A1ADF
:1009900066A104A804F06CFF00206B490870601C7D
:1009A00000EB800202EBC000811E04AA002001F0CF
:1009B000D5FB5B480068001B00D103E0601CC4B29B
:1009C000032CC1DB00BF2846642D0CD0A0F5EA4003
:1009D00094380CD0A0F5EA4030380CD0A0F5EA40AD
:1009E000303810D10BE059A0FFF776FC0CE059A08D
:1009F000FFF772FC08E059A0FFF76EFC04E059A075
:100A0000FFF76AFC00E000BF00BF58A0FFF75CFCE6
:100A10004021002001F0E8FD09B0F0BD2DE9F041D2
:100A20008AB0064600200290002400253046FFF7D9
:100A300011FF054625B94FA103A804F019FF5DE099
:100A4000681E3749086038480580096801EB410194
:100A500006EB4100062207A902F051FE9DF81C009A
:100A600004449DF81D0004EB00249DF81E0004EBD7
:100A700000449DF81F0004EB006407A800F0FDFC93
:100A800003F08CF802900298001B02903D490298F6
:100A900008600298002805DA2A463BA103A804F062
:100AA000E7FE2BE03C49029888421EDC354800688E
:100AB0004FF4B471B0FBF1F00A21B0FBF1F201FB8D
:100AC0001208304800684FF46161B0FBF1F73B4613
:100AD0001548CDF80080028830A103A804F0C8FEB4
:100AE00001213046FFF726FF08E02A4630A103A87F
:100AF00004F0BEFE01213046FFF71CFF03AA0021CF
:100B0000084601F02BFB4021002001F06DFD0AB0EA
:100B1000BDE8F08100000020BA0000201000002095
:100B2000040000201E0000200C00002025645F252A
:100B3000303264253032642530326420253032640E
:100B40003A2530326400000030000020B2B8C8E915
:100B500000000000B2B9CBAE00000000B4F3B1E376
:100B600000000000D0A1B1E300000000B7B5BBD881
:100B700000000000B9B230CCF57CCEDECAFDBEDD8F
:100B80000000000008000020B9B22564CCF57C65A7
:100B900072726F7200000000002F0D00B9B2256460
:100BA000CCF57C25642E2564D0A1CAB100000000DC
:100BB000B9B22564CCF57CB3ACCAB100F0B587B04E
:100BC00007460024002500263846FFF743FE04466A
:100BD00002F0E4FF0546E8B28DF81000280A8DF80F
:100BE0001100280C8DF81200280E8DF8130004EB6C
:100BF000440107EB4100062204A902F090FD3220D7
:100C000004F047FC04EB440107EB4100062201A974
:100C100002F075FD9DF8040006449DF8050006EB02
:100C200000269DF8060006EB00469DF8070006EB3F
:100C3000006601A800F021FCAE420BD1601C84B21A
:100C400021463846FFF740FE601EDD490860384601
:100C5000FFF7E4FE07B0F0BD10B501F017FCD9486E
:100C60000078062806D0072811D008281CD00928AB
:100C700032D126E06420FFF7EDFDD1490860642001
:100C8000FFF7CCFEAFF23C10FFF726FB25E047F262
:100C90009450FFF7DFFD47F29450FFF7BFFEAFF22D
:100CA0004C10FFF719FB18E04EF6C420FFF7D2FDF9
:100CB0004EF6C420FFF7B2FEAFF26010FFF70CFB58
:100CC0000BE0C148FFF7C6FDBF48FFF7A7FEAFF234
:100CD0006C10FFF701FB00E000BF00BFAFF2741023
:100CE000FFF7F2FA4021002001F07EFC10BD10B5A4
:100CF0004FF48041B54802F076FE08B9012000E0CB
:100D00000020C0B10A2004F0C4FB4FF48041AF487A
:100D100002F069FE08B9012000E0002058B14FF44C
:100D20000041AB4802F079FE4EF6602004F0B9FBBA
:100D300000F0CEFE10BD4FF48071A54802F053FEC6
:100D400008B9012000E00020C0B10A2004F0A1FB96
:100D50004FF480719E4802F046FE08B9012000E081
:100D6000002058B14FF40041994802F056FE4EF66B
:100D7000602004F096FB00F005FCDBE74FF4005127
:100D8000924802F030FE08B9012000E00020C0B116
:100D90000A2004F07EFB4FF400518C4802F023FE41
:100DA00008B9012000E0002058B14FF40041884804
:100DB00002F033FE4EF6602004F073FB00F096FC68
:100DC000B8E74FF40041814802F00DFE08B9012058
:100DD00000E00020C0B10A2004F05BFB4FF40041AA
:100DE0007A4802F000FE08B9012000E0002058B166
:100DF0004FF40041764802F010FE4EF6602004F0F9
:100E000050FB00F00DFE95E74FF480516F4802F063
:100E1000EAFD08B9012000E0002048B14FF400418C
:100E20006B4802F0FAFD4EF6602004F03AFB81E7D1
:100E300000BF7FE708B50121042004F017F8012165
:100E4000084604F013F84FF40040ADF800001020FD
:100E50008DF8030003208DF8020069465C4802F01B
:100E600031FD4FF400415A4802F0D7FD4FF4807035
:100E7000ADF8000048208DF8030003208DF8020033
:100E80006946534802F01EFD0121082003F0EEFFE1
:100E90004FF47040ADF8000048208DF803000320A7
:100EA0008DF802006946494802F00CFD0121084610
:100EB00003F0DCFF3B20ADF8000003208DF80200BA
:100EC00010208DF803006946404802F0FBFCFB202F
:100ED000ADF8000010208DF8030003208DF802000B
:100EE00069463B4802F0EEFC08BD30B502460B46B1
:100EF0001468156801210EE052F82100A04202D9C1
:100F000052F8214005E052F82100A84201D252F8DF
:100F10002150481CC1B29942EEDB601B30BD30B598
:100F200002460B461488158801210EE032F81100A4
:100F3000A04202DD32F8114005E032F81100A8426B
:100F400001DA32F81150481CC1B29942EEDB601B45
:100F500080B230BD10B502460B460020108801213A
:100F600007E032F81140844201DD32F811004C1CD8
:100F7000E1B29942F5DB10BD10B502460B460020E8
:100F80001088012107E032F81140844201DA32F87A
:100F900011004C1CE1B29942F5DB10BD30B50246A0
:100FA0000023002404E032F8025B2B44601C84B26E
:100FB0008C42F8DB09B1B3FBF1F398B230BD00000D
:100FC0000400002000000020F45F0100000C01403C
:100FD0000008014008B503208DF8000000208DF8BE
:100FE00001008DF8020001208DF80300684603F02F
:100FF0006AFD08BDF0B503460C461546642093FB18
:10100000F0F0C6B2642093FBF0F700FB1730C1B2DA
:10101000132E02DD01F16400C1B20846CF1701EBC7
:10102000977701EBA707BAB2072092FBF0F700FB16
:10103000172082B25719601EDFF86CC41CF800003C
:10104000384482B2CF1701EB9777BF10B1EB870717
:1010500003D1032C01DA501E82B2072092FBF0F775
:1010600000FB1720C0B2F0BD0146CA1701EB927217
:101070009210B1EB820212D1642091FBF0F200FBDE
:10108000121050B94FF4C87091FBF0F200FB12102F
:1010900008B9012070470020FCE70120FAE7002092
:1010A000F8E770B500260024002502F077FD06461B
:1010B000FE48B6FBF0F4FE480088A0423CD0FC4954
:1010C0000C8040F2E27510E02846FFF7CDFF40B1FA
:1010D000B4F5B77F02D3A4F5B77404E0681C85B2F9
:1010E00006E0A4F26D14681C85B2B4F5B67FEBD8A7
:1010F00000BFF0488580002516E0EE498888FFF79C
:10110000B3FF30B1012D04D11D2C01D31D3C09E0EA
:101110000CE0E948405DA04203D8E748405D241A4E
:1011200000E003E0681C85B21C2CE6D200BF681CFE
:10113000E0498871601CC871DC48B6FBF0F100FB27
:1011400011644FF46160B4FBF0F0DA4908704FF4B9
:101150006160B4FBF0F100FB11403C21B0FBF1F009
:10116000D44948704FF46160B4FBF0F100FB1140CA
:101170003C21B0FBF1F201FB1200CE4988700B4616
:10118000DA7999799888FFF735FFCA490872002003
:1011900070BD2DE9F05F06460F4690469946DDE9A1
:1011A0000AAB002440F2E270864203DB40F63300D3
:1011B000864202DD0120BDE8F09F40F2E2750AE0C0
:1011C0002846FFF751FF10B1BC48044401E0BC4879
:1011D0000444681C85B2B542F2DB781EC7B2002514
:1011E00010E0B548405D40F2A321484304EBC01431
:1011F0003046FFF739FF18B1012D01D1AB48044447
:10120000681C85B2BD42ECDBA8F1010040F2A321CD
:10121000484304EBC014C9EB4910C0EB092004EBB0
:101220000014CAEB0A1004EB80045C4401214FF067
:10123000C05003F028FE012003F08BFE204602F090
:10124000B6FC02F0E7FC0020B5E71CB50024012144
:101250004FF0C05003F017FE012003F07AFE042087
:1012600002F0A3FAA0F5A04150393FD002F068FA8D
:10127000012003F06BFD04E0601CC4B20A2004F0FE
:1012800008F9412003F0CBFC08B9FA2CF4DBFA2C66
:1012900001DB01201CBD4FF4807003F070FD0120C4
:1012A00003F073FD02F0B6FC02F0BCFC012108461D
:1012B00002F054FC02F0AEFC02F05DFC47F6FF7059
:1012C00002F082FC02F0A6FC14200090062301220A
:1012D0001146019040F2E270FFF75BFF02F054FC10
:1012E00045F25001042002F054FA07E002F09AFCA3
:1012F0000121084602F032FC02F08CFCFFF76AFE86
:10130000FFF7CFFE0020C5E710B5012002F0AEFCCC
:1013100018B1FFF7C6FEFFF7C4F8012002F0B6FCD3
:1013200002F078FC10BD2DE9F05F06460F469046AE
:101330009946DDE90AAB002440F2E270864203DB05
:1013400040F63300864202DD0120BDE8F09F40F206
:10135000E2750AE02846FFF787FE10B157480444BB
:1013600001E057480444681C85B2B542F2DB781EA0
:10137000C7B2002510E05048405D40F2A321484329
:1013800004EBC0143046FFF76FFE18B1012D01D1F8
:1013900046480444681C85B2BD42ECDBA8F101005C
:1013A00040F2A321484304EBC014C9EB4910C0EB41
:1013B000092004EB0014CAEB0A1004EB80045C441F
:1013C00001214FF0C05003F05EFD012003F0C1FD8C
:1013D000204602F007FC02F01DFC0020B5E72DE9D5
:1013E000F04705460E4617469846DDE9089A002361
:1013F00040F2E270854203DB40F63300854202DDB5
:101400000120BDE8F08740F2E2740AE02046FFF7D1
:101410002BFE10B12948034401E029480344601C15
:1014200084B2AC42F2DB701EC6B2002410E0224847
:10143000005D40F2A321484303EBC0132846FFF7A9
:1014400013FE18B1012C01D118480344601C84B26A
:10145000B442ECDB781E40F2A321484303EBC013F7
:10146000C8EB4810C0EB082003EB0013C9EB0910D0
:1014700003EB800353441846C3E770B506460025C6
:101480000023002430780544707805EB0025B078FF
:1014900005EB0045F07805EB00650448B5FBF0F37B
:1014A0000848008898420FE0DA5C0008805101008B
:1014B00024000020B0000020E65C00080085E20166
:1014C0008033E101260000203CD02A490B8040F205
:1014D000E27410E02046FFF7C7FD40B1B3F5B77FD7
:1014E00002D3A3F5B77304E0601C84B206E0A3F254
:1014F0006D13601C84B2B3F5B67FEBD800BF1E48F5
:101500008480002416E01C498888FFF7ADFD30B1C7
:10151000012C04D11D2B01D31D3B09E00CE0174821
:10152000005D984203D81548005D1B1A00E003E0F7
:10153000601C84B21C2BE6D200BF601C0E49C87030
:10154000581C88700E48B5FBF0F100FB11534FF4A6
:101550006160B3FBF0F0084948704FF46160B3FB81
:10156000F0F100FB11303C21B0FBF1F002490870B2
:10157000002070BD260000201E000020E65C000850
:101580008051010010B555480078212870D2DFE85D
:1015900000F066A1A1A1A1A1111213141E25A1A101
:1015A000A167707880889098999A9B9C9D2C3AA10D
:1015B000A149580000BF00BF00BF012000F0DCF9C6
:1015C0004749087008460078FEF7E7FE83E00220EE
:1015D000FEF730FF0B20414908707CE00120FEF748
:1015E00029FF0A203D49087075E03E480068801ECA
:1015F00008D03C480068401E3A4908600121642038
:10160000FFF798F967E037480068801E09D0354831
:101610000068401E33490860012147F29450FFF7EB
:1016200089F958E02F480068801E09D02D480068CD
:10163000401E2C49086001214EF6C420FFF77AF9BC
:1016400049E028480068801E08D026480068401EEF
:101650002449086001212448FFF76CF93BE03AE097
:101660004FF4FA7003F015FF10201C49087032E0A7
:1016700030E04FF4FA7003F00CFF112017490870A6
:1016800029E04FF4FA7003F004FF122013490870A8
:1016900021E04FF4FA7003F0FCFE13200F490870AC
:1016A00019E04FF4FA7003F0F4FE14200B490870AF
:1016B00011E04FF4FA7003F0ECFE0F2007490870B8
:1016C00009E000BF00BF00BF00BF00BF0020FFF760
:1016D00025F800E000BF00BF10BD000000000020A2
:1016E0002800002004000020F45F010010B586B03F
:1016F000B048007821286FD2DFE800F0116E6E6EDE
:101700006E6E181E242AF46F986E6EFDFCFBFAF9BB
:10171000F8CCCDCECFD0D1303F6E6E4F5F000120E0
:10172000FEF73BFE0620A349087022E1FFF794FA7A
:101730001B20A04908701CE1FFF78EFA1C209D4970
:10174000087016E1FFF788FA1F209A49087010E127
:10175000FFF782FA2020974908700AE1964800684E
:10176000B0F5616F05D29548008893490968084330
:1017700002D16420FFF722FAFBE08F480068B0F541
:10178000616F05D28D4840888B490968084303D1B1
:1017900047F29450FFF712FAEBE087480068B0F583
:1017A000616F05D28548808883490968084303D161
:1017B0004EF6C420FFF702FADBE07F480068B0F580
:1017C000E16F05D27D48C0887B490968084302D192
:1017D0007B48FFF7F3F9CCE0CAE000F057FE402168
:1017E000002000F001FF77A102A804F041F802AA4E
:1017F0000D21002000F0B2FC76A102A804F038F818
:1018000002AA1A21002000F0A9FC76A102A804F087
:101810002FF802AA3421002000F0A0FC4021002073
:1018200000F0E2FE0C2063490870A2E002220021D1
:101830000A2001F0E1FE02220021142001F0DCFE6A
:10184000022200211E2001F0D7FE022200212820C2
:1018500001F0D2FE68A102A804F00AF802AA0D2144
:10186000002000F07BFC67A102A804F001F802AAA6
:101870001A21002000F072FC4021002000F0B4FE8C
:101880004FF4FA6003F005FEFEF765FD00204949BC
:1018900008706EE000BF00BF00BF00BF00BF02F0D5
:1018A000B9F902F068F947F6FF7002F08DF902F01D
:1018B000B1F95848807857494978564CCDE900101D
:1018C0002378E279A179A088FFF763FC02F05CF944
:1018D00045F25001042001F05CFF40F24C4003F05F
:1018E000D8FD00BFFEF71FFE012005E037E02DE028
:1018F00023E019E00FE005E0474908700F202D496B
:10190000087036E0012044490870FEF74DFE1520AE
:10191000284908702DE001203F490870FEF744FE79
:1019200016202449087024E001203B490870FEF786
:101930003BFE17201F4908701BE001203649087044
:10194000FEF732FE18201B49087012E001203249D0
:101950000870FEF729FE19201649087009E00120D9
:101960002D490870FEF720FE1A201249087000E089
:1019700000BF00BF06B010BD014629B1274800785E
:10198000401C264A107004E024480078401E234A78
:1019900010702248007810B90420204A10701F48A7
:1019A0000078052802D101201C4A10701B480078DD
:1019B00070470000000000200800002010000020F8
:1019C000F45F0100BDABC7E5BFD5CBF9D3D0CAFDED
:1019D000BEDD0000C7EBC8B7C8CFD6B4D0D0B2D9EF
:1019E000D7F70000C8B7C8CF202020202020202013
:1019F000B7B5BBD800000000202020B2D9D7F7CD62
:101A0000EAB3C900BCB4BDABB7B5BBD8D6F7BDE728
:101A1000C3E60000BA0000200E00002028000020CD
:101A200010B52A48007821284DD2DFE800F0294C73
:101A30004C4C4C4C11121314154C164C28222324D8
:101A40002526271C1D1E1F202130374C4C3E4500EB
:101A500000BF00BF00BF00BF00BFFEF77CFC00203E
:101A60001A49087030E000BF00BF00BF00BF00BFD0
:101A700000BF00BF00BF00BF00BF00BF00BF00BF6E
:101A80000120FEF7D7FC0A20104908701CE0012055
:101A9000FEF783FC06200D49087015E00320FEF7D1
:101AA0007CFC0720094908700EE00220FEF775FC57
:101AB00008200649087007E00420FEF76EFC0920A4
:101AC0000249087000E000BF00BF10BD0000002008
:101AD00010B56348007821287ED2DFE800F084BE8C
:101AE000BEBEBEBE111213141E25BEBEBE858D9590
:101AF0009DA5ADB5B6B7B8B9BA2C41BEBE576D00FD
:101B000000BF00BF00BF0020FFF736FF5549087037
:101B100008460078FEF741FCA0E00220FEF78AFCB0
:101B20000B204F49087099E00120FEF783FC0A2042
:101B30004B49087092E04C4801884C480068401CB2
:101B4000814208D949480068012804D947480068FB
:101B5000401C4649086000216420FEF7EBFE7DE052
:101B60004148418841480068401C814208D93F48AB
:101B70000068012804D93D480068401C3B490860C2
:101B8000002147F29450FEF7D5FE67E03648818881
:101B900036480068401C814208D934480068012852
:101BA00004D932480068401C3049086000214EF6D4
:101BB000C420FEF7BFFE51E02B48C1882B480068C7
:101BC000401C81420AD929480068012806D92748C3
:101BD0000068401C254900E03FE0086000212448DF
:101BE000FEF7A8FE3AE039E04FF4FA7003F051FC3A
:101BF00014201B49087031E04FF4FA7003F049FCDF
:101C00000F201749087029E04FF4FA7003F041FCE7
:101C100010201349087021E04FF4FA7003F039FCEA
:101C200011200F49087019E04FF4FA7003F031FCED
:101C300012200B49087011E04FF4FA7003F029FCF0
:101C400013200749087009E000BF00BF00BF00BFB4
:101C500000BF0120FEF762FD00E000BF00BF10BD25
:101C600000000020280000201000002004000020B8
:101C7000F45F0100024601B10AB901207047136800
:101C8000086810600B600020F8E72DE9FF410C4662
:101C900098469DF800009DF80810884203DD02A9CF
:101CA0006846FFF7E7FF3F2C03DC9DF800007F2824
:101CB00001DDBDE8FF819DF808007F2801DD7F2060
:101CC00002902046E11704EB5171C1F3C706B8F149
:101CD000000F1ED1E11704EB5171C910A4EBC10232
:101CE00001219140CFB2F843C7B29DF800500AE0FD
:101CF000F74800EBC610405D3840F54901EBC611CE
:101D00004855681CC5B29DF80800401C8542EFDBB1
:101D10001CE02046E11704EB5171C910A4EBC1028D
:101D200001219140CFB29DF800500AE0E84800EB55
:101D3000C610405D3843E64901EBC6114855681CA2
:101D4000C5B29DF80800401C8542EFDB00BFB0E73C
:101D50002DE9FF41044698469DF804009DF80810BF
:101D6000884203DD02A901A8FFF784FF9DF8040063
:101D70003F2801DC7F2C01DDBDE8FF819DF80800D4
:101D80003F2801DD072002909DF80400C11700EBF9
:101D90005171CD109DF80800C11700EB5171CE10A4
:101DA000B54246D1B8F1000F21D19DF80410CA17F1
:101DB00001EB5272D210A1EBC203FF229A409DF8B0
:101DC0000800C31700EB5373DB10A0EBC303C3F190
:101DD000070CFF2303FA0CF31A40BD4B03EBC513AA
:101DE0001B5D9343BA4A02EBC5121355BBE09DF845
:101DF0000410CA1701EB5272D210A1EBC203FF22EA
:101E00009A409DF80800C31700EB5373DB10A0EB5A
:101E1000C303C3F1070CFF2343FA0CF31A40AC4B86
:101E200003EBC5131B5D1A43A94B03EBC5131A55EE
:101E300099E0B8F1000F4CD19DF80400C11700EBF8
:101E40005171C910B0EBC10115D09DF80400C11744
:101E500000EB5171C910A0EBC102FF2191409C4AD7
:101E600002EBC512125D22EA0101994A02EBC5128A
:101E70001155681CC5B29DF80800C11700EB5171DF
:101E8000C910A0EBC101072917D09DF80800C117A0
:101E900000EB5171C910A0EBC101C1F10702FF2194
:101EA00011418B4A02EBC612125D22EA0101884AF7
:101EB00002EBC6121155701EC6B22F4606E0002076
:101EC000834901EBC7110855781CC7B2B742F6DD4C
:101ED00049E09DF80400C11700EB5171C910B0EB47
:101EE000C10114D09DF80400C11700EB5171C91055
:101EF000A0EBC102FF219140754A02EBC512125DB1
:101F00001143734A02EBC5121155681CC5B29DF806
:101F10000800C11700EB5171C910A0EBC1010729DE
:101F200016D09DF80800C11700EB5171C910A0EB45
:101F3000C101C1F10702FF211141654A02EBC6123E
:101F4000125D1143624A02EBC6121155701EC6B2F1
:101F50002F4606E0FF205E4901EBC7110855781CAB
:101F6000C7B2B742F6DD00BF06E71FB5069C9DF875
:101F700000009DF80810884203DD02A96846FFF7BB
:101F800079FE9DF804009DF80C10884203DD03A93A
:101F900001A8FFF76FFE9DF80C003F2803DC9DF8B9
:101FA00008007F2800DD1FBD23469DF808209DF80E
:101FB00004109DF80000FFF768FE23469DF80820F6
:101FC0009DF80C109DF80000FFF75FFE23469DF87A
:101FD0000C209DF804109DF80000FFF7B9FE234681
:101FE0009DF80C209DF804109DF80800FFF7B0FE46
:101FF00000BFD8E73FB5079D9DF800009DF8081089
:10200000884203DD02A96846FFF734FE9DF804000C
:102010009DF80C10884203DD03A901A8FFF72AFEF2
:102020009DF804003F2803DC9DF800007F2800DDB8
:102030003FBD9DF8004009E02B469DF80C209DF81F
:1020400004102046FFF784FE601CC4B29DF808000F
:102050008442F1DD00BFEBE7F0B5034600247F2B9F
:1020600001D83F2900D9F0BD002003E0A22800D903
:102070000BE0801C1578174E365CB542F6D15678C9
:10208000144F451C7D5DAE42F0D100BFA22805D2A1
:1020900000EB4005104E06EB850400E0E3E7084640
:1020A00010E025780D4E06EB001606F81350651C5F
:1020B0002C462E78094D05EB00175D006D1C7E55F2
:1020C000641C401C01F10B05A842EAD900BFCAE715
:1020D000C40A0020F25C0008945D0008C4060020D9
:1020E0007047F0B50346144600227F2B01D83F29E4
:1020F00000D9F0BD2578A5F12000602805D200EBBD
:102100004005FE4E06EB850200E0F2E7FC4D2D781F
:10211000012D0ED1084608E01678FA4FC51C07EBD2
:10212000051505F81360521C401C01F10B05A8426F
:10213000F2D9F34D2D787DB9084609E01678F14FB4
:10214000C51C07EB05175D006D1C7E55521C401C1D
:1021500001F10B05A842F1D900BFCAE72DE9F04112
:1021600006460F4614463546B8460CB9BDE8F08120
:1021700028E07F2D00D9F9E7B8F13F0F00D9F5E746
:10218000207810F0800F0AD0224641462846FFF7FB
:1021900063FF0020DA490870A41C6D1C12E0D848C7
:1021A0000078012804D16D1E0020D549087002E096
:1021B0000120D3490870224641462846FFF791FF87
:1021C000641C6D1C20780028D3D100BFCEE7F8B581
:1021D000034615460C46CF1701EB5777C7F3C702E6
:1021E0007F2900DDF8BD002062E02E5C0024009411
:1021F000FF248DF803400C46CF1701EB5777FF10F3
:10220000A1EBC70C009F07FA0CF700971418BE4FFC
:1022100007EBC414E45C9DF80370BC431718DFF8A7
:10222000E8C20CEBC717FC54541C082C0DDA141828
:10223000641C674607EBC414E45C9DF80270BC4361
:1022400017187F1C0CEBC717FC54002400948DF862
:1022500003600C46CF1701EB5777FF10A1EBC70CBB
:10226000009F07FA0CF700971418A74F07EBC41448
:10227000E45C9DF803703C431718DFF88CC20CEB4C
:10228000C717FC54541C072C00DDABE71418641C62
:102290009D4F07EBC414E45C9DF802703C43171893
:1022A0007F1CDFF864C20CEBC717FC54441CE0B27F
:1022B00004289ADB00BF95E72DE9F04106460F465A
:1022C00014464FF000087F2E01D83F2F01D9BDE8FA
:1022D000F081052C02DD002C00DCF8E7601E8B4944
:1022E00001EB8018002509E0F9B27219D0B242461C
:1022F000FFF76DFF08F10408681CC5B2102DF3DB71
:1023000000BFE4E72DE9F04105460E4617464FF0C1
:1023100000087F2D01D83F2E01D9BDE8F081012FA3
:1023200000DDFAE77A4901EBC718002409E0F1B2B1
:102330002A19D0B24246FFF74AFF08F10408601C90
:10234000C4B2202CF3DB00BFE7E72DE9F8410446D7
:102350001F46002600250B464FEAE17C01EB5C7C22
:10236000CCF3C7001678557805F00F0500230093CD
:10237000FF238DF800300F238DF801300B464FEA14
:10238000E17C01EB5C7C4FEAEC0CA1EBCC08DDF8C6
:1023900000C00CFA08FCCDF800C05B4B03EBC01387
:1023A0001B5D9DF800C023EA0C03DFF85CC10CEB59
:1023B000C01C0CF80430DFF850C1431C0CEBC313F5
:1023C0001B5D9DF801C023EA0C03DFF83C8100F19E
:1023D000010C08EBCC1C0CF80430831C082B0DDA24
:1023E000C4460CEBC3131B5D9DF802C023EA0C032B
:1023F00000F1020C08EBCC1C0CF804300023009315
:102400008DF800608DF801500B464FEAE17C01EB3E
:102410005C7C4FEAEC0CA1EBCC08DDF800C00CFAB8
:1024200008FCCDF800C0384B03EBC0131B5D9DF8D2
:1024300000C043EA0C03DFF8D0C00CEBC01C0CF862
:102440000430DFF8C4C0431C0CEBC3131B5D9DF8C4
:1024500001C043EA0C03DFF8B08000F1010C08EB87
:10246000CC1C0CF8043008280EDAC446831C0CEB94
:10247000C3131B5D9DF802C043EA0C0300F1020C7C
:1024800008EBCC1C0CF80430BDE8F88110B54FF413
:1024900080611C4803F023FB10BD2DE9F0470026A6
:1024A000B246B1463FE04FF0000835E009EB490085
:1024B0008006070E16E0114810F80A00114901EBDA
:1024C000071101F818000D490AF10C00095C0D48CC
:1024D00000EB07124FEA4800401C11540AF1010AB0
:1024E000781CC7B209EB49000B2101EB8000B84210
:1024F000E1DA0AF10C0A08F101000BE02C67000890
:1025000030000020C4060020C40A0020AC6B000884
:102510002C65000800F0FF08B8F1070FC6DD09F1CF
:10252000010000F0FF09B9F1040FBCDD002557E000
:102530001F2D2BDD0826344623E0362000F056F907
:1025400005F16001C8B200F051F904F18001C8B290
:1025500000F04CF9302000F049F9694901EB05120F
:10256000A11B12F8110000F023F9654901EB0512D7
:10257000A11B012303EB4101505C00F019F9601C21
:10258000C4B206F108008442D7DB27E0344621E0DC
:10259000362000F02BF905F18001C8B200F026F9D1
:1025A00004F18001C8B200F021F9302000F01EF9DA
:1025B000534901EB051111F8140000F0F9F85049E6
:1025C00001EB0511012202EB4402885C00F0F0F8F7
:1025D000601CC4B206F108008442D9DB681CC5B295
:1025E000402DA5DDBDE8F0872DE9F041074688467E
:1025F0000026002554E0202D26DA002421E0362094
:1026000000F0F4F805F18001C8B200F0EFF804F131
:102610008001C8B200F0EAF8302000F0E7F838494D
:1026200001EB051111F8140000F0C2F8344901EB78
:102630000511012202EB4402885C00F0B9F8601C2D
:10264000C4B2082CDBDB29E0082425E0362000F0AA
:10265000CDF805F16001C8B200F0C8F804F18001BE
:10266000C8B200F0C3F8302000F0C0F8244901EBF4
:102670000512A4F1080112F8110000F099F82049A0
:1026800001EB0512A4F10801012303EB4101505CA9
:1026900000F08EF8601CC4B2102CD7DB681CC5B2E9
:1026A000402DA8DBBDE8F08170B500251DE00024B9
:1026B00017E0342000F09AF805F18001C8B200F06C
:1026C00095F804F18001C8B200F090F8302000F0D5
:1026D0008DF8002000F06CF8002000F069F8601C14
:1026E000C4B2102CE5DB681CC5B2402DDFDB70BD29
:1026F00010B5FFF7D9FF322002F0CBFE10BD7047B6
:10270000C4060020F74909680021F64A1160114605
:10271000096841F077311160F2490C31096801F420
:102720007F41C2B21143EF4A0C321160704770B55D
:102730008024EC4800680020EA49086008460068E8
:1027400040F088300860E7481030006840F0FF0033
:10275000E449103108600020E34908604FF00100AF
:10276000E249C1F89001E24908601BE00020DE491F
:1027700008604FF00100DD49C1F89001DC490860B4
:102780004FF0640002F044FED6480830006885B27D
:10279000ECB204F08004012002F03AFE0020D3499C
:1027A000C1F88C01802CE1D00020D149086070BDB7
:1027B00010B50446FFF7BBFF0120CB4908604FF07E
:1027C0000000CA49C1F890014FF00100C8490860F3
:1027D0002046FFF797FF012002F01AFE0020C349B0
:1027E000C1F88C01012002F013FE10BD10B50446A3
:1027F0000020BD490860BD49C1F890014FF00100BB
:1028000002F006FE0120BA4908604FF0150002F000
:10281000FFFD2046FFF776FF012002F0F9FD0020C2
:10282000B249C1F88C01012002F0F2FD10BD70B573
:1028300000251DE0002417E03420FFF7D7FF05F145
:102840008001C8B2FFF7D2FF04F18001C8B2FFF7E0
:10285000CDFF3020FFF7CAFF0020FFF7A9FF0020BF
:10286000FFF7A6FF601CC4B2102CE5DB681CC5B2E4
:10287000402DDFDB70BD10B53020FFF7B7FF012022
:1028800002F007FE3020FFF7B1FF012002F001FE49
:102890000C20FFF7ABFF012002F0FBFD0120FFF74A
:1028A000A5FF0B2002F0F5FD0620FFF79FFF01209A
:1028B00002F0EFFD10BD10B5FEF7BCFA01208D4906
:1028C00008608A49C1F8840110BD10B54FF49670B4
:1028D00002F0DFFDFFF7EFFFFFF7CDFFFFF7A7FFE8
:1028E00010BD70B5FFF723FF7E48006800207D49CA
:1028F00008600846006840F0883008607948103069
:10290000006840F0FF0077491031086001207649E7
:1029100008607649C1F890017549086002F078FDB9
:10292000704808300068C4B2012002F071FD002038
:102930006E49C1F88C012546284670BD2DE9F84F37
:1029400005460C46924605F07F0504F03F042846F4
:10295000E91705EB11714FEA211B05F00F06204620
:10296000E11704EBD1614911009127461F2F02DDC9
:10297000A7F12000C7B23420FFF738FF3620FFF759
:1029800035FF07F18001C8B2FFF730FF0BF180017E
:102990000823009A03FB0211C8B2FFF727FFFFF7D5
:1029A000A0FFFFF79EFF8046FFF79BFF814607F1E0
:1029B0008001C8B2FFF71AFF0BF180010823009ACB
:1029C00003FB0211C8B2FFF711FF082E1BDABAF1A0
:1029D000000F0CD0C6F107020121914041EA080125
:1029E000C8B2FFF7E5FE4846FFF7E2FE26E0C6F173
:1029F00007020121914028EA0100FFF7D9FE48466D
:102A0000FFF7D6FE1AE0BAF1000F0CD04046FFF7F0
:102A1000CFFEC6F10F020121914041EA0901C8B27F
:102A2000FFF7C6FE0AE04046FFF7C2FEC6F10F02FE
:102A30000121914029EA0100FFF7BAFEFFF777FE76
:102A40003020FFF7D3FEBDE8F88F2DE9F84F05469B
:102A50000C4605F07F0504F03F042846E91705EB16
:102A600011714FEA211B05F00F062046E11704EB18
:102A7000D1614911009127461F2F02DDA7F12000E7
:102A8000C7B23420FFF7B2FE3620FFF7AFFE07F1E2
:102A90008001C8B2FFF7AAFE0BF180010823009A5B
:102AA00003FB0211C8B2FFF7A1FEFFF71AFFFFF701
:102AB00018FF8246FFF715FF8046082E06DAC6F19A
:102AC00007010120884000EA0A0905E0C6F10F016C
:102AD0000120884000EA0809FFF729FE4846BDE8C2
:102AE000F88F0000000801409481214200802142BB
:102AF0008C8121428081214210B53020FFF776FE83
:102B00004020FFF773FE002400E0641C102CFCDB67
:102B100010BD2DE9F04106460C461546002704B9C4
:102B20000AE0012C01D1102706E0022C01D1082770
:102B300002E0032C00D1182707F180013144C8B20C
:102B4000FFF754FE06E02878FFF732FE6D1C0120E7
:102B500002F05EFC28780028F5DCBDE8F08110B5B5
:102B6000044606E02078FFF723FE641C012002F0F3
:102B70004FFC20780028F5DC10BD2DE9F04180469F
:102B8000002700262BE0002524E000241EE036204C
:102B9000FFF72CFE05F18001C8B2FFF727FE04F114
:102BA00080013144C8B2FFF721FE3020FFF71EFE3E
:102BB00039467F1CF84A505CFFF7FAFD39467F1C06
:102BC000F54A505CFFF7F4FD601CC4B2082CDEDB54
:102BD000681CC5B2202DD8DB06F10800C6B2092E4C
:102BE000D1DBBDE8F0812DE9F04107460D461646E0
:102BF00000241EE03620FFF7F9FD06F18001214494
:102C0000C8B2FFF7F3FD802101EBC501C8B2FFF7A1
:102C1000EDFD3020FFF7EAFDE04A12F81400FFF75F
:102C2000C7FD6100491CDD4A505CFFF7C1FD601C17
:102C3000C4B20C2CDEDBBDE8F0812DE9F041074683
:102C40000E461546202D1ADA002415E03620FFF72F
:102C5000CDFD05F180012144C8B2FFF7C7FD06F1A3
:102C60008001C8B2FFF7C2FD3020FFF7BFFD385D1D
:102C7000FFF79EFD601CC4B2102CE7DB1FE0A5F13E
:102C80002000C5B206F10800C6B2002415E03620C7
:102C9000FFF7ACFD05F180012144C8B2FFF7A6FDA6
:102CA00006F18001C8B2FFF7A1FD3020FFF79EFDBD
:102CB000385DFFF77DFD601CC4B2102CE7DBBDE87A
:102CC000F08170B5064600251DE0002417E036208F
:102CD000FFF78CFD05F18001C8B2FFF787FD04F115
:102CE0008001C8B2FFF782FD3020FFF77FFD30463C
:102CF000FFF75EFD3046FFF75BFD601CC4B2102C91
:102D0000E5DB681CC5B2202DDFDB3420FFF76EFD4C
:102D10003620FFF76BFD70BD70B5002600251FE063
:102D2000F043C6B2002417E03620FFF75FFD05F13F
:102D30008001C8B2FFF75AFD04F18001C8B2FFF765
:102D400055FD3020FFF752FD3046FFF731FD30468C
:102D5000FFF72EFD601CC4B2102CE5DB681CC5B269
:102D6000202DDDDB3420FFF741FD3620FFF73EFD4F
:102D700070BD70B5002625E000251EE0002418E097
:102D80003620FFF733FD05F18001C8B2FFF72EFDB5
:102D900004F180013144C8B2FFF728FD3020FFF76D
:102DA00025FD0020FFF704FD0020FFF701FD601C5A
:102DB000C4B2082CE4DB681CC5B2202DDEDB06F1B2
:102DC0000800C6B2092ED7DB3420FFF70FFD3620EE
:102DD000FFF70CFD70BD10B50120FFF707FD0220C5
:102DE00002F057FB10BD70472DE9F04104468846BC
:102DF00015461E46AC4202DD2F4625463C4606E0FF
:102E0000324641462046FFF799FD601CC4B2AC42F1
:102E1000F6DDBDE8F0812DE9F04180460C4615460F
:102E20001E46AC4202DD2F4625463C4606E03246B1
:102E300021464046FFF782FD601CC4B2AC42F6DD7D
:102E4000BDE8F0812DE9F84F05460C464FF0010929
:102E50004FF0000A4FF0000B2BE0A8461BE026467F
:102E600010E04F49009801EBC01010F80A0000EA8A
:102E700009073A46F1B208F0FF00FFF75FFD4FEA9D
:102E80004909761CE01D8642EBDD0AF1010A4FF08C
:102E9000010908F1010805F17F008045DFDD4FF0F1
:102EA000000A04F10800C4B20098401C00900BF125
:102EB000010BBBF1020FD0DD0024BDE8F88F2DE936
:102EC000F84F05460C4691464FF0010A4FF0000BB3
:102ED0000020009025E0A84617E026460CE019F8EF
:102EE0000B0000EA0A073A46F1B208F0FF00FFF7CC
:102EF00025FD4FEA4A0A761CE01D8642EFDD0BF104
:102F0000020B4FF0010A08F1010805F17F0080452E
:102F1000E3DD4FF0010B04F10800C4B20098401C3F
:102F2000009000980428D6DD0024BDE8F88F014603
:102F3000002901DA484270470846FCE710B5002432
:102F400018480078002873D002F0B8FA01286FD131
:102F5000154800780F380C286BD2DFE800F00753D3
:102F600096D7F0EF065295D6EEED00BF00240FE0A5
:102F700004F11001C8B201221921FFF7DFFC04F1AE
:102F80001001C8B201221A21FFF7D8FC601CC4B29C
:102F90001F2CEDDB002419E0790000203100002017
:102FA000C40A00200E0000200000002004F13801B7
:102FB000C8B200221921FFF7C1FC04F13801C8B2E0
:102FC00000221A21FFF7BAFC601CC4B20F2CEDDB03
:102FD00000240FE004F15001C8B200222621FFF7BF
:102FE000ADFC04F15001C8B200222721FFF7A6FC76
:102FF000601CC4B20F2CEDDB4FF4FA7002F05BFAE8
:103000004BE100BF00240FE004F13801C8B20122F7
:103010001921FFF793FC04F13801C8B201221A21EB
:10302000FFF78CFC601CC4B20F2CEDDB002411E018
:1030300034E131E104F11001C8B200221921FFF797
:103040007DFC04F11001C8B200221A21FFF776FCC2
:10305000601CC4B21F2CEDDB00240FE004F1500112
:10306000C8B200221921FFF769FC04F15001C8B26F
:1030700000221A21FFF762FC601CC4B20F2CEDDBAA
:10308000C82002F018FA08E100BF00240FE004F1A4
:103090005001C8B201221921FFF750FC04F1500180
:1030A000C8B201221A21FFF749FC601CC4B20F2CE0
:1030B000EDDB00240FE004F13801C8B20022192131
:1030C000FFF73CFC04F13801C8B200221A21FFF7D7
:1030D00035FC601CC4B20F2CEDDB00240FE004F1C2
:1030E0002101C8B200222621FFF728FC04F12101AA
:1030F000C8B200222721FFF721FC601CC4B20F2CAC
:10310000EDDBC82002F0D7F9C7E000BF00240FE0D4
:1031100004F12101C8B201222621FFF70FFC04F1BE
:103120002101C8B201222721FFF708FC601CC4B2AC
:103130000F2CEDDB002413E06DE02BE06CE02AE0C7
:1031400004F15001C8B200221921FFF7F7FB04F186
:103150005001C8B200221A21FFF7F0FB601CC4B274
:103160000F2CEDDB00240FE004F13801C8B200227F
:103170002621FFF7E3FB04F13801C8B20022272122
:10318000FFF7DCFB601CC4B20F2CEDDBC82002F0A3
:1031900092F982E000BF00240FE004F13801C8B2C8
:1031A00001222621FFF7CAFB04F13801C8B201222F
:1031B0002721FFF7C3FB601CC4B20F2CEDDB0024FA
:1031C0000FE004F12101C8B200222621FFF7B6FB6F
:1031D00004F12101C8B200222721FFF7AFFB601CD8
:1031E000C4B20F2CEDDB00240FE004F15001C8B293
:1031F00000222621FFF7A2FB04F15001C8B20022F1
:103200002721FFF79BFB601CC4B20F2CEDDBC8200D
:1032100002F051F941E000BF00240FE004F1500139
:10322000C8B201222621FFF789FB04F15001C8B280
:1032300001222721FFF782FB601CC4B20F2CEDDBBB
:1032400000240FE004F13801C8B200222621FFF764
:1032500075FB04F13801C8B200222721FFF76EFB8D
:10326000601CC4B20F2CEDDB00240FE004F1100150
:10327000C8B200221921FFF761FB04F11001C8B2A6
:1032800000221A21FFF75AFB601CC4B21F2CEDDB91
:10329000C82002F010F900E000BF00BF10BD000020
:1032A00008B50121082001F0E1FDC020ADF80000C3
:1032B00010208DF8030003208DF8020069469D4818
:1032C00000F000FBC0219B4800F0A7FB052000F0A8
:1032D0003FF9552817D05521052000F065F9022245
:1032E00000210A2000F088F902220021142000F0B9
:1032F00083F9022200211E2000F07EF90222002123
:10330000282000F079F908BD10B58A48006820F03F
:103310007040884908600846006840F040500860E6
:103320000120854908608549C1F898014FF00400E3
:1033300002F06EF80020804908604FF0040002F0AF
:1033400067F800207D49C1F8980110BD10B5794893
:10335000006820F07040774908600846006840F037
:10336000405008600020764908607449C1F89C010B
:103370004FF0040002F04CF80120714908606F49D9
:10338000C1F89C014FF0040002F042F810BD10B5E6
:1033900000246848006820F07040664908600846CC
:1033A000006840F00040086001206349086002F0B6
:1033B0002FF801206149C1F8980102F029F807E0CF
:1033C000601CC4B2FA2C03DDFFF7C0FF012010BD62
:1033D0005C4800680028F3D15949086000BFF6E74F
:1033E00010B50020564908605248006820F070402F
:1033F000504908600846006840F0405008604FF0AF
:1034000000004E49C1F89C014FF0020002F000F8A4
:1034100001204B4908604FF0020001F0F9FF002045
:103420004649C1F8980110BD10B500204449086014
:103430004048006820F070403E4908600846006837
:1034400040F0405008604FF001003C49C1F89C0139
:103450004FF0020001F0DCFF0120394908604FF015
:10346000020001F0D5FF00203449C1F8980110BDD9
:1034700070B504462F48006820F070402D49086060
:103480000846006840F04050086000202C49086061
:1034900005461AE0E009284908604FEA44604FEA0F
:1034A00010644FF0020001F0B3FF01202349C1F87E
:1034B0009801022001F0ACFF0020214908604FF084
:1034C000020001F0A5FF681CC5B2082DE2DB70BD4B
:1034D00070B5054600241748006820F07040154973
:1034E00008600846006840F000400860002616E0CA
:1034F0000020134908604FF0020001F089FF01200D
:103500000E49C1F898016006040E0E48006808B123
:10351000601CC4B2012001F07BFF701CC6B2082EF3
:10352000E6DB15B9FFF780FF01E0FFF759FF204602
:1035300070BD0000000C01409C81214200802142AE
:10354000988121421C81214210B5FFF7A9FE10BDD0
:1035500070B5044600250026C4F30746FFF7D4FEE5
:103560001EB9A020FFF784FF02E0A220FFF780FF32
:10357000FFF70DFFC4F30720FFF77AFFFFF707FF00
:10358000E0B2FFF775FFFFF702FFFFF7BDFEA120D6
:10359000FFF76EFFFFF7FBFE0020FFF799FF0546E0
:1035A000FFF7D4FE284670BD70B504460D460026D0
:1035B000C4F30746FFF7A8FE1EB9A020FFF758FF87
:1035C00002E0A220FFF754FFFFF7E1FEC4F307205B
:1035D000FFF74EFFFFF7DBFEE0B2FFF749FFFFF713
:1035E000D6FE2846FFF744FFFFF7D1FEFFF7AEFEF9
:1035F0000A2001F04EFF70BD2DE9F04105460E4650
:103600001746002408E0E20026FA02F2D1B2281997
:10361000FFF7CAFF601CC4B2BC42F4DBBDE8F08116
:1036200070B50546691E01EB8101642202EB410081
:10363000FFF78EFF0446FF2C01D0012000E00020A0
:103640000CB1012100E00021084201D0012070BD31
:10365000691E01EB810140F6C41202EB4100FFF745
:1036600077FF0446FF2C01D0012000E000200CB1C0
:10367000012100E00021084201D00120E7E70020FD
:10368000E5E710B5002408E0C4EB042101F1640073
:10369000FF221146FFF7B0FF641C112CF4DD10BDB2
:1036A0002DE9F04107460C460026002508E03602C9
:1036B0003919491B481EFFF74BFF0644681CC5B269
:1036C000A542F4DB3046BDE8F08110B543F6FF704B
:1036D000FFF73EFF0446552C01D1002010BD5521B7
:1036E00043F6FF70FFF760FF43F6FF70FFF730FF10
:1036F0000446552C01D10020F0E70120EEE770B51B
:1037000006460C46154607E03046761CFFF720FFBC
:1037100004F8010B681E85B2002DF5D170BD70B59F
:1037200005460C46164605E021782846FFF73CFF83
:103730006D1C641C3000A6F101018EB2F4D170BD85
:1037400010B5012001F0C6FB002001F0C3FB10BD45
:103750002A49086070472949091F086070472749AE
:1037600084310860704701460020254A10884FF6D2
:103770007F4210400843224A1080704701460020D3
:103780001F4A10884FF68072104008431C4A108070
:10379000704708B500220092194A2C3A0092009A0C
:1037A00002440092009A116008BD08B5014600204D
:1037B000009013482C38009000980844009000981E
:1037C000008808BD0D489C300068C0B270470C48A6
:1037D0000830008840F0010009490831088070472E
:1037E0000648A0300068C0B270470548083000881D
:1037F00040F00200024908310880704704860D42FB
:103800002C6C004010B50446CA48844208D10121FE
:10381000042001F045FB0021042001F041FB46E0BB
:10382000C548844208D10121082001F039FB00215C
:10383000082001F035FB3AE0C048844208D101215C
:10384000102001F02DFB0021102001F029FB2EE0BB
:10385000BB48844208D10121202001F021FB002136
:10386000202001F01DFB22E0B648844208D101214E
:10387000402001F015FB0021402001F011FB16E073
:10388000B148844208D10121802001F009FB0021C8
:10389000802001F005FB0AE0AC48844207D10121F9
:1038A000801501F0FDFA0021A01501F0F9FA10BD14
:1038B00010B50121084601F0F3FA0021012001F0C2
:1038C000EFFA10BD2DE9F041024600250026002048
:1038D00000230024002791F803C00CF00F0591F895
:1038E00003C01CF0100F03D091F802C04CEA05058C
:1038F00091F800C0BCF1000F31D0146800202BE01B
:103900004FF0010C0CFA00F3B1F800C00CEA03060A
:103910009E4220D183004FF00F0C0CFA03F7BC43FA
:1039200005FA03FC4CEA040491F803C0BCF1280F2B
:1039300006D14FF0010C0CFA00FCC2F814C00AE0EA
:1039400091F803C0BCF1480F05D14FF0010C0CFAFF
:1039500000FCC2F810C0401C0828D1D31460B1F894
:1039600000C0BCF1FF0F34DD546800202EE000F1F0
:10397000080C4FF0010808FA0CF3B1F800C00CEA8B
:1039800003069E4221D183004FF00F0C0CFA03F77F
:10399000BC4305FA03FC4CEA040491F803C0BCF1F3
:1039A000280F05D100F1080C08FA0CF8C2F81480B1
:1039B00091F803C0BCF1480F07D100F1080C4FF09B
:1039C000010808FA0CF8C2F81080401C0828CED371
:1039D0005460BDE8F0814FF6FF71018002218170D3
:1039E0000421C17070470246002093680B4201D049
:1039F000012000E0002070470146886880B27047CF
:103A000002460020D3680B4201D0012000E00020D4
:103A100070470146C86880B27047016170474161D4
:103A200070470AB1016100E041617047C1607047B1
:103A30004FF480320A4382618161826182698269C6
:103A4000704702460020424B18684FF680731840BA
:103A500040EA021008433E4B186070473D49C86178
:103A60007047F0B50A46002300240021002500F02D
:103A70000046B6F1004F02D1354EF16901E0344EF7
:103A80007168C0F3034583B200F44016B6F5401FD9
:103A900008D121F070612E4E766826F070662C4FAA
:103AA0007E6012E000F48016B6F5801F06D1032672
:103AB00006FA05F4A14341F0706106E0460D3601B7
:103AC00003FA06F6B14341F0706122B1460D3601AA
:103AD00003FA06F6314300F00046B6F1004F02D17A
:103AE0001B4EF16101E01A4E7160F0BD30B500224D
:103AF0008B071C0F0F2303FA04F2154B08338C10AD
:103B000053F824309343124C08348D1044F8253078
:103B100023468C1053F824308C07240F00FA04F449
:103B200023430B4C08348D1044F8253030BD0A492E
:103B30000860704700080140000C0140001001407F
:103B40000014014000180140001C01400020014009
:103B50000000014000002042DC00204229B14F4A11
:103B6000128802434D4B1A8004E04C4A128882436B
:103B70004A4B1A8070474948001D008840F01000E9
:103B80004649091D088070474448001D00884FF6CB
:103B9000EF7108404149091D0880704700213F48E6
:103BA0001C300188001F008841EA0040704700B5C2
:103BB0000246FFF7E0FF100C384918310880091D54
:103BC0000A80FFF7E1FF00BD00B50246FFF7D3FF13
:103BD000C2F30340314908310880091D0A80FFF70C
:103BE000D3FF00BD00B50246FFF7C5FF100C2B49FF
:103BF00020310880091D0A80FFF7C6FF00BD0020A4
:103C00002649103109880907080B2449143109880D
:103C10000843704700BF2148001D008810F0200FA6
:103C2000F9D070471D48001D00884FF6F771084015
:103C30001A49091D088000BF1848001D008810F0AF
:103C4000080FF9D0704701460020144A121D12884F
:103C50000A4201D0012000E0002070470F49091DF1
:103C6000098881430D4A121D1180704701460020CA
:103C70000A4A121D12880A40D0B2084A12880A4223
:103C800002D008B1012000E0002070470349091D5F
:103C900009888143014A121D1180704700280040A5
:103CA00010B50446FE48844208D10121C01401F039
:103CB000F7F80021E01401F0F3F8C4E0B4F1804F0C
:103CC00008D10121084601F0F8F80021012001F097
:103CD000F4F8B8E0F348844208D10121022001F051
:103CE000ECF80021022001F0E8F8ACE0EE48844254
:103CF00008D10121042001F0E0F80021042001F0A6
:103D0000DCF8A0E0E948844208D10121082001F054
:103D1000D4F80021082001F0D0F894E0E44884426F
:103D200008D10121102001F0C8F80021102001F075
:103D3000C4F888E0DF48844208D10121202001F046
:103D4000BCF80021202001F0B8F87CE0DA48844279
:103D500008D10121401401F0A3F80021601401F002
:103D60009FF870E0D548844209D10121C80401F0D0
:103D700097F800214FF4002001F092F863E0D0485A
:103D8000844209D10121080501F08AF800214FF48D
:103D9000801001F085F856E0CA48844209D101211B
:103DA000480501F07DF800214FF4001001F078F88B
:103DB00049E0C548844208D10121402001F07DF846
:103DC0000021402001F079F83DE0C048844208D14C
:103DD0000121802001F071F80021802001F06DF8B0
:103DE00031E0BB48844208D10121801501F065F81B
:103DF0000021A01501F061F825E0B648844209D100
:103E00000121080401F04CF800214FF4803001F04A
:103E100047F818E0B048844209D10121480401F074
:103E20003FF800214FF4003001F03AF80BE0AB48C6
:103E3000844208D10121880401F032F800214FF4B6
:103E4000802001F02DF810BD00220288944B98428A
:103E50000ED0994B98420BD0B0F1804F08D0914BC7
:103E6000984205D0904B984202D0904B984204D192
:103E70004FF68F731A404B881A438D4B984207D0E8
:103E80008C4B984204D04FF6FF431A40CB881A431C
:103E900002808B8883850B880385814B98420BD0E9
:103EA000854B984208D08B4B984205D08A4B98425C
:103EB00002D08A4B984201D10B7A03860123838278
:103EC000704770B5002400220023058C4FF6FE7663
:103ED00035400584028C8388048B4FF68F752C4007
:103EE000B51E2C400D882C43751E2A400D892A438F
:103EF0004D882A436A4DA8420BD06F4DA84208D086
:103F0000744DA84205D0744DA84202D0734DA8420A
:103F100013D14FF6F7752A404D892A434FF6FB75AA
:103F20002A408D882A434FF6FF652B404FF6FF55F8
:103F30002B408D892B43CD892B4383800483CD88EF
:103F40008586028470BD70B5002400220023058C94
:103F50004FF6EF7635400584028C8388048B48F653
:103F6000FF752C404FF6FF452C400D884FF6FF762D
:103F700006EA05252C434FF6DF752A400D8906EA2F
:103F800005152A434D8806EA05152A43444DA842E3
:103F900002D0494DA8421DD14FF67F752A404D8968
:103FA0004FF6FF7606EA05152A434FF6BF752A40FD
:103FB0008D8806EA05152A434FF6FF352B404FF250
:103FC000FF752B408D8906EA85052B43CD8906EACE
:103FD00085052B4383800483CD880587028470BDCB
:103FE00070B5002400220023058C4FF6FF66354093
:103FF0000584028C8388848B4FF68F752C404FF696
:10400000FC752C400D882C434FF6FF552A400D8936
:104010004FF6FF7606EA05252A434D8806EA052570
:104020002A431F4DA84202D0234DA8421DD14FF272
:10403000FF752A404D894FF6FF7606EA05252A438B
:104040004FF6FF352A408D8806EA05252A434EF6AD
:10405000FF752B404DF6FF752B408D8906EA05153F
:104060002B43CD8906EA05152B4383808483CD88B5
:104070008587028470BD70B5002200230024058C62
:104080004EF6FF7635400584038C8488828B48F693
:10409000FF752A404FF6FF452A400D8820E00000BA
:1040A000002C01400004004000080040000C0040CB
:1040B000001000400014004000340140004C01405A
:1040C000005001400054014000180040001C004016
:1040D00000200040004001400044014000480140F1
:1040E0004FF6FF7606EA05252A434DF6FF752B406D
:1040F0000D8906EA05352B434D8806EA05352B4325
:10410000FA4DA84202D0FA4DA84208D14BF6FF75ED
:104110002C408D894FF6FF7606EA85152C43848066
:104120008283CD88A0F84050038470BD828B4FF20B
:10413000FF331A408283828B4FF6FF7303EA012319
:104140001A4382837047F0B50C46154600220021C1
:104150000026078C4EF6FF7C07EA0C070784828B4B
:10416000018C4FF6FF7707EA043640F6FF473A40E6
:104170004FF6FF7707EA05273A434FF6FF7707EA3E
:1041800003373A43D94FB8420ED0D94FB8420BD07B
:10419000B0F1804F08D0D74FB84205D0D64FB842C3
:1041A00002D0D64FB84206D14DF6FF77394046F4DB
:1041B0008057394305E047F6FF57394044F48057AC
:1041C000394382830184F0BD828B4FF6F3731A402A
:1041D0008283828B0A4382837047F0B50C46154672
:1041E000002200210026078C4FF6FF6C07EA0C071F
:1041F0000784828B018C4FF6FF7707EA04264FF67F
:104200000C773A404FF6FF7707EA03172F433A43FC
:10421000B64FB8420ED0B64FB8420BD0B0F1804F77
:1042200008D0B44FB84205D0B34FB84202D0B34F14
:10423000B84206D14FF6FF57394046F480773943EC
:1042400005E04FF2FF57394044F4807739438283C9
:104250000184F0BD028B4FF2FF331A400283028BC0
:104260004FF6FF7303EA01231A4302837047F0B548
:104270000C461546002200210026078C4FF6EF7CE5
:1042800007EA0C070784028B018C4FF6FF7707EAD9
:10429000041640F6FF473A404FF6FF7707EA033728
:1042A0003A434FF6FF7707EA05273A438F4FB84264
:1042B0000ED08F4FB8420BD0B0F1804F08D08D4F49
:1042C000B84205D08C4FB84202D08C4FB84206D1CC
:1042D0004FF6DF77394046F01007394305E04FF6D7
:1042E0005F77394044F01007394302830184F0BD01
:1042F000028B4FF6F3731A400283028B0A43028348
:104300007047F0B50C46154600220021068C4FF68A
:10431000FE773E400684028B018C4FF60C763240CD
:104320007E1C06EA03162E433243704EB0420ED076
:104330006F4EB0420BD0B0F1804F08D06D4EB042FE
:1043400005D06D4EB04202D06C4EB04206D14FF651
:10435000FD76314044F00106314305E04FF6F57635
:10436000314044F00106314302830184F0BD70B551
:1043700005460C465D4885420ED05D4885420BD00F
:10438000B5F1804F08D05B48854205D05A48854238
:1043900002D05A48854200D100E000BF208850B9C1
:1043A0002389A28861882846FFF7ABFFE188284669
:1043B000FFF79EFF25E0208804280AD12389A288E0
:1043C00061882846FFF753FFE1882846FFF742FF40
:1043D00017E0208808280AD12389A2886188284606
:1043E000FFF7FBFEE1882846FFF7EEFE09E0238990
:1043F000A28861882846FFF7A6FEE1882846FFF7D5
:1044000095FE70BD2DE9F04105460C4600260127BA
:10441000608808B9022600E00026A088012801D1A2
:10442000022700E001272088A0B92389A28861889B
:104430002846FFF766FFE1882846FFF759FF2389E2
:104440003A4631462846FFF712FFE1882846FFF733
:1044500001FF13E02389A28861882846FFF707FF40
:10446000E1882846FFF7F6FE23893A46314628467A
:10447000FFF747FFE1882846FFF73AFFBDE8F081E4
:104480000A884B881A438B881A43CB881A430B89B6
:104490001A434B891A438B891A43A0F8442070476A
:1044A0004FF6FF71818000210180C180418001723F
:1044B00070470021018041808180C180018141815C
:1044C0008181C1817047002101804180012181806B
:1044D0000021C180018170470021018041808180DD
:1044E000C18001814181818170470000002C014021
:1044F000003401400004004000080040000C00406F
:1045000021B1028842F00102028004E002884FF6E5
:10451000FE731A400280704731B1B0F8442042F473
:104520000042A0F8442005E0B0F84420C2F30E0297
:10453000A0F8442070471AB183890B43838102E0BD
:1045400083898B43838170478182704741EA0203EC
:10455000A0F8483070471AB183890B43838102E089
:1045600083898B438381704701894FF6F87211402C
:10457000018170470A46002101894FF68F73194067
:1045800011430181704730B504460D462946204647
:10459000FFF7F0FF208940F00700208130BD2DE9B2
:1045A000F04104460D4616461F46602D06D13B4697
:1045B000012231462046FFF75AFE05E03B46012224
:1045C00031462046FFF79DFE29462046FFF7D2FFE1
:1045D000208940F007002081BDE8F08130B50C460D
:1045E00000210189C9B24FF6FF7505EA032515437D
:1045F00025432943018130BD2DE9F04105460E4692
:1046000017469846002443463A4631462846FFF767
:10461000E5FF2C894FF6F870044044F007044FF68C
:104620008F70044044F070042C81BDE8F081F0B537
:1046300004460D4616461F463B463246294620464E
:10464000FFF7CCFF208940F480402081F0BD018538
:10465000828270470A46002101884FF68F73194005
:10466000114301807047F0B50C4615461E460021E7
:10467000002200230189028B038C4FF6F877394022
:1046800021434FF6FC473A4040F201173A434FF6B8
:10469000DD773B404FF6FF7707EA06172F433B4392
:1046A000018102830384F0BD0A460021018B4FF68D
:1046B0008F7319401143018370470A460021018B13
:1046C00048F6FF7319404FF6FF7303EA02231943BC
:1046D000018370470A460021818B4FF68F73194082
:1046E0001143818370470A460021818B48F6FF738E
:1046F00019404FF6FF7303EA022319438183704781
:1047000021B1028842F08002028004E002884FF664
:104710007F731A400280704721B1828842F0040200
:10472000828004E082884FF6FB731A4082807047D3
:1047300021B1828842F00802828004E082884FF62C
:10474000F7731A408280704721B1828842F00102DB
:10475000828004E082884FF6FE731A4082807047A0
:104760000A460021018B4FF6F7731940114301836C
:1047700070470A460021018B4FF2FF7319404FF634
:10478000FF7303EA02231943018370470A4600219D
:10479000818B4FF6F77319401143818370470A46A6
:1047A0000021818B4FF2FF7319404FF6FF7303EA2C
:1047B00002231943818370470A460021018B4FF67B
:1047C000FB7319401143018370470A460021018B96
:1047D0004FF6FF3319404FF6FF7303EA02231943E4
:1047E000018370470A460021818B4FF6FB73194005
:1047F0001143818370470A460021818B4FF6FF33B6
:1048000019404FF6FF7303EA02231943818370476F
:104810000A460021018B4FF67F7319401143018333
:1048200070470A460021018BC1F30E014FF6FF735A
:1048300003EA02231943018370470A460021818B52
:104840004FF67F7319401143818370470A46002158
:10485000818BC1F30E014FF6FF7303EA0223194364
:10486000818370470A460021018C4FF6FD73194081
:104870001143018470470A460021018C4FF6F773FB
:1048800019401143018470470A460021018C4FF6FC
:10489000DF7319404FF6FF7303EA021319430184D3
:1048A00070470A460021018C4FF67F7319404FF67E
:1048B000FF7303EA02131943018470470A4600217B
:1048C000018C4FF6FF5319404FF6FF7303EA0223A2
:1048D0001943018470470A460021018C4FF2FF738F
:1048E00019404FF6FF7303EA02231943018470470E
:1048F0000A460021018C4DF6FF7319404FF6FF73F5
:1049000003EA023319430184704730B500230124C0
:104910008C40A3B2048C9C430484048C02FA01F5FD
:10492000ADB22C43048430BD30B5002304248C4048
:10493000A3B2048C9C430484048C02FA01F5ADB24A
:104940002C43048430BD70B5034600200024184673
:10495000183001258D40ACB21D8CA5431D8409B1D2
:10496000082909D100EB6100056825F07005056094
:104970000568154305600EE00D1FC5F34E0528447C
:10498000056825F4E045056005684FF6FF7606EA00
:1049900002263543056070BD21B1028842F0020253
:1049A000028004E002884FF6FD731A4002807047CF
:1049B00021B1028842F00402028004E002884FF62E
:1049C000FB731A400280704721B1828842F0800256
:1049D000828004E082884FF67F731A40828070479D
:1049E00002884FF6F7731A40028002880A43028059
:1049F000704782884FF68F731A40828082880A43FC
:104A00008280704702894FF6F8731A40028102894A
:104A10000A430281704702894FF67F731A40028170
:104A200002890A43028170478184704781857047FB
:104A3000818670470187704781877047A0F84010D2
:104A4000704702884FF6FF431A40028002880A43EB
:104A5000028070470146888E70470146088F704774
:104A60000146888F70470146B1F840007047014603
:104A7000888C70470146088D704702460020138AD3
:104A80000B4201D0012000E000207047CA4302829F
:104A9000704730B50246002000230024158A05EA3D
:104AA0000103958905EA010413B10CB1012000E06E
:104AB000002030BDCA4302827047000031490143E3
:104AC000314A1160704770B5002100230F22C4786D
:104AD0000CB32D4C246804F4E064C4F5E064210AAE
:104AE000C1F10403CA40447804FA03F18478144005
:104AF00021430901254C0678A155047804F01F05CF
:104B00000124AC4005786D114FF0E02606EB8505D9
:104B1000C5F8004109E0047804F01F050124AC4009
:104B20001B4D0678761145F8264070BD194A0A409B
:104B30000243154B1B1F1A60704739B1124A121DF0
:104B400012680243104B1B1D1A6006E00E4A121D2C
:104B5000126882430C4B1B1D1A607047042808D151
:104B60004FF0E021096941F004014FF0E0221161AA
:104B700007E04FF0E021096921F004014FF0E02245
:104B8000116170470000FA050CED00E000E400E060
:104B900080E100E080FFFF1FDD48006840F0010079
:104BA000DB49086008464068DA490840D84948604F
:104BB00008460068D8490840D5490860084600689A
:104BC00020F4802008600846406820F4FE00486019
:104BD0004FF41F0088607047CD49096821F4803187
:104BE000CB4A11601146096821F480211160B0F5AB
:104BF000803F03D0B0F5802F0ED106E0C44909688C
:104C000041F48031C24A116007E0C149096841F4AA
:104C1000A021BF4A116000E000BF00BF704710B57F
:104C200001460022002300204A11012A02D1B84C7B
:104C3000236806E0022A02D1B54C236A01E0B44C95
:104C4000636A01F01F02012494401C4201D001203C
:104C500000E0002010BD38B50020009000240025A1
:104C600000BF3120FFF7DBFF05460098401C009095
:104C70000098B0F5A06F01D0002DF2D03120FFF7E1
:104C8000CEFF08B1012400E00024204638BD0146D3
:104C900000209F4A106820F0F80040EAC100106030
:104CA00070479E490860704702460020984B58683C
:104CB00020F47C1042EA01031843954B586070477A
:104CC00096490866704701460020914A506820F0D6
:104CD00003000843506070478D48406800F00C00A6
:104CE0007047014600208A4A506820F0F0000843CF
:104CF0005060704701460020854A506820F4E0600B
:104D000008435060704701460020814A506820F4F3
:104D1000605040EAC1005060704729B17C4A527A25
:104D200002437B4B5A7204E0794A527A8243784BB1
:104D30005A7270477A490860704701460020744AE9
:104D4000506820F440400843506070470021754A85
:104D500011706F4A82F82010012802D0042808D16F
:104D600003E001216F4A117004E005216D4A1170C2
:104D700000E000BF00BF70476B490860704764499E
:104D8000096A0143624A1162704767494439086001
:104D9000704730B500210022002400235C4D6D686F
:104DA00005F00C0121B1042905D0082923D105E023
:104DB0005E4D056022E05D4D05601FE0544D6D685D
:104DC00005F47012524D6D6805F48034022505EB30
:104DD00092421CB9564D554305600BE04C4D6D6831
:104DE00015F4003F03D0524D5543056002E04F4D8E
:104DF0005543056002E04D4D056000BF00BF444DC6
:104E00006D6805F0F00109094A4D6B5C0568DD40ED
:104E100045603F4D6D6805F4E061090A454D6B5CE6
:104E20004568DD4085603A4D6D6805F46051C90AFA
:104E3000404D6B5C4568DD40C560354D6D6805F4DF
:104E40004041890B3C4D6B5CC568B5FBF3F50561D2
:104E500030BD29B12E4A526902432D4B5A6104E0FC
:104E60002B4A526982432A4B5A61704729B1284A1A
:104E700092690243264B9A6104E0254A9269824373
:104E8000234B9A61704729B1214AD2690243204BD2
:104E9000DA6104E01E4AD26982431D4BDA61704731
:104EA00029B11B4AD2680243194BDA6004E0184A60
:104EB000D2688243164BDA60704729B1144A1269EE
:104EC0000243134B1A6104E0114A12698243104BEA
:104ED0001A61704714494039086070470F49C86427
:104EE00070470B49C87170470948406A40F08070AC
:104EF00007494862704701460020054A92680A4205
:104F000001D0012000E000207047014988727047FD
:104F1000001002400000FFF8FFFFF6FE00004242D2
:104F2000D8004242201002408004424200127A001F
:104F300000093D007F0000208F00002010B50121F6
:104F40000807FFF7BAFF00214FF08050FFF7B5FFC9
:104F500010BD29490862704727490861704701461A
:104F60000020264A106820F0E000084310607047D7
:104F700023490860704710B5024600201F4B18688F
:104F800020F00300104318601E4B1B6843F004031D
:104F90001C4C2360012901D130BF00E020BF194B18
:104FA0001B6823F00403174C236010BD13480068EE
:104FB00040F00400114908600846006840F0020013
:104FC00008601048006840F004000E49086000BF07
:104FD00000BF30BF704701460020084A52680A42AD
:104FE00001D0012000E0002070470449096841EA2F
:104FF0008001024A1160704700000E4200700040BC
:10500000A0000E4210ED00E010B50446FB488442BB
:1050100009D101218803FFF743FF00214FF48040AD
:10502000FFF73EFF32E0F648844209D101214804EF
:10503000FFF743FF00214FF40030FFF73EFF25E06C
:10504000F048844209D101218804FFF736FF00218E
:105050004FF48020FFF731FF18E0EB48844209D17C
:105060000121C804FFF729FF00214FF40020FFF7BA
:1050700024FF0BE0E548844208D101210805FFF731
:105080001CFF00214FF48010FFF717FF10BD2DE922
:10509000F04786B005460E460024A24600BFA14652
:1050A0000027B08900B100BF2F462C8A4CF6FF7054
:1050B0000440F08804432C82AC894EF6F31004407F
:1050C000B08831890843718908430443AC81AC8AB4
:1050D0004FF6FF400440B0890443AC8201A8FFF7BB
:1050E00058FEC648874202D1DDF810A001E0DDF885
:1050F0000CA0A88910F4004F08D00AEBCA0000EBFE
:105100000A1031684900B0FBF1F807E00AEBCA0069
:1051100000EB0A1031688900B0FBF1F86420B8FB9D
:10512000F0F004012009642101FB1089A88910F422
:10513000004F08D0322000EBC900B0FBF1F000F0C6
:105140000700044308E0322000EB09106421B0FBA3
:10515000F1F000F00F0004432C8106B0BDE8F087A9
:105160004FF41651016000218180C18001810C2122
:10517000418100218181704710B502460020108ACC
:105180004FF2FF0318400B884C8823438C8823433D
:10519000CC8823431843108210BD00210180418038
:1051A0008180C180704721B1828942F4005282819E
:1051B00004E082894DF6FF731A4082817047F0B592
:1051C00003460024002600250020A1F510676A3F51
:1051D00000D100BF1846C1F3421401F01F06012799
:1051E00007FA06F5012C01D10C3004E0022C01D1A4
:1051F000103000E014301AB107682F43076002E056
:105200000768AF430760F0BD1AB1838A0B438382FE
:1052100002E0838A8B4383827047028A4FF6F073E1
:105220001A400282028A0A430282704782894FF240
:10523000FF731A40828182890A438281704721B1BB
:10524000828942F00202828104E082894FF6FD7376
:105250001A4082817047028A4FF6DF731A40028239
:10526000028A0A430282704721B1028A42F48042D4
:10527000028204E0028A4BF6FF731A4002827047F2
:10528000C1F308028280704701468888C0F3080095
:105290007047818941F0010181817047028BD2B250
:1052A0000283028B42EA012202837047028B02F4DE
:1052B0007F420283028B0A430283704721B1828AB4
:1052C00042F02002828204E0828A4FF6DF731A40A5
:1052D0008282704721B1828A42F01002828204E009
:1052E000828A4FF6EF731A408282704721B1828A18
:1052F00042F00802828204E0828A4FF6F7731A4075
:105300008282704721B1828942F40042828103E0A7
:105310008289C2F30E028281704721B1828A42F4EF
:105320000062828204E0828A4FF2FF731A40828216
:105330007047828A4FF6FB731A408282828A0A4340
:105340008282704721B1828A42F00202828204E0A6
:10535000828A4FF6FD731A4082827047024600200F
:10536000B1F5007F00D100BF13880B4201D00120AE
:1053700000E00020704701F40072B2F5007F00D118
:1053800000BFCA430280704770B502460024002364
:1053900000250020A1F510666A3E00D100BFC1F3D0
:1053A000421501F01F03012606FA03F3012D02D175
:1053B0009689334006E0022D02D1168A334001E07F
:1053C000968A33400C12012606FA04F416883440FB
:1053D00013B10CB1012000E0002070BD10B5002217
:1053E0000023A1F510646A3C00D100BF0A12012419
:1053F0009440A3B2DC43048010BD0000003801409B
:105400000044004000480040004C00400050004074
:1054100070B586B00646002501A8FFF7BAFC3749EB
:105420000198B0FBF1F57543002400E0641CAC4228
:10543000FCD306B070BD30B585B06846FFF7A9FC57
:105440004FF47A720198B0FBF2F1B1F1807F00D392
:105450001DE021F07F40401E4FF0E02250615017C8
:105460000F22002807DA13071D0E254B00F00F044A
:10547000241F1D5503E013071C0E224B1C5400BFB4
:1054800000204FF0E02290610720106100BF05B0BE
:1054900030BD1D49086000BF1B4909680029FBD1C8
:1054A00070471949486070471748406808B901209B
:1054B00070470020FCE714498860704712488068F4
:1054C00008B9012070470020FCE70F48006820B1B0
:1054D0000D480068401E0C4908600B48406820B128
:1054E00009484068401E084948600748806820B164
:1054F00005488068401E04498860704700093D00E7
:1055000018ED00E000E400E0C4120020014600BFF6
:10551000704700BF4A4A128812F0400FFAD0C2B258
:10552000474B1B1D1A80704710B586B004460121F9
:1055300044F20400FFF79AFC4148FFF765FD4FF481
:105540000070ADF8140003208DF8160018208DF8B7
:10555000170005A93B48FEF7B5F94FF48060ADF898
:10556000140004208DF8170005A93648FEF7AAF9A3
:1055700025208DF8000003208DF801008DF8020031
:1055800001208DF803006846FFF79DFA0194002082
:10559000ADF80800ADF80A00ADF80C00ADF8100049
:1055A0000C20ADF80E0001A92548FFF770FD01227F
:1055B00040F225512248FFF702FE01212048FFF763
:1055C000F2FD06B010BD10B540F225511C48FFF7A2
:1055D000DBFE10B31A48FFF757FEC4B21A48008822
:1055E00010F4004F2BD11848008810F4804F0CD0D5
:1055F0000A2C03D000201449088020E012480088BB
:1056000040F400401049088019E00D2C06D10E48E6
:10561000008840F480400C49088010E00A48008867
:10562000C0F30D0009490C5407480088401C064986
:10563000088008460088C72801DD0020088010BDCA
:10564000003801400008014094000020D0120020E2
:105650000CB50020019000906B48006840F4803049
:105660006949086000BF6848006800F40030009095
:105670000198401C0190009818B90198B0F5A06FEE
:10568000F1D16148006810F4003F02D00120009081
:1056900001E0002000900098012842D15B4800689A
:1056A00040F01000594908600846006820F00300E7
:1056B00008600846006840F00200086052484068F0
:1056C000514948600846406848600846406840F4D0
:1056D000806048600846406820F47C1048600846B6
:1056E000406840F4E81048600846006840F0807068
:1056F000086000BF4448006810F0007FFAD04248BC
:10570000406820F00300404948600846406840F087
:105710000200486000BF3C48406800F00C000828C8
:10572000F9D10CBD10B5FFF793FF10BD10B5364889
:10573000006840F001003449086008464068344978
:1057400008403149486008460068324908402E49FF
:1057500008600846006820F4802008600846406819
:1057600020F4FE0048604FF41F008860FFF7DAFF66
:105770004FF000602849086010BD10B500210020DE
:105780000022214B5B6803F00C0121B1042906D0F3
:10579000082928D107E0214B214C236027E01F4B2B
:1057A0001F4C236023E0184B5B6803F47010164B0A
:1057B0005B6803F48032022303EB904022B9194B5B
:1057C0004343174C23600DE00F4B5B6813F4003F1D
:1057D00004D0144B4343124C236003E00F4B43436C
:1057E0000F4C236003E00D4B0D4C236000BF00BF46
:1057F000054B5B68C3F303130B4CE15C084B1B6860
:10580000CB40074C236010BD001002400020024036
:105810000000FFF8FFFFF6FE08ED00E000127A003E
:105820009C00002000093D00A0000020094880479E
:1058300009480047FEE7FEE7FEE7FEE7FEE7FEE772
:10584000FEE7FEE7FEE7FEE704480549054A064B8A
:10585000704700002D570008ED000008F8130020E5
:10586000F8190020F8150020F815002070470000F6
:105870000FB41CB5074B06AA7B44694600900598F7
:1058800000F0B5F90020694600F0C4F91CBC5DF8D1
:1058900014FB00009903000070B504468569006898
:1058A000C10601D5302600E02026C00708D070BD13
:1058B000D4E9012130469047206A00F101002062BE
:1058C0006D1EF5D570BD70B5044685690078C007BA
:1058D00008D170BDD4E9012120209047206A00F151
:1058E000010020626D1EF5D570BD00002DE9F0416C
:1058F0000646002410687529314616A511D0AFF36D
:105900000080002803DAC0F1000013A507E0316829
:105910008A0701D511A502E0490704D510A5012485
:1059200001E0AFF3008000210A2306F1240707E01D
:10593000B0FBF3F203FB1200303078541046491CE0
:105940000028F5D123462A463046BDE8F04100F054
:10595000ECB80000000000002D0000002B0000004B
:10596000200000002DE9F05F894604464FF0000A50
:10597000DFF828B1FB44C0F820A02046E168884742
:1059800000287CD0252806D0D4E901219047206A40
:10599000401C2062F1E700255F462046E168884709
:1059A0002028064608DB312E06D207EB060010F849
:1059B000200C08B10543F0E7A80701D525F0040540
:1059C000C4F81CA00027C4F818A02A2E09D030461D
:1059D00000F07CF938B304EB8708303EC8F8186053
:1059E00019E059F8041B204604EB87029161E16835
:1059F0008847012F064618D1E069002820DA25F0F3
:105A000020051DE0D8F8180000EB800006EB4000F0
:105A10003038C8F818002046E1688847064600F08C
:105A200055F90028EED1012F0AD02E2E08D120469C
:105A3000E16888477F1C0646022F45F02005C4DB3D
:105A4000A069002803DA404245F00105A061E8079B
:105A500001D025F0100596B1A6F14100192802D811
:105A6000203645F400654A463146204625604D46BD
:105A7000FAF776FB60B1012807D0ED1D00E009E0E0
:105A800025F0070000F1080977E705F1040974E73C
:105A9000304679E7206ABDE8F09F000074130000EB
:105AA00010B5431C02E010F8011B71B18107FAD157
:105AB0004FF0013202C88C1A8C4314EAC211F9D09B
:105AC000C01A0A0603D0C01E10BDC01A10BD0A04B9
:105AD00001D0801E10BD0902FCD0401E10BD4FF049
