:020000040800F2
:10000000C81B00207144000845040008470400088C
:100010004B0400084F0400085304000800000000CF
:10002000000000000000000000000000570400086D
:1000300059040008000000005B0400085D0400088B
:100040008B4400088B4400088B4400088B44000854
:100050008B4400088B4400088B4400088B44000844
:100060008B4400088B4400088B4400088B44000834
:100070008B4400088B4400088B4400088B44000824
:100080008B4400088B4400088B4400088B44000814
:100090008B4400088B4400088B4400088B44000804
:1000A0008B4400088B4400088B4400088B440008F4
:1000B000650400088B4400088B4400088B4400084A
:1000C0008B4400088B4400088B4400088B440008D4
:1000D0008B4400080B4200088B4400088B44000846
:1000E0008B4400088B4400088B4400088B440008B4
:1000F0008B4400088B4400088B4400088B440008A4
:100100008B4400088B4400088B4400088B44000893
:100110008B4400088B4400088B4400088B44000883
:100120008B4400088B4400088B4400088B44000873
:1001300000F002F800F048F80AA090E8000C8244B1
:100140008344AAF10107DA4501D100F03DF8AFF28E
:10015000090EBAE80F0013F0010F18BFFB1A43F0A5
:1001600001031847EC6100000C620000103A24BF44
:1001700078C878C1FAD8520724BF30C830C144BF0C
:1001800004680C607047000000230024002500264E
:10019000103A28BF78C1FBD8520728BF30C148BFEA
:1001A0000B607047642904F0CD81002070471FB5B3
:1001B00004F06CFE04000020002104F0ABFE401CA3
:1001C00060601FBD10B510BD04F028FE1146FFF79A
:1001D000EEFF00F008F804F04FFE03B4FFF7F2FF63
:1001E00003BC03F0B5FF0EB506E0684600F0A2F8C8
:1001F0009DE8070000F001F9F7E7000010B500F0F6
:10020000D1F8012802D01D2815D10BE001F060F8CB
:1002100000F0E6FB4FF4FA6003F04BFF1D2000F006
:10022000C4F809E000F0DCFBC82003F042FF042022
:1002300000F0BBF800E000BF00BF4021002001F04B
:100240001FFD03480088401C0149088010BD0000C4
:100250000000002007B500F0A5F80199C9B2884256
:1002600000D00EBD00BF00BF00BF00BFF9E707B55B
:1002700000F098F80199C9B2884200D00EBD00BFC5
:1002800000BF00BF00BFF9E707B500F08BF8019988
:10029000C9B2884200D00EBD00BF00BF00BF00BF82
:1002A000F9E707B500F07EF80199C9B2884200D09D
:1002B0000EBD00BF00BF00BF00BFF9E707B500F0EB
:1002C00071F80199C9B2884200D00EBD00BF00BFCD
:1002D00000BF00BFF9E707B500F064F80199C9B2A3
:1002E000884200D00EBD00BF00BF00BF00BFF9E7CD
:1002F00007B52B4890F880012030294991F88111E9
:10030000884215D0264890F8810100F01F0000EBCC
:100310004000234901EB80009DE80E000EC02048FC
:1003200090F88101401C1E4981F8810101200EBD19
:100330000020FCE70EB51A4991F88011184A92F88E
:100340008121914206D111218DF8001000210191E7
:10035000029116E0124991F8801101F01F0101EBA2
:1003600041010F4A02EB8103D3E900219B68CDE9EB
:10037000011300920A4991F88011491C084A82F839
:1003800080119DE80E0080E80E000EBD002004499B
:1003900081F88101084690F8810181F88001704759
:1003A000980000202448007870472349087070475F
:1003B00001462248807A0A2809DA2048827A807A1F
:1003C000401C1E4B98721846815401207047002033
:1003D000FCE701461948807A48B11848807A401EE7
:1003E000C0B2164A9072105C08700120704700205D
:1003F000FCE7002011498872704717B58FB038228A
:100400000F4901A804F004FA002411E09DF83C0013
:1004100001A911F83410884208D101A800EBC400EA
:1004200043680FA807C8984712B010BD601CC4B23B
:10043000072CEBD300BFF7E7020000201C020020CE
:10044000404F0008704700BFFEE700BFFEE700BF57
:10045000FEE700BFFEE770477047704710B503F036
:100460004EFE10BD10B50121880703F0D3FB10BD6F
:100470002DE9F0470746884615469946089EB8F18B
:10048000000F06D0B8F1010F09D0B8F1020F2DD13D
:1004900019E03A464946284601F0ACF927E03846CB
:1004A00004F052F900EB40004006040EA64203DDC2
:1004B000301BC0F3470400E0002428193A4649469F
:1004C00001F098F913E0384604F03EF900EB4000E3
:1004D0004006040EA64202DD301BC4B200E0002438
:1004E00028193A46494601F085F900E000BF00BFEF
:1004F000BDE8F08710B5044622463421062001F0FD
:1005000079F910BD10B5044622463421002001F0CF
:1005100071F910BD38B50446802000231A46012128
:1005200000902046FFF7A4FF38BDF8B505460F46FA
:1005300014461E46012366223321182000F0F1FEE6
:1005400001233F223321182000F04EFF01233F22D8
:100550003321662000F048FF287838B14A20342340
:100560001B22394600902846FFF782FF207838B1D9
:100570004A2034231B22314600902046FFF778FFA3
:10058000F8BD2DE9F04106460F4615461C460123ED
:100590002A463946304600F0C4FE01232A46214649
:1005A000304600F0BEFE012322463946304600F0B8
:1005B0001BFF012322463946284600F015FFBDE8FF
:1005C000F08100200DE0F9494978C1EBC10101EB50
:1005D0004102F6490E311144095C01B903E0411CA6
:1005E000C8B21428EFDB00BF7047F8B50446FFF728
:1005F000E8FF00EB40004006050E0CB1012000E0D2
:100600000020EA4E00907778B61C06EB4706767815
:100610000A36F3B2E54E7778B61C16F817602E440A
:10062000F2B2E24E7778B61C06EB47067678761C77
:10063000F1B2DE4E7778B61C16F817602E44F0B291
:1006400001F024F8D9494A78891C01EB4201497824
:10065000491CC8B20A2101F013FBF8BD10B5D448FB
:10066000007808B9012000E00020D1490870084650
:100670000078FFF7BAFF10BD2DE9F04104460F46A0
:1006800015461E466221C94804F0FCF8C74884722A
:10069000C77205734673BDE8F08110B5C348417851
:1006A0000078401E814207DA0020FFF79EFFBF4816
:1006B0004078401CBD49487010BD10B5BB4840781B
:1006C000002807DD0020FFF790FFB8484078401E63
:1006D000B649487010BD2DE9F04186B005460E467A
:1006E00017464FF00008002426E0B04841780A3051
:1006F000405CA0421DDDAD484078C0EBC00000EB7F
:100700004001AA480E300844005D98B9B0450FDAA0
:100710004046411C01F0FF08295CA4484078C0EB2A
:10072000C00000EB4002A1480E301044015501E02A
:1007300004E003E0601CC4B2142CD6DB00BF00212F
:100740009A484078C0EBC00000EB400297480E305A
:1007500010440155CFB9954B5B78C3EBC30303EB52
:10076000430C924B0E330CEB03020E3B93F801C08B
:100770009B1C03EB4C0359788C4B93F801C09B1CDA
:1007800013F81C0001F036F81AE0884842780A3065
:10079000815C2A22684604F06DF8FFF712FF002200
:1007A0000DF80020814A5378921C02EB43025178E5
:1007B0007E4A5378921C12F813006A4601F01AF828
:1007C0007A494A78891C01EB420148780C2101F0F2
:1007D00057FA06B0BDE8F08108B500200090FFF799
:1007E000F0FE00280CDD71494978C1EBC10101EB35
:1007F00041026E490E3150186A466EA103F0DEFECA
:10080000009808BD69484078C0EBC00000EB40018B
:1008100066480E3008447047F0B587B004460D4670
:1008200000BF62494978C1EBC10101EB41025F4958
:100830000E31501803F088FFC6B2A64273DB0020C9
:10084000FFF7D3FE0DE0002158484078C0EBC00010
:1008500000EB400255480E300244701EC0B20646FE
:1008600011542000A4F10101CCB2ECD14F484278E0
:100870000A30815C202201A803F0FCFF00214B48D4
:1008800042780A30805C01AA1154484A5378921C7D
:1008900002EB43025178454A5378921C12F8130038
:1008A00001AA00F0A7FFB5B9404B5B78C3EBC303C7
:1008B00003EB43073D4B0E33FA180E3B5F789B1C4E
:1008C00003EB47035978394B5F789B1C13F81700EB
:1008D00000F090FF1AE0354842780A30815C2A2205
:1008E00001A803F0C7FFFFF76CFE01A900220A541C
:1008F0002E4A5378921C02EB430251782B4A5378CC
:10090000921C12F8130001AA00F074FF27494A78DC
:10091000891C01EB420148780C2101F0B1F901205A
:1009200007B0F0BDFFE70020FAE72DE9F84F804659
:100930000E4614469946404603F006FF00F0FF0AB3
:100940000AF1010000EB400006EB4000C5B27F2D2C
:1009500000DD002509EB0500C7B27F2F00DD7F27F2
:100960000120009004F10C00C3B2601EC1B23A46EF
:10097000284600F046FE42462146304600F03AFF47
:10098000A81CC1B209480278801C00F81210801E11
:100990000178801C00EB4100447004480078401C42
:1009A0000249087000204870BDE8F88F2702002037
:1009B00003000020256C640010B5FD48FD49026865
:1009C000FD4803F0E0FE4021002001F059F910BD80
:1009D00010B5F748F8490268F64803F0D4FE10BD98
:1009E00010B501F09FF8F5A20D21002000F002FFE4
:1009F000F7A21A21002000F0FDFE4021002001F0A6
:100A00003FF910BD10B50446012C11D101F08AF850
:100A1000F4A20021032000F0EDFEF4A20D2100203D
:100A200000F0E8FEF4A21A21002000F0E3FE00E04E
:100A300000BF00BF4021002001F022F910BD10B519
:100A40008EB0044601F06EF80E2C7DD2DFE804F083
:100A5000070D13333F4A5A658797A2ADC8CEE8A267
:100A60001A21032000F0C6FEC7E0E8A20D210020F5
:100A700000F0C0FEC1E0EAA20021084600F0BAFE84
:100A8000EC480278ECA101A803F014FD01AA0D21A5
:100A9000002000F0AFFEEBA21A21002000F0AAFE19
:100AA000EAA22721002000F0A5FEEBA234210020BD
:100AB00000F0A0FEA1E0DF480278EAA101A803F05F
:100AC000F9FC01AA1A21002000F094FE95E0E9A2A9
:100AD0000D21002000F08EFEE9A21A21002000F076
:100AE00089FE8AE0E9A20D21002000F083FED5A254
:100AF0001A21002000F07EFED7A23421002000F051
:100B000079FE7AE0E4A20D21002000F073FEE5A258
:100B10001A21002000F06EFE6FE0E6A200210846D8
:100B200000F068FEC3480278C3A101A803F0C2FC2C
:100B300001AA0D21002000F05DFEC2A21A210020B2
:100B400000F058FEC1A200E056E02721002000F08E
:100B500051FEC1A23421002000F04CFE4DE0D7A28E
:100B60000021084600F046FED8A21A21002000F01D
:100B700041FEB9A23421002000F03CFE3DE0D5A2A8
:100B80000D21002000F036FEC6A21A21002000F040
:100B900031FE32E0D2A20D21012000F02BFED3A2C3
:100BA0001A21012000F026FE27E0D3A200210846EA
:100BB00000F020FE9F4802789FA101A803F07AFC74
:100BC00001AA0D21002000F015FE9EA21A2100208E
:100BD00000F010FEA0A23421002000F00BFE0CE07B
:100BE000C7A20D21002000F005FE06E0C7A20D21DE
:100BF000002000F0FFFD00E000BF00BF402100200A
:100C000001F03EF80EB010BD3EB5044642F2481564
:100C10002A46C1A1684603F04DFC00F083FF102C6A
:100C200069D2DFE804F0080E141A20262C32383E70
:100C3000444A50565C62B9A20D21002000F0DAFD52
:100C40005AE06A460D21002000F0D4FD54E0B5A220
:100C50000D21002000F0CEFD4EE0B5A20D210020B8
:100C600000F0C8FD48E0B5A20D21002000F0C2FD53
:100C700042E0B5A20D21002000F0BCFD3CE0B5A291
:100C80000D21002000F0B6FD36E0B5A20D210020B8
:100C900000F0B0FD30E0B5A20D21002000F0AAFD6B
:100CA0002AE0B5A20D21002000F0A4FD24E0B5A2A9
:100CB0000D21002000F09EFD1EE0B5A20D210020B8
:100CC00000F098FD18E0B5A20D21002000F092FD83
:100CD00012E0B5A20D21002000F08CFD0CE0B5A2C1
:100CE0000D21002000F086FD06E0B6A20D210020B7
:100CF00000F080FD00E000BF00BF4021002000F0B8
:100D0000BFFF3EBD10B500F00DFFB2A200210846A6
:100D100000F070FD4021002000F0B2FF10BD38B59A
:100D2000044614B1012C42D12EE000F0FBFE00235A
:100D3000032211461046FFF79FFC262304221221AE
:100D4000A9A0FFF7F2FD262313221221A9A0FFF785
:100D5000ECFD262322221221A9A0FFF7E6FD0023A5
:100D60001AA20121A9A0FFF7E0FBABA0FFF7CAFB85
:100D7000ABA0FFF7BFFB0120302378220146009093
:100D8000082000F03EFC7CE100F0CCFE00230522B0
:100D900011461046FFF770FC262304221221A2A060
:100DA000FFF7C3FD262313221221A2A048E167E129
:100DB0000400002089100020890C0020D6C7C4DC64
:100DC000C4D6D6D3B2E2CAD4CFB5CDB300000000AA
:100DD000CAC0BDE7D2BBC1F7BBB6D3ADCAB9D3C396
:100DE00000000000B4E6B0FC00000000CAE4C8EB5C
:100DF000CFE4BAC500000000CFE4BAC53A00000055
:100E0000C7EBC9D4B5C82E2E2E000000C9E8B1B872
:100E1000B3F5CABCBBAFCAA7B0DCA3A100000000F9
:100E2000D6B1BDD3C8B7C8CFD4F2CEDEC3DCC2EBD7
:100E30000000000059000020CFE420BAC53A256424
:100E400000000000C3DC20C2EB3A0000C3DCC2EBB0
:100E5000C8B7C8CF3A000000202020202020C8B703
:100E6000C8CF0000202564BAC5CFE4D7D3D2D1B40F
:100E7000F2BFAA0020C3DCC2EBB2BBD2BBD6C20019
:100E80002020D6D8D0C2CAE4C8EB0000C7EBCAE421
:100E9000C8EBC3DCC2EB0000CBA2BFA8D2ECB3A36B
:100EA00000000000C7EBC1AACFB5B9DCC0EDD4B1DA
:100EB00000000000202020B4E6B0FC002020C7EB9A
:100EC000CAE4C8EBCFE4BAC50000000020CFE4BA02
:100ED000C53A0000CFE4BAC5D2ECB3A300000000CD
:100EE000B4CBCFE4D0E8CBA2BFA80000C7EBCBA225
:100EF000BFA8BFAACFE40000202020C8A1B0FC00FA
:100F0000B4CBCFE4CEAABFD500000000CFE4BAC571
:100F1000B2BBB4E6D4DA00002564200030313233AD
:100F20003400000032BCFCB1BBB0B4CFC200000042
:100F300033BCFCB1BBB0B4CFC200000034BCFCB1C8
:100F4000BBB0B4CFC200000035BCFCB1BBB0B4CF65
:100F5000C200000036BCFCB1BBB0B4CFC200000080
:100F600037BCFCB1BBB0B4CFC200000038BCFCB190
:100F7000BBB0B4CFC200000039BCFCB1BBB0B4CF31
:100F8000C2000000494EBCFCB1BBB0B4CFC20000EF
:100F90004F5554BCFCB1BBB0B4CFC200535953BC85
:100FA000FCB1BBB0B4CFC2004B4559BCFCB1BBB027
:100FB000B4CFC2004241434BBCFCB1BBB0B4CFC2C2
:100FC0000000000053555245BCFCB1BBB0B4CFC2C9
:100FD00000000000312EB4A2CEEFB9F1322EC0EEE7
:100FE000D1C7B6AB00000000C6F0CABCC0D7B9DCA0
:100FF00000000000BDD8D6B9C0D7B9DC00000000A1
:10100000BFD7C4DAC0D7B9DC00000000B0B4A84C28
:10101000C8B7C8CF00000000B7B5BBD800000000BB
:10102000BBD8C9BE00000000C6F0CABCD1D3C6DA26
:1010300000000000BFD7BCE4D1D3C6DA0000000036
:10104000FFF773FC26232222122147A0FFF76DFC35
:10105000002347A20121AFF24C00FFF766FAAFF27E
:101060004800FFF74FFAAFF24800FFF743FA0120BC
:101070003023782201460090082000F0C2FA00E0F8
:1010800000BF00BF4021002000F0FAFD38BD38B598
:10109000044600F047FD0120302378220E21009005
:1010A000082000F0AEFA092C37D2DFE804F005067C
:1010B0000C12181E242A300030E02EA21A21112012
:1010C00000F098FB2AE030A21A21084600F092FBBB
:1010D00024E031A21A21084600F08CFB1EE032A267
:1010E0001A21084600F086FB18E033A21A212020BE
:1010F00000F080FB12E033A21A21202000F07AFBDE
:101100000CE033A21A21084600F074FB06E034A27A
:101110001A21084600F06EFB00E000BF00BF40212E
:10112000002000F0ADFD38BD10B5302000F0A8FE65
:1011300001F0C0F9802000F0A3FE2DA001F07EF8A0
:10114000902000F09DFE2FA001F078F8882000F09C
:1011500097FE31A001F072F8982000F091FE33A0C4
:1011600001F06CF810BD0000BFD7C4DAD1D3C6DAE5
:1011700000000000C3DCD4BFD6D8CAD4B4CECAFDA8
:10118000CEAA302100000000C3DCD4BFD2D1BCEC19
:10119000B2E2B5BD2E2E2E00BFAACABCBCECB2E294
:1011A000C3DCD4BF2E2E2E00CEB4BCECB2E2B5BD53
:1011B000C3DCD4BF2E2E2E00B3F6CFD6B4EDCEF3C3
:1011C0002E2E2E00C3B6BED9B3C9B9A62E2E2E0020
:1011D000B4D3BBFAC9E8B1B8B2E5C8EB2E2E2E00E5
:1011E000C9E8B1B8CEB4C1ACBDD32E2E2E000000DC
:1011F0003120B4E6B0FC202020203220C8A1B0FC71
:10120000000000003320D7B4CCAC202020203420B4
:10121000B9DCC0ED000000003520B2E9BFB42020E9
:1012200020203620C1D0B1ED00000000B7B5BBD8FA
:101230002020202020202020C8B7C8CF0000000098
:1012400008B50121182001F073FD4FF49070ADF83E
:10125000000010208DF8030003208DF8020069467D
:10126000174801F0AFFA4FF48071154801F057FBB1
:101270002021134801F051FB08BD10B54FF48071D7
:101280000F4801F04AFB642002F013FF4FF4807115
:101290000B4801F044FB642002F00BFF10BD10B5B9
:1012A0002021074801F03BFB642002F002FF2021CF
:1012B000034801F032FB642002F0FBFE10BD000089
:1012C000000C014010B5FFF761F8FFF792F810BD70
:1012D00010B5FFF7F7FF02F0BEFE02F0A3FE0121FA
:1012E000094801F03EFB00F059FE10BD10B5FFF7B4
:1012F000A7FF00F053FEC82002F0DBFE052002F03D
:10130000D8FE002010BD000000023000024601B1EE
:101310000AB9012070471368086810600B6000204C
:10132000F8E72DE9FF410C4698469DF800009DF82E
:101330000810884203DD02A96846FFF7E7FF3F2C4B
:1013400003DC9DF800007F2801DDBDE8FF819DF8EA
:1013500008007F2801DD7F2002902046E11704EB82
:101360005171C1F3C706B8F1000F1ED1E11704EBAC
:101370005171C910A4EBC10201219140CFB2F843D1
:10138000C7B29DF800500AE0F74800EBC610405D78
:101390003840F54901EBC6114855681CC5B29DF8A7
:1013A0000800401C8542EFDB1CE02046E11704EBFF
:1013B0005171C910A4EBC10201219140CFB29DF837
:1013C00000500AE0E84800EBC610405D3843E649AB
:1013D00001EBC6114855681CC5B29DF80800401CB9
:1013E0008542EFDB00BFB0E72DE9FF410446984698
:1013F0009DF804009DF80810884203DD02A901A8A9
:10140000FFF784FF9DF804003F2801DC7F2C01DDFD
:10141000BDE8FF819DF808003F2801DD072002900C
:101420009DF80400C11700EB5171CD109DF8080024
:10143000C11700EB5171CE10B54246D1B8F1000F83
:1014400021D19DF80410CA1701EB5272D210A1EB02
:10145000C203FF229A409DF80800C31700EB5373A4
:10146000DB10A0EBC303C3F1070CFF2303FA0CF35B
:101470001A40BD4B03EBC5131B5D9343BA4A02EB05
:10148000C5121355BBE09DF80410CA1701EB527248
:10149000D210A1EBC203FF229A409DF80800C317A7
:1014A00000EB5373DB10A0EBC303C3F1070CFF2366
:1014B00043FA0CF31A40AC4B03EBC5131B5D1A4304
:1014C000A94B03EBC5131A5599E0B8F1000F4CD1A5
:1014D0009DF80400C11700EB5171C910B0EBC101B8
:1014E00015D09DF80400C11700EB5171C910A0EB95
:1014F000C102FF2191409C4A02EBC512125D22EA13
:101500000101994A02EBC5121155681CC5B29DF83C
:101510000800C11700EB5171C910A0EBC1010729E8
:1015200017D09DF80800C11700EB5171C910A0EB4E
:10153000C101C1F10702FF2111418B4A02EBC61222
:10154000125D22EA0101884A02EBC6121155701E93
:10155000C6B22F4606E00020834901EBC7110855AB
:10156000781CC7B2B742F6DD49E09DF80400C11708
:1015700000EB5171C910B0EBC10114D09DF804000B
:10158000C11700EB5171C910A0EBC102FF219140BE
:10159000754A02EBC512125D1143734A02EBC51284
:1015A0001155681CC5B29DF80800C11700EB5171B8
:1015B000C910A0EBC101072916D09DF80800C1177A
:1015C00000EB5171C910A0EBC101C1F10702FF216D
:1015D0001141654A02EBC612125D1143624A02EBE9
:1015E000C6121155701EC6B22F4606E0FF205E4996
:1015F00001EBC7110855781CC7B2B742F6DD00BF32
:1016000006E71FB5069C9DF800009DF8081088426B
:1016100003DD02A96846FFF779FE9DF804009DF8F6
:101620000C10884203DD03A901A8FFF76FFE9DF8A7
:101630000C003F2803DC9DF808007F2800DD1FBD5B
:1016400023469DF808209DF804109DF80000FFF740
:1016500068FE23469DF808209DF80C109DF80000B8
:10166000FFF75FFE23469DF80C209DF804109DF8BF
:101670000000FFF7B9FE23469DF80C209DF80410EA
:101680009DF80800FFF7B0FE00BFD8E73FB5079D03
:101690009DF800009DF80810884203DD02A9684605
:1016A000FFF734FE9DF804009DF80C10884203DD1E
:1016B00003A901A8FFF72AFE9DF804003F2803DCD8
:1016C0009DF800007F2800DD3FBD9DF8004009E047
:1016D0002B469DF80C209DF804102046FFF784FE51
:1016E000601CC4B29DF808008442F1DD00BFEBE746
:1016F000F0B5034600247F2B01D83F2900D9F0BD67
:10170000002003E0EE2800D90BE0801C1578174E6E
:10171000365CB542F6D15678144F451C7D5DAE421D
:10172000F0D100BFEE2805D200EB4005104E06EBCD
:10173000850400E0E3E7084610E025780D4E06EB4F
:10174000001606F81350651C2C462E78094D05EB43
:1017500000175D006D1C7E55641C401C01F10B05DB
:10176000A842EAD900BFCAE7890C0020784F0008D8
:1017700066500008890800207047F0B503461446FB
:1017800000227F2B01D83F2900D9F0BD2578A5F193
:101790002000602805D200EB4005FE4E06EB8502D6
:1017A00000E0F2E7FC4D2D78012D0ED1084608E04F
:1017B0001678FA4FC51C07EB051505F81360521C87
:1017C000401C01F10B05A842F2D9F34D2D787DB9EB
:1017D000084609E01678F14FC51C07EB05175D00B8
:1017E0006D1C7E55521C401C01F10B05A842F1D91D
:1017F00000BFCAE72DE9F04106460F4614463546BC
:10180000B8460CB9BDE8F08128E07F2D00D9F9E792
:10181000B8F13F0F00D9F5E7207810F0800F0AD01B
:10182000224641462846FFF763FF0020DA49087048
:10183000A41C6D1C12E0D8480078012804D16D1E4C
:101840000020D549087002E00120D34908702246E3
:1018500041462846FFF791FF641C6D1C2078002844
:10186000D3D100BFCEE7F8B5034615460C46CF17D7
:1018700001EB5777C7F3C7027F2900DDF8BD0020D1
:1018800062E02E5C00240094FF248DF803400C4697
:10189000CF1701EB5777FF10A1EBC70C009F07FA9A
:1018A0000CF700971418BE4F07EBC414E45C9DF8C6
:1018B0000370BC431718DFF8E8C20CEBC717FC54E1
:1018C000541C082C0DDA1418641C674607EBC4146A
:1018D000E45C9DF80270BC4317187F1C0CEBC71723
:1018E000FC54002400948DF803600C46CF1701EBE4
:1018F0005777FF10A1EBC70C009F07FA0CF7009772
:101900001418A74F07EBC414E45C9DF803703C4324
:101910001718DFF88CC20CEBC717FC54541C072CAB
:1019200000DDABE71418641C9D4F07EBC414E45CA6
:101930009DF802703C4317187F1CDFF864C20CEB63
:10194000C717FC54441CE0B204289ADB00BF95E79B
:101950002DE9F04106460F4614464FF000087F2E51
:1019600001D83F2F01D9BDE8F081052C02DD002C04
:1019700000DCF8E7601E8B4901EB8018002509E0C8
:10198000F9B27219D0B24246FFF76DFF08F10408B0
:10199000681CC5B2102DF3DB00BFE4E72DE9F04170
:1019A00005460E4617464FF000087F2D01D83F2E02
:1019B00001D9BDE8F081012F00DDFAE77A4901EB9A
:1019C000C718002409E0F1B22A19D0B24246FFF745
:1019D0004AFF08F10408601CC4B2202CF3DB00BFEE
:1019E000E7E72DE9F84104461F46002600250B468F
:1019F0004FEAE17C01EB5C7CCCF3C70016785578AC
:101A000005F00F0500230093FF238DF800300F230E
:101A10008DF801300B464FEAE17C01EB5C7C4FEA2C
:101A2000EC0CA1EBCC08DDF800C00CFA08FCCDF8FA
:101A300000C05B4B03EBC0131B5D9DF800C023EAA5
:101A40000C03DFF85CC10CEBC01C0CF80430DFF8B1
:101A500050C1431C0CEBC3131B5D9DF801C023EA6E
:101A60000C03DFF83C8100F1010C08EBCC1C0CF8F6
:101A70000430831C082B0DDAC4460CEBC3131B5D2A
:101A80009DF802C023EA0C0300F1020C08EBCC1C09
:101A90000CF80430002300938DF800608DF801509D
:101AA0000B464FEAE17C01EB5C7C4FEAEC0CA1EBCE
:101AB000CC08DDF800C00CFA08FCCDF800C0384BAB
:101AC00003EBC0131B5D9DF800C043EA0C03DFF875
:101AD000D0C00CEBC01C0CF80430DFF8C4C0431CB1
:101AE0000CEBC3131B5D9DF801C043EA0C03DFF848
:101AF000B08000F1010C08EBCC1C0CF80430831C06
:101B0000082B0DDAC4460CEBC3131B5D9DF802C015
:101B100043EA0C0300F1020C08EBCC1C0CF8043077
:101B2000BDE8F88110B54FF480611C4802F0AAFEB0
:101B300010BD2DE9F0470026B246B1463FE04FF018
:101B4000000835E009EB49008006070E16E0114851
:101B500010F80A00114901EB071101F818000D49AE
:101B60000AF10C00095C0D4800EB07124FEA48002F
:101B7000401C11540AF1010A781CC7B209EB490054
:101B80000B2101EB8000B842E1DA0AF10C0A08F1FE
:101B900001000BE08E5D000808000020890800208D
:101BA000890C00200E6200088E5B000800F0FF0820
:101BB000B8F1070FC6DD09F1010000F0FF09B9F126
:101BC000040FBCDD002557E01F2D2BDD0826344611
:101BD00023E0362000F054F905F16001C8B200F0AE
:101BE0004FF904F18001C8B200F04AF9302000F04A
:101BF00047F96B4901EB0512A11B12F8110000F027
:101C000021F9674901EB0512A11B012303EB4101F7
:101C1000505C00F017F9601CC4B206F10800844261
:101C2000D7DB27E0344621E0362000F029F905F122
:101C30008001C8B200F024F904F18001C8B200F0BC
:101C40001FF9302000F01CF9554901EB051111F87E
:101C5000140000F0F7F8524901EB0511012202EBE4
:101C60004402885C00F0EEF8601CC4B206F1080083
:101C70008442D9DB681CC5B2402DA5DDBDE8F087E4
:101C80002DE9F041074688460026002557E01F2D24
:101C90002BDD0826344623E0362000F0F1F805F16C
:101CA0006001C8B200F0ECF804F18001C8B200F0A5
:101CB000E7F8302000F0E4F8394901EB0512A11BE8
:101CC00012F8110000F0BEF8354901EB0512A11B16
:101CD000012303EB4101505C00F0B4F8601CC4B276
:101CE00006F108008442D7DB27E0344621E03620A5
:101CF00000F0C6F805F18001C8B200F0C1F804F1A7
:101D00008001C8B200F0BCF8302000F0B9F82449D6
:101D100001EB051111F8140000F094F8204901EBD3
:101D20000511012202EB4402885C00F08BF8601C74
:101D3000C4B206F108008442D9DB681CC5B2402D4C
:101D4000A5DDBDE8F08170B500251DE0002417E099
:101D5000342000F095F805F18001C8B200F090F849
:101D600004F18001C8B200F08BF8302000F088F850
:101D7000002000F067F8002000F064F8601CC4B296
:101D8000102CE5DB681CC5B2402DDFDB70BD10B543
:101D9000FFF7D9FF322002F08CF910BD7047000028
:101DA00089080020FE4909680021FD4A116011469A
:101DB000096841F077311160F9490C31096801F483
:101DC0007F41C2B21143F64A0C321160704770B5C0
:101DD0008024F34800680020F14908600846006844
:101DE00040F088300860EE481030006840F0FF0096
:101DF000EB49103108600020EA4908604FF001000B
:101E0000E949C1F88401E949086015E00020E54985
:101E100008604FF00100E449C1F88401E34908601B
:101E200002F006F9DE480830006885B2ECB204F032
:101E30008004012002F0FCF8802CE7D00020DB4970
:101E4000086070BD10B50446FFF7C1FF0120D549F9
:101E500008604FF00000D449C1F884014FF0010040
:101E6000D24908602046FFF79DFF012002F0E0F80C
:101E70000020CD49C1F88801012002F0D9F810BD39
:101E800010B504460020C7490860C749C1F884015D
:101E90004FF0010002F0CCF80120C44908604FF077
:101EA000160002F0C5F82046FFF77CFF0A2002F07A
:101EB000BFF80020BC49C1F88801012002F0B8F841
:101EC00010BD70B500251DE0002417E03420FFF799
:101ED000D7FF05F18001C8B2FFF7D2FF04F18001FE
:101EE000C8B2FFF7CDFF3020FFF7CAFF0020FFF791
:101EF000A9FF0020FFF7A6FF601CC4B2102CE5DB91
:101F0000681CC5B2402DDFDB70BD10B53020FFF777
:101F1000B7FF012002F0CDF83020FFF7B1FF01201C
:101F200002F0C7F80C20FFF7ABFF012002F0C1F868
:101F30000120FFF7A5FF0B2002F0BBF80620FFF7FA
:101F40009FFF012002F0B5F810BD9948806940F06C
:101F5000100097498861974800686FF3130095490E
:101F60000860084600689449084392490860904810
:101F7000806940F004008E4988618948006800202B
:101F8000874908600846006840F033300860012047
:101F90008A4908608449C1F89001704710B54FF430
:101FA000967002F086F8FFF7D0FFFFF7AEFFFFF75D
:101FB00088FF10BD70B5FFF70AFF79480068002060
:101FC000774908600846006840F088300860744827
:101FD0001030006840F0FF007149103108600120A6
:101FE000704908607049C1F884017049086002F0C6
:101FF0001FF86B4808300068C4B2012002F018F8DE
:1020000000206949C1F888012546284670BD2DE9A0
:10201000F84F05460C46924605F07F0504F03F0454
:102020002846E91705EB11714FEA211B05F00F0651
:102030002046E11704EBD1614911009127461F2F7B
:1020400002DDA7F12000C7B23420FFF719FF3620C8
:10205000FFF716FF07F18001C8B2FFF711FF0BF180
:1020600080010823009A03FB0211C8B2FFF708FFA2
:10207000FFF7A0FFFFF79EFF8046FFF79BFF81461B
:1020800007F18001C8B2FFF7FBFE0BF180010823C6
:10209000009A03FB0211C8B2FFF7F2FE082E1BDA0A
:1020A000BAF1000F0CD0C6F107020121914041EABC
:1020B0000801C8B2FFF7C6FE4846FFF7C3FE26E098
:1020C000C6F107020121914028EA0100FFF7BAFE9C
:1020D0004846FFF7B7FE1AE0BAF1000F0CD04046B1
:1020E000FFF7B0FEC6F10F020121914041EA09015C
:1020F000C8B2FFF7A7FE0AE04046FFF7A3FEC6F10D
:102100000F020121914029EA0100FFF79BFEFFF732
:102110005EFE3020FFF7B4FEBDE8F88F2DE9F84FE2
:1021200005460C4605F07F0504F03F042846E917F4
:1021300005EB11714FEA211B05F00F062046E11750
:1021400004EBD1614911009127461F2F02DDA7F151
:102150002000C7B23420FFF793FE3620FFF790FE31
:1021600007F18001C8B2FFF78BFE0BF18001082355
:10217000009A03FB0211C8B2FFF782FEFFF71AFFB5
:10218000FFF718FF8246FFF715FF8046082E17DA83
:10219000C6F107010120884000EA0A0916E00000A4
:1021A00000080140800122420000224288012242B0
:1021B0000010024000100140333303008C01224222
:1021C000C6F10F010120884000EA0809FFF7FFFD72
:1021D0004846BDE8F88F10B53020FFF751FE40208B
:1021E000FFF74EFE002400E0641C102CFCDB10BD49
:1021F0002DE9F04106460C461546002704B90AE0D1
:10220000012C01D1102706E0022C01D1082702E0A1
:10221000032C00D1182707F180013144C8B2FFF721
:102220002FFE06E02878FFF70DFE6D1C012001F05F
:10223000FFFE28780028F5DCBDE8F08110B50446E3
:1022400006E02078FFF7FEFD641C012001F0F0FE9F
:1022500020780028F5DC10BD2DE9F04180460027EC
:1022600000262BE0002524E000241EE03620FFF7A6
:1022700007FE05F18001C8B2FFF702FE04F18001FC
:102280003144C8B2FFF7FCFD3020FFF7F9FD3946B5
:102290007F1CE24A505CFFF7D5FD39467F1CDF4AC0
:1022A000505CFFF7CFFD601CC4B2082CDEDB681C5D
:1022B000C5B2202DD8DB06F10800C6B2092ED1DB4D
:1022C000BDE8F0812DE9F04107460D461646002491
:1022D0001EE03620FFF7D4FD06F180012144C8B28C
:1022E000FFF7CEFD802101EBC501C8B2FFF7C8FDA5
:1022F0003020FFF7C5FDCA4A12F81400FFF7A2FD0F
:102300006100491CC64A505CFFF79CFD601CC4B2CA
:102310000C2CDEDBBDE8F0812DE9F04107460E46CE
:102320001546202D1ADA002415E03620FFF7A8FD07
:1023300005F180012144C8B2FFF7A2FD06F180013A
:10234000C8B2FFF79DFD3020FFF79AFD385DFFF71B
:1023500079FD601CC4B2102CE7DB1FE0A5F1200062
:10236000C5B206F10800C6B2002415E03620FFF71A
:1023700087FD05F180012144C8B2FFF781FD06F118
:102380008001C8B2FFF77CFD3020FFF779FD385D92
:10239000FFF758FD601CC4B2102CE7DBBDE8F081EC
:1023A00070B5064600251DE0002417E03620FFF733
:1023B00067FD05F18001C8B2FFF762FD04F18001FD
:1023C000C8B2FFF75DFD3020FFF75AFD3046FFF73A
:1023D00039FD3046FFF736FD601CC4B2102CE5DB3A
:1023E000681CC5B2202DDFDB3420FFF749FD362005
:1023F000FFF746FD70BD70B5002600251FE0F043D5
:10240000C6B2002417E03620FFF73AFD05F180013F
:10241000C8B2FFF735FD04F18001C8B2FFF730FD07
:102420003020FFF72DFD3046FFF70CFD3046FFF75B
:1024300009FD601CC4B2102CE5DB681CC5B2202D60
:10244000DDDB3420FFF71CFD3620FFF719FD70BDE2
:1024500070B5002625E000251EE0002418E0362097
:10246000FFF70EFD05F18001C8B2FFF709FD04F189
:1024700080013144C8B2FFF703FD3020FFF700FDB3
:102480000020FFF7DFFC0020FFF7DCFC601CC4B27B
:10249000082CE4DB681CC5B2202DDEDB06F1080049
:1024A000C6B2092ED7DB3420FFF7EAFC3620FFF74F
:1024B000E7FC70BD10B50120FFF7E2FC022001F03F
:1024C000F8FD10BD70472DE9F041044688461546D9
:1024D0001E46AC4202DD2F4625463C4606E032460B
:1024E00041462046FFF793FD601CC4B2AC42F6DDC6
:1024F000BDE8F0812DE9F04180460C4615461E46A8
:10250000AC4202DD2F4625463C4606E032462146D7
:102510004046FFF77CFD601CC4B2AC42F6DDBDE86E
:10252000F0812DE9F84F05460C464FF001094FF0B8
:10253000000A4FF0000B2BE0A8461BE0264610E0F7
:102540003849009801EBC01010F80A0000EA0907AA
:102550003A46F1B208F0FF00FFF759FD4FEA49098A
:10256000761CE01D8642EBDD0AF1010A4FF00109FD
:1025700008F1010805F17F008045DFDD4FF0000A1A
:1025800004F10800C4B20098401C00900BF1010B4C
:10259000BBF1020FD0DD0024BDE8F88F2DE9F84F24
:1025A00005460C4691464FF0010A4FF0000B002003
:1025B000009025E0A84617E026460CE019F80B002D
:1025C00000EA0A073A46F1B208F0FF00FFF71FFDE4
:1025D0004FEA4A0A761CE01D8642EFDD0BF1020B42
:1025E0004FF0010A08F1010805F17F008045E3DDA5
:1025F0004FF0010B04F10800C4B20098401C009099
:1026000000980428D6DD0024BDE8F88F0146002993
:1026100001DA484270470846FCE7000051000020FC
:1026200009000020890C002031490143314A116022
:10263000704770B5002100230F22C4780CB32D4CD5
:10264000246804F4E064C4F5E064210AC1F10403E1
:10265000CA40447804FA03F1847814402143090104
:10266000254C0678A155047804F01F050124AC40E0
:1026700005786D114FF0E02606EB8505C5F80041A1
:1026800009E0047804F01F050124AC401B4D0678D6
:10269000761145F8264070BD194A0A400243154B91
:1026A0001B1F1A60704739B1124A121D126802438B
:1026B000104B1B1D1A6006E00E4A121D1268824361
:1026C0000C4B1B1D1A607047042808D14FF0E02105
:1026D000096941F004014FF0E022116107E04FF079
:1026E000E021096921F004014FF0E02211617047F7
:1026F0000000FA050CED00E000E400E080E100E0FD
:1027000080FFFF1F10B50446CA48844208D101214A
:10271000042000F027FB0021042000F023FB46E00A
:10272000C548844208D10121082000F01BFB00218C
:10273000082000F017FB3AE0C048844208D101218C
:10274000102000F00FFB0021102000F00BFB2EE00A
:10275000BB48844208D10121202000F003FB002166
:10276000202000F0FFFA22E0B648844208D101217F
:10277000402000F0F7FA0021402000F0F3FA16E0C4
:10278000B148844208D10121802000F0EBFA0021F9
:10279000802000F0E7FA0AE0AC48844207D101212A
:1027A000801500F0DFFA0021A01500F0DBFA10BD63
:1027B00010B50121084600F0D5FA0021012000F0F3
:1027C000D1FA10BD2DE9F041024600250026002077
:1027D00000230024002791F803C00CF00F0591F8A6
:1027E00003C01CF0100F03D091F802C04CEA05059D
:1027F00091F800C0BCF1000F31D0146800202BE02C
:102800004FF0010C0CFA00F3B1F800C00CEA03061B
:102810009E4220D183004FF00F0C0CFA03F7BC430B
:1028200005FA03FC4CEA040491F803C0BCF1280F3C
:1028300006D14FF0010C0CFA00FCC2F814C00AE0FB
:1028400091F803C0BCF1480F05D14FF0010C0CFA10
:1028500000FCC2F810C0401C0828D1D31460B1F8A5
:1028600000C0BCF1FF0F34DD546800202EE000F101
:10287000080C4FF0010808FA0CF3B1F800C00CEA9C
:1028800003069E4221D183004FF00F0C0CFA03F790
:10289000BC4305FA03FC4CEA040491F803C0BCF104
:1028A000280F05D100F1080C08FA0CF8C2F81480C2
:1028B00091F803C0BCF1480F07D100F1080C4FF0AC
:1028C000010808FA0CF8C2F81080401C0828CED382
:1028D0005460BDE8F0814FF6FF71018002218170E4
:1028E0000421C17070470246002093680B4201D05A
:1028F000012000E0002070470146886880B27047E0
:1029000002460020D3680B4201D0012000E00020E5
:1029100070470146C86880B27047016170474161E5
:1029200070470AB1016100E041617047C1607047C2
:102930004FF480320A4382618161826182698269D7
:10294000704702460020424B18684FF680731840CB
:1029500040EA021008433E4B186070473D49C86189
:102960007047F0B50A46002300240021002500F03E
:102970000046B6F1004F02D1354EF16901E0344E08
:102980007168C0F3034583B200F44016B6F5401FEA
:1029900008D121F070612E4E766826F070662C4FBB
:1029A0007E6012E000F48016B6F5801F06D1032683
:1029B00006FA05F4A14341F0706106E0460D3601C8
:1029C00003FA06F6B14341F0706122B1460D3601BB
:1029D00003FA06F6314300F00046B6F1004F02D18B
:1029E0001B4EF16101E01A4E7160F0BD30B500225E
:1029F0008B071C0F0F2303FA04F2154B08338C10BE
:102A000053F824309343124C08348D1044F8253089
:102A100023468C1053F824308C07240F00FA04F45A
:102A200023430B4C08348D1044F8253030BD0A493F
:102A30000860704700080140000C01400010014090
:102A40000014014000180140001C0140002001401A
:102A50000000014000002042DC002042DD48006808
:102A600040F00100DB49086008464068DA49084048
:102A7000D849486008460068D8490840D5490860E8
:102A80000846006820F4802008600846406820F46A
:102A9000FE0048604FF41F0088607047CD49096808
:102AA00021F48031CB4A11601146096821F480215C
:102AB0001160B0F5803F03D0B0F5802F0ED106E055
:102AC000C449096841F48031C24A116007E0C14934
:102AD000096841F4A021BF4A116000E000BF00BFB7
:102AE000704710B501460022002300204A11012A38
:102AF00002D1B84C236806E0022A02D1B54C236A01
:102B000001E0B44C636A01F01F02012494401C42AE
:102B100001D0012000E0002010BD38B50020009059
:102B20000024002500BF3120FFF7DBFF0546009899
:102B3000401C00900098B0F5A06F01D0002DF2D09D
:102B40003120FFF7CEFF08B1012400E00024204629
:102B500038BD014600209F4A106820F0F80040EA86
:102B6000C100106070479E4908607047024600200F
:102B7000984B586820F47C1042EA01031843954BA7
:102B80005860704796490866704701460020914A90
:102B9000506820F003000843506070478D4840683B
:102BA00000F00C007047014600208A4A506820F06F
:102BB000F00008435060704701460020854A506885
:102BC00020F4E06008435060704701460020814ACD
:102BD000506820F4605040EAC1005060704729B14D
:102BE0007C4A527A02437B4B5A7204E0794A527A09
:102BF0008243784B5A7270477A49086070470146A1
:102C00000020744A506820F44040084350607047E8
:102C10000021754A11706F4A82F82010012802D0F5
:102C2000042808D103E001216F4A117004E0052156
:102C30006D4A117000E000BF00BF70476B4908602B
:102C400070476449096A0143624A116270476749E3
:102C500044390860704730B5002100220024002369
:102C60005C4D6D6805F00C0121B1042905D00829DF
:102C700023D105E05E4D056022E05D4D05601FE05B
:102C8000544D6D6805F47012524D6D6805F4803432
:102C9000022505EB92421CB9564D554305600BE0E9
:102CA0004C4D6D6815F4003F03D0524D55430560FF
:102CB00002E04F4D5543056002E04D4D056000BFF9
:102CC00000BF444D6D6805F0F00109094A4D6B5C89
:102CD0000568DD4045603F4D6D6805F4E061090A17
:102CE000454D6B5C4568DD4085603A4D6D6805F487
:102CF0006051C90A404D6B5C4568DD40C560354D8B
:102D00006D6805F44041890B3C4D6B5CC568B5FBB3
:102D1000F3F5056130BD29B12E4A526902432D4BAE
:102D20005A6104E02B4A526982432A4B5A61704728
:102D300029B1284A92690243264B9A6104E0254A48
:102D400092698243234B9A61704729B1214AD26923
:102D50000243204BDA6104E01E4AD26982431D4BD4
:102D6000DA61704729B11B4AD2680243194BDA6015
:102D700004E0184AD2688243164BDA60704729B1E2
:102D8000144A12690243134B1A6104E0114A126992
:102D90008243104B1A6170471449403908607047EC
:102DA0000F49C86470470B49C87170470948406AA9
:102DB00040F0807007494862704701460020054A8C
:102DC00092680A4201D0012000E0002070470149CA
:102DD00088727047001002400000FFF8FFFFF6FE07
:102DE00000004242D8004242201002408004424289
:102DF00000127A0000093D006800002078000020E1
:102E000010B50446FE48844208D10121C014FFF7E2
:102E1000A9FF0021E014FFF7A5FFC4E0B4F1804F43
:102E200008D101210846FFF7AAFF00210120FFF782
:102E3000A6FFB8E0F348844208D101210220FFF741
:102E40009EFF00210220FFF79AFFACE0EE4884428B
:102E500008D101210420FFF792FF00210420FFF791
:102E60008EFFA0E0E948844208D101210820FFF745
:102E700086FF00210820FFF782FF94E0E4488442A7
:102E800008D101211020FFF77AFF00211020FFF761
:102E900076FF88E0DF48844208D101212020FFF737
:102EA0006EFF00212020FFF76AFF7CE0DA488442B1
:102EB00008D101214014FFF755FF00216014FFF7EE
:102EC00051FF70E0D548844209D10121C804FFF7C1
:102ED00049FF00214FF40020FFF744FF63E0D04892
:102EE000844209D101210805FFF73CFF00214FF47E
:102EF0008010FFF737FF56E0CA48844209D101210C
:102F00004805FFF72FFF00214FF40010FFF72AFFBD
:102F100049E0C548844208D101214020FFF72FFF36
:102F200000214020FFF72BFF3DE0C048844208D13C
:102F300001218020FFF723FF00218020FFF71FFFE2
:102F400031E0BB48844208D101218015FFF717FF0B
:102F50000021A015FFF713FF25E0B648844209D1F0
:102F600001210804FFF7FEFE00214FF48030FFF737
:102F7000F9FE18E0B048844209D101214804FFF766
:102F8000F1FE00214FF40030FFF7ECFE0BE0AB4800
:102F9000844208D101218804FFF7E4FE00214FF4A8
:102FA0008020FFF7DFFE10BD00220288944B98427C
:102FB0000ED0994B98420BD0B0F1804F08D0914B76
:102FC000984205D0904B984202D0904B984204D141
:102FD0004FF68F731A404B881A438D4B984207D097
:102FE0008C4B984204D04FF6FF431A40CB881A43CB
:102FF00002808B8883850B880385814B98420BD098
:10300000854B984208D08B4B984205D08A4B98420A
:1030100002D08A4B984201D10B7A03860123838226
:10302000704770B5002400220023058C4FF6FE7611
:1030300035400584028C8388048B4FF68F752C40B5
:10304000B51E2C400D882C43751E2A400D892A433D
:103050004D882A436A4DA8420BD06F4DA84208D034
:10306000744DA84205D0744DA84202D0734DA842B9
:1030700013D14FF6F7752A404D892A434FF6FB7559
:103080002A408D882A434FF6FF652B404FF6FF55A7
:103090002B408D892B43CD892B4383800483CD889E
:1030A0008586028470BD70B5002400220023058C43
:1030B0004FF6EF7635400584028C8388048B48F602
:1030C000FF752C404FF6FF452C400D884FF6FF76DC
:1030D00006EA05252C434FF6DF752A400D8906EADE
:1030E00005152A434D8806EA05152A43444DA84292
:1030F00002D0494DA8421DD14FF67F752A404D8917
:103100004FF6FF7606EA05152A434FF6BF752A40AB
:103110008D8806EA05152A434FF6FF352B404FF2FE
:10312000FF752B408D8906EA85052B43CD8906EA7C
:1031300085052B4383800483CD880587028470BD79
:1031400070B5002400220023058C4FF6FF66354041
:103150000584028C8388848B4FF68F752C404FF644
:10316000FC752C400D882C434FF6FF552A400D89E5
:103170004FF6FF7606EA05252A434D8806EA05251F
:103180002A431F4DA84202D0234DA8421DD14FF221
:10319000FF752A404D894FF6FF7606EA05252A433A
:1031A0004FF6FF352A408D8806EA05252A434EF65C
:1031B000FF752B404DF6FF752B408D8906EA0515EE
:1031C0002B43CD8906EA05152B4383808483CD8864
:1031D0008587028470BD70B5002200230024058C11
:1031E0004EF6FF7635400584038C8488828B48F642
:1031F000FF752A404FF6FF452A400D8820E0000069
:10320000002C01400004004000080040000C004079
:10321000001000400014004000340140004C014008
:10322000005001400054014000180040001C0040C4
:10323000002000400040014000440140004801409F
:103240004FF6FF7606EA05252A434DF6FF752B401B
:103250000D8906EA05352B434D8806EA05352B43D3
:10326000FA4DA84202D0FA4DA84208D14BF6FF759C
:103270002C408D894FF6FF7606EA85152C43848015
:103280008283CD88A0F84050038470BD828B4FF2BA
:10329000FF331A408283828B4FF6FF7303EA0123C8
:1032A0001A4382837047F0B50C4615460022002170
:1032B0000026078C4EF6FF7C07EA0C070784828BFA
:1032C000018C4FF6FF7707EA043640F6FF473A4095
:1032D0004FF6FF7707EA05273A434FF6FF7707EAED
:1032E00003373A43D94FB8420ED0D94FB8420BD02A
:1032F000B0F1804F08D0D74FB84205D0D64FB84272
:1033000002D0D64FB84206D14DF6FF77394046F489
:103310008057394305E047F6FF57394044F480575A
:10332000394382830184F0BD828B4FF6F3731A40D8
:103330008283828B0A4382837047F0B50C46154620
:10334000002200210026078C4FF6FF6C07EA0C07CD
:103350000784828B018C4FF6FF7707EA04264FF62D
:103360000C773A404FF6FF7707EA03172F433A43AB
:10337000B64FB8420ED0B64FB8420BD0B0F1804F26
:1033800008D0B44FB84205D0B34FB84202D0B34FC3
:10339000B84206D14FF6FF57394046F4807739439B
:1033A00005E04FF2FF57394044F480773943828378
:1033B0000184F0BD028B4FF2FF331A400283028B6F
:1033C0004FF6FF7303EA01231A4302837047F0B5F7
:1033D0000C461546002200210026078C4FF6EF7C94
:1033E00007EA0C070784028B018C4FF6FF7707EA88
:1033F000041640F6FF473A404FF6FF7707EA0337D7
:103400003A434FF6FF7707EA05273A438F4FB84212
:103410000ED08F4FB8420BD0B0F1804F08D08D4FF7
:10342000B84205D08C4FB84202D08C4FB84206D17A
:103430004FF6DF77394046F01007394305E04FF685
:103440005F77394044F01007394302830184F0BDAF
:10345000028B4FF6F3731A400283028B0A430283F6
:103460007047F0B50C46154600220021068C4FF639
:10347000FE773E400684028B018C4FF60C7632407C
:103480007E1C06EA03162E433243704EB0420ED025
:103490006F4EB0420BD0B0F1804F08D06D4EB042AD
:1034A00005D06D4EB04202D06C4EB04206D14FF600
:1034B000FD76314044F00106314305E04FF6F576E4
:1034C000314044F00106314302830184F0BD70B500
:1034D00005460C465D4885420ED05D4885420BD0BE
:1034E000B5F1804F08D05B48854205D05A488542E7
:1034F00002D05A48854200D100E000BF208850B970
:103500002389A28861882846FFF7ABFFE188284617
:10351000FFF79EFF25E0208804280AD12389A2888E
:1035200061882846FFF753FFE1882846FFF742FFEE
:1035300017E0208808280AD12389A28861882846B4
:10354000FFF7FBFEE1882846FFF7EEFE09E023893E
:10355000A28861882846FFF7A6FEE1882846FFF783
:1035600095FE70BD2DE9F04105460C460026012769
:10357000608808B9022600E00026A088012801D151
:10358000022700E001272088A0B92389A28861884A
:103590002846FFF766FFE1882846FFF759FF238991
:1035A0003A4631462846FFF712FFE1882846FFF7E2
:1035B00001FF13E02389A28861882846FFF707FFEF
:1035C000E1882846FFF7F6FE23893A463146284629
:1035D000FFF747FFE1882846FFF73AFFBDE8F08193
:1035E0000A884B881A438B881A43CB881A430B8965
:1035F0001A434B891A438B891A43A0F84420704719
:103600004FF6FF71818000210180C18041800172ED
:1036100070470021018041808180C180018141810A
:103620008181C18170470021018041800121818019
:103630000021C1800181704700210180418081808B
:10364000C18001814181818170470000002C0140CF
:10365000003401400004004000080040000C00401D
:1036600021B1028842F00102028004E002884FF694
:10367000FE731A400280704731B1B0F8442042F422
:103680000042A0F8442005E0B0F84420C2F30E0246
:10369000A0F8442070471AB183890B43838102E06C
:1036A00083898B43838170478182704741EA02039B
:1036B000A0F8483070471AB183890B43838102E038
:1036C00083898B438381704701894FF6F8721140DB
:1036D000018170470A46002101894FF68F73194016
:1036E00011430181704730B504460D4629462046F6
:1036F000FFF7F0FF208940F00700208130BD2DE961
:10370000F04104460D4616461F46602D06D13B4645
:10371000012231462046FFF75AFE05E03B460122D2
:1037200031462046FFF79DFE29462046FFF7D2FF8F
:10373000208940F007002081BDE8F08130B50C46BB
:1037400000210189C9B24FF6FF7505EA032515432B
:1037500025432943018130BD2DE9F04105460E4640
:1037600017469846002443463A4631462846FFF716
:10377000E5FF2C894FF6F870044044F007044FF63B
:103780008F70044044F070042C81BDE8F081F0B5E6
:1037900004460D4616461F463B46324629462046FD
:1037A000FFF7CCFF208940F480402081F0BD0185E7
:1037B000828270470A46002101884FF68F731940B4
:1037C000114301807047F0B50C4615461E46002196
:1037D000002200230189028B038C4FF6F8773940D1
:1037E00021434FF6FC473A4040F201173A434FF667
:1037F000DD773B404FF6FF7707EA06172F433B4341
:10380000018102830384F0BD0A460021018B4FF63B
:103810008F7319401143018370470A460021018BC1
:1038200048F6FF7319404FF6FF7303EA022319436A
:10383000018370470A460021818B4FF68F73194030
:103840001143818370470A460021818B48F6FF733C
:1038500019404FF6FF7303EA02231943818370472F
:1038600021B1028842F08002028004E002884FF613
:103870007F731A400280704721B1828842F00402AF
:10388000828004E082884FF6FB731A408280704782
:1038900021B1828842F00802828004E082884FF6DB
:1038A000F7731A408280704721B1828842F001028A
:1038B000828004E082884FF6FE731A40828070474F
:1038C0000A460021018B4FF6F7731940114301831B
:1038D00070470A460021018B4FF2FF7319404FF6E3
:1038E000FF7303EA02231943018370470A4600214C
:1038F000818B4FF6F77319401143818370470A4655
:103900000021818B4FF2FF7319404FF6FF7303EADA
:1039100002231943818370470A460021018B4FF629
:10392000FB7319401143018370470A460021018B44
:103930004FF6FF3319404FF6FF7303EA0223194392
:10394000018370470A460021818B4FF6FB731940B3
:103950001143818370470A460021818B4FF6FF3364
:1039600019404FF6FF7303EA02231943818370471E
:103970000A460021018B4FF67F73194011430183E2
:1039800070470A460021018BC1F30E014FF6FF7309
:1039900003EA02231943018370470A460021818B01
:1039A0004FF67F7319401143818370470A46002107
:1039B000818BC1F30E014FF6FF7303EA0223194313
:1039C000818370470A460021018C4FF6FD73194030
:1039D0001143018470470A460021018C4FF6F773AA
:1039E00019401143018470470A460021018C4FF6AB
:1039F000DF7319404FF6FF7303EA02131943018482
:103A000070470A460021018C4FF67F7319404FF62C
:103A1000FF7303EA02131943018470470A46002129
:103A2000018C4FF6FF5319404FF6FF7303EA022350
:103A30001943018470470A460021018C4FF2FF733D
:103A400019404FF6FF7303EA0223194301847047BC
:103A50000A460021018C4DF6FF7319404FF6FF73A3
:103A600003EA023319430184704730B5002301246F
:103A70008C40A3B2048C9C430484048C02FA01F5AC
:103A8000ADB22C43048430BD30B5002304248C40F7
:103A9000A3B2048C9C430484048C02FA01F5ADB2F9
:103AA0002C43048430BD70B5034600200024184622
:103AB000183001258D40ACB21D8CA5431D8409B181
:103AC000082909D100EB6100056825F07005056043
:103AD0000568154305600EE00D1FC5F34E0528442B
:103AE000056825F4E045056005684FF6FF7606EAAF
:103AF00002263543056070BD21B1028842F0020202
:103B0000028004E002884FF6FD731A40028070477D
:103B100021B1028842F00402028004E002884FF6DC
:103B2000FB731A400280704721B1828842F0800204
:103B3000828004E082884FF67F731A40828070474B
:103B400002884FF6F7731A40028002880A43028007
:103B5000704782884FF68F731A40828082880A43AA
:103B60008280704702894FF6F8731A4002810289F9
:103B70000A430281704702894FF67F731A4002811F
:103B800002890A43028170478184704781857047AA
:103B9000818670470187704781877047A0F8401081
:103BA000704702884FF6FF431A40028002880A439A
:103BB000028070470146888E70470146088F704723
:103BC0000146888F70470146B1F8400070470146B2
:103BD000888C70470146088D704702460020138A82
:103BE0000B4201D0012000E000207047CA4302824E
:103BF000704730B50246002000230024158A05EAEC
:103C00000103958905EA010413B10CB1012000E01C
:103C1000002030BDCA4302827047000010B5044640
:103C2000FB48844209D101218803FFF79BF800215A
:103C30004FF48040FFF796F832E0F648844209D10D
:103C400001214804FFF79BF800214FF40030FFF7F3
:103C500096F825E0F048844209D101218804FFF755
:103C60008EF800214FF48020FFF789F818E0EB4828
:103C7000844209D10121C804FFF781F800214FF4E3
:103C80000020FFF77CF80BE0E548844208D10121D1
:103C90000805FFF774F800214FF48010FFF76FF864
:103CA00010BD2DE9F04786B005460E460024A24619
:103CB00000BFA1460027B08900B100BF2F462C8A63
:103CC0004CF6FF700440F08804432C82AC894EF619
:103CD000F3100440B08831890843718908430443D4
:103CE000AC81AC8A4FF6FF400440B0890443AC82FB
:103CF00001A8FEF7B0FFC648874202D1DDF810A048
:103D000001E0DDF80CA0A88910F4004F08D00AEB00
:103D1000CA0000EB0A1031684900B0FBF1F807E077
:103D20000AEBCA0000EB0A1031688900B0FBF1F819
:103D30006420B8FBF0F004012009642101FB108924
:103D4000A88910F4004F08D0322000EBC900B0FB66
:103D5000F1F000F00700044308E0322000EB091006
:103D60006421B0FBF1F000F00F0004432C8106B099
:103D7000BDE8F0874FF41651016000218180C180B9
:103D800001810C21418100218181704710B50246DB
:103D90000020108A4FF2FF0318400B884C88234301
:103DA0008C882343CC8823431843108210BD002104
:103DB000018041808180C180704721B1828942F4B5
:103DC0000052828104E082894DF6FF731A4082819D
:103DD0007047F0B503460024002600250020A1F519
:103DE00010676A3F00D100BF1846C1F3421401F0CA
:103DF0001F06012707FA06F5012C01D10C3004E05B
:103E0000022C01D1103000E014301AB107682F43A2
:103E1000076002E00768AF430760F0BD1AB1838A0C
:103E20000B43838202E0838A8B4383827047028A3A
:103E30004FF6F0731A400282028A0A4302827047E8
:103E400082894FF2FF731A40828182890A438281FC
:103E5000704721B1828942F00202828104E08289A6
:103E60004FF6FD731A4082817047028A4FF6DF7366
:103E70001A400282028A0A430282704721B1028AF2
:103E800042F48042028204E0028A4BF6FF731A4039
:103E900002827047C1F30802828070470146888819
:103EA000C0F308007047818941F0010181817047AA
:103EB000028BD2B20283028B42EA01220283704754
:103EC000028B02F47F420283028B0A430283704713
:103ED00021B1828A42F02002828204E0828A4FF677
:103EE000DF731A408282704721B1828A42F0100249
:103EF000828204E0828A4FF6EF731A408282704712
:103F000021B1828A42F00802828204E0828A4FF65E
:103F1000F7731A408282704721B1828942F40042CD
:103F2000828103E08289C2F30E028281704721B14F
:103F3000828A42F40062828204E0828A4FF2FF7336
:103F40001A4082827047828A4FF6FB731A4082823F
:103F5000828A0A438282704721B1828A42F0020239
:103F6000828204E0828A4FF6FD731A408282704793
:103F700002460020B1F5007F00D100BF13880B423C
:103F800001D0012000E00020704701F40072B2F57A
:103F9000007F00D100BFCA430280704770B502465F
:103FA0000024002300250020A1F510666A3E00D100
:103FB00000BFC1F3421501F01F03012606FA03F307
:103FC000012D02D19689334006E0022D02D1168AD6
:103FD000334001E0968A33400C12012606FA04F4BD
:103FE0001688344013B10CB1012000E0002070BDF0
:103FF00010B500220023A1F510646A3C00D100BF77
:104000000A1201249440A3B2DC43048010BD0000D6
:10401000003801400044004000480040004C00408F
:104020000050004010B54FF4A060FEF7FDFA10BD3F
:1040300070B586B00646002501A8FEF70CFE404983
:104040000198B0FBF1F57543002400E0641CAC421C
:10405000FCD306B070BD30B585B06846FEF7FBFDF9
:104060004FF47A720198B0FBF2F1B1F1807F00D386
:104070001DE021F07F40401E4FF0E02250615017BC
:104080000F22002807DA13071D0E2E4B00F00F0435
:10409000241F1D5503E013071C0E2B4B1C5400BF9F
:1040A00000204FF0E02290610720106100BF05B0B2
:1040B00030BD2649086000BF244909680029FBD1AA
:1040C00070472249486070472048406808B901207D
:1040D00070470020FCE71D49886070471B488068D6
:1040E00008B9012070470020FCE71849C8607047F4
:1040F0001648C06808B9012070470020FCE7134843
:10410000006820B111480068401E104908600F483F
:10411000406820B10D484068401E0C4948600B487B
:10412000806820B109488068401E084988600748B7
:10413000C06820B10548C068401E0449C860704787
:1041400000093D0018ED00E000E400E08C140020C0
:10415000014600BF704700BF4A4A128812F0400F64
:10416000FAD0C2B2474B1B1D1A80704710B586B0FB
:104170000446012144F20400FEF7DAFD4148FFF74E
:104180004DFD4FF40070ADF8140003208DF81600BB
:1041900018208DF8170005A93B48FEF713FB4FF4D4
:1041A0008060ADF8140004208DF8170005A936488A
:1041B000FEF708FB25208DF8000003208DF8010094
:1041C0008DF8020001208DF803006846FEF731FAF1
:1041D00001940020ADF80800ADF80A00ADF80C001D
:1041E000ADF810000C20ADF80E0001A92548FFF72E
:1041F00058FD012240F225512248FFF7EAFD012136
:104200002048FFF7DAFD06B010BD10B540F2255189
:104210001C48FFF7C3FE10B31A48FFF73FFEC4B2B5
:104220001A48008810F4004F2BD11848008810F469
:10423000804F0CD00A2C03D000201449088020E0C5
:104240001248008840F400401049088019E00D2C05
:1042500006D10E48008840F480400C49088010E0E8
:104260000A480088C0F30D0009490C54074800882B
:10427000401C0649088008460088C72801DD002048
:10428000088010BD00380140000801407C0000207B
:104290009C1400200CB50020019000906B48006831
:1042A00040F480306949086000BF6848006800F445
:1042B000003000900198401C0190009818B90198B6
:1042C000B0F5A06FF1D16148006810F4003F02D052
:1042D0000120009001E0002000900098012842D1C8
:1042E0005B48006840F010005949086008460068C3
:1042F00020F0030008600846006840F002000860F3
:10430000524840685149486008464068486008463D
:10431000406840F4806048600846406820F47C10A3
:1043200048600846406840F4E81048600846006865
:1043300040F08070086000BF4448006810F0007FC3
:10434000FAD04248406820F00300404948600846DF
:10435000406840F00200486000BF3C48406800F000
:104360000C000828F9D10CBD10B5FFF793FF10BD64
:1043700010B53648006840F001003449086008462E
:10438000406834490840314948600846006832496D
:1043900008402E4908600846006820F48020086024
:1043A0000846406820F4FE0048604FF41F00886013
:1043B000FFF7DAFF4FF000602849086010BD10B524
:1043C000002100200022214B5B6803F00C0121B189
:1043D000042906D0082928D107E0214B214C23606D
:1043E00027E01F4B1F4C236023E0184B5B6803F44E
:1043F0007010164B5B6803F48032022303EB90408D
:1044000022B9194B4343174C23600DE00F4B5B68F7
:1044100013F4003F04D0144B4343124C236003E0D9
:104420000F4B43430F4C236003E00D4B0D4C2360B7
:1044300000BF00BF054B5B68C3F303130B4CE15C8B
:10444000084B1B68CB40074C236010BD0010024096
:10445000002002400000FFF8FFFFF6FE08ED00E03C
:1044600000127A008400002000093D00880000202E
:104470000948804709480047FEE7FEE7FEE7FEE7F8
:10448000FEE7FEE7FEE7FEE7FEE7FEE70448054934
:10449000054A064B704700007143000831010008CF
:1044A000C8150020C81B0020C8170020C81700200E
:1044B000704700000FB41CB5074B06AA7B44694641
:1044C0000090059800F065FA0020694600F074FA43
:1044D0001CBC5DF814FB0000F90400002DE9F0415C
:1044E0000E460446002020622046E168884730B32B
:1044F000252805D0D4E901219047206A401CF2E725
:10450000E168204600278847050018D0A5F1410042
:10451000192802D820354FF4006732462946204634
:104520002760FBF73FFE40B1012804D0F61D26F0BE
:1045300007060836D8E7361DD6E72846DAE7206AA8
:10454000BDE8F0812DE9F041064600241068752988
:10455000314616A511D0AFF30080002803DAC0F170
:10456000000013A507E031688A0701D511A502E014
:10457000490704D510A5012401E0AFF30080002114
:104580000A2306F1240707E0B0FBF3F203FB120055
:10459000303078541046491C0028F5D123462A466D
:1045A0003046BDE8F04100F093B900000000000083
:1045B0002D0000002B000000200000000FB400B50B
:1045C0008DB010A9099000910B904FF0FF300A9028
:1045D00000200C90064878440690064878446A46C5
:1045E00007900F9909A800F001FA0DB05DF814FBCF
:1045F000330400004B0400002DE9FF5F1D464FF01F
:10460000FF3B91464FF000085F46D5E90146A96996
:1046100001987F1C8847296A824688470028F6D17E
:104620001AF101000CD0002E24F4C06419DD6006DC
:1046300014D5BAF12B0F09D0BAF12D0F0ED103E02A
:10464000584604B0BDE8F09F44F48064A96901981D
:104650007F1C8847761E8246002E02DDBAF1300F9D
:1046600003D0B9F1000F26D032E0A969761E019877
:104670007F1C44F400748847002E824605DDBAF1A1
:10468000780F06D0BAF1580F03D0B9F1000F10D04F
:104690001EE0B9F1000F02D0B9F1100F18D1A969CD
:1046A000761E01987F1C24F40074884782461020EF
:1046B00002E0082000E00A20814609E0A96908FB21
:1046C0000908761E01987F1C44F4007488478246CE
:1046D000002E05DD4946504600F073F90028EDDA5A
:1046E000E96901988847A00502D46FF00100A8E7A6
:1046F000E00727D1600614D5600502D5C8F1000097
:1047000000E04046296801F104022A600968220598
:1047100001D5087016E0220701D5088012E0086074
:1047200010E0286800F1040129600068210502D525
:1047300080F8008006E0210702D5A0F8008001E0A3
:10474000C0F8008038467CE710B5431C02E010F842
:10475000011B71B18107FAD14FF0013202C88C1AE6
:104760008C4314EAC211F9D0C01A0A0603D0C01E45
:1047700010BDC01A10BD0A0401D0801E10BD090270
:10478000FCD0401E10BD032A40F2308010F0030C14
:1047900000F0158011F8013BBCF1020F624498BF94
:1047A00011F801CB00F8013B38BF11F8013BA2F131
:1047B000040298BF00F801CB38BF00F8013B11F0AC
:1047C000030300F02580083AC0F0088051F8043B4C
:1047D000083A51F804CBA0E80810F5E7121D5CBFB9
:1047E00051F8043B40F8043BAFF30080D20724BFEC
:1047F00011F8013B11F801CB48BF11F8012B24BF80
:1048000000F8013B00F801CB48BF00F8012B7047CE
:1048100010B5203AC0F00B80B1E81850203AA0E85B
:104820001850B1E81850A0E81850BFF4F5AF5FEA8F
:10483000027C24BFB1E81850A0E8185044BF18C942
:1048400018C0BDE810405FEA827C24BF51F8043BE9
:1048500040F8043B08BF7047D20728BF31F8023B3D
:1048600048BF11F8012B28BF20F8023B48BF00F8D1
:10487000012B704702F0FF0343EA032242EA02429F
:1048800000F002B84FF000020429C0F0128010F0CE
:10489000030C00F0DD80CCF1040CBCF1020F18BF5A
:1048A00000F8012BA8BF20F8022BA1EB0C0100F0AF
:1048B000CFB85FEAC17C24BF00F8012B00F8012BC0
:1048C00048BF00F8012B704770477047704770472A
:1048D0002DE9F0470D4699469246044600F124081A
:1048E0000168880604D5E06921F01001216000E02C
:1048F0000120A84202DDA0EB050700E00027A16926
:1049000007EB050202EB0900A1EB0000A061207893
:10491000C00602D42046AFF30080002608E0D4E9A8
:1049200001211AF806009047206A401C761C20627C
:104930004E45F4DB2078C0060AD52046AFF3008050
:1049400006E0D4E9012130209047206A401C206213
:10495000381EA7F10107F4DC07E0D4E9012118F8BB
:1049600005009047206A401C2062281EA5F1010521
:10497000F3DC2046AFF300802078000602D5022049
:10498000BDE8F0870120FBE701694A1C0261087855
:10499000704700B58FB0CDE901310021059105497F
:1049A0007944CDE9031011466846FFF797FD0FB033
:1049B00000BD0000E5FFFFFF0A6802F8010B0A6076
:1049C00070473A2800D2303820F02002412A01D323
:1049D000A2F13700884201D34FF0FF30704700004A
:1049E000026811441378016018467047D160054988
:1049F00079445161044979441162002111611146E1
:104A000000F054B8EDFFFFFFA1000000426842B182
:104A1000016811F8013B23B1521EC0E9001218468B
:104A200070470121C160881E704742685AB1C3684F
:104A3000016843B983688B4205D0491E521CC0E906
:104A40000012002070474FF0FF3070474FF0000217
:104A500000B5134694469646203922BFA0E80C5074
:104A6000A0E80C50B1F12001BFF4F7AF090728BF4F
:104A7000A0E80C5048BF0CC05DF804EB890028BFCB
:104A800040F8042B08BF704748BF20F8022B11F0F4
:104A9000804F18BF00F8012B704710B5044600F096
:104AA000E3F90068005D00F0010010BD2DE9F34F4F
:104AB0004FF0000A0C4656468DB001200C9001F1D3
:104AC0000C000B9062690B980121904705002DD0D6
:104AD000252D2CD0216A8847C0B162690B9801212D
:104AE0009047216A88470028F7D16269411E0B98D8
:104AF000904700E0761CA1690D988847216A884795
:104B00000028F7D1E1690D988847DBE7A1690D9886
:104B10008847A842074601D1761CD3E7E1690D9882
:104B200088477F1C02D1BAF1000F6FD06AE1626939
:104B30000B9800273D46394690472A2804D16269E0
:104B40000B98012190470125DFF8CC8262690B9810
:104B500001219047A0F130010A290AD24745E5DC3E
:104B600007EB870100EB4107303FDFD445F010052C
:104B7000ECE7E90601D46FF000476C280AD04C2816
:104B800014D0682815D06A280DD074281CD07A2833
:104B90001AD01DE062690B98012190476C2802D061
:104BA00045F0040514E045F002050DE045F0200550
:104BB0000AE062690B9801219047682802D045F00D
:104BC000080505E045F4006562690B9801219047EE
:104BD000C4E9015765283DD019DC582879D00CDC90
:104BE000452837D004DC252826D041289ED131E045
:104BF00046282FD0472899D12CE05B287FD0612808
:104C000028D063287BD0642890D159E0F5E06F2844
:104C100047D008DC66281DD067281BD0692821D022
:104C20006E2816D127E0702844D0732867D07528E5
:104C300046D078280DD14CE0A1690D9888472528E9
:104C400005463FF469AFE1690D9888476D1C3FF454
:104C50006AAFD7E00D9923466A466FF00100AFF3C3
:104C60000080C4E045F0400023464FF00002606041
:104C7000A80735D43DE0206800F1040121600068F8
:104C8000290501D506701DE7290701D5068019E71A
:104C9000A90704D54FEAE671C0E9006112E7066092
:104CA00010E745F0400023464FF008026060A80777
:104CB00016D41EE040F60E0125EA0100606016E001
:104CC00045F0400023464FF00A026060A80707D471
:104CD0000FE045F040006060A80708D52346102289
:104CE0000D996FF00100AFF3008080E007E0102223
:104CF00023460D996FF00100FFF77EFC77E04FF03F
:104D0000000963284F46C8464B46CB4602D05B2875
:104D100006D038E0E80601D40120A060012732E087
:104D20006269D4F80CB00B98012190475E2807D136
:104D30004FF0010949466269D4F80CB00B989047CE
:104D4000216939B900210B4603AA42F82130491CD8
:104D50000829FADBD8B3216949B308F1010862696F
:104D60000B98012190475D28F4D1B9F1000F09D0CB
:104D7000002003A951F82020D24341F82020401CF4
:104D80000828F7DB03AB2069002820794FEA407040
:104D90001ED05B462246CDF80080CDE901970D99E3
:104DA00000286FF0010020DAAFF300801FE0C11788
:104DB00000EBD16203A9531122F01F0201EB830122
:104DC000821A0B680120904003430B60C7E719E08B
:104DD0000D99224600286FF00100009702DAAFF328
:104DE000008004E0AFF3008001E0AFF30080002812
:104DF0000ADA401C06D10C9820B14FF0FF300FB0FA
:104E0000BDE8F08F5046FAE7E90701D10AF1010A3F
:104E1000064400200C9055E6CCCCCC0C754600F036
:104E200031F8AE4605006946534620F00700854636
:104E300018B020B5FFF72AFBBDE820404FF0000670
:104E40004FF000074FF000084FF0000B21F0070172
:104E5000AC46ACE8C009ACE8C009ACE8C009ACE8B5
:104E6000C0098D467047000010B500F00FF8001D16
:104E700010BD00BFA10000000446AFF30080204633
:104E8000FBF7ABF9004870476415002000487047F5
:104E9000841500204FF0013C50F8042B51F8043BDE
:104EA0009A4221D1A2EB0C03934313EACC1317D1FE
:104EB00050F8042B51F8043B9A4215D1A2EB0C0395
:104EC000934313EACC130BD150F8042B51F8043B55
:104ED0009A4209D1A2EB0C03934313EACC13DBD023
:104EE0004FF00000704700BFD01A01BAB1FA81F14B
:104EF00001F0180122FA01F0CB40C1F12001DBB230
:104F0000C0B2C01A2CFA01F3D11A914311EAC311AD
:104F1000E6D1704710B500290AD00878002807D0DC
:104F200005487844FFF7B6FF002801D0002010BDE7
:104F30000248784410BD00004E14000046140000E2
:104F400011000000FD0100080000000055020008EB
:104F5000010000006F020008020000008902000842
:104F600003000000A302000804000000BD020008C6
:104F700005000000D7020008C8A1B4CBD0E8CBA23E
:104F8000BFA8CEAABFD5D2ECB3A3B4E6B0FCC1AAE9
:104F9000CFB5B9DCC0EDD4B1D2D1B4F2C7EBB2BB5E
:104FA000D6C2D6D8D6B1BDD3D4F2CEDED0C2BEC919
:104FB000CAE4C8EBBAC5BCFCB1BBB0B4CFC2D7D34E
:104FC000CEBBD4DACAC7B7F1B1B8CABCBBAFCAA7A7
:104FD000B0DCBFAABBFAB5C8BAF2CAAEC3EBC9E827
:104FE000D6C3CAB1BCE4C8D5C6DAC3DCC2EBCAFDBD
:104FF000BEDDC9BEB3FDB7B5BBD8C8B7C8CFBBB659
:10500000D3ADCAB9D3C3D6C7C4DCCFE4CFB5CDB313
:10501000C8A5D0DEB8C4D6B8B6A8BBA7B3C9B9A6D0
:10502000CDEAB5DAD2BBB6FEC8FDCBC4CEE5C1F938
:10503000C6DFB0CBBEC5B3F5B4CECFD6D3D0B7D6CE
:10504000C5E4C7E5D0A3B6D4BFD8D6C6CAC0BDE7AD
:10505000C1F7C1D0B1EDB2E9BFB4B4A2CEEFB9F19E
:10506000C0EED1C7B6AB0800FC004BE04820792069
:10507000494079404C807880C9400A200C100900D2
:105080000900091049204D40498049004900491054
:105090005D10E11000F03FC004007FF09490250007
:1050A000FFF004007FE049204920492040607E1045
:1050B00042107E50425048507E506A50AA50AA502A
:1050C000AA102E5008200400044007E00400FFF05E
:1050D00004000400058004400420040004000200D1
:1050E0002200120012207FF0042006200520092053
:1050F00010202120C0C0040002007FF08010118029
:105100002060C0203FC0040004000420FFF03FC026
:1051100020403FC0201020101FF008800880FFF0C2
:10512000088010806080248015007FF040109FA0D0
:1051300010801F8004003FC0244024C004000420CD
:10514000FFF0080017E0204020806120BFF0210020
:10515000210025002300100010403FE020407E4049
:10516000A24022403E402040219020101FF00460C9
:10517000FA40528077E051007FF051005900F14031
:1051800011401220141001C07E00088011003E0062
:1051900008407FE002201380224042208600210048
:1051A0003DF0528084007FF050909FA010801FC07F
:1051B00010401FC010400020F7F024A027E024A0DA
:1051C000F7E024A0288037E0C08000800FF01F8027
:1051D00010801F8000003FC0204024402440244015
:1051E0000B0010C0E02000007FC000404040404065
:1051F0007FC0400040004020402040203FE0102081
:1052000013F0FC401040144018403040D040104093
:1052100010405140208001204FF0210007E0E100C4
:105220002FF0242027E02C2037E0242004600020E9
:10523000FFF00200040006000D80144024204410FA
:105240008400040004000900FD2021F04B20FC2014
:1052500015201140FD4010801D40F2200C100380ED
:105260003C000420FFF024403FC024403FC0040025
:105270007FE00400FFF00420FFF004001FC0104096
:105280001FC010401FC010401FC01040FFF0210081
:10529000208027E0F2402FF03100E2202FF0244060
:1052A0002380A660581004207E2044A054A054A05F
:1052B00054A054A054A01820242042A08060004094
:1052C0007FE0040004000420FFF005000500091041
:1052D00011102110C0F01030FDC049002900FFF06E
:1052E00011207D20112059205520922034200020AB
:1052F0004FF04820482048204FE0482048204820D0
:105300004FE04820000021002180F24045B0A80075
:10531000F710255037506550A75025102530040050
:105320000400020002000200050005000880108051
:105330002040C03000003FC0204020403FC000203F
:10534000FFF008001FC000400080048003002080A0
:105350002FE072A047F0F4A02FE0F2802BE0248031
:1053600037E06A8011F040802080FFF014902480A4
:105370006FE0B4202D2025402480294036302100C4
:105380002100F7F0282021003FF0E2402440228055
:105390002180A2604C200020FFF0040004000600E1
:1053A000050004C0044004000400040004003FC0E1
:1053B00000800100020002207FF0020002000200D3
:1053C000020012000E00120011402FF02000644075
:1053D000A440224022402280228020802FF004001E
:1053E0000420FFF00800110021006FE0A10021005F
:1053F00021202FF020001F8010801F8010801F8030
:105400000020FFF0020013E012002E00C3F0002085
:10541000FFF004000D801460643084403FC02040E1
:1054200020403FC0204008800FC018802500460063
:1054300019802070DFC012401FC012401FC0210021
:1054400021002240FA202FF028104BE05220522059
:1054500032204BE082201200120012002220224053
:105460006280A30026002A002210221021F00400EE
:1054700024403FE044000420FFF004000400090041
:1054800010802040C03001007D2045F0452056208E
:10549000554055405540108028C04120861000409E
:1054A0007FE00880088008A0FFF008800880108056
:1054B00010802080C080204023E0FA4022406240DB
:1054C0007240AA40A240224022502450283021009D
:1054D0003DF0528084003FE00400FFF000807FE058
:1054E000108008800300104013E028402FF06A006D
:1054F000ABE029002FF02900218022402C3002004F
:10550000020002000220FFF002000200020002007E
:105510000200020002001880E08022C0FAA022905F
:10552000628074B0A0A02040208023002C0047C0DF
:10553000244024400440E83027C0244022802A80B0
:10554000310026C018307FC049407FC00400FFF002
:1055500004003F80248022803F8020A0FFF0004094
:105560000040F8408FF08840FA4089408940F84078
:105570008840014000C0202017F040204F204920E3
:105580004F20492049204F20482040A04060004043
:105590001FE01040104010401FC01040104010404D
:1055A0001FC010400000481049F0FD10491079F06C
:1055B0004910791049F0FD10291042508420020052
:1055C0007FF044109120524054A02F80C20022400E
:1055D00022403FC020400040FFE022402240724075
:1055E00057F0D010501057D0701041A00040948058
:1055F0005880FDF031205A2090402140FD404880E5
:1056000030802940C630202027F02420FFE024806D
:1056100037F0E48024A02BF02A20ABE052200010C9
:105620007750555055505550FFD055505550555006
:1056300055109550BB300100F2809240A430CFC08D
:10564000A1009FF0D100B54089209310810040E077
:105650002700240007E00420E64025402880314050
:10566000262050008FF000207FF040204F2049205E
:10567000492049204F20402040207FE04020010069
:10568000F9E0224027F04C9077F0D49057F05490F6
:10569000749054D008A04100210011000100E100E5
:1056A000210022802A80328024400820301002000D
:1056B0000200FBF012205540210021002100528001
:1056C00052408430182042002CF028900890089016
:1056D000E8902ED028B02080208050008FF011005C
:1056E00011202FF021006FE0A9202FE029202500B4
:1056F00022002580287000203FF0222022203FE059
:10570000222022203FE02220422042A0826020204E
:105710003DF05120FF2019E02520DFC010401FC0C0
:1057200010401FC01040110021604980FD1005F09D
:1057300078004900796049807910491058F021209B
:105740003DF05280A82023F0FA2023E072206BE085
:10575000A22023E0222001C07E00088011003E002C
:1057600008407FE002201380224042208600220071
:1057700021004FF05200E4402FE042A0F28002806E
:10578000F290049018700200020002403FE0020014
:105790000220FFF00400088010403FE000202200BB
:1057A00023E042205540D0805360549053405480B1
:1057B000532040C0470001000900FD200BF00A40C3
:1057C0007D40494041404880708043401C30220069
:1057D00022602380FA1023F0280033E0E22023E047
:1057E0002220A3E06220040002007FF04010BFC02E
:1057F0000400248027C0240034004C0083F00400FF
:1058000002203FF0202020203FE020002000200048
:10581000200040008000028002403FF02200224031
:105820003A40294029402890599042508C3001003C
:105830001100F92027F02120212021203920C22029
:10584000042008A0304002007FE0402080403F80DC
:105850000020FFF0090009000910111060F021007C
:105860003DF05280BFC004407FC044007FE00C2068
:1058700014A02440C400000000000000000000202C
:10588000FFF0000000000000000000000000000029
:1058900000407FE000000000000000000000000069
:1058A0000020FFF0000000407FE0000000000080CA
:1058B0003FC00000000000000020FFF000000020BA
:1058C0007FF04920492049204920492050E06020AC
:1058D00040207FE040200020FFF00400040004800E
:1058E0003FC0088008800880088008A0FFF00800FA
:1058F00004000220FFF000000A0011001080204088
:105900004020802000000400040004000470078090
:105910003C00C400040004100410041003F0000054
:105920000100090009000900088010801080204053
:105930004040803000000800080008807FC00880D8
:10594000088008800880089010902090C070200087
:105950001020FBF0112025206920B12029202220D1
:10596000222024A028400400840047E04820294049
:1059700021004100C2804280444048203010002075
:10598000F7F0242025202520FD20252021003A8025
:10599000C2900490187004000420FFF008001FC09B
:1059A00030405FC090401FC010401140108009007F
:1059B00009001100108020407FB088800880088096
:1059C0001080128061000400FFF028107C10541039
:1059D00055F06D0045007D0045107D1044F00140FC
:1059E0004FE0210087C041001FF0244047C0C44061
:1059F00047C0444044C02100208027F0F8002240E6
:105A00007420A840A2802280210022C02C300040B7
:105A10000040FC400BF048402A4011401140284013
:105A20004840854000802100208027F0FC10224063
:105A300034206000A7E021002100A1004FF01020D9
:105A400050207EA090A0FEA010A07EA052A052A048
:105A5000522056A010600440244024402440FFF00F
:105A600024402440244027C0244020003FF03FC071
:105A700024403FC024403FC004000B0038F0C92040
:105A800009001100610001004FF0210082404FE049
:105A9000202025402540C550455049505130002018
:105AA000FE2010A01CA024A054A098A008A010A024
:105AB000202040A00040040004407FE004003FC0DC
:105AC0000400FFF01A20294048808E40183004005E
:105AD000FFF00D00148024405FB090801F80108084
