:020000040800F2
:10000000F819002099560008090200080B020008A0
:100010000F02000813020008170200080000000089
:100020000000000000000000000000001B020008AB
:100030001D020008000000001F0200082102000845
:10004000B3560008B3560008B3560008D51200088E
:10005000B3560008B3560008B3560008B35600085C
:10006000B3560008B3560008B3560008B35600084C
:10007000B3560008B3560008B3560008B35600083C
:10008000B3560008B3560008B3560008B35600082C
:10009000B3560008B3560008B3560008B35600081C
:1000A000B3560008B3560008B3560008B35600080C
:1000B00029020008B3560008B3560008B3560008DA
:1000C000B3560008B3560008B3560008B3560008EC
:1000D000B356000833540008B3560008B35600085E
:1000E000B3560008B3560008B356000800F002F8F3
:1000F00000F03FF80AA090E8000C82448344AAF183
:100100000107DA4501D100F034F8AFF2090EBAE880
:100110000F0013F0010F18BFFB1A43F0010318473B
:100120006C6800008C680000103A24BF78C878C161
:10013000FAD8520724BF30C830C144BF04680C60ED
:10014000704700000023002400250026103A28BF35
:1001500078C1FBD8520728BF30C148BF0B60704739
:10016000642905F00583002070471FB51FBD10B539
:1001700010BD05F0D4FC1146FFF7F7FF00F008F8BA
:1001800005F0F2FC03B4FFF7F2FF03BC05F0F4F84E
:100190004FF4A06004F0C8FB05F083F802F0B6FF4E
:1001A0000121084604F098FD0121134803F08FFB5C
:1001B00000F025FE02F0BFFA01F02DF800F0C3F8C0
:1001C0004FF4167005F09BF84FF400410B4803F014
:1001D0005AFB0B4805F09BF800200A4908704021A3
:1001E00002F034F907E04021002002F02FF94FF42B
:1001F000FA7005F084F8F6E70002300000080140CC
:10020000C0D4010000000020704700BFFEE700BF1F
:10021000FEE700BFFEE700BFFEE77047704770478C
:1002200010B505F088F810BD10B50121880704F05D
:1002300077FB10BD2DE9F0470746884615469946DD
:10024000089EB8F1000F06D0B8F1010F09D0B8F13F
:10025000020F2DD119E03A464946284601F0B0FE7A
:1002600027E0384605F05EFB00EB40004006040E38
:10027000A64203DD301BC0F3470400E00024281928
:100280003A46494601F09CFE13E0384605F04AFB29
:1002900000EB40004006040EA64202DD301BC4B253
:1002A00000E0002428193A46494601F089FE00E0A2
:1002B00000BF00BFBDE8F08710B5044622463421D8
:1002C000062001F07DFE10BD10B504462246342103
:1002D000002001F075FE10BD38B5044680200023D3
:1002E0001A46012100902046FFF7A4FF38BDF8B55B
:1002F00005460F4614461E46012366223321182068
:1003000001F0F5FB01233F223321182001F052FCBC
:1003100001233F223321662001F04CFC287838B1BC
:100320004A2034231B22394600902846FFF782FFDB
:10033000207838B14A2034231B22314600902046D1
:10034000FFF778FFF8BD10B501F0D2FF02F0C9F950
:1003500002F0A3F9AFA20021084601F031FEB2A2DB
:100360000D21002001F02CFEB3A21A21002001F083
:1003700027FEB5A23421022001F022FEB3A0FFF730
:100380009BFFB4A0FFF7A0FF4021002002F05EF821
:1003900010BD10B5044601F0ABFFB0A20021084625
:1003A00001F00EFEAFA20D21002001F009FEB1A266
:1003B0001A21002001F004FE012C06D0022C0DD0E1
:1003C000032C14D0042C24D11AE0AEA20D2100205D
:1003D00001F0F6FD0620AC4908701BE0A9A21A2125
:1003E000002001F0EDFD0820A749087012E0A5A249
:1003F0000D21042001F0E4FD0720A349087009E065
:10040000A0A21A21042001F0DBFD09209E490870FA
:1004100000E000BF00BF9DA0FFF74EFF8DA0FFF7DB
:1004200053FF4021002002F011F810BD10B5044622
:1004300001F05EFF97A20021084601F0C1FD9AA2DB
:100440000D21002001F0BCFD9AA21A21002001F02C
:10045000B7FD012C08D18BA20D21002001F0B0FDC9
:100460000A208949087000E000BF00BF87A0FFF79D
:1004700023FF78A0FFF728FF4021002001F0E6FFCE
:1004800010BD00B589B0804800780B2819D008DC71
:1004900041D2DFE800F00E40404040402D2E2F308A
:1004A00015001838062836D2DFE800F004050607E4
:1004B000080900BF00BF00BF00BF00BF00BF00BFF2
:1004C00000BF7D48807800907B48437802787BA10C
:1004D00001A805F00FF900207C49087001AA342119
:1004E000022001F06DFD4021002001F0AFFF13E07C
:1004F00000BF00BF00BF00236F220821022001F0CF
:10050000F6FA73A23421032001F05AFD40210020A5
:1005100001F09CFF00BF00BF00BF09B000BD00B5E7
:1005200089B001F0E5FE6C4863490A6802604A68D8
:1005300042600989018169A20021084601F040FD5D
:100540006548C079009064488379828867A101A8D2
:1005500005F0D0F800205D49087001AA0D210120A6
:1005600001F02EFD5C48807800905B48437802786B
:1005700052A101A805F0BEF800205449087001AA54
:100580001A21022001F01CFD40A0FFF795FE55A0A6
:10059000FFF79AFE4021002001F058FF09B000BD8E
:1005A00000B589B001F0A4FE54A20021084601F074
:1005B00007FD4948C07900904748837982884BA15C
:1005C00001A805F097F800204049087001AA0D2104
:1005D000012001F0F5FC4048807800903E484378C7
:1005E000027836A101A805F085F800203749087087
:1005F00001AA1A21022001F0E3FC24A0FFF75CFE0F
:1006000042A0FFF761FE4021002001F01FFF09B06A
:1006100000BD000020202020B2B8C8E9BCC7C2BC81
:100620002020202000000000D4B8C0EEBCCEEEC8D0
:10063000D0A1B1A6B1A6000020202020202020BDFE
:10064000A1BFB5B3C9B3A40020202000B2CBB5A58B
:1006500000000000B2E9BFB400000000CFEEC4BF4C
:10066000000000002020B2B8C8E9200909B2B9CBC7
:10067000AE0000002020B4F3B1E3200909D0A1B1FD
:10068000E3000000A1CC000000000020B7B5BBD8FB
:1006900000000000202020202020B2CBB5A5202083
:1006A00020202020000000002020CAB1BCE4200946
:1006B0000900000020200000B00000202530326436
:1006C0003A253032643A2530326400003000002090
:1006D000A1FCA1FD00000000BA000020B0B4C9CF09
:1006E000CFC2BCFCD1A1D4F10000000025642D25AF
:1006F0003032642D2530326400000000B0B4C9CF20
:10070000CFC2BCFCD0DEB8C400000000B1A3B4E688
:100710000000000010B50446FE4800781238062894
:100720005ED2DFE800F0031221303F4E2CB1FA48D0
:100730008088401CF849888004E0F7488088401E83
:10074000F5498880FFF72CFF4AE02CB1F248807908
:10075000401CF149887104E0EF488079401EEE4961
:100760008871FFF71DFF3BE02CB1EB48C079401CBE
:10077000E949C87104E0E848C079401EE649C871FB
:10078000FFF70EFF2CE02CB1E3480078401CE24953
:10079000087004E0E0480078401EDF490870FFF769
:1007A000FFFE1DE02CB1DC484078401CDA4948705F
:1007B00004E0D9484078401ED7494870FFF7F0FE62
:1007C0000EE02CB1D4488078401CD349887004E0F6
:1007D000D1488078401ED0498870FFF7E1FE00BF05
:1007E00000BF10BD10B504462046642C0CD0A0F507
:1007F000EA40943811D0A0F5EA40303816D0A0F580
:10080000EA40303824D11AE002210A2002F07EFEAC
:10081000C24908800846008810BD0221142002F059
:1008200075FEBE49488008464088F5E702211E2033
:1008300002F06CFEB949888008468088ECE7022106
:10084000282002F063FEB549C8800846C088E3E767
:1008500000BF00BF00BFDFE770B505460C46284665
:10086000642D0CD0A0F5EA40943810D0A0F5EA40F1
:10087000303814D0A0F5EA40303820D117E00222F9
:1008800021460A2002F0EEFDA448048018E002226E
:100890002146142002F0E6FDA048448010E0022228
:1008A00021461E2002F0DEFD9C48848008E00222E2
:1008B0002146282002F0D6FD9848C48000E000BF01
:1008C00000BF70BD2DE9F0438DB0054689464FF05D
:1008D0000008002401F00CFD914800684FF4B47149
:1008E000B0FBF1F00A21B0FBF1F201FB12068C48DB
:1008F00000684FF46161B0FBF1F73B468948009610
:10090000028889A104A804F0F5FE04AA0021084683
:1009100001F056FB00BF3BE088490968091B01EB69
:10092000410105EB4100062208A902F01EFE08A8BD
:1009300000F0C1FD8248007881494978804A927868
:100940007F4BDB78CDE90032CDE902107C4880880E
:10095000A0F5FA6379480068001B724909880A1AF1
:1009600078A108A804F0C6FE00207D490870601C2C
:1009700000EB800202EBC000811E08AA002001F0FB
:100980001FFB6E480068001B00D103E0601CC4B26E
:10099000032CC1DB00BF2846642D0CD0A0F5EA4033
:1009A00094380CD0A0F5EA4030380CD0A0F5EA40DD
:1009B000303810D10BE06BA0FFF786FC0CE06BA089
:1009C000FFF782FC08E06BA0FFF77EFC04E06BA061
:1009D000FFF77AFC00E000BF00BF6AA0FFF76CFCE5
:1009E0004021002001F032FD0DB0BDE8F0832DE97B
:1009F000F0418AB0064600200290002400253046CF
:100A0000FFF7F0FE054625B960A103A804F072FEC9
:100A10005DE0681E4949086042480580096801EBAD
:100A2000410106EB4100062207A902F09EFD9DF858
:100A30001C0004449DF81D0004EB00249DF81E00DA
:100A400004EB00449DF81F0004EB006407A800F0CD
:100A500032FD02F0D9FF02900298001B029030494B
:100A6000029808600298002805DA2A464BA103A8DC
:100A700004F040FE2BE04D49029888421EDC2848D5
:100A800000684FF4B471B0FBF1F00A21B0FBF1F251
:100A900001FB1208224800684FF46161B0FBF1F7D6
:100AA0003B462048CDF8008002881FA103A804F02F
:100AB00021FE01213046FFF705FF08E02A463CA150
:100AC00003A804F017FE01213046FFF7FBFE03AA3E
:100AD0000021084601F074FA4021002001F0B6FC24
:100AE0000AB0BDE8F081F0B587B0074600240025C4
:100AF00000263846FFF776FE044602F085FF0546DD
:100B0000E8B28DF81000280A8DF81100280C8DF835
:100B1000120053E000000020BA0000201000002066
:100B2000080000200C000020B9B22564CCF57C251B
:100B3000642E2564D0A1CAB100000000040000208A
:100B40001E00002025645F25303264253032642584
:100B500030326420253032643A253032640000009F
:100B600030000020B2B8C8E900000000B2B9CBAE36
:100B700000000000B4F3B1E300000000D0A1B1E335
:100B800000000000B7B5BBD800000000B9B230CCFF
:100B9000F57CCEDECAFDBEDD00000000B9B22564E2
:100BA000CCF57C6572726F7200000000002F0D00A2
:100BB000B9B22564CCF57CB3ACCAB100280E8DF86F
:100BC000130004EB440107EB4100062204A902F0E4
:100BD000DCFC322004F093FB04EB440107EB410002
:100BE000062201A902F0C1FC9DF8040006449DF80C
:100BF000050006EB00269DF8060006EB00469DF872
:100C0000070006EB006601A800F055FCAE420BD1D0
:100C1000601C84B221463846FFF71EFE601EDA498A
:100C200008603846FFF7E3FE07B0F0BD10B501F0ED
:100C30005FFBD6480078062806D0072811D0082880
:100C40001CD0092832D126E06420FFF7CBFDCE4925
:100C500008606420FFF7CBFEAFF2F800FFF734FB2B
:100C600025E047F29450FFF7BDFD47F29450FFF79F
:100C7000BEFEAFF20810FFF727FB18E04EF6C420C7
:100C8000FFF7B0FD4EF6C420FFF7B1FEAFF21C1027
:100C9000FFF71AFB0BE0BE48FFF7A4FDBC48FFF7C7
:100CA000A6FEAFF22810FFF70FFB00E000BF00BF69
:100CB000AFF23010FFF700FB4021002001F0C6FB2F
:100CC00010BD10B54FF48041B24802F0C2FD08B922
:100CD000012000E00020B8B10A2004F010FB4FF41E
:100CE0008041AC4802F0B5FD08B9012000E00020C9
:100CF00050B14FF40041A84802F0C5FDA74804F0E8
:100D000006FB00F049FE10BD4FF48071A24802F0CE
:100D1000A0FD08B9012000E00020B8B10A2004F0CD
:100D2000EEFA4FF480719C4802F093FD08B901205F
:100D300000E0002050B14FF40041974802F0A3FDBD
:100D4000964804F0E4FA00F02BFCDCE74FF4005185
:100D5000904802F07EFD08B9012000E00020B8B103
:100D60000A2004F0CCFA4FF400518A4802F071FDD9
:100D700008B9012000E0002050B14FF4004186483E
:100D800002F081FD854804F0C2FA00F0A5FCBAE744
:100D90004FF400417F4802F05CFD08B9012000E0FB
:100DA0000020B8B10A2004F0AAFA4FF400417948B3
:100DB00002F04FFD08B9012000E0002050B14FF4CF
:100DC0000041754802F05FFD744804F0A0FA00F09D
:100DD0008DFD98E74FF480516E4802F03AFD08B956
:100DE000012000E0002040B14FF400416A4802F0C9
:100DF0004AFD6A4804F08BFA85E700BF83E708B52F
:100E00000121042003F068FF0121084603F064FF7C
:100E10004FF40040ADF8000010208DF803000320CF
:100E20008DF8020069465C4802F082FC4FF40041F4
:100E3000594802F028FD4FF48070ADF800004820BA
:100E40008DF8030003208DF802006946524802F035
:100E50006FFC0121082003F03FFF4FF47040ADF814
:100E6000000048208DF8030003208DF80200694639
:100E7000484802F05DFC0121084603F02DFF3B20AD
:100E8000ADF8000003208DF8020010208DF803005B
:100E90006946404802F04CFCFB20ADF800001020F1
:100EA0008DF8030003208DF8020069463A4802F0ED
:100EB0003FFC08BD30B502460B4614681568012199
:100EC0000EE052F82100A04202D952F8214005E07C
:100ED00052F82100A84201D252F82150481CC1B258
:100EE0009942EEDB601B30BD30B502460B461488DC
:100EF000158801210EE032F81100A04202DD32F81F
:100F0000114005E032F81100A84201DA32F8115020
:100F1000481CC1B29942EEDB601B80B230BD10B5F7
:100F200002460B4600201088012107E032F81140EC
:100F3000844201DD32F811004C1CE1B29942F5DB2C
:100F400010BD10B502460B4600201088012107E0B5
:100F500032F81140844201DA32F811004C1CE1B23F
:100F60009942F5DB10BD30B502460023002404E0B1
:100F700032F8025B2B44601C84B28C42F8DB09B16E
:100F8000B3FBF1F398B230BD040000200000002054
:100F9000F45F0100000C014000080140C0D40100D2
:100FA00008B503208DF8000000208DF801008DF8B1
:100FB000020001208DF80300684603F0BAFC08BD6A
:100FC000F0B503460C461546642093FBF0F0C6B21C
:100FD000642093FBF0F700FB1730C1B2132E02DD43
:100FE00001F16400C1B20846CF1701EB977701EB1E
:100FF000A707BAB2072092FBF0F700FB172082B2D6
:101000005719601EDFF86CC41CF80000384482B227
:10101000CF1701EB9777BF10B1EB870703D1032CF4
:1010200001DA501E82B2072092FBF0F700FB172076
:10103000C0B2F0BD0146CA1701EB92729210B1EB3B
:10104000820212D1642091FBF0F200FB121050B921
:101050004FF4C87091FBF0F200FB121008B90120A8
:1010600070470020FCE70120FAE70020F8E770B5A0
:1010700000260024002502F0C7FC0646FE48B6FB09
:10108000F0F4FE480088A0423CD0FC490C8040F2BD
:10109000E27510E02846FFF7CDFF40B1B4F5B77F09
:1010A00002D3A4F5B77404E0681C85B206E0A4F28C
:1010B0006D14681C85B2B4F5B67FEBD800BFF0485C
:1010C0008580002516E0EE498888FFF7B3FF30B130
:1010D000012D04D11D2C01D31D3C09E00CE0E94891
:1010E000405DA04203D8E748405D241A00E003E0D9
:1010F000681C85B21C2CE6D200BF681CE0498871D0
:10110000601CC871DC48B6FBF0F100FB11644FF4C1
:101110006160B4FBF0F0DA4908704FF46160B4FB31
:10112000F0F100FB11403C21B0FBF1F0D4494870D4
:101130004FF46160B4FBF0F100FB11403C21B0FBC7
:10114000F1F201FB1200CE4988700B46DA799979E9
:101150009888FFF735FFCA490872002070BD2DE955
:10116000F05F06460F4690469946DDE90AAB00243B
:1011700040F2E270864203DB40F63300864202DD35
:101180000120BDE8F09F40F2E2750AE02846FFF733
:1011900051FF10B1BC48044401E0BC480444681C41
:1011A00085B2B542F2DB781EC7B2002510E0B54823
:1011B000405D40F2A321484304EBC0143046FFF7E2
:1011C00039FF18B1012D01D1AB480444681C85B228
:1011D000BD42ECDBA8F1010040F2A321484304EB3F
:1011E000C014C9EB4910C0EB092004EB0014CAEB92
:1011F0000A1004EB80045C4401214FF0C05003F05E
:1012000078FD012003F0DBFD204602F006FC02F031
:1012100037FC0020B5E71CB5002401214FF0C05079
:1012200003F067FD012003F0CAFD042002F0F3F98A
:10123000A0F5A04150393FD002F0B8F9012003F0E9
:10124000BBFC04E0601CC4B20A2004F058F8412042
:1012500003F01BFC08B9FA2CF4DBFA2C01DB0120AB
:101260001CBD4FF4807003F0C0FC012003F0C3FCF0
:1012700002F006FC02F00CFC0121084602F0A4FB7F
:1012800002F0FEFB02F0ADFB47F6FF7002F0D2FB6E
:1012900002F0F6FB14200090062301221146019073
:1012A00040F2E270FFF75BFF02F0A4FB45F2500151
:1012B000042002F0A4F907E002F0EAFB012108464D
:1012C00002F082FB02F0DCFBFFF76AFEFFF7CFFEC5
:1012D0000020C5E70EB5012002F0FEFB18B1FFF7B4
:1012E000C6FEFFF7CEF8022002F0F6FBA0B1022006
:1012F00002F002FCFFF7BBFE614880786049497844
:101300005F4A1278CDE9002102905D48C379827965
:1013100081885FA004F0E2F9052002F0EDFB02F005
:10132000AFFB0EBD2DE9F05F06460F46904699468D
:10133000DDE90AAB002440F2E270864203DB40F6AE
:101340003300864202DD0120BDE8F09F40F2E275E5
:101350000AE02846FFF76EFE10B14B48044401E056
:101360004A480444681C85B2B542F2DB781EC7B215
:10137000002510E04348405D40F2A321484304EBC0
:10138000C0143046FFF756FE18B1012D01D13A487E
:101390000444681C85B2BD42ECDBA8F1010040F2B8
:1013A000A321484304EBC014C9EB4910C0EB09204A
:1013B00004EB0014CAEB0A1004EB80045C44012126
:1013C0004FF0C05003F095FC012003F0F8FC2046DC
:1013D00002F03EFB02F054FB0020B5E72DE9F04798
:1013E00005460E4617469846DDE9089A002340F266
:1013F000E270854203DB40F63300854202DD0120C6
:10140000BDE8F08740F2E2740AE02046FFF712FEE2
:1014100010B11D48034401E01C480344601C84B221
:10142000AC42F2DB701EC6B2002410E01548005D2D
:1014300040F2A321484303EBC0132846FFF7FAFD0F
:1014400018B1012C01D10C480344601C84B2B44291
:10145000ECDB781E40F2A321484303EBC013C8EB3A
:101460004810C0EB082003EB0013C9EB091003EB95
:1014700080031DE08A5B00088051010024000020E9
:10148000B0000020965B00080085E2018033E10196
:10149000416C61726D2054696D653A25642D256437
:1014A0002D25642025643A25643A25640A0000004D
:1014B00053441846A4E770B50646002500230024CF
:1014C00030780544707805EB0025B07805EB0045D1
:1014D000F07805EB00652E48B5FBF0F32D48008849
:1014E00098423CD02B490B8040F2E27410E0204639
:1014F000FFF7A0FD40B1B3F5B77F02D3A3F5B773F3
:1015000004E0601C84B206E0A3F26D13601C84B298
:10151000B3F5B67FEBD800BF1F488480002416E0E7
:101520001D498888FFF786FD30B1012C04D11D2BA1
:1015300001D31D3B09E00CE01848005D984203D838
:101540001648005D1B1A00E003E0601C84B21C2BEF
:10155000E6D200BF601C1049C870581C88700C4847
:10156000B5FBF0F100FB11534FF46160B3FBF0F0F9
:10157000094948704FF46160B3FBF0F100FB113092
:101580003C21B0FBF1F004490870002070BD000060
:1015900080510100260000201E000020965B0008FC
:1015A00010B5494800781E2870D2DFE800F04E8957
:1015B000898989890F10111289894F575F6770785F
:1015C0008081828384851C2A8989394400BF00BFB9
:1015D00000BF012000F05FF93C4908700846007820
:1015E000FEF7D7FE6DE03A480068401E08D0384844
:1015F0000068401E3649086001216420FFF762F947
:101600005FE033480068401E09D031480068401E42
:101610002F490860012147F29450FFF753F950E039
:101620002B480068401E2A49086001214EF6C4205C
:10163000FFF748F945E026480068401E2449086045
:1016400001212448FFF73EF93BE03AE04FF4FA70FD
:1016500003F055FE0D201C49087032E04FF4FA707B
:1016600003F04DFE0E20184908702AE04FF4FA707E
:1016700003F045FE0F201449087022E04FF4FA7081
:1016800003F03DFE1020104908701AE018E04FF4F6
:10169000FA7003F034FE11200B49087011E04FF48A
:1016A000FA7003F02CFE0C200749087009E000BF17
:1016B00000BF00BF00BF00BF0020FFF72BF800E015
:1016C00000BF00BF10BD0000000000202800002067
:1016D00004000020F45F01001CB57D4800781E283E
:1016E0007ED2DFE800F00FD5D5D5D5D5161C22283F
:1016F00096D59FA8B1BAC3CC6C6D6E6F70712E3D3C
:10170000D5D54D5D0120FEF744FE062070490870D6
:10171000BFE0FFF78BFA18206D490870B9E0FFF7BA
:1017200085FA19206A490870B3E0FFF77FFA1C2098
:1017300067490870ADE0FFF779FA1D206449087029
:10174000A7E064480068B0F5616F05D26248008880
:1017500060490968084302D16420FFF7C4F998E0A2
:101760005C480068B0F5616F05D25B484088594914
:101770000968084303D147F29450FFF7B4F988E0B1
:1017800054480068B0F5616F05D2534880885149CC
:101790000968084303D14EF6C420FFF7A4F978E0A6
:1017A0004C480068B0F5E16F05D24B48C088494904
:1017B0000968084302D14948FFF795F969E000BF7D
:1017C00000BF00BF00BF00BF02F05AF902F009F9E4
:1017D00047F6FF7002F02EF902F052F9404800E09F
:1017E00056E080783E4949783D4CCDE90010237899
:1017F000E279A179A088FFF7B2FC02F0FBF845F28C
:101800005001042001F0FBFE40F24C4003F077FD54
:1018100000BFFEF784FE0120324908700C202C49DD
:10182000087036E001202F490870FEF7B9FE12203B
:10183000274908702DE001202A490870FEF7B0FE04
:1018400013202349087024E0012026490870FEF780
:10185000A7FE14201E4908701BE0012021490870D2
:10186000FEF79EFE15201A49087012E001201D495E
:101870000870FEF795FE16201549087009E0012052
:1018800018490870FEF78CFE17201149087000E017
:1018900000BF00BF1CBD014629B113480078401CA1
:1018A000114A107004E010480078401E0E4A107073
:1018B0000D48007810B904200B4A10700A480078CF
:1018C000052802D10120084A1070074800787047A7
:1018D000000000200800002010000020F45F01003C
:1018E000BA0000200E0000202800002010B5294872
:1018F00000781E284AD2DFE800F0264949494949C4
:101900000F10111213251F2021222324191A1B1C2A
:101910001D1E2D3449493B4200BF00BF00BF00BF20
:10192000FEF711FD00201B49087030E000BF00BF2A
:1019300000BF00BF00BF00BF00BF00BF00BF00BFAF
:1019400000BF00BF00BF0120FEF770FD0A20114953
:1019500008701CE00120FEF71CFD06200D490870F0
:1019600015E00320FEF715FD07200A4908700EE078
:101970000220FEF70EFD08200649087007E004204B
:10198000FEF707FD09200349087000E000BF00BF13
:1019900010BD00000000002010B54A4800781E2845
:1019A00073D2DFE800F0518C8C8C8C8C0F101112EC
:1019B0008C8C525A626A737B8384858687881C313B
:1019C0008C8C3C4700BF00BF00BF0020FFF763FFC7
:1019D0003D49087008460078FEF7DBFC70E03B48A4
:1019E00001883B480068401C814208D9384800689B
:1019F000032804D936480068401C35490860002196
:101A00006420FEF75FFF5BE031480068C01C30498E
:101A10000860002147F29450FEF754FF50E02C4834
:101A20000068C01C2A49086000214EF6C420FEF759
:101A300049FF45E026480068C01C25490860002190
:101A40002448FEF73FFF3BE03AE04FF4FA7003F022
:101A500056FC11201B49087032E04FF4FA7003F075
:101A60004EFC0C20174908702AE04FF4FA7003F07E
:101A700046FC0D201349087022E04FF4FA7003F081
:101A80003EFC0E200F4908701AE018E04FF4FA707F
:101A900003F035FC0F200B49087011E04FF4FA7089
:101AA00003F02DFC10200749087009E000BF00BFBB
:101AB00000BF00BF00BF0120FEF72CFE00E000BF0A
:101AC00000BF10BD000000202800002010000020F2
:101AD00004000020F45F0100024601B10AB90120B0
:101AE00070471368086810600B600020F8E72DE964
:101AF000FF410C4698469DF800009DF8081088426A
:101B000003DD02A96846FFF7E7FF3F2C03DC9DF8E1
:101B100000007F2801DDBDE8FF819DF808007F28D7
:101B200001DD7F2002902046E11704EB5171C1F3E3
:101B3000C706B8F1000F1ED1E11704EB5171C910AF
:101B4000A4EBC10201219140CFB2F843C7B29DF886
:101B500000500AE0F74800EBC610405D3840F549F8
:101B600001EBC6114855681CC5B29DF80800401C21
:101B70008542EFDB1CE02046E11704EB5171C910F0
:101B8000A4EBC10201219140CFB29DF800500AE0C0
:101B9000E84800EBC610405D3843E64901EBC6114A
:101BA0004855681CC5B29DF80800401C8542EFDB13
:101BB00000BFB0E72DE9FF41044698469DF80400B8
:101BC0009DF80810884203DD02A901A8FFF784FFF1
:101BD0009DF804003F2801DC7F2C01DDBDE8FF817A
:101BE0009DF808003F2801DD072002909DF80400C1
:101BF000C11700EB5171CD109DF80800C11700EB23
:101C00005171CE10B54246D1B8F1000F21D19DF8E7
:101C10000410CA1701EB5272D210A1EBC203FF22CB
:101C20009A409DF80800C31700EB5373DB10A0EB3C
:101C3000C303C3F1070CFF2303FA0CF31A40BD4B97
:101C400003EBC5131B5D9343BA4A02EBC512135550
:101C5000BBE09DF80410CA1701EB5272D210A1EB41
:101C6000C203FF229A409DF80800C31700EB53738C
:101C7000DB10A0EBC303C3F1070CFF2343FA0CF303
:101C80001A40AC4B03EBC5131B5D1A43A94B03EB86
:101C9000C5131A5599E0B8F1000F4CD19DF8040016
:101CA000C11700EB5171C910B0EBC10115D09DF8FF
:101CB0000400C11700EB5171C910A0EBC102FF2154
:101CC00091409C4A02EBC512125D22EA0101994A39
:101CD00002EBC5121155681CC5B29DF80800C1176A
:101CE00000EB5171C910A0EBC101072917D09DF875
:101CF0000800C11700EB5171C910A0EBC101C1F17F
:101D00000702FF2111418B4A02EBC612125D22EA43
:101D10000101884A02EBC6121155701EC6B22F4649
:101D200006E00020834901EBC7110855781CC7B2B3
:101D3000B742F6DD49E09DF80400C11700EB517190
:101D4000C910B0EBC10114D09DF80400C11700EB1D
:101D50005171C910A0EBC102FF219140754A02EBFD
:101D6000C512125D1143734A02EBC5121155681C6E
:101D7000C5B29DF80800C11700EB5171C910A0EB66
:101D8000C101072916D09DF80800C11700EB517159
:101D9000C910A0EBC101C1F10702FF211141654A41
:101DA00002EBC612125D1143624A02EBC6121155D4
:101DB000701EC6B22F4606E0FF205E4901EBC71138
:101DC0000855781CC7B2B742F6DD00BF06E71FB55D
:101DD000069C9DF800009DF80810884203DD02A9CA
:101DE0006846FFF779FE9DF804009DF80C108842C4
:101DF00003DD03A901A8FFF76FFE9DF80C003F2843
:101E000003DC9DF808007F2800DD1FBD23469DF8F8
:101E100008209DF804109DF80000FFF768FE234697
:101E20009DF808209DF80C109DF80000FFF75FFE5C
:101E300023469DF80C209DF804109DF80000FFF744
:101E4000B9FE23469DF80C209DF804109DF808006B
:101E5000FFF7B0FE00BFD8E73FB5079D9DF8000033
:101E60009DF80810884203DD02A96846FFF734FE9A
:101E70009DF804009DF80C10884203DD03A901A819
:101E8000FFF72AFE9DF804003F2803DC9DF80000C0
:101E90007F2800DD3FBD9DF8004009E02B469DF8FE
:101EA0000C209DF804102046FFF784FE601CC4B28D
:101EB0009DF808008442F1DD00BFEBE7F0B5034672
:101EC00000247F2B01D83F2900D9F0BD002003E07A
:101ED000782800D90BE0801C1578174E365CB54287
:101EE000F6D15678144F451C7D5DAE42F0D100BF4F
:101EF000782805D200EB4005104E06EB850400E083
:101F0000E3E7084610E025780D4E06EB001606F8CC
:101F10001350651C2C462E78094D05EB00175D000B
:101F20006D1C7E55641C401C01F10B05A842EAD9CA
:101F300000BFCAE7C40A0020A25B00081A5C0008C0
:101F4000C40600207047F0B50346144600227F2BDC
:101F500001D83F2900D9F0BD2578A5F120006028DF
:101F600005D200EB4005FE4E06EB850200E0F2E7ED
:101F7000FC4D2D78012D0ED1084608E01678FA4F59
:101F8000C51C07EB051505F81360521C401C01F138
:101F90000B05A842F2D9F34D2D787DB9084609E02A
:101FA0001678F14FC51C07EB05175D006D1C7E55BB
:101FB000521C401C01F10B05A842F1D900BFCAE731
:101FC0002DE9F04106460F4614463546B8460CB991
:101FD000BDE8F08128E07F2D00D9F9E7B8F13F0F87
:101FE00000D9F5E7207810F0800F0AD0224641464C
:101FF0002846FFF763FF0020DA490870A41C6D1C17
:1020000012E0D8480078012804D16D1E0020D5497F
:10201000087002E00120D349087022464146284654
:10202000FFF791FF641C6D1C20780028D3D100BFFE
:10203000CEE7F8B5034615460C46CF1701EB5777A8
:10204000C7F3C7027F2900DDF8BD002062E02E5CE7
:1020500000240094FF248DF803400C46CF1701EBB9
:102060005777FF10A1EBC70C009F07FA0CF70097FA
:102070001418BE4F07EBC414E45C9DF80370BC4316
:102080001718DFF8E8C20CEBC717FC54541C082CD7
:102090000DDA1418641C674607EBC414E45C9DF861
:1020A0000270BC4317187F1C0CEBC717FC540024AC
:1020B00000948DF803600C46CF1701EB5777FF10A3
:1020C000A1EBC70C009F07FA0CF700971418A74F55
:1020D00007EBC414E45C9DF803703C431718DFF869
:1020E0008CC20CEBC717FC54541C072C00DDABE76B
:1020F0001418641C9D4F07EBC414E45C9DF8027037
:102100003C4317187F1CDFF864C20CEBC717FC5464
:10211000441CE0B204289ADB00BF95E72DE9F041AA
:1021200006460F4614464FF000087F2E01D83F2F79
:1021300001D9BDE8F081052C02DD002C00DCF8E7B8
:10214000601E8B4901EB8018002509E0F9B2721975
:10215000D0B24246FFF76DFF08F10408681CC5B213
:10216000102DF3DB00BFE4E72DE9F04105460E46F4
:1021700017464FF000087F2D01D83F2E01D9BDE84A
:10218000F081012F00DDFAE77A4901EBC71800243E
:1021900009E0F1B22A19D0B24246FFF74AFF08F12E
:1021A0000408601CC4B2202CF3DB00BFE7E72DE974
:1021B000F84104461F46002600250B464FEAE17C05
:1021C00001EB5C7CCCF3C7001678557805F00F0561
:1021D00000230093FF238DF800300F238DF801308A
:1021E0000B464FEAE17C01EB5C7C4FEAEC0CA1EB87
:1021F000CC08DDF800C00CFA08FCCDF800C05B4B41
:1022000003EBC0131B5D9DF800C023EA0C03DFF84D
:102210005CC10CEBC01C0CF80430DFF850C1431C4F
:102220000CEBC3131B5D9DF801C023EA0C03DFF820
:102230003C8100F1010C08EBCC1C0CF80430831C31
:10224000082B0DDAC4460CEBC3131B5D9DF802C0CE
:1022500023EA0C0300F1020C08EBCC1C0CF8043050
:10226000002300938DF800608DF801500B464FEA73
:10227000E17C01EB5C7C4FEAEC0CA1EBCC08DDF8D7
:1022800000C00CFA08FCCDF800C0384B03EBC013BB
:102290001B5D9DF800C043EA0C03DFF8D0C00CEBD7
:1022A000C01C0CF80430DFF8C4C0431C0CEBC31393
:1022B0001B5D9DF801C043EA0C03DFF8B08000F11C
:1022C000010C08EBCC1C0CF8043008280EDAC446CC
:1022D000831C0CEBC3131B5D9DF802C043EA0C0387
:1022E00000F1020C08EBCC1C0CF80430BDE8F881BE
:1022F00010B54FF480611C4803F033FB10BD2DE98D
:10230000F0470026B246B1463FE04FF0000835E006
:1023100009EB49008006070E16E0114810F80A0084
:10232000114901EB071101F818000D490AF10C00E1
:10233000095C0D4800EB07124FEA4800401C11549D
:102340000AF1010A781CC7B209EB49000B2101EB25
:102350008000B842E1DA0AF10C0A08F101000BE052
:10236000BA63000830000020C4060020C40A002020
:102370003A680008BA61000800F0FF08B8F1070FDA
:10238000C6DD09F1010000F0FF09B9F1040FBCDD61
:10239000002557E01F2D2BDD0826344623E036208C
:1023A00000F05AF905F16001C8B200F055F904F1E6
:1023B0008001C8B200F050F9302000F04DF96B49AF
:1023C00001EB0512A11B12F8110000F027F9674973
:1023D00001EB0512A11B012303EB4101505C00F04E
:1023E0001DF9601CC4B206F108008442D7DB27E067
:1023F000344621E0362000F02FF905F18001C8B203
:1024000000F02AF904F18001C8B200F025F930206B
:1024100000F022F9554901EB051111F8140000F004
:10242000FDF8524901EB0511012202EB4402885CE0
:1024300000F0F4F8601CC4B206F108008442D9DB55
:10244000681CC5B2402DA5DDBDE8F0872DE9F0413F
:10245000074688460026002557E01F2D2BDD08265D
:10246000344623E0362000F0F7F805F16001C8B2E9
:1024700000F0F2F804F18001C8B200F0EDF830206D
:1024800000F0EAF8394901EB0512A11B12F811001E
:1024900000F0C4F8354901EB0512A11B012303EB41
:1024A0004101505C00F0BAF8601CC4B206F10800AB
:1024B0008442D7DB27E0344621E0362000F0CCF818
:1024C00005F18001C8B200F0C7F804F18001C8B27C
:1024D00000F0C2F8302000F0BFF8244901EB0511EC
:1024E00011F8140000F09AF8204901EB05110122BF
:1024F00002EB4402885C00F091F8601CC4B206F163
:1025000008008442D9DB681CC5B2402DA5DDBDE8BA
:10251000F08170B500251DE0002417E0342000F0A4
:102520009BF805F18001C8B200F096F804F1800133
:10253000C8B200F091F8302000F08EF8002000F0D2
:102540006DF8002000F06AF8601CC4B2102CE5DBC6
:10255000681CC5B2402DDFDB70BD10B5FFF7D9FF99
:10256000322002F0CCFE10BD70470000C4060020EF
:10257000F74909680021F64A11601146096841F0DF
:1025800077311160F2490C31096801F47F41C2B220
:102590001143EF4A0C321160704770B58024EC484B
:1025A00000680020EA4908600846006840F088306A
:1025B0000860E7481030006840F0FF00E44910313F
:1025C00008600020E34908604FF00100E249C1F8CB
:1025D0009001E24908601BE00020DE4908604FF0EE
:1025E0000100DD49C1F89001DC4908604FF064004A
:1025F00002F044FED6480830006885B2ECB204F020
:102600008004012002F03AFE0020D349C1F88C0179
:10261000802CE1D00020D149086070BD10B504467F
:10262000FFF7BBFF0120CB4908604FF00000CA490B
:10263000C1F890014FF00100C84908602046FFF73B
:1026400097FF012002F01AFE0020C349C1F88C0157
:10265000012002F013FE10BD10B504460020BD4954
:102660000860BD49C1F890014FF0010002F006FE7C
:102670000120BA4908604FF0150002F0FFFD204626
:10268000FFF776FF012002F0F9FD0020B249C1F802
:102690008C01012002F0F2FD10BD70B500251DE097
:1026A000002417E03420FFF7D7FF05F18001C8B2FE
:1026B000FFF7D2FF04F18001C8B2FFF7CDFF302051
:1026C000FFF7CAFF0020FFF7A9FF0020FFF7A6FFD2
:1026D000601CC4B2102CE5DB681CC5B2402DDFDBEA
:1026E00070BD10B53020FFF7B7FF012002F007FEE4
:1026F0003020FFF7B1FF012002F001FE0C20FFF7B0
:10270000ABFF012002F0FBFD0120FFF7A5FF0B202E
:1027100002F0F5FD0620FFF79FFF012002F0EFFD1C
:1027200010BD10B5FEF76BFB01208D4908608A498A
:10273000C1F8840110BD10B54FF4967002F0DFFDB2
:10274000FFF7EFFFFFF7CDFFFFF7A7FF10BD70B555
:10275000FFF723FF7E48006800207D490860084697
:10276000006840F08830086079481030006840F018
:10277000FF007749103108600120764908607649EA
:10278000C1F890017549086002F078FD7048083082
:102790000068C4B2012002F071FD00206E49C1F84A
:1027A0008C012546284670BD2DE9F84F05460C469C
:1027B000924605F07F0504F03F042846E91705EB33
:1027C00011714FEA211B05F00F062046E11704EBBB
:1027D000D1614911009127461F2F02DDA7F120008A
:1027E000C7B23420FFF738FF3620FFF735FF07F177
:1027F0008001C8B2FFF730FF0BF180010823009A77
:1028000003FB0211C8B2FFF727FFFFF7A0FFFFF796
:102810009EFF8046FFF79BFF814607F18001C8B20B
:10282000FFF71AFF0BF180010823009A03FB021146
:10283000C8B2FFF711FF082E1BDABAF1000F0CD057
:10284000C6F107020121914041EA0801C8B2FFF731
:10285000E5FE4846FFF7E2FE26E0C6F10702012149
:10286000914028EA0100FFF7D9FE4846FFF7D6FE5F
:102870001AE0BAF1000F0CD04046FFF7CFFEC6F1C8
:102880000F020121914041EA0901C8B2FFF7C6FEDB
:102890000AE04046FFF7C2FEC6F10F020121914057
:1028A00029EA0100FFF7BAFEFFF777FE3020FFF7B5
:1028B000D3FEBDE8F88F2DE9F84F05460C4605F02C
:1028C0007F0504F03F042846E91705EB11714FEA34
:1028D000211B05F00F062046E11704EBD1614911D9
:1028E000009127461F2F02DDA7F12000C7B2342038
:1028F000FFF7B2FE3620FFF7AFFE07F18001C8B246
:10290000FFF7AAFE0BF180010823009A03FB0211D6
:10291000C8B2FFF7A1FEFFF71AFFFFF718FF8246C4
:10292000FFF715FF8046082E06DAC6F107010120E1
:10293000884000EA0A0905E0C6F10F01012088403D
:1029400000EA0809FFF729FE4846BDE8F88F0000B5
:102950000008014094812142008021428C81214263
:102960008081214210B53020FFF776FE4020FFF72E
:1029700073FE002400E0641C102CFCDB10BD2DE96C
:10298000F04106460C461546002704B90AE0012C22
:1029900001D1102706E0022C01D1082702E0032C08
:1029A00000D1182707F180013144C8B2FFF754FE67
:1029B00006E02878FFF732FE6D1C012002F05EFC75
:1029C00028780028F5DCBDE8F08110B5044606E063
:1029D0002078FFF723FE641C012002F04FFC2078D2
:1029E0000028F5DC10BD2DE9F041804600270026C7
:1029F0002BE0002524E000241EE03620FFF72CFE0B
:102A000005F18001C8B2FFF727FE04F180013144CF
:102A1000C8B2FFF721FE3020FFF71EFE39467F1CAB
:102A2000F84A505CFFF7FAFD39467F1CF54A505CC6
:102A3000FFF7F4FD601CC4B2082CDEDB681CC5B2D5
:102A4000202DD8DB06F10800C6B2092ED1DBBDE887
:102A5000F0812DE9F04107460D46164600241EE0A0
:102A60003620FFF7F9FD06F180012144C8B2FFF7D7
:102A7000F3FD802101EBC501C8B2FFF7EDFD302069
:102A8000FFF7EAFDE04A12F81400FFF7C7FD610006
:102A9000491CDD4A505CFFF7C1FD601CC4B20C2C20
:102AA000DEDBBDE8F0812DE9F04107460E46154614
:102AB000202D1ADA002415E03620FFF7CDFD05F1B0
:102AC00080012144C8B2FFF7C7FD06F18001C8B2FA
:102AD000FFF7C2FD3020FFF7BFFD385DFFF79EFD19
:102AE000601CC4B2102CE7DB1FE0A5F12000C5B2CA
:102AF00006F10800C6B2002415E03620FFF7ACFD51
:102B000005F180012144C8B2FFF7A6FD06F180015E
:102B1000C8B2FFF7A1FD3020FFF79EFD385DFFF73B
:102B20007DFD601CC4B2102CE7DBBDE8F08170B500
:102B3000064600251DE0002417E03620FFF78CFD37
:102B400005F18001C8B2FFF787FD04F18001C8B22A
:102B5000FFF782FD3020FFF77FFD3046FFF75EFD77
:102B60003046FFF75BFD601CC4B2102CE5DB681C2F
:102B7000C5B2202DDFDB3420FFF76EFD3620FFF7D6
:102B80006BFD70BD70B5002600251FE0F043C6B296
:102B9000002417E03620FFF75FFD05F18001C8B281
:102BA000FFF75AFD04F18001C8B2FFF755FD302050
:102BB000FFF752FD3046FFF731FD3046FFF72EFD9F
:102BC000601CC4B2102CE5DB681CC5B2202DDDDB17
:102BD0003420FFF741FD3620FFF73EFD70BD70B594
:102BE000002625E000251EE0002418E03620FFF72F
:102BF00033FD05F18001C8B2FFF72EFD04F180011D
:102C00003144C8B2FFF728FD3020FFF725FD002032
:102C1000FFF704FD0020FFF701FD601CC4B2082C83
:102C2000E4DB681CC5B2202DDEDB06F10800C6B26D
:102C3000092ED7DB3420FFF70FFD3620FFF70CFD00
:102C400070BD10B50120FFF707FD022002F057FB11
:102C500010BD70472DE9F0410446884615461E46D2
:102C6000AC4202DD2F4625463C4606E03246414650
:102C70002046FFF799FD601CC4B2AC42F6DDBDE80A
:102C8000F0812DE9F04180460C4615461E46AC42C7
:102C900002DD2F4625463C4606E0324621464046A8
:102CA000FFF782FD601CC4B2AC42F6DDBDE8F081E6
:102CB0002DE9F84F05460C464FF001094FF0000A88
:102CC0004FF0000B2BE0A8461BE0264610E04F49D2
:102CD000009801EBC01010F80A0000EA09073A4614
:102CE000F1B208F0FF00FFF75FFD4FEA4909761CDB
:102CF000E01D8642EBDD0AF1010A4FF0010908F1FF
:102D0000010805F17F008045DFDD4FF0000A04F186
:102D10000800C4B20098401C00900BF1010BBBF1FD
:102D2000020FD0DD0024BDE8F88F2DE9F84F0546ED
:102D30000C4691464FF0010A4FF0000B0020009026
:102D400025E0A84617E026460CE019F80B0000EA3B
:102D50000A073A46F1B208F0FF00FFF725FD4FEAF7
:102D60004A0A761CE01D8642EFDD0BF1020B4FF0A4
:102D7000010A08F1010805F17F008045E3DD4FF00D
:102D8000010B04F10800C4B20098401C00900098A8
:102D90000428D6DD0024BDE8F88F0146002901DAB9
:102DA000484270470846FCE710B5002418480078F0
:102DB000002873D002F0B8FA01286FD115480078C6
:102DC0000C380C286BD2DFE800F0075396D7F0EFF1
:102DD000065295D6EEED00BF00240FE004F110017D
:102DE000C8B201221921FFF7DFFC04F11001C8B2BB
:102DF00001221A21FFF7D8FC601CC4B21F2CEDDBA6
:102E0000002419E07900002031000020C40A0020CD
:102E10000E0000200000002004F13801C8B200229A
:102E20001921FFF7C1FC04F13801C8B200221A21B0
:102E3000FFF7BAFC601CC4B20F2CEDDB00240FE0DE
:102E400004F15001C8B200222621FFF7ADFC04F1C5
:102E50005001C8B200222721FFF7A6FC601CC4B2B3
:102E60000F2CEDDB4FF4FA7002F05BFA4BE100BF80
:102E700000240FE004F13801C8B201221921FFF744
:102E800093FC04F13801C8B201221A21FFF78CFC2F
:102E9000601CC4B20F2CEDDB002411E034E131E101
:102EA00004F11001C8B200221921FFF77DFC04F1E2
:102EB0001001C8B200221A21FFF776FC601CC4B2D0
:102EC0001F2CEDDB00240FE004F15001C8B20022FA
:102ED0001921FFF769FC04F15001C8B200221A2140
:102EE000FFF762FC601CC4B20F2CEDDBC82002F0BF
:102EF00018FA08E100BF00240FE004F15001C8B245
:102F000001221921FFF750FC04F15001C8B201223F
:102F10001A21FFF749FC601CC4B20F2CEDDB002422
:102F20000FE004F13801C8B200221921FFF73CFC80
:102F300004F13801C8B200221A21FFF735FC601CE9
:102F4000C4B20F2CEDDB00240FE004F12101C8B264
:102F500000222621FFF728FC04F12101C8B200223B
:102F60002721FFF721FC601CC4B20F2CEDDBC82029
:102F700002F0D7F9C7E000BF00240FE004F12101FF
:102F8000C8B201222621FFF70FFC04F12101C8B2CB
:102F900001222721FFF708FC601CC4B20F2CEDDBD7
:102FA000002413E06DE02BE06CE02AE004F1500116
:102FB000C8B200221921FFF7F7FB04F15001C8B293
:102FC00000221A21FFF7F0FB601CC4B20F2CEDDBCE
:102FD00000240FE004F13801C8B200222621FFF7D7
:102FE000E3FB04F13801C8B200222721FFF7DCFB24
:102FF000601CC4B20F2CEDDBC82002F092F982E015
:1030000000BF00240FE004F13801C8B201222621DC
:10301000FFF7CAFB04F13801C8B201222721FFF7EC
:10302000C3FB601CC4B20F2CEDDB00240FE004F1E5
:103030002101C8B200222621FFF7B6FB04F12101CD
:10304000C8B200222721FFF7AFFB601CC4B20F2CCF
:10305000EDDB00240FE004F15001C8B2002226216C
:10306000FFF7A2FB04F15001C8B200222721FFF7AD
:103070009BFB601CC4B20F2CEDDBC82002F051F9A1
:1030800041E000BF00240FE004F15001C8B201226A
:103090002621FFF789FB04F15001C8B20122272144
:1030A000FFF782FB601CC4B20F2CEDDB00240FE0A5
:1030B00004F13801C8B200222621FFF775FB04F1A4
:1030C0003801C8B200222721FFF76EFB601CC4B292
:1030D0000F2CEDDB00240FE004F11001C8B2002238
:1030E0001921FFF761FB04F11001C8B200221A2177
:1030F000FFF75AFB601CC4B21F2CEDDBC82002F0A6
:1031000010F900E000BF00BF10BD000008B50121AC
:10311000082001F0E1FDC020ADF8000010208DF87E
:10312000030003208DF8020069469D4800F000FB73
:10313000C0219B4800F0A7FB052000F03FF955286F
:1031400017D05521052000F065F9022200210A2040
:1031500000F088F902220021142000F083F90222F5
:1031600000211E2000F07EF902220021282000F01C
:1031700079F908BD10B58A48006820F07040884988
:1031800008600846006840F040500860012085490A
:1031900008608549C1F898014FF0040002F06EF80C
:1031A0000020804908604FF0040002F067F800201A
:1031B0007D49C1F8980110BD10B57948006820F02C
:1031C0007040774908600846006840F04050086049
:1031D0000020764908607449C1F89C014FF0040052
:1031E00002F04CF80120714908606F49C1F89C0158
:1031F0004FF0040002F042F810BD10B500246848FA
:10320000006820F07040664908600846006840F099
:103210000040086001206349086002F02FF8012097
:103220006149C1F8980102F029F807E0601CC4B2B6
:10323000FA2C03DDFFF7C0FF012010BD5C480068D9
:103240000028F3D15949086000BFF6E710B5002007
:10325000564908605248006820F0704050490860A4
:103260000846006840F0405008604FF000004E49AA
:10327000C1F89C014FF0020002F000F801204B4918
:1032800008604FF0020001F0F9FF00204649C1F844
:10329000980110BD10B500204449086040480068FE
:1032A00020F070403E4908600846006840F04050F9
:1032B00008604FF001003C49C1F89C014FF002004A
:1032C00001F0DCFF0120394908604FF0020001F0F5
:1032D000D5FF00203449C1F8980110BD70B50446EF
:1032E0002F48006820F070402D49086008460068AB
:1032F00040F04050086000202C49086005461AE064
:10330000E009284908604FEA44604FEA10644FF032
:10331000020001F0B3FF01202349C1F89801022007
:1033200001F0ACFF0020214908604FF0020001F0DD
:10333000A5FF681CC5B2082DE2DB70BD70B505465F
:1033400000241748006820F07040154908600846BE
:10335000006840F000400860002616E00020134995
:1033600008604FF0020001F089FF01200E49C1F80A
:1033700098016006040E0E48006808B1601CC4B2D3
:10338000012001F07BFF701CC6B2082EE6DB15B9E8
:10339000FFF780FF01E0FFF759FF204670BD0000F6
:1033A000000C01409C8121420080214298812142F1
:1033B0001C81214210B5FFF7A9FE10BD70B504466F
:1033C00000250026C4F30746FFF7D4FE1EB9A0204F
:1033D000FFF784FF02E0A220FFF780FFFFF70DFF59
:1033E000C4F30720FFF77AFFFFF707FFE0B2FFF70C
:1033F00075FFFFF702FFFFF7BDFEA120FFF76EFF8D
:10340000FFF7FBFE0020FFF799FF0546FFF7D4FE0C
:10341000284670BD70B504460D460026C4F3074625
:10342000FFF7A8FE1EB9A020FFF758FF02E0A22078
:10343000FFF754FFFFF7E1FEC4F30720FFF74EFF4D
:10344000FFF7DBFEE0B2FFF749FFFFF7D6FE2846A5
:10345000FFF744FFFFF7D1FEFFF7AEFE0A2001F0B1
:103460004EFF70BD2DE9F04105460E46174600247B
:1034700008E0E20026FA02F2D1B22819FFF7CAFFEB
:10348000601CC4B2BC42F4DBBDE8F08170B50546F7
:10349000691E01EB8101642202EB4100FFF78EFF00
:1034A0000446FF2C01D0012000E000200CB10121D6
:1034B00000E00021084201D0012070BD691E01EB2F
:1034C000810140F6C41202EB4100FFF777FF04468A
:1034D000FF2C01D0012000E000200CB1012100E010
:1034E0000021084201D00120E7E70020E5E710B500
:1034F000002408E0C4EB042101F16400FF2211461E
:10350000FFF7B0FF641C112CF4DD10BD2DE9F04174
:1035100007460C460026002508E036023919491BEB
:10352000481EFFF74BFF0644681CC5B2A542F4DBFA
:103530003046BDE8F08110B543F6FF70FFF73EFF5F
:103540000446552C01D1002010BD552143F6FF70D3
:10355000FFF760FF43F6FF70FFF730FF0446552C7E
:1035600001D10020F0E70120EEE770B506460C46D9
:10357000154607E03046761CFFF720FF04F8010BE4
:10358000681E85B2002DF5D170BD70B505460C469C
:10359000164605E021782846FFF73CFF6D1C641CA9
:1035A0003000A6F101018EB2F4D170BD10B501203A
:1035B00001F0C6FB002001F0C3FB10BD2A490860E2
:1035C00070472949091F08607047274984310860FE
:1035D000704701460020254A10884FF67F42104070
:1035E0000843224A10807047014600201F4A108875
:1035F0004FF68072104008431C4A1080704708B58F
:1036000000220092194A2C3A0092009A0244009239
:10361000009A116008BD08B50146002000901348CB
:103620002C3800900098084400900098008808BD4D
:103630000D489C300068C0B270470C4808300088C4
:1036400040F0010009490831088070470648A03061
:103650000068C0B2704705480830008840F002009A
:10366000024908310880704704860D422C6C0040E6
:1036700010B50446CA48844208D10121042001F053
:1036800045FB0021042001F041FB46E0C54884428F
:1036900008D10121082001F039FB0021082001F0A8
:1036A00035FB3AE0C048844208D10121102001F0E6
:1036B0002DFB0021102001F029FB2EE0BB488442A5
:1036C00008D10121202001F021FB0021202001F060
:1036D0001DFB22E0B648844208D10121402001F0C0
:1036E00015FB0021402001F011FB16E0B148844297
:1036F00008D10121802001F009FB0021802001F088
:1037000005FB0AE0AC48844207D10121801501F095
:10371000FDFA0021A01501F0F9FA10BD10B5012144
:10372000084601F0F3FA0021012001F0EFFA10BD84
:103730002DE9F04102460025002600200023002448
:10374000002791F803C00CF00F0591F803C01CF09E
:10375000100F03D091F802C04CEA050591F800C0A3
:10376000BCF1000F31D0146800202BE04FF0010CA9
:103770000CFA00F3B1F800C00CEA03069E4220D117
:1037800083004FF00F0C0CFA03F7BC4305FA03FC5F
:103790004CEA040491F803C0BCF1280F06D14FF0A5
:1037A000010C0CFA00FCC2F814C00AE091F803C046
:1037B000BCF1480F05D14FF0010C0CFA00FCC2F827
:1037C00010C0401C0828D1D31460B1F800C0BCF16F
:1037D000FF0F34DD546800202EE000F1080C4FF09C
:1037E000010808FA0CF3B1F800C00CEA03069E4287
:1037F00021D183004FF00F0C0CFA03F7BC4305FAFC
:1038000003FC4CEA040491F803C0BCF1280F05D175
:1038100000F1080C08FA0CF8C2F8148091F803C003
:10382000BCF1480F07D100F1080C4FF0010808FA6D
:103830000CF8C2F81080401C0828CED35460BDE8B4
:10384000F0814FF6FF710180022181700421C17067
:1038500070470246002093680B4201D0012000E02F
:10386000002070470146886880B2704702460020F9
:10387000D3680B4201D0012000E0002070470146D0
:10388000C86880B2704701617047416170470AB1F2
:10389000016100E041617047C16070474FF48032C0
:1038A0000A4382618161826182698269704702464E
:1038B0000020424B18684FF68073184040EA02100F
:1038C00008433E4B186070473D49C8617047F0B5EA
:1038D0000A46002300240021002500F00046B6F12E
:1038E000004F02D1354EF16901E0344E7168C0F3EA
:1038F000034583B200F44016B6F5401F08D121F00D
:1039000070612E4E766826F070662C4F7E6012E055
:1039100000F48016B6F5801F06D1032606FA05F4DA
:10392000A14341F0706106E0460D360103FA06F648
:10393000B14341F0706122B1460D360103FA06F63B
:10394000314300F00046B6F1004F02D11B4EF16149
:1039500001E01A4E7160F0BD30B500228B071C0FDC
:103960000F2303FA04F2154B08338C1053F824305C
:103970009343124C08348D1044F8253023468C10A4
:1039800053F824308C07240F00FA04F423430B4C23
:1039900008348D1044F8253030BD0A49086070475E
:1039A00000080140000C01400010014000140140DB
:1039B00000180140001C01400020014000000140AF
:1039C00000002042DC00204229B14F4A1288024305
:1039D0004D4B1A8004E04C4A128882434A4B1A80AD
:1039E00070474948001D008840F010004649091DF5
:1039F000088070474448001D00884FF6EF7108406A
:103A00004149091D0880704700213F481C3001884A
:103A1000001F008841EA0040704700B50246FFF7EA
:103A2000E0FF100C384918310880091D0A80FFF7A3
:103A3000E1FF00BD00B50246FFF7D3FFC2F303402C
:103A4000314908310880091D0A80FFF7D3FF00BD06
:103A500000B50246FFF7C5FF100C2B492031088046
:103A6000091D0A80FFF7C6FF00BD0020264910315E
:103A700009880907080B244914310988084370474D
:103A800000BF2148001D008810F0200FF9D07047BA
:103A90001D48001D00884FF6F77108401A49091D9E
:103AA000088000BF1848001D008810F0080FF9D0EA
:103AB000704701460020144A121D12880A4201D0A4
:103AC000012000E0002070470F49091D098881434B
:103AD0000D4A121D11807047014600200A4A121D2E
:103AE00012880A40D0B2084A12880A4202D008B1AD
:103AF000012000E0002070470349091D0988814327
:103B0000014A121D118070470028004010B504467C
:103B1000FE48844208D10121C01401F0F7F80021C9
:103B2000E01401F0F3F8C4E0B4F1804F08D10121B2
:103B3000084601F0F8F80021012001F0F4F8B8E09F
:103B4000F348844208D10121022001F0ECF8002161
:103B5000022001F0E8F8ACE0EE48844208D10121EF
:103B6000042001F0E0F80021042001F0DCF8A0E0DE
:103B7000E948844208D10121082001F0D4F800214D
:103B8000082001F0D0F894E0E448844208D10121F3
:103B9000102001F0C8F80021102001F0C4F888E0DE
:103BA000DF48844208D10121202001F0BCF8002127
:103BB000202001F0B8F87CE0DA48844208D10121E5
:103BC000401401F0A3F80021601401F09FF870E0A8
:103BD000D548844209D10121C80401F097F8002199
:103BE0004FF4002001F092F863E0D048844209D1FC
:103BF0000121080501F08AF800214FF4801001F03E
:103C000085F856E0CA48844209D10121480501F0EF
:103C10007DF800214FF4001001F078F849E0C54824
:103C2000844208D10121402001F07DF8002140208C
:103C300001F079F83DE0C048844208D1012180209C
:103C400001F071F80021802001F06DF831E0BB48EF
:103C5000844208D10121801501F065F80021A015EA
:103C600001F061F825E0B648844209D10121080439
:103C700001F04CF800214FF4803001F047F818E0D3
:103C8000B048844209D10121480401F03FF80021E5
:103C90004FF4003001F03AF80BE0AB48844208D111
:103CA0000121880401F032F800214FF4802001F056
:103CB0002DF810BD00220288944B98420ED0994BEB
:103CC00098420BD0B0F1804F08D0914B984205D06C
:103CD000904B984202D0904B984204D14FF68F738C
:103CE0001A404B881A438D4B984207D08C4B984210
:103CF00004D04FF6FF431A40CB881A4302808B88CA
:103D000083850B880385814B98420BD0854B984265
:103D100008D08B4B984205D08A4B984202D08A4BF0
:103D2000984201D10B7A038601238382704770B5D4
:103D3000002400220023058C4FF6FE7635400584D2
:103D4000028C8388048B4FF68F752C40B51E2C4057
:103D50000D882C43751E2A400D892A434D882A431D
:103D60006A4DA8420BD06F4DA84208D0744DA842AE
:103D700005D0744DA84202D0734DA84213D14FF61E
:103D8000F7752A404D892A434FF6FB752A408D88E6
:103D90002A434FF6FF652B404FF6FF552B408D8988
:103DA0002B43CD892B4383800483CD888586028471
:103DB00070BD70B5002400220023058C4FF6EF760D
:103DC00035400584028C8388048B48F6FF752C40AF
:103DD0004FF6FF452C400D884FF6FF7606EA052585
:103DE0002C434FF6DF752A400D8906EA05152A4354
:103DF0004D8806EA05152A43444DA84202D0494D94
:103E0000A8421DD14FF67F752A404D894FF6FF76A7
:103E100006EA05152A434FF6BF752A408D8806EA43
:103E200005152A434FF6FF352B404FF2FF752B4007
:103E30008D8906EA85052B43CD8906EA85052B4346
:103E400083800483CD880587028470BD70B500240B
:103E500000220023058C4FF6FF6635400584028C56
:103E60008388848B4FF68F752C404FF6FC752C4061
:103E70000D882C434FF6FF552A400D894FF6FF76EB
:103E800006EA05252A434D8806EA05252A431F4DE3
:103E9000A84202D0234DA8421DD14FF2FF752A40FF
:103EA0004D894FF6FF7606EA05252A434FF6FF3582
:103EB0002A408D8806EA05252A434EF6FF752B40D9
:103EC0004DF6FF752B408D8906EA05152B43CD89EC
:103ED00006EA05152B4383808483CD888587028479
:103EE00070BD70B5002200230024058C4EF6FF76CD
:103EF00035400584038C8488828B48F6FF752A4000
:103F00004FF6FF452A400D8820E00000002C0140BC
:103F10000004004000080040000C00400010004079
:103F20000014004000340140004C014000500140AA
:103F30000054014000180040001C004000200040D8
:103F40000040014000440140004801404FF6FF7628
:103F500006EA05252A434DF6FF752B400D8906EA32
:103F600005352B434D8806EA05352B43FA4DA8420B
:103F700002D0FA4DA84208D14BF6FF752C408D892E
:103F80004FF6FF7606EA85152C4384808283CD8820
:103F9000A0F84050038470BD828B4FF2FF331A406B
:103FA0008283828B4FF6FF7303EA01231A438283D5
:103FB0007047F0B50C461546002200210026078CFC
:103FC0004EF6FF7C07EA0C070784828B018C4FF6C4
:103FD000FF7707EA043640F6FF473A404FF6FF778F
:103FE00007EA05273A434FF6FF7707EA03373A43D4
:103FF000D94FB8420ED0D94FB8420BD0B0F1804F54
:1040000008D0D74FB84205D0D64FB84202D0D64FCD
:10401000B84206D14DF6FF77394046F48057394310
:1040200005E047F6FF57394044F48057394382830F
:104030000184F0BD828B4FF6F3731A408283828B2A
:104040000A4382837047F0B50C46154600220021D2
:104050000026078C4FF6FF6C07EA0C070784828B5B
:10406000018C4FF6FF7707EA04264FF60C773A40AB
:104070004FF6FF7707EA03172F433A43B64FB8428C
:104080000ED0B64FB8420BD0B0F1804F08D0B44F2D
:10409000B84205D0B34FB84202D0B34FB84206D1B0
:1040A0004FF6FF57394046F48077394305E04FF229
:1040B000FF57394044F48077394382830184F0BD4F
:1040C000028B4FF2FF331A400283028B4FF6FF73CD
:1040D00003EA01231A4302837047F0B50C461546E4
:1040E000002200210026078C4FF6EF7C07EA0C0720
:1040F0000784028B018C4FF6FF7707EA041640F61F
:10410000FF473A404FF6FF7707EA03373A434FF647
:10411000FF7707EA05273A438F4FB8420ED08F4FFB
:10412000B8420BD0B0F1804F08D08D4FB84205D0C7
:104130008C4FB84202D08C4FB84206D14FF6DF7791
:10414000394046F01007394305E04FF65F773940B4
:1041500044F01007394302830184F0BD028B4FF60F
:10416000F3731A400283028B0A4302837047F0B54F
:104170000C46154600220021068C4FF6FE773E4085
:104180000684028B018C4FF60C7632407E1C06EAC8
:1041900003162E433243704EB0420ED06F4EB042E3
:1041A0000BD0B0F1804F08D06D4EB04205D06D4EAF
:1041B000B04202D06C4EB04206D14FF6FD7631408F
:1041C00044F00106314305E04FF6F576314044F006
:1041D0000106314302830184F0BD70B505460C46EB
:1041E0005D4885420ED05D4885420BD0B5F1804FC9
:1041F00008D05B48854205D05A48854202D05A48CB
:10420000854200D100E000BF208850B92389A288F0
:1042100061882846FFF7ABFFE1882846FFF79EFF3D
:1042200025E0208804280AD12389A28861882846AD
:10423000FFF753FFE1882846FFF742FF17E0208889
:1042400008280AD12389A28861882846FFF7FBFE47
:10425000E1882846FFF7EEFE09E02389A2886188FD
:104260002846FFF7A6FEE1882846FFF795FE70BDB9
:104270002DE9F04105460C4600260127608808B963
:10428000022600E00026A088012801D1022700E0D4
:1042900001272088A0B92389A28861882846FFF7D2
:1042A00066FFE1882846FFF759FF23893A463146E1
:1042B0002846FFF712FFE1882846FFF701FF13E0C9
:1042C0002389A28861882846FFF707FFE1882846EE
:1042D000FFF7F6FE23893A4631462846FFF747FFA7
:1042E000E1882846FFF73AFFBDE8F0810A884B884D
:1042F0001A438B881A43CB881A430B891A434B897C
:104300001A438B891A43A0F8442070474FF6FF7177
:10431000818000210180C1804180017270470021AD
:10432000018041808180C180018141818181C18181
:104330007047002101804180012181800021C180DE
:10434000018170470021018041808180C18001810D
:104350004181818170470000002C01400034014000
:104360000004004000080040000C004021B1028819
:1043700042F00102028004E002884FF6FE731A4008
:104380000280704731B1B0F8442042F40042A0F8F6
:10439000442005E0B0F84420C2F30E02A0F8442007
:1043A00070471AB183890B43838102E083898B4371
:1043B000838170478182704741EA0203A0F8483048
:1043C00070471AB183890B43838102E083898B4351
:1043D0008381704701894FF6F8721140018170475F
:1043E0000A46002101894FF68F731940114301815C
:1043F000704730B504460D4629462046FFF7F0FFCA
:10440000208940F00700208130BD2DE9F0410446AD
:104410000D4616461F46602D06D13B460122314609
:104420002046FFF75AFE05E03B4601223146204672
:10443000FFF79DFE29462046FFF7D2FF208940F076
:1044400007002081BDE8F08130B50C4600210189CC
:10445000C9B24FF6FF7505EA0325154325432943E5
:10446000018130BD2DE9F04105460E4617469846BC
:10447000002443463A4631462846FFF7E5FF2C899B
:104480004FF6F870044044F007044FF68F70044074
:1044900044F070042C81BDE8F081F0B504460D466F
:1044A00016461F463B46324629462046FFF7CCFFBC
:1044B000208940F480402081F0BD018582827047D0
:1044C0000A46002101884FF68F731940114301807D
:1044D0007047F0B50C4615461E4600210022002309
:1044E0000189028B038C4FF6F877394021434FF650
:1044F000FC473A4040F201173A434FF6DD773B4024
:104500004FF6FF7707EA06172F433B4301810283EB
:104510000384F0BD0A460021018B4FF68F731940CA
:104520001143018370470A460021018B48F6FF734F
:1045300019404FF6FF7303EA0223194301837047C2
:104540000A460021818B4FF68F73194011438183F6
:1045500070470A460021818B48F6FF7319404FF6D9
:10456000FF7303EA022319438183704721B1028854
:1045700042F08002028004E002884FF67F731A4006
:104580000280704721B1828842F00402828004E0F8
:1045900082884FF6FB731A408280704721B182886F
:1045A00042F00802828004E082884FF6F7731A40D6
:1045B0008280704721B1828842F00102828004E04B
:1045C00082884FF6FE731A40828070470A460021A7
:1045D000018B4FF6F77319401143018370470A4668
:1045E0000021018B4FF2FF7319404FF6FF7303EA6E
:1045F00002231943018370470A460021818B4FF63D
:10460000F77319401143818370470A460021818B5B
:104610004FF2FF7319404FF6FF7303EA0223194369
:10462000818370470A460021018B4FF6FB731940C6
:104630001143018370470A460021018B4FF6FF3377
:1046400019404FF6FF7303EA0223194301837047B1
:104650000A460021818B4FF6FB7319401143818379
:1046600070470A460021818B4FF6FF3319404FF601
:10467000FF7303EA02231943818370470A4600212E
:10468000018B4FF67F7319401143018370470A462F
:104690000021018BC1F30E014FF6FF7303EA0223E1
:1046A0001943018370470A460021818B4FF67F73BF
:1046B00019401143818370470A460021818BC1F361
:1046C0000E014FF6FF7303EA0223194381837047FB
:1046D0000A460021018C4FF6FD73194011430184F5
:1046E00070470A460021018C4FF6F77319401143B9
:1046F000018470470A460021018C4FF6DF73194090
:104700004FF6FF7303EA02131943018470470A4608
:104710000021018C4FF67F7319404FF6FF7303EAB7
:1047200002131943018470470A460021018C4FF699
:10473000FF5319404FF6FF7303EA02231943018424
:1047400070470A460021018C4FF2FF7319404FF663
:10475000FF7303EA02231943018470470A460021CC
:10476000018C4DF6FF7319404FF6FF7303EA0233D5
:1047700019430184704730B5002301248C40A3B253
:10478000048C9C430484048C02FA01F5ADB22C43E2
:10479000048430BD30B5002304248C40A3B2048CC3
:1047A0009C430484048C02FA01F5ADB22C430484CA
:1047B00030BD70B50346002000241846183001258E
:1047C0008D40ACB21D8CA5431D8409B1082909D1C7
:1047D00000EB6100056825F070050560056815436C
:1047E00005600EE00D1FC5F34E052844056825F44D
:1047F000E045056005684FF6FF7606EA0226354378
:10480000056070BD21B1028842F00202028004E01E
:1048100002884FF6FD731A400280704721B102886A
:1048200042F00402028004E002884FF6FB731A4053
:104830000280704721B1828842F08002828004E0C9
:1048400082884FF67F731A408280704702884FF645
:10485000F7731A40028002880A43028070478288F8
:104860004FF68F731A40828082880A438280704795
:1048700002894FF6F8731A40028102890A430281C5
:10488000704702894FF67F731A40028102890A43FA
:1048900002817047818470478185704781867047A7
:1048A0000187704781877047A0F8401070470288E1
:1048B0004FF6FF431A40028002880A430280704785
:1048C0000146888E70470146088F70470146888FE1
:1048D00070470146B1F8400070470146888C704728
:1048E0000146088D704702460020138A0B4201D012
:1048F000012000E000207047CA430282704730B5B3
:104900000246002000230024158A05EA0103958948
:1049100005EA010413B10CB1012000E0002030BD14
:10492000CA4302827047000031490143314A116095
:10493000704770B5002100230F22C4780CB32D4CB2
:10494000246804F4E064C4F5E064210AC1F10403BE
:10495000CA40447804FA03F18478144021430901E1
:10496000254C0678A155047804F01F050124AC40BD
:1049700005786D114FF0E02606EB8505C5F800417E
:1049800009E0047804F01F050124AC401B4D0678B3
:10499000761145F8264070BD194A0A400243154B6E
:1049A0001B1F1A60704739B1124A121D1268024368
:1049B000104B1B1D1A6006E00E4A121D126882433E
:1049C0000C4B1B1D1A607047042808D14FF0E021E2
:1049D000096941F004014FF0E022116107E04FF056
:1049E000E021096921F004014FF0E02211617047D4
:1049F0000000FA050CED00E000E400E080E100E0DA
:104A000080FFFF1FDD48006840F00100DB490860BF
:104A100008464068DA490840D849486008460068B6
:104A2000D8490840D54908600846006820F480202D
:104A300008600846406820F4FE0048604FF41F00FC
:104A400088607047CD49096821F48031CB4A1160F4
:104A50001146096821F480211160B0F5803F03D030
:104A6000B0F5802F0ED106E0C449096841F48031C9
:104A7000C24A116007E0C149096841F4A021BF4A58
:104A8000116000E000BF00BF704710B50146002272
:104A9000002300204A11012A02D1B84C236806E005
:104AA000022A02D1B54C236A01E0B44C636A01F0DA
:104AB0001F02012494401C4201D0012000E000208C
:104AC00010BD38B5002000900024002500BF312023
:104AD000FFF7DBFF05460098401C00900098B0F5FA
:104AE000A06F01D0002DF2D03120FFF7CEFF08B12A
:104AF000012400E00024204638BD014600209F4AE2
:104B0000106820F0F80040EAC100106070479E492C
:104B10000860704702460020984B586820F47C10CB
:104B200042EA01031843954B58607047964908665E
:104B3000704701460020914A506820F00300084366
:104B4000506070478D48406800F00C007047014687
:104B500000208A4A506820F0F000084350607047F7
:104B600001460020854A506820F4E0600843506008
:104B7000704701460020814A506820F4605040EAA6
:104B8000C1005060704729B17C4A527A02437B4B86
:104B90005A7204E0794A527A8243784B5A727047CB
:104BA0007A490860704701460020744A506820F432
:104BB00040400843506070470021754A11706F4AA9
:104BC00082F82010012802D0042808D103E0012136
:104BD0006F4A117004E005216D4A117000E000BFBA
:104BE00000BF70476B49086070476449096A014318
:104BF000624A11627047674944390860704730B5AE
:104C000000210022002400235C4D6D6805F00C019A
:104C100021B1042905D0082923D105E05E4D0560A6
:104C200022E05D4D05601FE0544D6D6805F4701283
:104C3000524D6D6805F48034022505EB92421CB993
:104C4000564D554305600BE04C4D6D6815F4003F23
:104C500003D0524D5543056002E04F4D554305606A
:104C600002E04D4D056000BF00BF444D6D6805F08A
:104C7000F00109094A4D6B5C0568DD4045603F4D18
:104C80006D6805F4E061090A454D6B5C4568DD40DF
:104C900085603A4D6D6805F46051C90A404D6B5C02
:104CA0004568DD40C560354D6D6805F44041890BB0
:104CB0003C4D6B5CC568B5FBF3F5056130BD29B1B2
:104CC0002E4A526902432D4B5A6104E02B4A526925
:104CD00082432A4B5A61704729B1284A926902439C
:104CE000264B9A6104E0254A92698243234B9A61DC
:104CF000704729B1214AD2690243204BDA6104E0AE
:104D00001E4AD26982431D4BDA61704729B11B4AA2
:104D1000D2680243194BDA6004E0184AD268824331
:104D2000164BDA60704729B1144A12690243134BDB
:104D30001A6104E0114A12698243104B1A617047EC
:104D400014494039086070470F49C86470470B49DF
:104D5000C87170470948406A40F08070074948624E
:104D6000704701460020054A92680A4201D001209E
:104D700000E000207047014988727047001002402F
:104D80000000FFF8FFFFF6FE00004242D80042425A
:104D9000201002408004424200127A0000093D00C7
:104DA0007F0000208F00002010B501210807FFF7C9
:104DB000BAFF00214FF08050FFF7B5FF10BD294921
:104DC0000862704727490861704701460020264A5B
:104DD000106820F0E0000843106070472349086025
:104DE000704710B5024600201F4B186820F00300E2
:104DF000104318601E4B1B6843F004031C4C2360D7
:104E0000012901D130BF00E020BF194B1B6823F0FE
:104E10000403174C236010BD1348006840F00400E1
:104E2000114908600846006840F002000860104818
:104E3000006840F004000E49086000BF00BF30BFAA
:104E4000704701460020084A52680A4201D00120FA
:104E500000E0002070470449096841EA8001024AE5
:104E60001160704700000E4200700040A0000E422A
:104E700010ED00E010B50446FB48844209D1012141
:104E80008803FFF743FF00214FF48040FFF73EFF08
:104E900032E0F648844209D101214804FFF743FF7C
:104EA00000214FF40030FFF73EFF25E0F048844238
:104EB00009D101218804FFF736FF00214FF480203B
:104EC000FFF731FF18E0EB48844209D10121C80403
:104ED000FFF729FF00214FF40020FFF724FF0BE02C
:104EE000E548844208D101210805FFF71CFF002195
:104EF0004FF48010FFF717FF10BD2DE9F04786B083
:104F000005460E460024A24600BFA1460027B089F0
:104F100000B100BF2F462C8A4CF6FF700440F08889
:104F200004432C82AC894EF6F3100440B0883189DA
:104F30000843718908430443AC81AC8A4FF6FF40B3
:104F40000440B0890443AC8201A8FFF758FEC6486C
:104F5000874202D1DDF810A001E0DDF80CA0A8899D
:104F600010F4004F08D00AEBCA0000EB0A103168B9
:104F70004900B0FBF1F807E00AEBCA0000EB0A10A9
:104F800031688900B0FBF1F86420B8FBF0F004014F
:104F90002009642101FB1089A88910F4004F08D072
:104FA000322000EBC900B0FBF1F000F00700044331
:104FB00008E0322000EB09106421B0FBF1F000F0B2
:104FC0000F0004432C8106B0BDE8F0874FF4165162
:104FD000016000218180C18001810C21418100217B
:104FE0008181704710B502460020108A4FF2FF03FE
:104FF00018400B884C8823438C882343CC88234358
:105000001843108210BD0021018041808180C18041
:10501000704721B1828942F40052828104E0828982
:105020004DF6FF731A4082817047F0B503460024A5
:10503000002600250020A1F510676A3F00D100BFBF
:105040001846C1F3421401F01F06012707FA06F5BE
:10505000012C01D10C3004E0022C01D1103000E011
:1050600014301AB107682F43076002E00768AF43A6
:105070000760F0BD1AB1838A0B43838202E0838A02
:105080008B4383827047028A4FF6F0731A40028284
:10509000028A0A430282704782894FF2FF731A40E4
:1050A000828182890A438281704721B1828942F0DC
:1050B0000202828104E082894FF6FD731A408281E8
:1050C0007047028A4FF6DF731A400282028A0A434F
:1050D0000282704721B1028A42F48042028204E0D7
:1050E000028A4BF6FF731A4002827047C1F308022E
:1050F0008280704701468888C0F308007047818924
:1051000041F0010181817047028BD2B20283028B90
:1051100042EA012202837047028B02F47F4202833B
:10512000028B0A430283704721B1828A42F0200237
:10513000828204E0828A4FF6DF731A4082827047CF
:1051400021B1828A42F01002828204E0828A4FF604
:10515000EF731A408282704721B1828A42F00802BE
:10516000828204E0828A4FF6F7731A408282704787
:1051700021B1828942F40042828103E08289C2F334
:105180000E028281704721B1828A42F400628282DB
:1051900004E0828A4FF2FF731A4082827047828A4B
:1051A0004FF6FB731A408282828A0A4382827047DA
:1051B00021B1828A42F00202828204E0828A4FF6A2
:1051C000FD731A408282704702460020B1F5007FCD
:1051D00000D100BF13880B4201D0012000E0002065
:1051E000704701F40072B2F5007F00D100BFCA43DE
:1051F0000280704770B5024600240023002500207D
:10520000A1F510666A3E00D100BFC1F3421501F05E
:105210001F03012606FA03F3012D02D196893340BC
:1052200006E0022D02D1168A334001E0968A33400F
:105230000C12012606FA04F41688344013B10CB19E
:10524000012000E0002070BD10B500220023A1F570
:1052500010646A3C00D100BF0A1201249440A3B23A
:10526000DC43048010BD00000038014000440040D1
:1052700000480040004C00400050004070B586B02F
:105280000646002501A8FFF7BAFC37490198B0FB94
:10529000F1F57543002400E0641CAC42FCD306B079
:1052A00070BD30B585B06846FFF7A9FC4FF47A723F
:1052B0000198B0FBF2F1B1F1807F00D31DE021F045
:1052C0007F40401E4FF0E022506150170F2200280F
:1052D00007DA13071D0E254B00F00F04241F1D5580
:1052E00003E013071C0E224B1C5400BF00204FF09C
:1052F000E02290610720106100BF05B030BD1D495C
:10530000086000BF1B4909680029FBD17047194993
:10531000486070471748406808B90120704700206E
:10532000FCE71449886070471248806808B901207A
:1053300070470020FCE70F48006820B10D48006866
:10534000401E0C4908600B48406820B1094840687D
:10535000401E084948600748806820B105488068B9
:10536000401E04498860704700093D0018ED00E0C8
:1053700000E400E0C4120020014600BF704700BFF7
:105380004A4A128812F0400FFAD0C2B2474B1B1D96
:105390001A80704710B586B00446012144F204001B
:1053A000FFF79AFC4148FFF765FD4FF40070ADF838
:1053B000140003208DF8160018208DF8170005A999
:1053C0003B48FEF7B5F94FF48060ADF814000420B7
:1053D0008DF8170005A93648FEF7AAF925208DF8A3
:1053E000000003208DF801008DF8020001208DF8E7
:1053F00003006846FFF79DFA01940020ADF808000D
:10540000ADF80A00ADF80C00ADF810000C20ADF8B6
:105410000E0001A92548FFF770FD012240F2255139
:105420002248FFF702FE01212048FFF7F2FD06B0F7
:1054300010BD10B540F225511C48FFF7DBFE10B33C
:105440001A48FFF757FEC4B21A48008810F4004FFC
:105450002BD11848008810F4804F0CD00A2C03D0B0
:1054600000201449088020E01248008840F40040E1
:105470001049088019E00D2C06D10E48008840F430
:1054800080400C49088010E00A480088C0F30D00F5
:1054900009490C5407480088401C06490880084602
:1054A0000088C72801DD0020088010BD00380140B9
:1054B0000008014094000020D01200200CB500200C
:1054C000019000906B48006840F4803069490860A2
:1054D00000BF6848006800F4003000900198401C4C
:1054E0000190009818B90198B0F5A06FF1D161480A
:1054F000006810F4003F02D00120009001E000207D
:1055000000900098012842D15B48006840F01000EC
:10551000594908600846006820F003000860084602
:10552000006840F0020008605248406851494860F5
:105530000846406848600846406840F4806048601B
:105540000846406820F47C1048600846406840F4F3
:10555000E81048600846006840F08070086000BFAE
:105560004448006810F0007FFAD04248406820F0BC
:105570000300404948600846406840F00200486027
:1055800000BF3C48406800F00C000828F9D10CBD71
:1055900010B5FFF793FF10BD10B53648006840F016
:1055A00001003449086008464068344908403149E0
:1055B000486008460068324908402E49086008469D
:1055C000006820F4802008600846406820F4FE004F
:1055D00048604FF41F008860FFF7DAFF4FF000606B
:1055E0002849086010BD10B5002100200022214B81
:1055F0005B6803F00C0121B1042906D0082928D1E9
:1056000007E0214B214C236027E01F4B1F4C2360F8
:1056100023E0184B5B6803F47010164B5B6803F4CF
:105620008032022303EB904022B9194B4343174CBD
:1056300023600DE00F4B5B6813F4003F04D0144B64
:105640004343124C236003E00F4B43430F4C236052
:1056500003E00D4B0D4C236000BF00BF054B5B68A2
:10566000C3F303130B4CE15C084B1B68CB40074CA6
:10567000236010BD00100240002002400000FFF82F
:10568000FFFFF6FE08ED00E000127A009C0000200B
:1056900000093D00A0000020094880470948004754
:1056A000FEE7FEE7FEE7FEE7FEE7FEE7FEE7FEE7D2
:1056B000FEE7FEE704480549054A064B704700002F
:1056C00099550008ED000008F8130020F819002093
:1056D000F8150020F8150020704700000FB40449A9
:1056E00010B503AA029800F0DDF910BC5DF814FBB8
:1056F000980000200FB41CB5074B06AA7B446946EE
:105700000090059800F0B5F90020694600F0C4F952
:105710001CBC5DF814FB00009903000070B5044642
:1057200085690068C10601D5302600E02026C00743
:1057300008D070BDD4E9012130469047206A00F1BD
:10574000010020626D1EF5D570BD70B504468569F7
:105750000078C00708D170BDD4E90121202090470E
:10576000206A00F1010020626D1EF5D570BD0000B9
:105770002DE9F0410646002410687529314616A52A
:1057800011D0AFF30080002803DAC0F1000013A5A8
:1057900007E031688A0701D511A502E0490704D561
:1057A00010A5012401E0AFF3008000210A2306F1D7
:1057B000240707E0B0FBF3F203FB1200303078540B
:1057C0001046491C0028F5D123462A463046BDE83C
:1057D000F04100F0ECB80000000000002D000000D7
:1057E0002B000000200000002DE9F05F89460446F0
:1057F0004FF0000ADFF828B1FB44C0F820A0204693
:10580000E168884700287CD0252806D0D4E901210A
:105810009047206A401C2062F1E700255F46204641
:10582000E16888472028064608DB312E06D207EBC0
:10583000060010F8200C08B10543F0E7A80701D5D1
:1058400025F00405C4F81CA00027C4F818A02A2ECF
:1058500009D0304600F092F938B304EB8708303EA7
:10586000C8F8186019E059F8041B204604EB8702B9
:105870009161E1688847012F064618D1E069002848
:1058800020DA25F020051DE0D8F8180000EB800094
:1058900006EB40003038C8F818002046E168884719
:1058A000064600F06BF90028EED1012F0AD02E2E0B
:1058B00008D12046E16888477F1C0646022F45F044
:1058C0002005C4DBA069002803DA404245F0010549
:1058D000A061E80701D025F0100596B1A6F14100BE
:1058E000192802D8203645F400654A46314620463C
:1058F00025604D46FAF734FC60B1012807D0ED1D54
:1059000000E009E025F0070000F1080977E705F15C
:10591000040974E7304679E7206ABDE8F09F00008B
:105920007E11000010B5431C02E010F8011B71B19C
:105930008107FAD14FF0013202C88C1A8C4314EA65
:10594000C211F9D0C01A0A0603D0C01E10BDC01A79
:1059500010BD0A0401D0801E10BD0902FCD0401EFB
:1059600010BD4FF000020429C0F0128010F0030CAB
:1059700000F0AC80CCF1040CBCF1020F18BF00F8B1
:10598000012BA8BF20F8022BA1EB0C0100F09EB860
:105990005FEAC17C24BF00F8012B00F8012B48BF4F
:1059A00000F8012B704770477047704770472DE92A
:1059B000F0470D4699469246044600F124080168D6
:1059C000880604D5E06921F01001216000E0012083
:1059D000A84202DDA0EB050700E00027A16907EB64
:1059E000050202EB0900A1EB0000A0612078C006CF
:1059F00002D42046FFF792FE002608E0D4E90121F8
:105A00001AF806009047206A401C761C20624E451A
:105A1000F4DB2078C0060AD52046FFF77FFE06E0BB
:105A2000D4E9012130209047206A401C2062381EB2
:105A3000A7F10107F4DC07E0D4E9012118F805001B
:105A40009047206A401C2062281EA5F10105F3DC66
:105A50002046FFF77AFE2078000602D50220BDE836
:105A6000F0870120FBE7000001694A1C0261087809
:105A7000704700B58FB0CDE901310021059105498E
:105A80007944CDE9031011466846FFF7ADFE0FB02B
:105A900000BD0000E5FFFFFF0A6802F8010B0A6085
:105AA00070470000074B70B50D467B44FFF7E1FFE0
:105AB0000446284600F02FF810B14FF0FF3070BDBB
:105AC000204670BDD1F8FFFF4FF0000200B513462D
:105AD00094469646203922BFA0E80C50A0E80C500E
