:020000040800F2
:10000000801E0020CD8800086515000867150008CF
:100010006B1500086F15000873150008000000003C
:10002000000000000000000000000000771500083C
:1000300079150008000000007B1500087D150008F8
:10004000E7880008E7880008E7880008E7880008D4
:10005000E7880008E7880008E7880008E7880008C4
:10006000E7880008E7880008E7880008E7880008B4
:10007000E7880008E7880008E7880008E7880008A4
:10008000E7880008E7880008E7880008E788000894
:10009000E7880008E7880008E7880008E788000884
:1000A000E7880008E7880008E7880008E788000874
:1000B00085150008E7880008E7880008E788000839
:1000C000E7880008E7880008E7880008E788000854
:1000D000E788000867860008E7880008E7880008C6
:1000E000E7880008E7880008E7880008E788000834
:1000F000E7880008E7880008E7880008E788000824
:10010000E7880008E7880008E7880008E788000813
:10011000E7880008E7880008E7880008E788000803
:10012000E7880008E7880008E7880008E7880008F3
:1001300000F002F800F068F80AA090E8000C824491
:100140008344AAF10107DA4501D100F05DF8AFF26E
:10015000090EBAE80F0013F0010F18BFFB1A43F0A5
:1001600001031847BCA70000DCA700000A444FF0B9
:10017000000C10F8013B13F0070408BF10F8014B06
:100180001D1108BF10F8015B641E05D010F8016B4B
:10019000641E01F8016BF9D113F0080F1EBF10F8AF
:1001A000014BAD1C0C1B09D16D1E58BF01F801CBD2
:1001B000FAD505E014F8016B01F8016B6D1EF9D555
:1001C0009142D6D37047000000230024002500266A
:1001D000103A28BF78C1FBD8520728BF30C148BFAA
:1001E0000B607047642908F0B383002070471FB587
:1001F00009F030F904000020002109F037F9401C13
:1002000060601FBD10B510BD09F0ECF81146FFF796
:10021000EEFF00F008F809F013F903B4FFF7F2FF5E
:1002200003BC08F0C3F90EB506E0684601F012F908
:100230009DE8070001F071F9F7E7000010B501F043
:1002400041F91E284CD2DFE800F04B0F2431414B1E
:10025000333437383235364B4B2D2E4B2F304B4BFA
:100260004B4B4B4B4B4B4B1B02F086FC01F0ECFC19
:100270004FF4FA6008F04BF91D2001F026F930E048
:1002800001F0E2FCC82008F042F9042001F01DF959
:1002900027E001201849087000201849087002F072
:1002A00006FB1EE000BF00BF00BF00BF00BF00BFD5
:1002B00000BF00BF00BF00BF00BF00200E49087094
:1002C00001200E49087002F0C5FA0AE001200A492F
:1002D00008700A49087002F0EAFA02F0BBFA00E07E
:1002E00000BF00BF4021002003F01EF90448008831
:1002F000401C0349088010BD0C0000200D000020A8
:100300000000002007B501F0DDF80199C9B288426C
:1003100000D00EBD0198C0B2801E122842D2DFE884
:1003200000F0094141412324274141282941410A44
:100330002241252637E01D481D49097808441DA1A2
:10034000097801701A480078401C19490870022089
:1003500001F08CFC16480078032803D10A2001F034
:10036000B4F820E01FE000BF00BF00BF00BF00BF27
:1003700000BF00BF0D480E49097808440DA1097857
:1003800001700B480078401C09490870022001F0F8
:100390006DFC07480078042803D10A2001F095F885
:1003A00001E000E000BF00BF00BFB2E73E17002041
:1003B000880200203000000007B501F083F80199A1
:1003C000C9B2884200D00EBD0198C0B2001F1028EB
:1003D00041D2DFE800F00840222326404027284091
:1003E00040092140242537E01D481E49097808446A
:1003F0001DA1097801701B480078401C194908703C
:10040000022001F033FC17480078032803D10A20AA
:1004100001F05BF820E01FE000BF00BF00BF00BF9D
:1004200000BF00BF00BF0E480E49097808440EA166
:10043000097801700B480078401C0A4908700220B6
:1004400001F014FC07480078042803D10A2001F0C9
:100450003CF801E000E000BF00BF00BFB3E70000D0
:100460003E170020880200203100000007B501F08F
:1004700029F80199C9B2884200D00EBD0198C0B2D6
:10048000801E122842D2DFE800F0094141412324B6
:10049000274141282941410A2241252637E01D48AC
:1004A0001D49097808441DA1097801701A4800788F
:1004B000401C19490870022001F0D8FB164800784A
:1004C000032803D10A2001F000F820E01FE000BF5C
:1004D00000BF00BF00BF00BF00BF00BF0D480E49F6
:1004E000097808440DA1097801700B480078401C78
:1004F00009490870022001F0B9FB07480078042878
:1005000003D10A2000F0E1FF01E000E000BF00BFDE
:1005100000BFB2E73E170020880200203200000032
:1005200007B500F0CFFF0199C9B2884200D00EBDD7
:100530000198C0B2801E122842D2DFE800F00941C3
:1005400041412324274141282941410A22412526AE
:1005500037E01D481D49097808441DA1097801703C
:100560001A480078401C19490870022001F07EFBEF
:1005700016480078032803D10A2000F0A6FF20E0E7
:100580001FE000BF00BF00BF00BF00BF00BF00BF33
:100590000D480E49097808440DA1097801700B48EF
:1005A0000078401C09490870022001F05FFB0748F1
:1005B0000078042803D10A2000F087FF01E000E062
:1005C00000BF00BF00BFB2E73E1700208802002036
:1005D0003300000007B500F075FF0199C9B28842E9
:1005E00000D00EBD0198C0B2801E122842D2DFE8B2
:1005F00000F0094141412324274141282941410A72
:100600002241252637E01D481D49097808441DA1CF
:10061000097801701A480078401C194908700220B6
:1006200001F024FB16480078032803D10A2000F0CB
:100630004CFF20E01FE000BF00BF00BF00BF00BFB5
:1006400000BF00BF0D480E49097808440DA1097884
:1006500001700B480078401C09490870022001F025
:1006600005FB07480078042803D10A2000F02DFF7D
:1006700001E000E000BF00BF00BFB2E73E1700206E
:10068000880200203400000007B500F01BFF01992C
:10069000C9B2884200D00EBD0198C0B2801E122897
:1006A0004ED2DFE800F0094D4D4D2F30334D4D3423
:1006B000354D4D162E4D3132052001F0D4FDC820A8
:1006C00007F025FF0120204908701D2000F0FDFEE5
:1006D00037E01E481E49097808441EA109780170B8
:1006E0001B480078401C1A490870022001F0BEFA2D
:1006F00017480078032803D10A2000F0E6FE20E026
:100700001FE000BF00BF00BF00BF00BF00BF00BFB1
:100710000E480F49097808440EA1097801700C4869
:100720000078401C0A490870022001F09FFA08482E
:100730000078042803D10A2000F0C7FE01E000E0A1
:1007400000BF00BF00BFA6E70C0000203E1700203E
:10075000880200203500000007B500F0B3FE0199C3
:10076000C9B2884200D00EBD0198C0B2801E1228C6
:1007700042D2DFE800F009414141232427414128CA
:100780002941410A2241252637E01D481D490978A3
:1007900008441DA1097801701A480078401C1949C5
:1007A0000870022001F062FA16480078032803D18D
:1007B0000A2000F08AFE20E01FE000BF00BF00BF5B
:1007C00000BF00BF00BF00BF0D480E4909780844B4
:1007D0000DA1097801700B480078401C0949087088
:1007E000022001F043FA07480078042803D10A20C8
:1007F00000F06BFE01E000E000BF00BF00BFB2E709
:100800003E170020880200203600000007B500F0E7
:1008100059FE0199C9B2884200D00EBD0198C0B2FC
:10082000801E122842D2DFE800F009414141232412
:10083000274141282941410A2241252637E01D4808
:100840001D49097808441DA1097801701A480078EB
:10085000401C19490870022001F008FA1648007877
:10086000032803D10A2000F030FE20E01FE000BF83
:1008700000BF00BF00BF00BF00BF00BF0D480E4952
:10088000097808440DA1097801700B480078401CD4
:1008900009490870022001F0E9F9074800780428A6
:1008A00003D10A2000F011FE01E000E000BF00BF0C
:1008B00000BFB2E73E17002088020020370000008A
:1008C00007B500F0FFFD0199C9B2884200D00EBD06
:1008D0000198C0B2801E122842D2DFE800F0094120
:1008E00041412324274141282941410A224125260B
:1008F00037E01D481D49097808441DA10978017099
:100900001A480078401C19490870022001F0AEF91D
:1009100016480078032803D10A2000F0D6FD20E015
:100920001FE000BF00BF00BF00BF00BF00BF00BF8F
:100930000D480E49097808440DA1097801700B484B
:100940000078401C09490870022001F08FF907481F
:100950000078042803D10A2000F0B7FD01E000E090
:1009600000BF00BF00BFB2E73E1700208802002092
:100970003800000007B500F0A5FD0199C9B2884212
:1009800000D00EBD0198C0B2801E122842D2DFE80E
:1009900000F0094141412324274141282941410ACE
:1009A0002241252637E01D481D49097808441DA12C
:1009B000097801701A480078401C19490870022013
:1009C00001F054F916480078032803D10A2000F0FA
:1009D0007CFD20E01FE000BF00BF00BF00BF00BFE4
:1009E00000BF00BF0D480E49097808440DA10978E1
:1009F00001700B480078401C09490870022001F082
:100A000035F907480078042803D10A2000F05DFD7D
:100A100001E000E000BF00BF00BFB2E73E170020CA
:100A20008802002039000000F7B5012700F04AFDD8
:100A30000199C9B2884200D0FEBD00F043FD0528EF
:100A40007ED103F001FC0546002D48D042480570D8
:100A5000284603F05DFC0446012C0ED1052001F070
:100A60001DFB00203D4908703D48002101604160A8
:100A70000181082000F029FD6BE0022C16D1032033
:100A800001F00CFB41F2883007F041FD00203549B0
:100A900008703221344808F083F900202F4908708B
:100AA00003F0BFFC1D2000F010FD52E0032C01D02C
:100AB000042C14D1062001F0F1FA41F2883007F03D
:100AC00026FD0020274908703221274808F068F9E0
:100AD0000020224908701D2000F0F7FC39E009E0F1
:100AE00001F06FFFC6B2304603F0D3FC07460FB9E2
:100AF00019480670002FF3D1174800781B49087079
:100B00001948407A48701848007B8870124800786D
:100B1000144908701448407A48701348807A8870E5
:100B20001148C07AC8701048007B0871022001F09B
:100B3000B5FA32210C4808F033F90020074900E0EB
:100B400006E008700A490870062000F0BEFC00E0CC
:100B500000BF00BF00BF6FE76D00002088020020CB
:100B60003E1700206F000020C816002077000020EC
:100B70000A00002007B500F0A5FC0199C9B288421F
:100B800000D00EBD0198C0B2801E122849D2DFE805
:100B900000F00948484828292A48482B2C48482D65
:100BA0002E480A193EE00020204908702048002104
:100BB0000160416001811D2000F087FC00201D497B
:100BC00008702FE0002019490870194800210160C1
:100BD00041600181122000F078FC01201549087065
:100BE00020E000BF00BF00BF00BF00BF00BF322138
:100BF000114808F0D5F800200C4908700F4908701A
:100C00000F480021016001710E48016041600E48EB
:100C1000018007480160416001811D2000F055FC02
:100C200000E000BF00BF00BFABE70000880200206B
:100C30003E1700200C000020C81600200A000020EB
:100C4000770000206F0000206B00002037B50125E1
:100C500000F038FC0199C9B2884200D03EBD01982D
:100C6000C0B2042823D1002001F018FA09E001F0F5
:100C7000A8FEC4B2204603F00CFC05460DB90E4890
:100C80000470002DF3D1072001F008FA04200B496D
:100C900008700B48047000200A4908700A480021B7
:100CA0000160416001810B2000F00FFC00E000BFFB
:100CB00000BF00BFD2E700006D0000200A00002046
:100CC00077000020880200203E17002007B500F0C2
:100CD000F9FB0199C9B2884200D00EBD0198C0B29B
:100CE000022806D1042000F0C1FF0020034908704B
:100CF00000E000BF00BF00BFEFE700000C000020D5
:100D000007B500F0DFFB0199C9B2884200D00EBDE3
:100D10000198C0B204280ED1082001F0BFF90020CC
:100D200007490870074800210160416001810F20D8
:100D300000F0CBFB00E000BF00BF00BFE7E7000012
:100D4000880200203E170020F7B500F0BBFB019998
:100D5000C9B2884200D0FEBD0198C0B20A380D2841
:100D60007ED2DFE810F00D007D007D007D007D006B
:100D700071027D007D000203F502F602FA02FE0216
:100D8000F848007808286CD2DFE800F06B042CA843
:100D9000F8F6F5F4F448007830384FF47A714843A7
:100DA000F1494978303901EBC10202EB011100EB46
:100DB0008101ED488078303800EB800001EB400184
:100DC000E948C07830380844E84908600020E8491C
:100DD0000870E5480021016041600181072000F0B2
:100DE00074FB2FE2E048007830384FF47A714843C2
:100DF000DD494978303901EBC10202EB011100EB0A
:100E00008101D9488078303800EB800001EB400147
:100E1000D548C07830380844D64908600020D44905
:100E20000870D1480021016041600181D14800680B
:100E3000CE490968884233D1032001F02FF9CD480B
:100E400000686421B0FBF1F0CB494871C9480068E3
:100E50006421B0FBF1F201FB1200C749887101E087
:100E6000A4E2EEE11120C8714FF4FA6007F04FFBE5
:100E700003F0A5FA4FF47A7007F049FB0020BD4952
:100E8000086008460068B9490860BC480021016054
:100E90000171B948016041601D2000F016FBD1E1ED
:100EA000B4480068B1490968884216D0042001F0AE
:100EB000F5F84FF4FA6007F02AFB022001F0EEF893
:100EC0003221AF4807F06CFF0020A9490870A549FE
:100ED0000870062000F0F9FAB4E100BFA24840789B
:100EE0003038A1490978303901EB810100EB41002C
:100EF000C6B29D48C07830389B498978303901EBBB
:100F0000810100EB4100C7B20020994908709B485D
:100F100000210160017198480160416092480160C0
:100F20004160018197480078B04201D1012000E082
:100F3000002094494978B94201D1012100E0002103
:100F400008420CD0032001F0A9F84FF4FA6007F032
:100F5000DEFA03F066FA1D2000F0B7FA72E1042011
:100F600001F09CF84FF4FA6007F0D1FA052001F087
:100F700095F867E119E19AE028E0FFE77A48007800
:100F800030384FF47A71484377494978303901EB6A
:100F9000C10202EB011100EB810173488078303807
:100FA00000EB800001EB40016F48C0783038084406
:100FB0006E49086000206E4908706B48002101608E
:100FC000416001810C2000F080FA3BE16648007826
:100FD00030384FF47A71484363494978303901EB2E
:100FE000C10202EB011100EB81015F4880783038CB
:100FF00000EB800001EB40015B48C07830380844CA
:101000005C49086000205A49087057480021016077
:1010100041600181574800685449096888422BD1D2
:10102000032001F03BF8534800686421B0FBF1F065
:101030005249C8704F4800686421B0FBF1F201FBCF
:1010400012004E4908714FF4FA6007F060FA03F09D
:10105000B6F94FF47A7007F05AFA00204549086053
:101060000846006841490860444800210160017158
:101070001D2000F02AFAE5E03E4800683B49096877
:10108000884213D0042001F009F84FF4FA6007F009
:101090003EFA32213A4807F083FE002034490870B6
:1010A000304908701D2000F010FACBE000BF2E4838
:1010B00000783038642148432B494978303901EBB6
:1010C000810100EB41012848807830380844C4B2DF
:1010D00000202749087024480021016041600181F7
:1010E000002C01DD012000E00020C82C01DA0121E4
:1010F00000E0002108424AD0204603F0CBF8054624
:1011000055B9092000F0CAFF40F6B83007F0FFF9E2
:101110001D2000F0DAF995E0012D0AD10A2000F037
:10112000BDFF40F6B83007F0F2F91D2000F0CDF910
:1011300088E0022D08D1144804700B2000F0AEFFA7
:10114000102000F0C2F97DE0032D1FD10C2000F02B
:10115000A5FF40F6B83007F0DAF91D2000F0B5F928
:1011600070E000000A0000203E1700201000002060
:1011700088020020140000206F000020770000206B
:10118000C81600206B0000206D0000205AE0C82C1B
:101190000ADD0D2000F082FF40F6B83007F0B7F905
:1011A0001D2000F092F94DE000BF824840783038B1
:1011B00080490978303901EB810100EB4100C6B26A
:1011C0007C48C07830387B498978303901EB81011F
:1011D00000EB4100C7B20020774908707748002132
:1011E00001600171764801604160724801604160B0
:1011F000018174480078B04201D1012000E0002054
:1012000070494978B94201D1012100E0002108422A
:101210000CD0032000F042FF4FF4FA6007F077F99A
:1012200003F0FFF81D2000F050F90BE0042000F05F
:1012300035FF4FF4FA6007F06AF90B2000F02EFF3B
:1012400000E000BF00BFB2E05B480078012803D196
:10125000584800783038C4B25748007802280AD17C
:1012600054484078303853490978303901EB8101CE
:1012700000EB4100C4B250480078032810D14D481B
:1012800000783038642148434A494978303901EBC5
:10129000810100EB41014748807830380844C4B2EE
:1012A00000204549087043480021016041600181E8
:1012B000002C01DD012000E00020C82C01DA012112
:1012C00000E00021084235D0204602F0E3FF054649
:1012D00055B9092000F0E2FE40F6B83007F017F9E2
:1012E0001D2000F0F2F862E0012D0AD10A2000F082
:1012F000D5FE40F6B83007F00AF91D2000F0E5F8F9
:1013000055E0022D08D1304804700B2000F0C6FED5
:10131000102000F0DAF84AE0032D0AD10C2000F08A
:10132000BDFE40F6B83007F0F2F81D2000F0CDF811
:101330003DE03CE0C82C0ADD0D2000F0AFFE40F699
:10134000B83007F0E4F81D2000F0BFF82FE02EE0E1
:101350002DE0152000F0B9F829E0162000F0B5F8CE
:1013600025E0172000F0B1F821E01248007830386D
:10137000642148430F494978303901EB810100EB82
:1013800041010C488078303808441049088000201A
:10139000094908700748002101604160018103206C
:1013A00000F064FC132000F090F800E000BF00BFE4
:1013B00000BFD0E43E170020880200207700002004
:1013C0006F0000206B0000206D0000200E00002048
:1013D00007B500F077F80199C9B2884200D00EBD78
:1013E0000198C0B202280CD10C2000F03CFFC820AC
:1013F00007F08DF80120054908701D2000F065F800
:1014000000E000BF00BF00BFE9E700000C000020C3
:1014100007B52B4890F880012030294991F88111B7
:10142000884215D0264890F8810100F01F0000EB9B
:101430004000234901EB80009DE80E000EC02048CB
:1014400090F88101401C1E4981F8810101200EBDE8
:101450000020FCE70EB51A4991F88011184A92F85D
:101460008121914206D111218DF8001000210191B6
:10147000029116E0124991F8801101F01F0101EB71
:1014800041010F4A02EB8103D3E900219B68CDE9BA
:10149000011300920A4991F88011491C084A82F808
:1014A00080119DE80E0080E80E000EBD002004496A
:1014B00081F88101084690F8810181F88001704728
:1014C000BC02002024480078704723490870704708
:1014D00001462248807A0A2809DA2048827A807AEE
:1014E000401C1E4B98721846815401207047002002
:1014F000FCE701461948807A48B11848807A401EB6
:10150000C0B2164A9072105C08700120704700202B
:10151000FCE7002011498872704717B5A5B09022EA
:101520000F4901A807F002FC002411E09DF8940087
:1015300001A911F83410884208D101A800EBC400B9
:10154000436825A807C8984728B010BD601CC4B2DE
:10155000122CEBD300BFF7E702000020400400206C
:1015600098940008704700BFFEE700BFFEE700BF89
:10157000FEE700BFFEE770477047704710B506F002
:10158000ECFF10BD10B50121880706F071FD10BDFC
:1015900010B54FF480514A4805F04DFA18B90120B2
:1015A00004F036FC04464FF48041454805F043FA08
:1015B00018B9022004F02CFC0446A0B210BD02466B
:1015C00009B900207047112A3AD2DFE802F0390C3D
:1015D0000F1215181B1E2124272A2D30333609001F
:1015E000002008702CE00120087029E0022008701B
:1015F00026E00320087023E00420087020E0052086
:1016000008701DE0062008701AE00720087017E037
:101610000820087014E00920087011E00A20087002
:101620000EE00B2008700BE00C20087008E00D2085
:10163000087005E00E20087002E00F20087000BF5F
:1016400000BF0120BEE710B500241E480078401CF2
:101650001C4908700846007803282ED100201A493A
:10166000087018490870FFF793FF0446112C1BD02F
:1016700016480088A04217D115492046FFF79FFF62
:10168000012811D113480078401C12490870FFF757
:1016900019FF0F494860084607C8FFF7B9FE012047
:1016A00009490870002010BD08480480002009493D
:1016B0000870012004490870F5E700BFF3E7000057
:1016C00000180140070000200D0000200400002049
:1016D0004C040020060000202DE9F047074688460C
:1016E00015469946089EB8F1000F06D0B8F1010FD3
:1016F00009D0B8F1020F2DD119E03A4649462846E3
:1017000001F0CCFC27E0384607F0ACFA00EB4000D3
:101710004006040EA64203DD301BC0F3470400E080
:10172000002428193A46494601F0B8FC13E038462F
:1017300007F098FA00EB40004006040EA64202DDD6
:10174000301BC4B200E0002428193A46494601F093
:10175000A5FC00E000BF00BFBDE8F08710B504465F
:1017600022463421062001F099FC10BD10B5044634
:1017700022463421002001F091FC10BD38B504460A
:10178000802000231A46012100902046FFF7A4FF85
:1017900038BDF8B505460F4614461E46012366229D
:1017A0003321182001F011FA01233F2233211820A0
:1017B00001F06EFA01233F223321662001F068FA1E
:1017C000287838B14A2034231B2239460090284615
:1017D000FFF782FF207838B14A2034231B2231469C
:1017E00000902046FFF778FFF8BD2DE9F04106464E
:1017F0000F4615461C4601232A463946304601F05D
:10180000E4F901232A462146304601F0DEF901239E
:1018100022463946304601F03BFA0123224639463A
:10182000284601F035FABDE8F08100200DE0F949C5
:101830004978C1EBC10101EB4102F6490E31114477
:10184000095C01B903E0411CC8B21428EFDB00BFFA
:101850007047F8B50446FFF7E8FF00EB400040068C
:10186000050E0CB1012000E00020EA4E00907778D0
:10187000B61C06EB470676780A36F3B2E54E777863
:10188000B61C16F817602E44F2B2E24E7778B61CFA
:1018900006EB47067678761CF1B2DE4E7778B61CFA
:1018A00016F817602E44F0B201F044FBD9494A788B
:1018B000891C01EB42014978491CC8B20A2101F098
:1018C00033FEF8BD10B5D448007808B9012000E017
:1018D0000020D149087008460078FFF7BAFF10BD14
:1018E0002DE9F04104460F4615461E466221C948BF
:1018F00007F056FAC7488472C77205734673BDE88D
:10190000F08110B5C34841780078401E814207DA63
:101910000020FFF79EFFBF484078401CBD4948703B
:1019200010BD10B5BB484078002807DD0020FFF748
:1019300090FFB8484078401EB649487010BD2DE968
:10194000F04186B005460E4617464FF000080024C9
:1019500026E0B04841780A30405CA0421DDDAD4829
:101960004078C0EBC00000EB4001AA480E300844AC
:10197000005D98B9B0450FDA4046411C01F0FF0800
:10198000295CA4484078C0EBC00000EB4002A148AD
:101990000E301044015501E004E003E0601CC4B2C5
:1019A000142CD6DB00BF00219A484078C0EBC00061
:1019B00000EB400297480E3010440155CFB9954BCB
:1019C0005B78C3EBC30303EB430C924B0E330CEB7E
:1019D00003020E3B93F801C09B1C03EB4C035978A8
:1019E0008C4B93F801C09B1C13F81C0001F056FBB4
:1019F0001AE0884842780A30815C2A22684607F05B
:101A0000C7F9FFF712FF00220DF80020814A537832
:101A1000921C02EB430251787E4A5378921C12F8D2
:101A200013006A4601F03AFB7A494A78891C01EBB7
:101A3000420148780C2101F077FD06B0BDE8F08145
:101A400008B500200090FFF7F0FE00280CDD71497A
:101A50004978C1EBC10101EB41026E490E315018CA
:101A60006A466EA107F038F8009808BD69484078CA
:101A7000C0EBC00000EB400166480E3008447047E0
:101A8000F0B587B004460D4600BF62494978C1EB06
:101A9000C10101EB41025F490E31501807F0E2F835
:101AA000C6B2A64273DB0020FFF7D3FE0DE0002193
:101AB00058484078C0EBC00000EB400255480E305B
:101AC0000244701EC0B2064611542000A4F1010168
:101AD000CCB2ECD14F4842780A30815C202201A878
:101AE00007F056F900214B4842780A30805C01AA81
:101AF0001154484A5378921C02EB43025178454AEC
:101B00005378921C12F8130001AA01F0C7FAB5B974
:101B1000404B5B78C3EBC30303EB43073D4B0E33F2
:101B2000FA180E3B5F789B1C03EB47035978394B3F
:101B30005F789B1C13F8170001F0B0FA1AE03548E3
:101B400042780A30815C2A2201A807F021F9FFF7C8
:101B50006CFE01A900220A542E4A5378921C02EB13
:101B6000430251782B4A5378921C12F8130001AAB1
:101B700001F094FA27494A78891C01EB4201487820
:101B80000C2101F0D1FC012007B0F0BDFFE70020DF
:101B9000FAE72DE9F84F80460E461446994640462E
:101BA00007F060F800F0FF0A0AF1010000EB4000C6
:101BB00006EB4000C5B27F2D00DD002509EB0500D6
:101BC000C7B27F2F00DD7F270120009004F10C00B9
:101BD000C3B2601EC1B23A46284601F066F94246D9
:101BE0002146304601F05AFAA81CC1B209480278D1
:101BF000801C00F81210801E0178801C00EB410050
:101C0000447004480078401C024908700020487065
:101C1000BDE8F88F5804002009000020256C6400FE
:101C200010B5F748F7490268F74807F03AF840213D
:101C3000002001F079FC10BD10B5F148F2490268AE
:101C4000F04807F02EF810BD10B501F0BFFBEFA271
:101C50000D21002001F022FAF1A21A21002001F04A
:101C60001DFA4021002001F05FFC10BD70B5044654
:101C7000012C06D0022C16D0032C7CD0042C7BD156
:101C80009AE101F0A3FBEBA20021032001F006FA88
:101C9000EAA20D21002001F001FAEBA21A21002096
:101CA00001F0FCF9A5E1FFF70DFC801F12287AD2A4
:101CB000DFE800F090B0D07979F4F27979F1F07939
:101CC000091F354B637AE2480078012802D10020D1
:101CD000E0490870DE490D7805EBD5714910C81C44
:101CE000DB490978491EDC4BCA181A2101F0D6F9E4
:101CF00055E1D7480078012802D10020D549087065
:101D0000D3490D7805EBD5714910C81CD049097825
:101D1000491ED14BCA18342101F0C0F93FE1CC482B
:101D20000078012802D10020CA490870C8490D78FE
:101D300005EBD5714910C81CC5490978491EC64B29
:101D4000CA18002101F0AAF929E1C1480078012848
:101D500002D10020BF490870BD490D7805EBD5714F
:101D60004910C81CBA490978491EBB4BCA180D2135
:101D700001F094F913E114E13AE1B5480078012843
:101D800002D10020B3490870B1490D7805EBD57137
:101D90004910C81CAE490978491EAF4BCA181A2110
:101DA00001F07CF9FBE0F9E0A9480078012802D1B4
:101DB0000020A8490870A6490D7805EBD571491097
:101DC000C81CA3490978491EA34BCA18272101F052
:101DD00065F9E4E00120A14908709D4800780128D8
:101DE00001D19C4908709A480078022802D100204D
:101DF0009849087096480078032190FBF1F0051D82
:101E000093480078401E944942181A21284601F050
:101E100045F9C4E00220914908708D4800780128F6
:101E200001D18C4908708A480078022802D100202C
:101E30008849087086480078032190FBF1F0451D21
:101E400083480078401E844942182721284601F023
:101E500025F9A4E00320814908707D480078012815
:101E600001D17C4908707A480078022802D100200C
:101E70007849087076480078032190FBF1F0051D41
:101E800073480078401E744942181A21284601F010
:101E900005F984E062E041E020E0FFE704206F49BB
:101EA00008706B480078012801D16A4908706848B9
:101EB0000078022802D10020664908706448007842
:101EC000032190FBF1F0051D61480078401E624936
:101ED00042181A21284601F0E1F860E005205F4928
:101EE00008705B480078012801D15A4908705848A9
:101EF0000078022802D10020564908705448007822
:101F0000032190FBF1F0451D51480078401E5249D5
:101F100042182721284601F0C1F840E006204F4929
:101F200008704B480078012801D14A490870484898
:101F30000078022802D10020464908704448007801
:101F4000032190FBF1F0051D41480078401E4249F5
:101F500042181A21284601F0A1F820E007203F4945
:101F600008703B480078012801D13A490870384888
:101F70000078022802D100203649087034480078E1
:101F8000032190FBF1F0051D31480078401E3249D5
:101F900042181A21284601F081F800E000BF00BF76
:101FA00027E02FA22721002001F078F82FA234216A
:101FB000002001F073F81CE001F008FA2DA20021C6
:101FC000022001F06BF820A20D21002001F066F83C
:101FD0002BA21A21002001F061F82BA2272100205A
:101FE00001F05CF82AA23421002001F057F800E04B
:101FF00000BF00BF4021002001F096FA70BD000034
:1020000018000020C8120020C80E0020D6C7C4DC6B
:10201000CFE4B9F1BFD8D6C6CFB5CDB3000000002C
:10202000CAC0BDE7D2BBC1F7BBB6D3ADCAB9D3C333
:1020300000000000B4E6B0FC00000000CAE4C8EBF9
:10204000CFE4BAC500000000CFE4BAC53A000000F2
:10205000880200201C0000203E1700200A000020FB
:10206000C9E8D6C3C3DCC2EB00000000C3DCC2EB8E
:102070003A000000D0DEB8C4C3DCC2EB00000000B0
:10208000BEC9C3DCC2EB3A00D0C2C3DCC2EB3A002B
:10209000C8B7C8CFC3DCC2EB3A00000010B58EB0A1
:1020A000044601F093F90E2C7ED2DFE804F0070D10
:1020B00013333F4A5A658797A2ADC8CEF4A21A21BE
:1020C000032000F0EBFFC7E0F4A20D21002000F098
:1020D000E5FFC1E0F6A20021084600F0DFFFF94865
:1020E0000278F9A101A806F01FFC01AA0D21002029
:1020F00000F0D4FFF7A21A21002000F0CFFFF7A2D2
:102100002721002000F0CAFFF7A23421002000F0B0
:10211000C5FFA1E0EB480278F6A101A806F004FC97
:1021200001AA1A21002000F0B9FF95E0F5A20D21C7
:10213000002000F0B3FFF6A21A21002000F0AEFF4D
:102140008AE0F6A20D21002000F0A8FFE1A21A21EA
:10215000002000F0A3FFE4A23421002000F09EFF45
:102160007AE0F1A20D21002000F098FFF1A21A21DF
:10217000002000F093FF6FE0F2A20021084600F07B
:102180008DFFD0480278D0A101A806F0CDFB01AAAE
:102190000D21002000F082FFCEA21A21002000F0C5
:1021A0007DFFCEA2272100E055E0002000F076FF61
:1021B000CDA23421002000F071FF4DE0E3A2002108
:1021C000084600F06BFFE5A21A21002000F066FF30
:1021D000C5A23421002000F061FF3DE0E1A20D2105
:1021E000002000F05BFFD3A21A21002000F056FF70
:1021F00032E0DFA20D21012000F050FFDFA21A2102
:10220000012000F04BFF27E0DFA20021084600F08C
:1022100045FFAC480278ACA101A806F085FB01AAF5
:102220000D21002000F03AFFAAA21A21002000F0A0
:1022300035FFADA23421002000F030FF0CE0D4A225
:102240000D21002000F02AFF06E0D4A20D2100207D
:1022500000F024FF00E000BF00BF4021002001F09B
:1022600063F90EB010BD3EB5044642F248152A4649
:10227000CDA1684606F058FB01F0A8F8102C69D2F1
:10228000DFE804F0080E141A20262C32383E444AA7
:1022900050565C62C5A20D21002000F0FFFE5AE0FE
:1022A0006A460D21002000F0F9FE54E0C1A20D2184
:1022B000002000F0F3FE4EE0C1A20D21002000F04E
:1022C000EDFE48E0C1A20D21002000F0E7FE42E053
:1022D000C1A20D21002000F0E1FE3CE0C1A20D21D1
:1022E000002000F0DBFE36E0C1A20D21002000F04E
:1022F000D5FE30E0C1A20D21002000F0CFFE2AE083
:10230000C1A20D21002000F0C9FE24E0C1A20D21D0
:10231000002000F0C3FE1EE0C1A20D21002000F04D
:10232000BDFE18E0C1A20D21002000F0B7FE12E0B2
:10233000C1A20D21002000F0B1FE0CE0C1A20D21D0
:10234000002000F0ABFE06E0C2A20D21002000F04C
:10235000A5FE00E000BF00BF4021002001F0E4F82E
:102360003EBD10B501F032F8BEA20021084600F0D3
:1023700095FE4021002001F0D7F810BD38B5044685
:1023800014B1012C5ED12EE001F020F800230322CD
:1023900011461046FFF7A4FA262304221221B6A004
:1023A000FFF7F7FB262313221221B6A0FFF7F1FB5C
:1023B000262322221221B6A0FFF7EBFB00233BA22B
:1023C0000121B6A0FFF7E5F9B7A0FFF7CFF9B8A054
:1023D000FFF7C4F90120302378220146009008203D
:1023E00000F063FD2FE000F0F1FF0023052211460D
:1023F0001046FFF775FA262304221221AEA0FFF73C
:10240000C8FB262313221221AEA0FFF7C2FB26230E
:1024100022221221AEA0FFF7BCFB002323A2012140
:102420009EA0FFF7B6F9A0A0FFF7A0F9A0A0FFF7C4
:1024300095F901203023782201460090082000F011
:1024400034FD00E000BF00BF4021002001F06CF827
:1024500038BD38B5044600F0B9FF0120302378229A
:102460000E210090082000F020FD092C07D2DFE8A3
:1024700004F0050E0D0C0B0A090807005FE15DE191
:1024800056E14FE148E141E13AE133E12CE125E158
:10249000C7EBC9D4B5C82E2E2E000000C9E8B1B8CC
:1024A000B3F5CABCBBAFCAA7B0DCA3A10000000053
:1024B000D6B1BDD3C8B7C8CFD4F2CEDEC3DCC2EB31
:1024C000000000006D000020CFE420BAC53A25646A
:1024D00000000000C3DC20C2EB3A0000C3DCC2EB0A
:1024E000C8B7C8CF3A000000202020202020C8B75D
:1024F000C8CF0000202564BAC5CFE4D7D3D2D1B469
:10250000F2BFAA0020C3DCC2EBB2BBD2BBD6C20072
:102510002020D6D8D0C2CAE4C8EB0000C7EBCAE47A
:10252000C8EBC3DCC2EB0000CBA2BFA8D2ECB3A3C4
:1025300000000000C7EBC1AACFB5B9DCC0EDD4B133
:1025400000000000202020B4E6B0FC002020C7EBF3
:10255000CAE4C8EBCFE4BAC50000000020CFE4BA5B
:10256000C53A0000CFE4BAC5D2ECB3A30000000026
:10257000B4CBCFE4D0E8CBA2BFA80000C7EBCBA27E
:10258000BFA8BFAACFE40000202020C8A1B0FC0053
:10259000B4CBCFE4CEAABFD500000000CFE4BAC5CB
:1025A000B2BBB4E6D4DA0000256420003031323307
:1025B0003400000032BCFCB1BBB0B4CFC20000009C
:1025C00033BCFCB1BBB0B4CFC200000034BCFCB122
:1025D000BBB0B4CFC200000035BCFCB1BBB0B4CFBF
:1025E000C200000036BCFCB1BBB0B4CFC2000000DA
:1025F00037BCFCB1BBB0B4CFC200000038BCFCB1EA
:10260000BBB0B4CFC200000039BCFCB1BBB0B4CF8A
:10261000C2000000494EBCFCB1BBB0B4CFC2000048
:102620004F5554BCFCB1BBB0B4CFC200535953BCDE
:10263000FCB1BBB0B4CFC2004B4559BCFCB1BBB080
:10264000B4CFC2004241434BBCFCB1BBB0B4CFC21B
:102650000000000053555245BCFCB1BBB0B4CFC222
:1026600000000000312EB4A2CEEFB9F1322EC0EE40
:10267000D1C7B6AB00000000C6F0CABCC0D7B9DCF9
:1026800000000000BDD8D6B9C0D7B9DC00000000FA
:10269000BFD7C4DAC0D7B9DC00000000B0B4A84C82
:1026A000C8B7C8CF00000000B7B5BBD80000000015
:1026B000BBD8C9BE00000000C6F0CABCD1D3C6DA80
:1026C00000000000BFD7BCE4D1D3C6DA0000000090
:1026D000BFD7C4DAD1D3C6DA000000002AA21A217B
:1026E000112000F0DBFC2AE02CA21A21084600F0A1
:1026F000D5FC24E02DA21A21084600F0CFFC1EE0F4
:102700002EA21A21084600F0C9FC18E02FA21A21B7
:10271000202000F0C3FC12E02FA21A21202000F09C
:10272000BDFC0CE02FA21A21084600F0B7FC06E021
:1027300030A21A21084600F0B1FC00E000BF00BF43
:102740004021002000F0F0FE38BD10B5302000F030
:10275000EBFF01F001FB802000F0E6FF29A001F073
:10276000BFF9902000F0E0FF2BA001F0B9F988201C
:1027700000F0DAFF2DA001F0B3F9982000F0D4FFAB
:102780002FA001F0ADF910BDC3DCD4BFD6D8CAD498
:10279000B4CECAFDCEAA302100000000C3DCD4BFF5
:1027A000D2D1BCECB2E2B5BD2E2E2E00BFAACABC5F
:1027B000BCECB2E2C3DCD4BF2E2E2E00CEB4BCECF7
:1027C000B2E2B5BDC3DCD4BF2E2E2E00B3F6CFD6F9
:1027D000B4EDCEF32E2E2E00C3B6BED9B3C9B9A622
:1027E0002E2E2E00B4D3BBFAC9E8B1B8B2E5C8EBBF
:1027F0002E2E2E00C9E8B1B8CEB4C1ACBDD32E2E5A
:102800002E0000003120B4E6B0FC20202020322031
:10281000C8A1B0FC000000003320D7B4CCAC20200D
:1028200020203420B9DCC0ED000000003520B2E9E2
:10283000BFB4202020203620C1D0B1ED0000000020
:10284000B7B5BBD82020202020202020C8B7C8CF73
:102850000000000070B54FF480519C4804F0EBF884
:1028600008B9012500E000254FF48041974804F0A5
:10287000E2F808B9012000E00020284394490978D3
:10288000012900D100E0002108420FD00020914929
:102890000870002404E0FEF7D6FE00B902E0641CD4
:1028A0000A2CF8DD00BF01208A49087070BD10B500
:1028B0008848007801281DD102F0CCFF8648C079F5
:1028C00008B1012000E000208349097A09B1012103
:1028D00000E0002108430CD00520FEF7F6FD102093
:1028E0007E49087005204860084607C8FEF790FD3D
:1028F00000E010BD00BFFCE710B502460B4600210A
:1029000000BF505C5C5CA04201D0002010BD491C9F
:10291000F7E700B587B001214FF4047004F0B0FA76
:102920004FF4004004F013FA0120ADF80400042035
:102930008DF8070001A96A4803F0ECFF694803F02D
:1029400061FD002002908DF80C008DF80D004FF411
:10295000602004900020059001208DF8180002A945
:10296000604803F076FD01215E4803F09EFD5D485E
:1029700003F0BDFD00BF5B4803F0BEFD0028FAD1A7
:10298000584803F0C3FD00BF564803F0C4FD0028BB
:10299000FAD107B000BD10B5072301220A21514822
:1029A00003F0EFFD01214F4803F0BFFD00BF0221FE
:1029B0004C4803F02BFF0028F9D04A4803F048FEAA
:1029C00010BD70B50024002600250BE0FFF7E3FFE3
:1029D00000F0010606EB4400C4B2052005F097FDA7
:1029E000681CC5B2082DF1DBC82C02DDA4F138004B
:1029F000C4B2204670BD30B502460B461468156857
:102A000001210EE052F82100A04202D952F82140E3
:102A100005E052F82100A84201D252F82150481C8A
:102A2000C1B29942EEDB601B30BD30B502460B46A9
:102A30001488158801210EE032F81100A04202DD51
:102A400032F8114005E032F81100A84201DA32F8FC
:102A50001150481CC1B29942EEDB601B80B230BD00
:102A600010B502460B4600201088012107E032F81D
:102A70001140844201DD32F811004C1CE1B2994250
:102A8000F5DB10BD10B502460B4600201088012171
:102A900007E032F81140844201DA32F811004C1C90
:102AA000E1B29942F5DB10BD30B5024600230024A7
:102AB00004E032F8025B2B44601C84B28C42F8DBE9
:102AC00009B1B3FBF1F398B230BD0000001801402A
:102AD0000D0000200C000020C8160020BC040020BF
:102AE000001001400024014008B50121182004F025
:102AF000C7F94FF49070ADF8000010208DF8030076
:102B000003208DF802006946174803F003FF4FF4D5
:102B10008071154803F0ABFF2021134803F0A5FF97
:102B200008BD10B54FF480710F4803F09EFF64207C
:102B300005F0EDFC4FF480710B4803F098FF642022
:102B400005F0E5FC10BD10B52021074803F08FFF0C
:102B5000642005F0DCFC2021034803F086FF64209C
:102B600005F0D5FC10BD0000000C014010B5FEF7CB
:102B70009DFCFEF7CEFC10BD10B5FFF7F7FF05F08A
:102B800098FC05F07DFC0121094803F092FF00F05C
:102B900058FE10BD10B5FFF7A7FF00F052FEC82089
:102BA00005F0B5FC052005F0B2FC002010BD0000CA
:102BB00000023000024601B10AB9012070471368D3
:102BC000086810600B600020F8E72DE9FF410C4613
:102BD00098469DF800009DF80810884203DD02A980
:102BE0006846FFF7E7FF3F2C03DC9DF800007F28D5
:102BF00001DDBDE8FF819DF808007F2801DD7F2011
:102C000002902046E11704EB5171C1F3C706B8F1F9
:102C1000000F1ED1E11704EB5171C910A4EBC102E2
:102C200001219140CFB2F843C7B29DF800500AE0AD
:102C3000F74800EBC610405D3840F54901EBC6117E
:102C40004855681CC5B29DF80800401C8542EFDB62
:102C50001CE02046E11704EB5171C910A4EBC1023E
:102C600001219140CFB29DF800500AE0E84800EB06
:102C7000C610405D3843E64901EBC6114855681C53
:102C8000C5B29DF80800401C8542EFDB00BFB0E7ED
:102C90002DE9FF41044698469DF804009DF8081070
:102CA000884203DD02A901A8FFF784FF9DF8040014
:102CB0003F2801DC7F2C01DDBDE8FF819DF8080085
:102CC0003F2801DD072002909DF80400C11700EBAA
:102CD0005171CD109DF80800C11700EB5171CE1055
:102CE000B54246D1B8F1000F21D19DF80410CA17A2
:102CF00001EB5272D210A1EBC203FF229A409DF861
:102D00000800C31700EB5373DB10A0EBC303C3F140
:102D1000070CFF2303FA0CF31A40BD4B03EBC5135A
:102D20001B5D9343BA4A02EBC5121355BBE09DF8F5
:102D30000410CA1701EB5272D210A1EBC203FF229A
:102D40009A409DF80800C31700EB5373DB10A0EB0B
:102D5000C303C3F1070CFF2343FA0CF31A40AC4B37
:102D600003EBC5131B5D1A43A94B03EBC5131A559F
:102D700099E0B8F1000F4CD19DF80400C11700EBA9
:102D80005171C910B0EBC10115D09DF80400C117F5
:102D900000EB5171C910A0EBC102FF2191409C4A88
:102DA00002EBC512125D22EA0101994A02EBC5123B
:102DB0001155681CC5B29DF80800C11700EB517190
:102DC000C910A0EBC101072917D09DF80800C11751
:102DD00000EB5171C910A0EBC101C1F10702FF2145
:102DE00011418B4A02EBC612125D22EA0101884AA8
:102DF00002EBC6121155701EC6B22F4606E0002027
:102E0000834901EBC7110855781CC7B2B742F6DDFC
:102E100049E09DF80400C11700EB5171C910B0EBF7
:102E2000C10114D09DF80400C11700EB5171C91005
:102E3000A0EBC102FF219140754A02EBC512125D61
:102E40001143734A02EBC5121155681CC5B29DF8B7
:102E50000800C11700EB5171C910A0EBC10107298F
:102E600016D09DF80800C11700EB5171C910A0EBF6
:102E7000C101C1F10702FF211141654A02EBC612EF
:102E8000125D1143624A02EBC6121155701EC6B2A2
:102E90002F4606E0FF205E4901EBC7110855781C5C
:102EA000C7B2B742F6DD00BF06E71FB5069C9DF826
:102EB00000009DF80810884203DD02A96846FFF76C
:102EC00079FE9DF804009DF80C10884203DD03A9EB
:102ED00001A8FFF76FFE9DF80C003F2803DC9DF86A
:102EE00008007F2800DD1FBD23469DF808209DF8BF
:102EF00004109DF80000FFF768FE23469DF80820A7
:102F00009DF80C109DF80000FFF75FFE23469DF82A
:102F10000C209DF804109DF80000FFF7B9FE234631
:102F20009DF80C209DF804109DF80800FFF7B0FEF6
:102F300000BFD8E73FB5079D9DF800009DF8081039
:102F4000884203DD02A96846FFF734FE9DF80400BD
:102F50009DF80C10884203DD03A901A8FFF72AFEA3
:102F60009DF804003F2803DC9DF800007F2800DD69
:102F70003FBD9DF8004009E02B469DF80C209DF8D0
:102F800004102046FFF784FE601CC4B29DF80800C0
:102F90008442F1DD00BFEBE7F0B5034600247F2B50
:102FA00001D83F2900D9F0BD002003E0EE2800D968
:102FB0000BE0801C1578174E365CB542F6D156787A
:102FC000144F451C7D5DAE42F0D100BFEE2805D206
:102FD00000EB4005104E06EB850400E0E3E70846F1
:102FE00010E025780D4E06EB001606F81350651C10
:102FF0002C462E78094D05EB00175D006D1C7E55A3
:10300000641C401C01F10B05A842EAD900BFCAE7C5
:10301000C80E00202895000816960008C80A00204F
:103020007047F0B50346144600227F2B01D83F2994
:1030300000D9F0BD2578A5F12000602805D200EB6D
:103040004005FE4E06EB850200E0F2E7FC4D2D78D0
:10305000012D0ED1084608E01678FA4FC51C07EB83
:10306000051505F81360521C401C01F10B05A84220
:10307000F2D9F34D2D787DB9084609E01678F14F65
:10308000C51C07EB05175D006D1C7E55521C401CCE
:1030900001F10B05A842F1D900BFCAE72DE9F041C3
:1030A00006460F4614463546B8460CB9BDE8F081D1
:1030B00028E07F2D00D9F9E7B8F13F0F00D9F5E7F7
:1030C000207810F0800F0AD0224641462846FFF7AC
:1030D00063FF0020DA490870A41C6D1C12E0D84878
:1030E0000078012804D16D1E0020D549087002E047
:1030F0000120D3490870224641462846FFF791FF38
:10310000641C6D1C20780028D3D100BFCEE7F8B531
:10311000034615460C46CF1701EB5777C7F3C70296
:103120007F2900DDF8BD002062E02E5C00240094C1
:10313000FF248DF803400C46CF1701EB5777FF10A3
:10314000A1EBC70C009F07FA0CF700971418BE4FAD
:1031500007EBC414E45C9DF80370BC431718DFF858
:10316000E8C20CEBC717FC54541C082C0DDA1418D9
:10317000641C674607EBC414E45C9DF80270BC4312
:1031800017187F1C0CEBC717FC54002400948DF813
:1031900003600C46CF1701EB5777FF10A1EBC70C6C
:1031A000009F07FA0CF700971418A74F07EBC414F9
:1031B000E45C9DF803703C431718DFF88CC20CEBFD
:1031C000C717FC54541C072C00DDABE71418641C13
:1031D0009D4F07EBC414E45C9DF802703C43171844
:1031E0007F1CDFF864C20CEBC717FC54441CE0B230
:1031F00004289ADB00BF95E72DE9F04106460F460B
:1032000014464FF000087F2E01D83F2F01D9BDE8AA
:10321000F081052C02DD002C00DCF8E7601E8B49F4
:1032200001EB8018002509E0F9B27219D0B24246CC
:10323000FFF76DFF08F10408681CC5B2102DF3DB21
:1032400000BFE4E72DE9F04105460E4617464FF072
:1032500000087F2D01D83F2E01D9BDE8F081012F54
:1032600000DDFAE77A4901EBC718002409E0F1B262
:103270002A19D0B24246FFF74AFF08F10408601C41
:10328000C4B2202CF3DB00BFE7E72DE9F841044688
:103290001F46002600250B464FEAE17C01EB5C7CD3
:1032A000CCF3C7001678557805F00F05002300937E
:1032B000FF238DF800300F238DF801300B464FEAC5
:1032C000E17C01EB5C7C4FEAEC0CA1EBCC08DDF877
:1032D00000C00CFA08FCCDF800C05B4B03EBC01338
:1032E0001B5D9DF800C023EA0C03DFF85CC10CEB0A
:1032F000C01C0CF80430DFF850C1431C0CEBC313A6
:103300001B5D9DF801C023EA0C03DFF83C8100F14E
:10331000010C08EBCC1C0CF80430831C082B0DDAD4
:10332000C4460CEBC3131B5D9DF802C023EA0C03DB
:1033300000F1020C08EBCC1C0CF8043000230093C5
:103340008DF800608DF801500B464FEAE17C01EBEF
:103350005C7C4FEAEC0CA1EBCC08DDF800C00CFA69
:1033600008FCCDF800C0384B03EBC0131B5D9DF883
:1033700000C043EA0C03DFF8D0C00CEBC01C0CF813
:103380000430DFF8C4C0431C0CEBC3131B5D9DF875
:1033900001C043EA0C03DFF8B08000F1010C08EB38
:1033A000CC1C0CF80430831C082B0DDAC4460CEB43
:1033B000C3131B5D9DF802C043EA0C0300F1020C2D
:1033C00008EBCC1C0CF80430BDE8F88110B54FF4C4
:1033D00080611C4805F0E4FC10BD2DE9F047002693
:1033E000B246B1463FE04FF0000835E009EB490036
:1033F0008006070E16E0114810F80A00114901EB8B
:10340000071101F818000D490AF10C00095C0D487C
:1034100000EB07124FEA4800401C11540AF1010A60
:10342000781CC7B209EB49000B2101EB8000B842C0
:10343000E1DA0AF10C0A08F101000BE03EA30008F2
:103440001C000020C80A0020C80E0020BEA70008EB
:103450003EA1000800F0FF08B8F1070FC6DD09F132
:10346000010000F0FF09B9F1040FBCDD002557E0B1
:103470001F2D2BDD0826344623E0362000F054F9BA
:1034800005F16001C8B200F04FF904F18001C8B243
:1034900000F04AF9302000F047F96B4901EB0512C2
:1034A000A11B12F8110000F021F9674901EB051288
:1034B000A11B012303EB4101505C00F017F9601CD4
:1034C000C4B206F108008442D7DB27E0344621E08D
:1034D000362000F029F905F18001C8B200F024F986
:1034E00004F18001C8B200F01FF9302000F01CF98F
:1034F000554901EB051111F8140000F0F7F8524995
:1035000001EB0511012202EB4402885C00F0EEF8A9
:10351000601CC4B206F108008442D9DB681CC5B245
:10352000402DA5DDBDE8F0872DE9F041074688462E
:103530000026002557E01F2D2BDD0826344623E00A
:10354000362000F0F1F805F16001C8B200F0ECF8A7
:1035500004F18001C8B200F0E7F8302000F0E4F890
:10356000394901EB0512A11B12F8110000F0BEF859
:10357000354901EB0512A11B012303EB4101505C0E
:1035800000F0B4F8601CC4B206F108008442D7DB36
:1035900027E0344621E0362000F0C6F805F180012E
:1035A000C8B200F0C1F804F18001C8B200F0BCF864
:1035B000302000F0B9F8244901EB051111F814008E
:1035C00000F094F8204901EB0511012202EB4402BE
:1035D000885C00F08BF8601CC4B206F108008442DD
:1035E000D9DB681CC5B2402DA5DDBDE8F08170B502
:1035F00000251DE0002417E0342000F095F805F1C7
:103600008001C8B200F090F804F18001C8B200F067
:103610008BF8302000F088F8002000F067F80020D8
:1036200000F064F8601CC4B2102CE5DB681CC5B265
:10363000402DDFDB70BD10B5FFF7D9FF322004F05D
:1036400066FF10BD70470000C80A0020FD490968E8
:103650000021FC4A11601146096841F07731116080
:10366000F8490C31096801F47F41C2B21143F54AAF
:103670000C321160704770B58024F2480068002059
:10368000F04908600846006840F088300860ED485E
:103690001030006840F0FF00EA4910310860002057
:1036A000E94908604FF00100E849C1F89001E84994
:1036B000086015E00020E44908604FF00100E3498C
:1036C000C1F89001E249086004F0E0FEDD480830EE
:1036D000006885B2ECB204F08004012004F0D6FE4C
:1036E000802CE7D00020DA49086070BD10B5044690
:1036F000FFF7C1FF0120D44908604FF00000D34913
:10370000C1F890014FF00100D14908602046FFF751
:103710009DFF012004F0BAFE0020CC49C1F89401BD
:10372000012004F0B3FE10BD10B504460020C649C8
:103730000860C649C1F890014FF0010004F0A6FEF0
:103740000120C34908604FF0160004F09FFE204698
:10375000FFF77CFF0A2004F099FE0020BB49C1F866
:103760009401012004F092FE10BD70B500251DE00B
:10377000002417E03420FFF7D7FF05F18001C8B21D
:10378000FFF7D2FF04F18001C8B2FFF7CDFF302070
:10379000FFF7CAFF0020FFF7A9FF0020FFF7A6FFF1
:1037A000601CC4B2102CE5DB681CC5B2402DDFDB09
:1037B00070BD10B53020FFF7B7FF012004F0A7FE61
:1037C0003020FFF7B1FF012004F0A1FE0C20FFF72D
:1037D000ABFF012004F09BFE0120FFF7A5FF0B20AB
:1037E00004F095FE0620FFF79FFF012004F08FFEF6
:1037F00010BD9848806940F4807096498861964869
:103800000068C0B2944908600846006893490843BC
:10381000914908608F48806940F004008D498861B3
:10382000884800680020874908600846006840F022
:103830003330086001208A4908608449C1F89C013E
:10384000704710B54FF4967004F061FEFFF7D1FF9A
:10385000FFF7AFFFFFF789FF10BD70B5FFF70BFF54
:10386000784800680020774908600846006840F002
:103870008830086073481030006840F0FF007149DC
:10388000103108600120704908607049C1F890014A
:103890006F49086004F0FAFD6A4808300068C4B255
:1038A000012004F0F3FD00206849C1F89401254689
:1038B000284670BD2DE9F84F05460C46924605F0A6
:1038C0007F0504F03F042846E91705EB11714FEA24
:1038D000211B05F00F062046E11704EBD1614911C9
:1038E000009127461F2F02DDA7F12000C7B2342028
:1038F000FFF71AFF3620FFF717FF07F18001C8B264
:10390000FFF712FF0BF180010823009A03FB02115D
:10391000C8B2FFF709FFFFF7A0FFFFF79EFF804641
:10392000FFF79BFF814607F18001C8B2FFF7FCFE5D
:103930000BF180010823009A03FB0211C8B2FFF7C4
:10394000F3FE082E1BDABAF1000F0CD0C6F1070205
:103950000121914041EA0801C8B2FFF7C7FE48467D
:10396000FFF7C4FE26E0C6F107020121914028EAD4
:103970000100FFF7BBFE4846FFF7B8FE1AE0BAF1B8
:10398000000F0CD04046FFF7B1FEC6F10F02012137
:10399000914041EA0901C8B2FFF7A8FE0AE040469B
:1039A000FFF7A4FEC6F10F020121914029EA0100B0
:1039B000FFF79CFEFFF75FFE3020FFF7B5FEBDE886
:1039C000F88F2DE9F84F05460C4605F07F0504F009
:1039D0003F042846E91705EB11714FEA211B05F05A
:1039E0000F062046E11704EBD161491100912746EB
:1039F0001F2F02DDA7F12000C7B23420FFF794FE8D
:103A00003620FFF791FE07F18001C8B2FFF78CFE68
:103A10000BF180010823009A03FB0211C8B2FFF7E3
:103A200083FEFFF71AFFFFF718FF8246FFF715FF27
:103A30008046082E16DAC6F107010120884000EA08
:103A40000A0915E0000801409801244200002442C0
:103A5000940124420010024000200140003333331F
:103A600088012442C6F10F010120884000EA0809BC
:103A7000FFF701FE4846BDE8F88F10B53020FFF78C
:103A800053FE4020FFF750FE002400E0641C102C81
:103A9000FCDB10BD2DE9F04106460C46154600271B
:103AA00004B90AE0012C01D1102706E0022C01D153
:103AB000082702E0032C00D1182707F180013144C8
:103AC000C8B2FFF731FE06E02878FFF70FFE6D1C45
:103AD000012004F0DBFC28780028F5DCBDE8F0814B
:103AE00010B5044606E02078FFF700FE641C0120B4
:103AF00004F0CCFC20780028F5DC10BD2DE9F04165
:103B00008046002700262BE0002524E000241EE04C
:103B10003620FFF709FE05F18001C8B2FFF704FE69
:103B200004F180013144C8B2FFF7FEFD3020FFF7F9
:103B3000FBFD39467F1CE24A505CFFF7D7FD394652
:103B40007F1CDF4A505CFFF7D1FD601CC4B2082C1B
:103B5000DEDB681CC5B2202DD8DB06F10800C6B23A
:103B6000092ED1DBBDE8F0812DE9F04107460D4675
:103B7000164600241EE03620FFF7D6FD06F1800130
:103B80002144C8B2FFF7D0FD802101EBC501C8B2C6
:103B9000FFF7CAFD3020FFF7C7FDCA4A12F814002C
:103BA000FFF7A4FD6100491CC64A505CFFF79EFD6B
:103BB000601CC4B20C2CDEDBBDE8F0812DE9F041C5
:103BC00007460E461546202D1ADA002415E0362049
:103BD000FFF7AAFD05F180012144C8B2FFF7A4FD5B
:103BE00006F18001C8B2FFF79FFD3020FFF79CFD72
:103BF000385DFFF77BFD601CC4B2102CE7DB1FE0D3
:103C0000A5F12000C5B206F10800C6B2002415E0F7
:103C10003620FFF789FD05F180012144C8B2FFF786
:103C200083FD06F18001C8B2FFF77EFD3020FFF76B
:103C30007BFD385DFFF75AFD601CC4B2102CE7DB3A
:103C4000BDE8F08170B5064600251DE0002417E0B0
:103C50003620FFF769FD05F18001C8B2FFF764FD6A
:103C600004F18001C8B2FFF75FFD3020FFF75CFD73
:103C70003046FFF73BFD3046FFF738FD601CC4B20D
:103C8000102CE5DB681CC5B2202DDFDB3420FFF7EC
:103C90004BFD3620FFF748FD70BD70B500260025AE
:103CA0001FE0F043C6B2002417E03620FFF73CFDCA
:103CB00005F18001C8B2FFF737FD04F18001C8B2F9
:103CC000FFF732FD3020FFF72FFD3046FFF70EFDE6
:103CD0003046FFF70BFD601CC4B2102CE5DB681CFE
:103CE000C5B2202DDDDB3420FFF71EFD3620FFF7A7
:103CF0001BFD70BD70B5002625E000251EE00024E8
:103D000018E03620FFF710FD05F18001C8B2FFF77B
:103D10000BFD04F180013144C8B2FFF705FD3020EE
:103D2000FFF702FD0020FFF7E1FC0020FFF7DEFCBB
:103D3000601CC4B2082CE4DB681CC5B2202DDEDB9D
:103D400006F10800C6B2092ED7DB3420FFF7ECFCE1
:103D50003620FFF7E9FC70BD10B50120FFF7E4FC49
:103D6000022004F0D4FB10BD70472DE9F041044659
:103D7000884615461E46AC4202DD2F4625463C4687
:103D800006E0324641462046FFF794FD601CC4B26F
:103D9000AC42F6DDBDE8F0812DE9F04180460C46ED
:103DA00015461E46AC4202DD2F4625463C4606E03F
:103DB000324621464046FFF77DFD601CC4B2AC424E
:103DC000F6DDBDE8F0812DE9F84F05460C464FF0D1
:103DD00001094FF0000A4FF0000B2BE0A8461BE052
:103DE000264610E03849009801EBC01010F80A0090
:103DF00000EA09073A46F1B208F0FF00FFF75AFD62
:103E00004FEA4909761CE01D8642EBDD0AF1010A02
:103E10004FF0010908F1010805F17F008045DFDD61
:103E20004FF0000A04F10800C4B20098401C009052
:103E30000BF1010BBBF1020FD0DD0024BDE8F88FC0
:103E40002DE9F84F05460C4691464FF0010A4FF018
:103E5000000B0020009025E0A84617E026460CE065
:103E600019F80B0000EA0A073A46F1B208F0FF0021
:103E7000FFF720FD4FEA4A0A761CE01D8642EFDD7F
:103E80000BF1020B4FF0010A08F1010805F17F0068
:103E90008045E3DD4FF0010B04F10800C4B2009847
:103EA000401C009000980428D6DD0024BDE8F88F5F
:103EB0000146002901DA484270470846FCE7000045
:103EC000650000201D000020C80E002008B501215B
:103ED000082002F0D5FF4FF44060ADF8000010203C
:103EE0008DF8030003208DF802006946914802F026
:103EF00011FD4FF440618F4802F0B7FD08BD10B5C9
:103F00008C48001D006820F470408A49091D086033
:103F10000846006840F44050086001208649086067
:103F20008649C1F8A8014FF0040004F0AFFA002060
:103F3000814908604FF0040004F0A8FA00207F498E
:103F4000C1F8A80110BD10B57A48001D006820F422
:103F500070407849091D08600846006840F44050E8
:103F600008600020764908607449C1F8AC014FF040
:103F7000040004F08BFA0120714908606F49C1F810
:103F8000AC014FF0040004F081FA10BD10B500241C
:103F90006848001D006820F470406649091D0860EB
:103FA0000846006840F4004008600120624908604B
:103FB00004F06CFA01206149C1F8A80104F066FA26
:103FC00007E0601CC4B2FA2C03DDFFF7BCFF012040
:103FD00010BD5C4800680028F3D15949086000BF53
:103FE000F6E710B50020564908605748006820F4ED
:103FF0007040554908600846006840F44050086029
:104000004FF000004D49C1F8AC014FF0020004F040
:104010003DFA01204A4908604FF0020004F036FAE8
:1040200000204649C1F8A80110BD10B50020444940
:1040300008604548006820F470404349086008461D
:10404000006840F4405008604FF001003B49C1F85F
:10405000AC014FF0020004F019FA01203849086061
:104060004FF0020004F012FA00203449C1F8A80110
:1040700010BD70B504463448006820F470403249E1
:1040800008600846006840F44050086000202C4951
:10409000086005461AE0E009274908604FEA4460D5
:1040A0004FEA10644FF0020004F0F0F901202349B8
:1040B000C1F8A801022004F0E9F9002020490860B5
:1040C0004FF0020004F0E2F9681CC5B2082DE2DBF3
:1040D00070BD70B5054600241B48006820F4704090
:1040E000194908600846006840F40040086000264E
:1040F00016E00020124908604FF0020004F0C6F9F3
:1041000001200E49C1F8A8016006040E0D480068A0
:1041100008B1601CC4B2012004F0B8F9701CC6B22A
:10412000082EE6DB15B9FFF780FF01E0FFF759FF26
:10413000204670BD000C0140AC812142008021422C
:10414000A88121422C812142040C014010B5FFF7C7
:10415000BDFE10BD70B504460026FFF7D0FEA020BE
:10416000FFF787FFFFF712FF2546E11704EB116108
:10417000C1F30720FFF77DFFFFF708FFE11704EB0E
:1041800011610912A4EB0121C8B2FFF772FFFFF71A
:10419000FDFEFFF7B4FEA120FFF76BFFFFF7F6FE71
:1041A0000020FFF796FF0646FFF7CDFE304670BDB4
:1041B00070B504460E46FFF7A2FEA020FFF759FF98
:1041C000FFF7E4FE2012FFF754FFFFF7DFFE25465E
:1041D000E11704EB11610912A4EB0121C8B2FFF74A
:1041E00048FFFFF7D3FE3046FFF743FFFFF7CEFE51
:1041F000FFF7A9FE0A2004F08AF970BD2DE9F0410D
:1042000005460E461746002409E0E20026FA02F2AF
:10421000D1B22A1990B2FFF7CBFF601CC4B2BC42E6
:10422000F3DBBDE8F08170B506460C46154608E0A4
:104230003046721C96B2FFF78DFF04F8010B681E22
:1042400085B2002DF4D170BD38B500241EE004EB1A
:104250008401652202EB410002226946FFF7E3FF79
:104260009DF80000C449497A88420DD19DF80100AB
:10427000C149097B884207D104EB8401642202EB27
:104280004100FFF767FF38BD601CC4B2C82CDEDBFD
:104290000020F8E71CB50446611E01EB8101642291
:1042A00002EB410188B205226946FFF7BCFF9DF889
:1042B000000008B1012000E000209DF80010FF2957
:1042C00001D0012100E0002108421FD09DF800002C
:1042D000A04219D19DF8010008B9012000E000209A
:1042E0009DF80110FF2901D1012100E000210843C0
:1042F00008D09DF80300A14908709DF8040048709B
:1043000002201CBD0120FCE70020FAE70320F8E7AB
:104310001CB50446611E01EB810140F6C41202EB9C
:10432000410188B208226946FFF77DFF9DF8000031
:10433000A04230D19DF801008F49497A884228D1A6
:104340009DF802008C49897A884222D19DF80300A9
:104350008949C97A88421CD19DF804008649097BA5
:10436000884216D19DF80700112808D19DF8050054
:10437000824908709DF80600487001201CBD9DF818
:104380000700112805D000207C49087048700220E1
:10439000F4E70320F2E70420F0E770B505460C4689
:1043A000164606E021782846FFF702FF681C85B212
:1043B000641C3000A6F101018EB2F3D170BD10B5BE
:1043C0006F48007802281AD16E490978491E01EB1E
:1043D0008101642202EB410188B205226A49FFF79C
:1043E000DCFF68490978491E01EB810140F6C412DF
:1043F00002EB410188B208226449FFF7CEFF604812
:10440000007805280CD15F490978491E01EB81012C
:10441000642202EB410188B205225B49FFF7BDFF30
:1044200010BD10B55648007802281DD155490978AD
:10443000491E01EB8101642202EB410188B20A228C
:10444000FF21FFF7DBFE4F490978491E01EB81018F
:1044500040F6C41202EB410188B20A22FF21FFF7A5
:10446000CDFE0020474908704548007805280FD147
:1044700044490978491E01EB8101642202EB4101A4
:1044800088B20A22FF21FFF7B9FE00203D490870DB
:1044900010BD70B50546691E01EB8101642202EB77
:1044A000410188B2FFF756FE0446FF2C01D00120DF
:1044B00000E000200CB1012100E00021084201D001
:1044C000012070BD691E01EB810140F6C41202EBB0
:1044D000410188B2FFF73EFE0446FF2C01D00120C7
:1044E00000E000200CB1012100E00021084201D0D1
:1044F0000120E6E70020E4E710B5002408E0C4EB63
:104500000421643188B2FF221146FFF777FE641C54
:10451000112CF4DD10BD2DE9F04107460C460026B4
:10452000002509E036023919491B491E88B2FFF7F8
:1045300011FE0644681CC5B2A542F3DB3046BDE857
:10454000F08110B543F6FF70FFF704FE0446552CCA
:1045500001D1002010BD552143F6FF70FFF728FE62
:1045600043F6FF70FFF7F6FD0446552C01D10020FD
:10457000F0E70120EEE70000C81600206B000020E5
:104580000A0000206D000020770000206F0000204E
:10459000F0B593B005460C4601AF0321222000F090
:1045A0004BFD0821092000F075FD07210F2000F0C8
:1045B00043FD0321112000F0BFFD042000F051FE57
:1045C0001E208DF80400012002908DF80C50384612
:1045D00001F08CF9064626B90298102801D06FF038
:1045E0000A069DF80C0020709DF80D00607070B2F6
:1045F00013B0F0BD2DE9F04F95B081464FF0000BA0
:10460000002400201390149001A8009028211A2063
:1046100000F012FD0821092000F03CFD03212220BA
:1046200000F00AFD042000F01CFE00BF2046E11748
:1046300004EB5171C910A4EBC101CFB26FB1E11706
:1046400004EB5171C910491C01F0FF0A07EB071078
:10465000C1B20F2000F0F0FC05E02046E11704EBAA
:104660005171C1F3C70A1E208DF8040093208DF804
:104670000C002046E11704EB5171C910202202EB17
:10468000011107F00F021144CAB28DF80D20002568
:1046900006E013A8425D03A8A91C4254681CC5B2D9
:1046A0005545F6DB0AF102000290009801F01EF970
:1046B00006462046E11704EB5171C91013AA12F8FF
:1046C000018016F1180028D100250CE003A96A1C0E
:1046D000895C2046E21704EB527205EBE20213AB51
:1046E0009954681CC5B2E11704EB5171C910C1F1AE
:1046F0000501A942EADCE11704EB5171C91013AAC4
:10470000515C41EA08012046E21704EB5272D210D4
:1047100013AB99549DF80C4021E006BB00250BE03B
:104720000298C5EBD000401E03A9085CC5F1040146
:1047300013AA5054681CC5B20298B5EBD00FEFD342
:10474000E11704EB5171C91013AA515C41EA080149
:104750002046E21704EB5272D21013AB995416F1B3
:1047600018003FF463AF9EB9002509E013A8405D2F
:1047700009F8050013A8405D80EA0B0B681CC5B260
:10478000042DF3DB13A8405D584501D06FF07C0683
:1047900020211A2000F07EFC304615B0BDE8F08FD5
:1047A0002DE9F04393B006460F464FF000080DF197
:1047B00004090F21222000F03FFC0821092000F00D
:1047C00069FC042000F04DFD1E208DF80400072038
:1047D000029093208DF80C0070218DF80D100024AC
:1047E00008E0305D80EA0808325D03A8A11C42544D
:1047F000601CC4B2042CF4DB8DF81280484601F032
:1048000075F8054645B90298082802D06FF00A05E8
:1048100002E09DF80C00387068B213B0BDE8F08378
:1048200070B502460B4600210025002400BF12E0AF
:10483000505C00F00F05505C0411E84345EA00109D
:10484000012606EB41069855E04344EA001003F8C0
:104850001100481CC1B20629EADB002070BD70B50A
:1048600092B004466E46042000F0FBFC19208DF83F
:1048700000000C2001902068029060680390A068FE
:104880000490304601F032F8C5B268B212B070BD83
:104890002DE9F04192B005460E4617460024E84641
:1048A0000F21222000F0C8FB042000F0DAFC0C20CD
:1048B0008DF80000062001908DF808508DF80960F1
:1048C0003968CDF80A10404601F010F80446E4B902
:1048D000052000F0C6FB10F0070F02D06FF00A04AD
:1048E00013E014208DF8000000200190404600F0F5
:1048F000FDFF04464CB9092000F0B3FB10F0080F8F
:1049000001D0002401E06FF00304204612B0BDE89E
:10491000F08110B50121092000F00EFC10BDF0B5AA
:1049200093B004460D4601AFFFF7F3FF042000F0FB
:1049300098FC0F21222000F07FFB1E208DF8040040
:104940000220029030208DF80C008DF80D40384682
:1049500000F0CCFF064656B90298802802D06FF0CE
:104960000A0604E0102203A9284604F09AF930460A
:1049700013B0F0BDF0B593B005460E4601AF05206B
:1049800000F06FFC0721222000F056FB1E208DF85E
:10499000040002200290A0208DF80C008DF80D502C
:1049A000384600F0A3FF0446601C1AD00298042881
:1049B00002D06FF00A0414E09DF80C0000F00F0024
:1049C0008DF80C009DF80C0010B10A2805D102E00A
:1049D0006FF0090404E0002402E06FF0050400BF5A
:1049E00000BF54BB052000F03CFC1E208DF80400E5
:1049F000102002901022314603A804F052F93846E4
:104A000000F074FF0446601C14D09DF80C0000F008
:104A10000F008DF80C009DF80C0010B10A2805D18C
:104A200002E06FF00E0404E0002402E06FF00504E1
:104A300000BF00BF042000F014FC204613B0F0BDFE
:104A40007FB505460C4600208DF800008DF801006A
:104A50008DF802008DF803002078C043C0B28DF8B5
:104A600004006078C043C0B28DF80500A078C04350
:104A7000C0B28DF80600E078C043C0B28DF80700E0
:104A800020788DF8080060788DF80900A0788DF8FE
:104A90000A00E0788DF80B008DF80C50E843C0B2A6
:104AA0008DF80D008DF80E50E843C0B28DF80F0060
:104AB00069462846FFF75EFF0646304604B070BDE3
:104AC0002DE9F04192B006460D461746E84605200E
:104AD00000F0C7FB0F21222000F0AEFA1E208DF857
:104AE0000000022001908DF808608DF809504046C2
:104AF00000F0FCFE0446601C1FD00198042802D080
:104B00006FF00A0419E09DF8080000F00F008DF81E
:104B100008009DF8080020B1012807D00A2808D114
:104B200002E06FF0090407E0002405E06FF07B0469
:104B300002E06FF0050400BF00BFECB9052000F0F3
:104B400090FB1E208DF8000004200190E846386894
:104B50000290404600F0CAFE04463CB90198042881
:104B600002D06FF00A0407E0002405E0601C01D1C8
:104B7000002401E06FF07C047CBB1E208DF8000057
:104B800002200190B0208DF808008DF809504046B1
:104B900000F0ACFE0446601C1FD00198042802D02F
:104BA0006FF00A0419E09DF8080000F00F008DF87E
:104BB00008009DF8080020B1012807D00A2808D174
:104BC00002E06FF0090407E0002405E06FF07B04C9
:104BD00002E06FF0050400BF00BF204612B0BDE840
:104BE000F08170B592B005466E46042000F039FBA6
:104BF0001E208DF8000002200190C2208DF80800D0
:104C00008DF80950304600F071FE0446601C1FD03C
:104C10000198042802D06FF00A0419E09DF80800FA
:104C200000F00F008DF808009DF8080020B1012861
:104C300007D00A2808D102E06FF0090407E0002439
:104C400005E06FF07B0402E06FF0050400BF00BFD9
:104C5000C4B9042000F005FB1E208DF800000420DC
:104C6000019000208DF8080000218DF809108DF8C2
:104C70000A108DF80B10304600F038FE0446601C18
:104C800000D10024204612B070BD70B592B0044629
:104C90006E46052000F0E5FA1E208DF80000022087
:104CA0000190B0208DF808008DF80940304600F0E2
:104CB0001DFE0546681C1FD00198042802D06FF025
:104CC0000A0519E09DF8080000F00F008DF80800B3
:104CD0009DF8080020B1012807D00A2808D102E079
:104CE0006FF0090507E0002505E06FF07B0502E0A5
:104CF0006FF0050500BF00BF284612B070BD30B58B
:104D000093B0002401AD1E208DF804000220029013
:104D100050208DF80C0000218DF80D10284600F071
:104D2000E5FD044624B1601C01D01A3000D10024F6
:104D30000021012000F080F9204613B030BD2DE99C
:104D4000F04192B005460C461646E8460F2000F0AA
:104D500088FA1E208DF8000002200190E0208DF8D6
:104D600008008DF809500020B2490870404600F054
:104D7000BDFD07460198C0F3C7002070402805DC40
:104D8000227802A9304603F08CFF01E06FF07C0727
:104D9000384612B0BDE8F0812DE9FF4F97B0834649
:104DA000994600200090824600270190199890F8BB
:104DB0000080A2200290189800F053FA1BF0F00F28
:104DC00001D0012400E00024C4F13F0040450CDA8A
:104DD000C4F13F00C7B2A8EB070000F0FF089548F8
:104DE000007880F01200C6B205E04746914800788E
:104DF00080F00200C6B28F48007808B9012000E0B8
:104E000000208C4908701E208DF810003819401CB5
:104E1000059046EAC400C0B28DF81800002505E0F0
:104E2000012206A8691C4254681CC5B2A542F7DBE2
:104E300006A9621C88183A46494603F032FF0198D9
:104E40003844C0B2019004A80390039800F04EFDCE
:104E50001690E5E001210598C1EBD000001B402829
:104E600003D96FF07C001690DEE09DF8180010F07A
:104E7000F00F16D101210598C1EBD000001BC0B284
:104E8000009006AA631CD11809EB0A00009A03F0EF
:104E900008FF0098504400F0FF0A199880F800A01D
:104EA000C2E09DF8180000F0F000F02814D11E2098
:104EB0008DF8100001210598C1EBD000001BC0B295
:104EC000009000982044401C059004A8039003988B
:104ED00000F00CFD1690A3E09DF8180000F0F00023
:104EE000A02855D11E208DF81000002505E00022D5
:104EF00006A8691C4254681CC5B2A542F7DB86F0BF
:104F00000106C4F13F00404515DAC4F13F00C7B2C5
:104F1000A8EB070000F0FF084648007880F010007A
:104F20003043C6B24348007808B9012000E00020B1
:104F3000404908700EE0474606F0EF063D4800780D
:104F40003043C6B23B48007808B9012000E0002099
:104F5000384908703819401C0590022040EACB00FF
:104F60003043C0B28DF81800019A09EB020106AA7D
:104F7000631CD0183A4603F094FE01983844C0B23E
:104F8000019004A80390039800F0B0FC169047E04D
:104F90009DF8180000F0F00010283DD1012105987F
:104FA000C1EBD000001BC0B2009006AA631CD11850
:104FB00009EB0A00009A03F074FE0098504400F0D8
:104FC000FF0A1E208DF81000002505E0002206A82B
:104FD000691C4254681CC5B2A542F7DB601C0590F1
:104FE0009DF8180010F0010F04D0029800F0FE00A8
:104FF000029003E0029840F001000290FB2000EADA
:10500000CB00029908438DF8180004A80390039878
:1050100000F06CFC169003E06FF07C00169003E04B
:10502000169800283FF416AF00BF16981BB0BDE8D5
:10503000F08F00007C00002070B505460C46002073
:10504000FE4908604FF07E0000EA4505284600F062
:105050006FFE204600F06CFE0120F949C1F8900176
:1050600070BD70B5044600250020F44908604FF07B
:105070007E0000EA440040F08004204600F058FE24
:10508000002000F055FE05460120ED49C1F89001D1
:10509000284670BD70B505460C4600262846FFF729
:1050A000E0FF064626EA04012846FFF7C5FF70BD6B
:1050B00010B503211120FFF7EDFF002010BD30B522
:1050C000024600200DE003124FF6FF7404EA0020B0
:1050D00014785C40DB4D35F814406040521C4C1E87
:1050E000A1B20029EFDC30BD2DE9F05F074688460C
:1050F00091469A46DDE90A5B0C9CA5202070E81DCC
:105100006070A77084F8038084F8049084F805A088
:10511000A57125B12A465946E01D03F0C2FD61780C
:105120002046FFF7CCFF0646300A6178605460786D
:10513000401C2654BDE8F09F70B505460C4600267D
:105140002846FFF78EFF064646EA04012846FFF789
:1051500073FF70BD10B51120FFF783FF044614F0F4
:10516000030F01D0002010BD03211120FFF7E4FF41
:105170000020F8E710B508210920FFF78BFF482130
:105180001120FFF759FF3F211220FFF755FF05219E
:105190001320FFF751FF2F211420FFF74DFF3F2170
:1051A0001520FFF749FF3F211620FFF745FF00219B
:1051B0001720FFF741FF8B211920FFF73DFF342116
:1051C0001A20FFF739FFCD211B20FFF735FF88217B
:1051D0001C20FFF731FF00211D20FFF72DFF0121CB
:1051E0001E20FFF729FF00211F20FFF725FF0821C0
:1051F0002120FFF721FF2C212220FFF71DFFFF2197
:105200002320FFF719FFFF212420FFF715FF0021BE
:105210002520FFF711FF00212620FFF70DFF0021B9
:105220002720FFF709FF38212920FFF705FF0B2171
:105230002A20FFF701FF00212C20FFF7FDFE0221AD
:105240002B20FFF7F9FE00212E20FFF7F5FE0021AD
:105250002F20FFF7F1FE012003F059F9FFF77AFF45
:1052600010BD10B50446102C75D2DFE804F008110B
:105270001A232C353E475059626B757E8790072163
:105280002A20FFF7D9FE21212C20FFF7D5FE90E040
:1052900007212A20FFF7D0FE41212C20FFF7CCFE6A
:1052A00087E007212A20FFF7C7FE81212C20FFF786
:1052B000C3FE7EE009212A20FFF7BEFE41212C20FB
:1052C000FFF7BAFE75E009212A20FFF7B5FE81211C
:1052D0002C20FFF7B1FE6CE00B212A20FFF7ACFE7B
:1052E00041212C20FFF7A8FE63E00B212A20FFF7C5
:1052F000A3FE81212C20FFF79FFE5AE00D212A20DA
:10530000FFF79AFE41212C20FFF796FE51E00D2178
:105310002A20FFF791FE81212C20FFF78DFE48E027
:105320000F212A20FFF788FE41212C20FFF784FE61
:105330003FE00F212A20FFF77FFE81212C20FFF77D
:105340007BFE36E013212A20FFF776FE11212C2068
:10535000FFF772FE2DE023E013212A20FFF76CFEF9
:1053600021212C20FFF768FE23E013212A20FFF7DC
:1053700063FE41212C20FFF75FFE1AE013212A2053
:10538000FFF75AFE81212C20FFF756FE11E009217C
:105390002A20FFF751FEFF212C20FFF74DFE08E0E9
:1053A00019212A20FFF748FE21462C20FFF744FE52
:1053B00000BF00BF06212B20FFF73EFE10BD10B539
:1053C00008210920FFF766FE00211F20FFF734FEA9
:1053D00040211F20FFF730FE022003F057F8402144
:1053E0001F20FFF757FE4B211120FFF725FE062156
:1053F0001220FFF721FE03211320FFF71DFE2021BD
:105400001420FFF719FE13211520FFF715FE0021C8
:105410001620FFF711FE18211720FFF70DFE73214C
:105420001920FFF709FE19211A20FFF705FEAD210B
:105430001B20FFF701FE88211C2005E0900121427E
:105440000000214280000020FFF7F6FD3E211D20D4
:10545000FFF7F2FD01211E20FFF7EEFD06212120BE
:10546000FFF7EAFD2C212220FFF7E6FDFF21232094
:10547000FFF7E2FDFF212420FFF7DEFD00212520BC
:10548000FFF7DAFD00212620FFF7D6FD00212720B7
:10549000FFF7D2FD3F212920FFF7CEFD07212A206B
:1054A000FFF7CAFD0A212C20FFF7C6FD06212B209D
:1054B000FFF7C2FD02212D20FFF7BEFD00212E20A7
:1054C000FFF7BAFD00212F20FFF7B6FD6A20FFF796
:1054D000C8FE012003F01BF8FFF73CFE10BD10B51D
:1054E00008210920FFF7D6FD00211F20FFF7A4FDAA
:1054F00040211F20FFF7A0FD022002F0C7FF40213E
:105500001F20FFF7C7FD4B211120FFF795FD062156
:105510001220FFF791FD03211320FFF78DFD2021BD
:105520001420FFF789FD13211520FFF785FD0021C9
:105530001620FFF781FD3B211720FFF77DFD73212A
:105540001920FFF779FD19211A20FFF775FDAD210C
:105550001B20FFF771FD88211C20FFF76DFD3E2108
:105560001D20FFF769FD01211E20FFF765FD0621C3
:105570002120FFF761FD2C212220FFF75DFDFF2197
:105580002320FFF759FDFF212420FFF755FD0021BF
:105590002520FFF751FD00212620FFF74DFD0021BA
:1055A0002720FFF749FD1A212920FFF745FD072194
:1055B0002A20FFF741FD0A212C20FFF73DFD06219F
:1055C0002B20FFF739FD02212D20FFF735FD0021AB
:1055D0002E20FFF731FD00212F20FFF72DFD6A203F
:1055E000FFF73FFE012002F092FFFFF7B3FD10BD71
:1055F00010B508210920FFF74DFD00211F20FFF7FE
:105600001BFD40211F20FFF717FD022002F03EFF87
:1056100040211F20FFF73EFD4B211120FFF70CFD1D
:1056200017211220FFF708FD06211320FFF704FDC4
:1056300020211420FFF700FD13211520FFF7FCFCAB
:105640003F211620FFF7F8FC3B211720FFF7F4FC61
:1056500073211920FFF7F0FC19211A20FFF7ECFC49
:10566000AD211B20FFF7E8FC88211C20FFF7E4FC9C
:105670007E211D20FFF7E0FC01211E20FFF7DCFC4E
:1056800006212120FFF7D8FC2C212220FFF7D4FC93
:10569000FF212320FFF7D0FCFF212420FFF7CCFCC3
:1056A00000212520FFF7C8FC00212620FFF7C4FCBD
:1056B00000212720FFF7C0FC3F212920FFF7BCFC79
:1056C00007212A20FFF7B8FC0A212C20FFF7B4FCA1
:1056D00006212B20FFF7B0FC02212D20FFF7ACFCA8
:1056E00000212E20FFF7A8FC00212F20FFF7A4FCAB
:1056F0006A20FFF7B6FD012002F009FFFFF72AFD3F
:1057000010BD10B508210920FFF7C4FC00211F209F
:10571000FFF792FC40211F20FFF78EFC022002F0D1
:10572000B5FE40211F20FFF7B5FC5B211120FFF7DC
:1057300083FC0F211220FFF77FFC3F211320FFF78E
:105740007BFC19211420FFF777FC13211520FFF7AC
:1057500073FC00211620FFF76FFC00211720FFF7D4
:105760006BFC73211920FFF767FC08211A20FFF753
:1057700063FCAD211B20FFF75FFCAA211C20FFF773
:105780005BFC00211D20FFF757FC41211E20FFF785
:1057900053FC06212120FFF74FFC0F212220FFF7A9
:1057A0004BFC63212320FFF747FC63212420FFF7F4
:1057B00043FC00212520FFF73FFC00212620FFF7B6
:1057C0003BFC00212720FFF737FC3F212920FFF772
:1057D00033FC07212A20FFF72FFC0A212C20FFF79A
:1057E0002BFC06212B20FFF727FC02212D20FFF7A1
:1057F00023FC00212E20FFF71FFC00212F20FFF7A4
:105800001BFC6A20FFF72DFD012002F080FEFFF750
:10581000A1FC10BD10B50446412C02D1FFF771FF69
:1058200016E0422C02D1FFF7E3FE11E0722C02D108
:10583000FFF755FE0CE0732C02D1FFF7C0FD07E027
:10584000312C02D1FFF796FC02E04FF0FF3010BD83
:105850000020FCE710B596B0FE480078002843D041
:10586000FD48007800283FD1FA480078FB490870CD
:105870000024FFF71DFC032002F049FE4120FFF742
:10588000C9FF032002F043FEF5495220FEF780FED7
:10589000C4B24CBBF348FEF7ADFEC4B224BBF2A0C9
:1058A00003F036F8EB48007801281DD1E94908706B
:1058B000EB480088ADF81000EA480068CDF8120007
:1058C000ED4804A906220023CDE9002102906122BF
:1058D00041211846FFF708FC0120E8490870FFF74E
:1058E000E7FB022002F013FE16B010BD2DE9F05FB9
:1058F00004464FF00009C846C3462078122832D02B
:105900000DDC072828D005DCB0B1012818D0032809
:105910004AD11AE0082820D00C2845D11EE01928C9
:1059200031D004DC142823D016283DD124E01A28D5
:105930002ED01E2838D130E04FF00008C34636E0A4
:105940004FF011084FF0100B00BF4FF007084FF059
:10595000040B4FF001092AE000BF00BF4FF005081B
:105960004FF0040B23E04FF011084FF0100B1EE036
:105970004FF00408C3461AE04FF006084FF0040B3E
:105980004FF0010913E04FF005084FF0040B0EE053
:105990004FF005084FF0040B09E04FF03D084FF0C1
:1059A000040B4FF0010902E0E920207000BF00BFA6
:1059B000207817307DD000210846FFF73DFB7F217E
:1059C0000620FFF739FB7F210720FFF735FB002179
:1059D0000120FFF731FB01210920FFF7ADFB48F063
:1059E00080010620FFF728FB002606E004F10800EE
:1059F000815D0220FFF720FB761C6068B042F5D87D
:105A000021780120FFF718FB4FF4D16600BF072073
:105A1000FFF727FB0546761E3EB105EA080010F0A9
:105A2000200F02D115EA0B0FF1D06FF07C0A002E87
:105A30005ED005EA080010F0200F59D10A20FFF7C8
:105A400010FB10F0170F23D14FF0000AB9F1000F2F
:105A500061D00420FFF705FB05460520FFF701FB99
:105A600000F0070727B1681E07EBC000606001E087
:105A7000E800606005B90125002606E00220FFF776
:105A8000F0FA04F108018855761CAE42F6D342E0E4
:105A90000A20FFF7E6FA10F0010F3CD06FF0170A6A
:105AA000B9F1000F1FD00420FFF7DBFA05460520EF
:105AB00000E040E0FFF7D5FA00F0070727B1681EC5
:105AC00007EBC000606001E0E800606005B90125F7
:105AD000002606E00220FFF7C4FA04F10801885509
