:020000040800F2
:100000004004002001010008E10300087502000817
:10001000DF030008970100087D06000800000000CB
:10002000000000000000000000000000CD040008F7
:100030009901000800000000E303000861050008C2
:100040001B0100081B0100081B0100081B01000820
:100050001B0100081B0100081B0100081B01000810
:100060001B0100081B0100081B0100081B01000800
:100070001B0100081B0100081B0100081B010008F0
:100080001B0100081B0100081B0100081B010008E0
:100090001B0100081B0100081B0100081B010008D0
:1000A0001B0100081B0100081B0100081B010008C0
:1000B0001B0100081B0100081B0100081B010008B0
:1000C0001B0100081B0100081B0100081B010008A0
:1000D0001B0100081B0100081B0100081B01000890
:1000E0001B0100081B0100081B010008DFF80CD0F1
:1000F00000F02EF8004800473908000840040020AE
:100100000648804706480047FEE7FEE7FEE7FEE7B1
:10011000FEE7FEE7FEE7FEE7FEE7FEE7650500080F
:10012000ED00000830B50B460146002020220124D6
:1001300009E021FA02F59D4205D303FA02F5491BB5
:1001400004FA02F52844151EA2F10102F1DC30BDCB
:10015000064C074D06E0E06840F0010394E8070014
:1001600098471034AC42F6D3FFF7C4FF680B000881
:10017000880B000810B507E003780C78A34201D083
:10018000002010BD401C491C1300A2F1010292B2D4
:10019000F2D1012010BDFEE77047000038B5C02045
:1001A000ADF8000003208DF802001C20074C8DF8EC
:1001B00003006946204600F00BF84FF44060ADF8AC
:1001C00000006946204600F003F838BD000C0140ED
:1001D0002DE9F041CA780025D30602F00F0201D5BF
:1001E0008B781A430B884FF00F084FF0010C13F077
:1001F000FF0F1CD0D0F800400E880CFA05F31E400B
:100200009E4210D1AF0008FA07F624EA060602FA69
:1002100007F43443CE78282E02D0482E02D002E0D4
:10022000436100E003616D1C082DE5D304600B8879
:10023000FF2B1DD94468002505F108060CFA06F3CA
:100240000E881E409E420FD1AF0008FA07F624EA3E
:10025000060602FA07F43443CE78282E00D1436113
:10026000CE78482E00D103616D1C082DE4D3446084
:10027000BDE8F081FEE702460020938A128B43EA34
:10028000024323F07F428A4200D1012070470029B7
:10029000018802D041F0010101E021F0010101805B
:1002A00070470029818902D041F0010101E021F06D
:1002B0000101818170470029018802D041F48071D9
:1002C00001E021F48071018070470029018802D08B
:1002D00041F4007101E021F40071018070470022B7
:1002E0000B0F21F07F4101D0143001E0090C1830D0
:1002F0000068084200D001221046704770B50446DD
:10030000808886B00D4620F03F06684600F092F8DF
:1003100026490298B0FBF1F189B20E43A6802288EB
:1003200022F001022280224B2A689A421CD85200F5
:10033000B0FBF2F080B2042800D20420491C2184D2
:10034000A083208840F00100208021884FF6F530FE
:100350000140A8886A89104308432080A889298918
:100360000843208106B070BDEB88A3F53F46FF3EF1
:1003700005D102EB4202B0FBF2F080B208E002EBE2
:10038000C20303EB0212B0FBF2F080B240F48040F3
:10039000020501D140F001004FF4967251434FF431
:1003A0007A72B1FBF2F140F40040C7E740420F001F
:1003B000A0860100828901F0FE0122F0FE021143B5
:1003C00081817047008AC0B2704712B141F00101CB
:1003D00001E001F0FE010182704701827047FEE7F3
:1003E00070477047044A0029D16901D0014300E0F9
:1003F0008143D1617047000000100240044A002987
:10040000916901D0014300E0814391617047000090
:100410000010024010B500F0A5F8012144F20D00D3
:10042000FFF7ECFFBDE8104001214FF4C000FFF7DB
:10043000D9BF0000214910B54B68214A13F00C03C5
:1004400003D0042B01D0082B26D002604A681D4B34
:1004500002F0F00212099C5C0268E24042604C68C3
:1004600004F4E064240A1C5D22FA04F484604C68FD
:1004700004F460544FEAD4241B5D22FA03F2C260F4
:100480004968104B01F440414FEA91311B1F595C00
:10049000B2FBF1F1016110BD4A684B68022402F41D
:1004A000701204EB924213F4803F02D04B689B031E
:1004B00001D5054B00E0024B5A43C6E7001002404D
:1004C00000127A001C00002000093D007047000067
:1004D00021480021026842F4803202604FF4A06398
:1004E0000268491C12F4003F01D19942F8D1016819
:1004F000890330D519490A6842F010020A600A6877
:1005000022F003020A600A6842F002020A604168AF
:10051000416041684160416841F4806141604168E7
:1005200021F47C114160416841F4E81141600168A7
:1005300041F08071016001688901FCD5416821F0BA
:1005400003014160416841F0020141604168C1F32B
:1005500081010229FAD170470010024000200240B8
:10056000704700000C48016841F0010101604168DA
:100570000A4A114041600168094A1140016001685E
:1005800021F480210160416821F4FE0141604FF4B3
:100590001F018160FFF79CBF001002400000FFF8C0
:1005A000FFFFF6FE0029818902D041F4005101E0ED
:1005B00021F40051818170470246002012880A42CE
:1005C00000D001207047000030B50446008A85B095
:1005D0000D464CF6FF710840E98801432182A1894C
:1005E0004EF6F3100140A8882A8910436A890A430D
:1005F0001043A081A08A4FF6FF410840A98901431A
:10060000A1826846FFF716FF1B48844201D1039878
:1006100000E00298A1890904002900EBC00101EB68
:100620000010296802DA4FEA410101E04FEA810136
:10063000B0FBF1F06422B0FBF2F14FEA01114FEA96
:1006400011136FF018056B43A58900EB83004FF081
:1006500032032D0406D503EBC000B0FBF2F000F02E
:10066000070005E003EB0010B0FBF2F000F00F0014
:100670000843208105B030BD00380140FEE700008E
:100680000FB4054B10B503A9044A029800F018F8FE
:1006900010BC5DF814FB00001508000814000020D1
:1006A00002E008C8121F08C1002AFAD1704770473B
:1006B000002001E001C1121F002AFBD17047000099
:1006C0002DE9FF4F89B004469B46002597E0252879
:1006D00032D10027641C4E4AB84601212378203BC2
:1006E00001FA03F0104202D00743641CF6E72078B9
:1006F0002E2819D114F8010F47F004072A280ED02C
:100700006FF02F022078A0F1300109290CD808EBF6
:10071000880102EB410100EB0108641CF2E70A9832
:10072000641C50F8048B0A902078F0B3642808D039
:10073000692806D075281FD05A460B9990476D1C22
:100740005CE00A994FF00A0901C90A91002804DA0D
:10075000C0F100004FF02D0102E0390504D52B2136
:100760008DF82010012104E0F90701D02021F7E7DE
:1007700000218A4608AE0CE00A994FF00A0901C927
:100780000A91F5E74946FFF7CDFC01F1300106F883
:10079000011D0028F6D1ADEB060000F12009780715
:1007A00001D44FF00108002000E02CE041464A4609
:1007B000C84500DD881A8046002706E008A85A468A
:1007C000C05D0B9990476D1C7F1C5745F6DB04E01C
:1007D00030205A460B9990476D1CB8F10001A8F1E2
:1007E0000108F5DC05E016F8010B5A460B99904715
:1007F0006D1CB9F10001A9F10109F4DC641C207839
:1008000000287FF464AF0DB02846BDE8F08F0000EB
:100810000928010070B507490446C0B20880A1F15B
:10082000040580212846FFF7C7FE0028F9D020469E
:1008300070BD000004380140FFF7ECFD00F05AF9EC
:10084000FFF7ACFC894E01213046FFF720FD884DB3
:1008500001212846FFF71BFD864C4FF0000B4BF69D
:10086000FF70A4F804B0E08030272781281560814C
:100870000001A0818048206021463046FFF73EFD00
:10088000278121462846FFF739FD22212846FFF718
:1008900091FD01212846FFF704FD01213046FFF7B5
:1008A0000AFD764F344639462046FFF7E4FC00281F
:1008B000F9D0002230212046FFF787FD704EDFF887
:1008C000C4A14FF0021806F1020941462846FFF77D
:1008D000D2FC0028F9D031462046FFF7CCFC002896
:1008E000F9D0A0465446AA46664D0C3560780428D7
:1008F0001CD264492078091D095C401C20704046C8
:10090000FFF76BFD60495046FFF7B5FC0028F9D0B2
:100910005046FFF757FD61786854491C617049469D
:100920004046FFF7A8FC0028F9D0DFE701214F4837
:10093000FFF7CBFCD04610214046FFF79CFC002877
:10094000F9D052494046FFF7CAFC01214046FFF763
:100950009EFC4C4904220C31A1F10800FFF70AFC6F
:10096000A070DFF808A184F801B084F800B001217C
:100970005046FFF7A0FCBB46574659463846FFF79E
:100980007AFC0028F9D000222221BA463846FFF727
:100990001CFDDFF8F0B047460BF1100B4FF40201DD
:1009A0003846FFF768FC0028F8D0B0465646414666
:1009B0003046FFF760FC0028F9D0DFF8D4A0B0463D
:1009C0005E46607804281DD22E4920780831095CE3
:1009D000401C20704046FFF700FD51463846FFF7A7
:1009E0004AFC0028F9D03846FFF7ECFC0146607855
:1009F0003154401C607049464046FFF73CFC0028DB
:100A0000F9D0DEE701214046FFF75FFC10213846B0
:100A1000FFF731FC0028F9D01C493846FFF75FFC8E
:100A200001213846FFF733FC164904221031A1F1A9
:100A30000800FFF79FFBE07016A0FFF721FE0024DF
:100A400021462A5D1DA0FFF71BFE641C042CF7DB6A
:100A500010A0FFF715FE00242146325D1EA0FFF70F
:100A60000FFE641C042CF7DBFEE70000005400407E
:100A7000005800402C000020400D0300010003003E
:100A8000820007000000002040000200100000105B
:100A9000400082004932433220BDD3CADC49324390
:100AA00031BBBAB3E5C7F8B5C4CAFDBEDDCFD4CA01
:100AB000BEC8E7CFC2A3BA0A0D00000049324332D4
:100AC0005F427566666572315F52785B25645D20B2
:100AD0003D202569200A0D00493243325F42756688
:100AE000666572325F52785B25645D203D20256922
:100AF000200A0D0010B586B04FF41650009000206B
:100B0000ADF80400ADF80600ADF80800ADF80C0033
:100B10000C20ADF80A0018208DF813004FF4007077
:100B2000ADF8100003200E4C8DF8120004A92046E9
:100B3000FFF74EFB04208DF813000002ADF8100003
:100B400004A92046FFF744FB064C69462046FFF700
:100B50003BFD01212046FFF725FD06B010BD00003A
:100B60000008014000380140880B00080000002008
:100B70002C000000A0060008B40B00082C00002088
:100B800014040000B0060008000000000102030485
:100B90000509080800000000000000000000000037
:100BA000020406080000000001020304010203041D
:040BB0000607080923
:04000005080000ED02
:00000001FF
